:100000000C9417070C945E070C945E070C94FC1D6F
:100010000C945E070C945E070C945E070C945E07CC
:100020000C945E070C945E070C9413260C944F25D9
:100030000C9495280C945E070C945E070C945E0754
:100040000C945E070C945E070C945E070C945E079C
:100050000C945E070C9423280C945E070C945E07A6
:100060000C945E070C945E070C945E070C945E077C
:100070000C945E070C945E070C945E070C945E076C
:100080000C945E070C945E070C945E070C945E075C
:100090000C948C1E0C945E070C945E070C945E0707
:1000A0000C945E070C945E070C945E07250B270BDF
:1000B000320B290B2B0B2D0B2F0B310B340B360B6B
:1000C000380B430B3A0B3C0B3E0B400B420B450BE2
:1000D000850C850CBF0CBF0CD20E030DD20ED20EB8
:1000E000450DD20E320E320E3F0E3F0E3F0E3F0E2A
:1000F0003F0E3F0E3F0E3F0E3F0E3F0E3F0E3F0E98
:100100003F0E3F0E3F0E3F0E500E7A0E7F0E860EB4
:100110009D0E5E238523272585232725CD23F023C8
:100120002725EB24FE24032B032B162B162B0C2B3D
:10013000162B162B162B032B032B112B162B162BE2
:10014000112B07634236B79BD8A71A39685618AEE9
:10015000BAAB558C1D3CB7CC5763BD6DEDFD753EFC
:10016000F6177231BF000000803F05A84CCDB2D415
:100170004EB93836A9020C50B9918688083CA6AA17
:10018000AA2ABE000000803F29001E001F00200098
:100190002100220000002B0014001A0007000900B3
:1001A0000A000000E00004001200080018000C0023
:1001B000000011501D001B00060019000500125020
:1001C000E20000000000E30091002C0013504C00FE
:1001D0002700260025002400230000002A00130029
:1001E0001500170016001C000000280033000F0047
:1001F0000E000D000B000000115037008700380082
:100200001000110012500000055200520000910031
:100210002C00145029021E001F0020002100220083
:1002200000002B0214021A02070209020A0200004F
:10023000E00204621202080218020C02000001002F
:100240001D021B020602190205020000E202000064
:100250000000E3020000000000004C02270026001E
:1002600025002400230000002A02130215021702B1
:1002700016021C020000280200000F020E020D02EE
:100280000B0200000100000000000000100211023B
:10029000000000000000000000000000000000005E
:1002A0003A003B003C003D003E003F000000005C87
:1002B0000000000000000000C25C0000DE5CC35CC7
:1002C000CB5CC95CC55CC75C0000135CC45CCC5CE7
:1002D000CA5CC65CC85C01000A5C0000000000004B
:1002E00000000000010045004400430042004100BE
:1002F000400000000000F900F500F40000000000DC
:1003000000000000FA00F300F000F100F20000002D
:10031000000000004F00520051005000010000009A
:100320000000000000000000000000003A003B0058
:100330003C003D003E003F000000005C000000006B
:1003400000000000C25C0000DE5CC35CCB5CC95CEA
:10035000C55CC75C0000135CC45CCC5CCA5CC65C5A
:10036000C85C00000A5C0000000000000000000003
:1003700001004500440043004200410040000000ED
:10038000000000004D004A000000000000000000D6
:1003900000004F005200510050000000000000001B
:1003A000000000000000000000000000000000004D
:1003B000000000000000000035001E001F002000AB
:1003C0002100220000002B001E0238021F0224021E
:1003D00020020000E0002D00330225022602340234
:1003E000000000002D022F003000320022024901DF
:1003F000E20000000000E300F45C2C0049024C0025
:100400002700260025002400230000002A00000009
:1004100034002E008902230200002800000034006E
:10042000320230022E02000000003600870237023E
:10043000360221020000000000000000E300F55C2D
:100440002C00010029001E001F00200021002200B6
:1004500000002B0014001A0008001500170000000F
:10046000E00004001600070009000A000000E10097
:100470001D001B000600190005001250E2000000DC
:100480000000E300F45C2C0013504C002700260011
:1004900025002400230000002A00130012000C0095
:1004A00018001C000000280033000F000E000D0093
:1004B0000B000000E5003700870038001000110035
:1004C00012500000010000520000F55C2C00145096
:1004D00002E26003E20002E26003E2007F3F1F6489
:1004E0003214643214783C1E1E140A050000000009
:1004F00000000000000000000000000000000000FC
:1005000000000000000000000000000000000000EB
:1005100000000000000000000000000000000000DB
:1005200000000000000000000000000000000000CB
:1005300000000000000000000000000000000000BB
:1005400000000000000000000000000000000000AB
:10055000000000000000000000000000000000009B
:10056000000000000000000000000000000000008B
:10057000000000000000000000000000000000007B
:100580000000000000000000000000000001010168
:100590000101010001010101000000000000000054
:1005A0000000000000000100010001010101010143
:1005B000010101010101010101010101010101012B
:1005C0000101010101010100000001010000000022
:1005D000000000000000000000000000000000001B
:1005E0000000000000000001010101000000000007
:1005F000000000002A2B280000000000000000007E
:100600000000000000000029000000002C1E342023
:10061000212224342627252E362D3738271E1F2049
:100620002122232425263333362E37381F0405068E
:100630000708090A0B0C0D0E0F10111213141516D2
:100640001718191A1B1C1D2F3130232D35040506D0
:100650000708090A0B0C0D0E0F10111213141516B2
:100660001718191A1B1C1D2F3130354C00000000C3
:100670000001010101010101010102020202020265
:100680000202020303030303030303040404040438
:1006900004050505050506060606060707070708FB
:1006A0000808080909090A0A0A0A0B0B0B0C0C0CAA
:1006B0000D0D0D0E0E0F0F0F101011111112121340
:1006C000131414151516161717181819191A1A1BBA
:1006D0001C1C1D1D1E1F1F20202122222324252516
:1006E00026272728292A2B2B2C2D2E2F2F3031324D
:1006F00033343536363738393A3B3C3D3E3F40415E
:10070000424344464748494A4B4C4D4F505152533F
:10071000555657585A5B5C5E5F60626364666769F2
:100720006A6C6D6E707173747678797B7C7E808173
:10073000838486888A8B8D8F91929496989A9B9DBC
:100740009FA1A3A5A7A9ABADAFB1B3B5B7B9BBBDC9
:10075000BFC1C4C6C8CACCCFD1D3D6D8DADCDFE19A
:10076000E4E6E8EBEDF0F2F5F7FAFCFF6801F000E3
:10077000B40078005A000000000000003E5B4F5BB0
:100780003E003E6B4F6B3E001C3E7C3E1C00183C06
:100790007E3C18001C577D571C001C5E7F5E1C00B1
:1007A00000183C180000FFE7C3E7FF0000182418FA
:1007B0000000FFE7DBE7FF0030483A060E0026297D
:1007C00079292600407F05050700407F05253F0069
:1007D0005A3CE73C5A007F3E1C1C0800081C1C3E8B
:1007E0007F0014227F2214005F5F005F5F00060914
:1007F0007F017F00006689956A006060606060002C
:1008000094A2FFA2940008047E04080010207E2019
:10081000100008082A1C0800081C2A0808001E10DE
:10082000101010000C1E0C1E0C0030383E3830002A
:10083000060E3E0E060000000000000000005F00F3
:100840000000000700070000147F147F1400242A12
:100850007F2A120023130864620036495620500094
:10086000000807030000001C224100000041221C78
:1008700000002A1C7F1C2A0008083E08080000808F
:1008800070300000080808080800000060600000E0
:100890002010080402003E5149453E0000427F40BE
:1008A00000007249494946002141494D330018145E
:1008B000127F10002745454539003C4A494931001F
:1008C000412111090700364949493600464949295D
:1008D0001E0000001400000000403400000000086A
:1008E00014224100141414141400004122140800AE
:1008F0000201590906003E415D594E007C12111259
:100900007C007F49494936003E41414122007F41F8
:1009100041413E007F49494941007F0909090100E1
:100920003E41415173007F0808087F0000417F412C
:1009300000002040413F01007F08142241007F4019
:10094000404040007F021C027F007F0408107F00AF
:100950003E4141413E007F09090906003E415121C7
:100960005E007F09192946002649494932000301E2
:100970007F0103003F4040403F001F2040201F00F8
:100980003F4038403F0063140814630003047804B8
:1009900003006159494D4300007F41414100020479
:1009A00008102000004141417F00040201020400C0
:1009B00040404040400000030708000020545478A5
:1009C00040007F28444438003844444428003844D8
:1009D00044287F0038545454180000087E0902004F
:1009E00018A4A49C78007F080404780000447D408B
:1009F00000002040403D00007F10284400000041DE
:100A00007F4000007C04780478007C0804047800AF
:100A1000384444443800FC182424180018242418AE
:100A2000FC007C08040408004854545424000404C6
:100A30003F4424003C4040207C001C2040201C00FF
:100A40003C4030403C004428102844004C9090909A
:100A50007C004464544C440000083641000000000F
:100A60007700000000413608000002010204020085
:100A70003C2623263C0003071F7FFFFFFEF8F0C043
:100A800020F8FEFFFE79271F7FFFFFFEF8F0C02051
:100A9000F8FEFFFF7F3F3F7FFFFEF8F0C000000041
:100AA0000000000000000000000000000000000046
:100AB0000000000000000000000000000000000036
:100AC0000000000000000000000000000000000026
:100AD0000000000000000000000000000000000016
:100AE0000000000000000000000000000000000006
:100AF00000000000E0F0F0F0E0ECEEF7F370200012
:100B00007C7C7C7E007E7E7E7F7F7F000080C0E0DC
:100B10007E5B4F5BFEC00000C000DCD7DEDEDED7B0
:100B2000DC00C00000000000000000000000000029
:100B300000000000000000000000C1F3CFBF7FFFF5
:100B4000FFFCFBE7810000000080E3CF3FFFFFFFD9
:100B5000FCFBE7810000000081E7FFFFFFFF3C0096
:100B60000000000000000000000000000000000085
:100B70000000000000000000000000000000000075
:100B80000000000000000000000000000000000065
:100B90000000000000000000000000000000000055
:100BA0000000000000000000000000000000000045
:100BB000000000000F1F3F7F7F7F7F7F3F1E0C00E4
:100BC0001F1F1F3F003F3F3F7F7F7F00307B7F78AD
:100BD00030202030787F3B0003000F7F0F0F0F7F06
:100BE0000F000300000000000000000000000000F3
:100BF00000000000000060707C7F7F7F7F1F060187
:100C0000030F3F7F7F7E7C7C7E7F7F7F1F060107F7
:100C10000F3F7F7F7E7C7C7E7F7F3F0F0300000045
:100C200000000000000000000000000000000000C4
:100C300000000000000000000000000000000000B4
:100C400000000000000000000000000000000000A4
:100C50000000000000000000000000000000000094
:100C60000000000000000000000000000000000084
:100C70000000000000000000000000000000000074
:100C80000000000000000000000000000000000064
:100C90000000000000000000000000000000000054
:100CA0000000000000000000000000000000000044
:100CB00000000000000044564F52414B00436F6C4F
:100CC000656D616B00517765727479004D6F757356
:100CD00065004C4546540052494748540053484922
:100CE00046540059737472700044656661756C7483
:100CF0000044564F52414B00436F6C656D616B0071
:100D0000517765727479005973747270000A4C617E
:100D10007965723A20000A000A0005010902A10162
:100D200085020901A1000509190129051500250100
:100D30009505750181029501750381010501093051
:100D400009311581257F95027508810609381581BD
:100D5000257F950175088106050C0A380215812545
:100D60007F950175088106C0C005010906A101052E
:100D70000719E029E71500250195087501810295FD
:100D8000017508810105081901290595057501916D
:100D9000029501750391010507190029FF15002629
:100DA000FF00950675088100C009023B00020100A2
:100DB000A0C809040000010301010009211101007C
:100DC000012240000705810308000A09040100010F
:100DD00003000000092111010001224F00070582D4
:100DE0000320000A1201100100000008EDFE60302F
:100DF0000100010203010403300000001603480053
:100E000065006C00690078002000420065007400F5
:100E10006100000014035900750073006800610050
:100E20006B006F0062006F000000040309041124CE
:100E30001FBECFEFDAE0DEBFCDBF04B603FE27C092
:100E400080915E0390915F03A0916003B091610374
:100E50008730904BA740B04BD1F410925E031092B4
:100E60005F03109260031092610314BE84B7877F02
:100E700084BF0FB6F894A895809160008861809334
:100E80006000109260000FBEE0E0F8E3099511E009
:100E9000A0E0B1E0E4E0FAE602C005900D92A63EC3
:100EA000B107D9F723E0A6EEB1E001C01D92AE353F
:100EB000B207E1F70E945F100C9400350C9400001B
:100EC0008F929F92AF92BF92CF92DF92EF92FF925A
:100ED0000F931F93CF93DF9300D000D01F92CDB715
:100EE000DEB7FC010081D18083819481892B39F0A8
:100EF0001FEFD11206C091E00F3F19F403C091E03B
:100F000001C090E090FD81C77F0185E0DE01119670
:100F100001900D928A95E1F7F701228189819A81EA
:100F2000222349F00E946829182F682F89819A810D
:100F30000E94E12903C00E94B529182F26E4129FC0
:100F4000F001112437E0D39EE00DF11D1124E00FD4
:100F5000F11DEE0FFF1FE857FE4F0591149181E040
:100F600080930001063F9CE5190709F4BFC0B8F45F
:100F7000003FFCE51F0709F476C030F4033C3CE574
:100F8000130709F47AC07AC4043F8CE5180709F402
:100F900089C0053F9CE5190709F493C06FC4093F58
:100FA000ECE51E0709F44BC048F4073F2CE5120797
:100FB00071F0083F3CE5130791F060C40A3F9CE5DF
:100FC000190779F10B3FECE51E07C9F057C4F7018B
:100FD0008281882309F4A4C081E090E04BC0F7012E
:100FE0008281882331F082E090E00E947B1B81E0C7
:100FF00031C081E090E00E947B1B81E00FC0F701CF
:101000008281882331F084E090E00E947B1B82E0A3
:1010100021C081E090E00E947B1B82E00E94162AA2
:101020007FC0F7019281992341F09091E6019111DF
:1010300002C08093E60184E00DC084E00FC0F70198
:101040009281992351F09091E601911102C0809311
:10105000E60183E00E94542A63C083E00E94162ABE
:101060001092E6015DC0F7018281882309F458C01F
:1010700080E290E00E947B1B53C0F70182818823AD
:1010800009F44EC0809158020E94AB180E94B81813
:101090008091900286958F7390E09093590280938F
:1010A00058023EC0F7018281882349F08091650291
:1010B00082FD02C081E90EC086ED94E010C081E996
:1010C00012C0F7018281882369F08091650282FD58
:1010D00004C080E90E943F2D23C080ED94E00E946F
:1010E000261B1EC080E90E94002D1AC0F7018281D4
:1010F000882309F4C3C30E94C318809190028160C1
:101100008093900286958F730E94AB188091900215
:1011100086958F7390E09093590280935802AEC3E6
:1011200080E0882309F471C60C3CFCE51F0709F434
:10113000CEC1E8F5F7018281043CFCE51F0709F404
:1011400008C1F8F405313CE5130778F402309CE55A
:10115000190708F058C20115ECE51E0709F467C02D
:1011600001301C4509F484C083C3023C2CE51207FE
:1011700009F49DC008F0D3C006311C4509F43EC3F4
:1011800077C3083CECE51E0709F462C140F4063C55
:101190002CE5120709F40AC108F4F5C029C10A3C7C
:1011A0009CE5190709F46FC108F45FC188C1043DCB
:1011B000FCE51F0709F40DC2C0F4F7018281003D70
:1011C000FCE51F0709F4DFC140F40E3C3CE51307C2
:1011D00009F4C3C108F4AAC1CBC1023DECE51E0766
:1011E00009F4E7C108F4DAC1EFC1093D2CE51207A3
:1011F00009F4D9C260F4073D8CE5180709F469C207
:1012000008F08AC2053D1C4509F4FFC531C3F7014A
:1012100082810D3DFCE51F0709F4EEC10E3D2CE572
:10122000120779F10C3D1C4509F022C3DFC1882368
:1012300009F4EBC51092C9020E94E22C8FEF94E3EF
:10124000ECE081509040E040E1F700C0000087E70B
:1012500097E790930108809300089AE088E10FB621
:10126000F894A895809360000FBE90936000FFCF24
:10127000882309F4CAC580917F02816080937F0230
:10128000C4C5882309F4C1C50F900F900F900F902B
:101290000F90DF91CF911F910F91FF90EF90DF9012
:1012A000CF90BF90AF909F908F900C94E3288823AD
:1012B00009F4ABC58091900280FF2BC08E7F809394
:1012C00090026091900270919102809192029091AF
:1012D00093020E94851710929602FFEF00E712E03A
:1012E000F15000401040E1F700C000000F900F9057
:1012F0000F900F900F90DF91CF911F910F91FF9062
:10130000EF90DF90CF90BF90AF909F908F900C9414
:10131000661581608093900286958F730BC1882338
:1013200009F473C58091C9028272D1F00F900F90B9
:101330000F900F900F90DF91CF911F910F91FF9021
:10134000EF90DF90CF90BF90AF909F908F900C94D4
:10135000AE18882309F459C58091C902827231F30D
:101360000F900F900F900F900F90DF91CF911F91E2
:101370000F91FF90EF90DF90CF90BF90AF909F9034
:101380008F900C94B818882309F43FC520919002DF
:10139000221F2227221F30919102432F440F842FB6
:1013A000822B37FB992790F90A9618C0882309F4F5
:1013B0002CC520919002221F2227221F30919102DA
:1013C000432F440F842F822B37FB992790F98A30C3
:1013D00091051CF4825A9E4F05C00A9768E671E099
:1013E0000E94B23121E040919302609192021DC0AF
:1013F000882309F40AC560919202862F90E08F3EFF
:10140000910514F46F5E01C06FEF80919002881F08
:101410008827881F90919102392F330F97FB9927C6
:1014200090F921E040919302832B0F900F900F9041
:101430000F900F90DF91CF911F910F91FF90EF9040
:10144000DF90CF90BF90AF909F908F900C949717A4
:10145000882309F4DAC460919202862F90E04197C4
:1014600014F06151D2CF60E0D0CF882309F4CDC40D
:1014700040919302842F90E08F3E910514F44F5ECB
:101480000EC04FEF0CC0882309F4BFC440919302F3
:10149000842F90E0419714F0415101C040E08091C9
:1014A0009002881F8827881F90919102392F330F4F
:1014B00097FB992790F921E060919202B5CF88239C
:1014C00009F4A3C48091940290E001960DC0F70145
:1014D0008281882309F499C48091940290E0019755
:1014E00097FF02C080E090E08430910514F083E023
:1014F00090E08093940260919002709191028091AB
:101500009202909193020F900F900F900F900F9076
:10151000DF91CF911F910F91FF90EF90DF90CF90CF
:10152000BF90AF909F908F900C948517882309F4FB
:101530006CC481E00F900F900F900F900F90DF918F
:10154000CF911F910F91FF90EF90DF90CF90BF90C0
:10155000AF909F908F900C94AB18882309F455C4DA
:101560000E9446178250833008F4FACE82E0E2CF20
:10157000882309F44AC40E9446178650823008F432
:10158000EFCE86E0D7CF882309F43FC40E944617E8
:101590008950853008F4E4CE89E0CCCF882309F463
:1015A00034C40E9446178F50853008F4D9CE8FE09E
:1015B000C1CF882309F429C40E944617855182307F
:1015C00008F4CECE85E1B6CF882309F41EC488E1A5
:1015D000B1CFF7018281882309F417C40E9446170E
:1015E0008951893008F4BCCE89E1A4CF882309F45D
:1015F0000CC41092FD0109C4882309F406C482E0DA
:101600008093FD0102C4882309F43AC10E94D828BE
:10161000811102C00E94E32884E090E00E940D2E18
:1016200090E09093660280936502F801E350FC45D8
:10163000E231F10530F4EA5AFF4F809165020C94D3
:10164000C63180916502816027C0826025C08460B8
:1016500023C0806121C080621FC080641DC080687B
:101660001BC08460886018C08E7F16C08D7F14C038
:101670008B7F12C08F7E10C08F7D0EC08F7B0CC001
:101680008F770AC08B7F877F07C087FB222720F9CF
:1016900091E0922790FB87F9809365026091650243
:1016A00084E090E00E94212E1092C9020F900F90CA
:1016B0000F900F900F90DF91CF911F910F91FF909E
:1016C000EF90DF90CF90BF90AF909F908F900C9451
:1016D000E22CF7018281882351F01092EC010E94E4
:1016E00073289093E9018093E80182E022C0809101
:1016F000EC0181110FC08091E8019091E9010E94F5
:1017000049288436910530F486E20E943F2D86E216
:101710000E94002D82E034C0F70182818823E1F02D
:101720001092ED010E9473289093EB018093EA01DF
:1017300080E20F900F900F900F900F90DF91CF915C
:101740001F910F91FF90EF90DF90CF90BF90AF90DF
:101750009F908F900C94F62C8091ED0181110FC019
:101760008091EA019091EB010E944928843691050D
:1017700030F487E20E943F2D87E20E94002D80E234
:101780000F900F900F900F900F90DF91CF911F91BE
:101790000F91FF90EF90DF90CF90BF90AF909F9010
:1017A0008F900C94EB2CF70182818111B9CF80913D
:1017B000ED018111E4CF8091EA019091EB010E944B
:1017C000492884369105D8F680E20E94EB2C88E205
:1017D0000E943F2D88E20F900F900F900F900F9076
:1017E000DF91CF911F910F91FF90EF90DF90CF90FD
:1017F000BF90AF909F908F900C94002D882391F014
:101800008091C9028A7A91E009F490E09093E7010F
:10181000811102C069E201C065E380EE92E00E949E
:10182000BE2813C08091E701811102C089E201C086
:1018300085E3E0EEF2E026EE32E09281891301C00A
:10184000128231962E173F07C1F70F900F900F901D
:101850000F900F90DF91CF911F910F91FF90EF901C
:10186000DF90CF90BF90AF909F908F900C943B29CA
:1018700081E08093EC018093ED0102C081E051CCC6
:10188000F701828100811181882349F0C8010E94FB
:101890006829D82E682FC8010E94E12904C0C80118
:1018A0000E94B529D82EB8018D2D0E94D3188C0125
:1018B000982EF701A580A2949FE0A922B280B110D2
:1018C0001092530380915103877079F0BB2069F027
:1018D00080E2800F883048F082E00E943B2A8091AD
:1018E00051038770CC24C3948111C12CD12ED29482
:1018F0008FE0D8228D2D90E08C30910508F052C2F7
:10190000FC01E859FF4F0C94C631812F807F1F7076
:10191000882311F01295107FBB20B9F0112309F430
:101920002CC280E2800F883010F0911006C08091A8
:10193000C902182B1093C90205C080915303182BBC
:10194000109353030E943B2918C2802F0E94002D40
:10195000112309F427C2005E1095083010F0911091
:1019600006C08091C90218231093C90205C0809156
:1019700053031823109353030E943B2913C2812F52
:10198000807F1F70803211F01295107F992021F016
:10199000F1E09F16E1F027C0BB2081F08091540355
:1019A000AA2051F001E0A01207C0182B181709F463
:1019B000F9C110935403F6C1812B69C1AA2021F00B
:1019C00021E0A21609F4EEC10E9435291AC0BB20FD
:1019D00029F035E03A1508F4E5C10FC084E08A1516
:1019E00008F4E0C10EC0BB2051F0AA2031F0F7018D
:1019F000858180FFC2C18F708583812F48C1A1106E
:101A0000CEC1812F4AC1BB20F9F0053F51F0063FFE
:101A100071F0043FA9F48091EE019091EF01816093
:101A20000BC08091EE019091EF01826005C0809122
:101A3000EE019091EF0184609093EF018093EE01AD
:101A4000802F0E94BB271EC0053F51F0063F71F05A
:101A5000043FA9F48091EE019091EF018E7F0BC0BD
:101A60008091EE019091EF018D7F05C08091EE0194
:101A70009091EF018B7F9093EF018093EE01802F87
:101A80000E94F1260E947F2898C1812F837009F05F
:101A900071C0B11090C1802F829586958770880F94
:101AA000880F402F4F7050E060E070E04A015B010A
:101AB000082E04C0880C991CAA1CBB1C0A94D2F7DF
:101AC00004FF10C04FE050E060E070E004C0440F3D
:101AD000551F661F771F8A95D2F7409550956095E0
:101AE000709503C040E050E0BA01812F869586953D
:101AF0008370009155031091560320915703309144
:101B00005803823099F0E8F4813059F04829592976
:101B10006A297B29CB01BA01602371238223932395
:101B200026C0802A912AA22AB32A1BC048295929F3
:101B30006A297B29CB01BA01602771278227932765
:101B400016C0CB01BA0160237123822393230E9424
:101B5000752A409155035091560360915703709137
:101B60005803CB01BA01682979298A299B290E9447
:101B7000752A21C1BB2019F0812F817001C0869583
:101B8000882309F418C1802F829586958770880F65
:101B9000880F402F4F7050E060E070E04A015B0119
:101BA000082E04C0880C991CAA1CBB1C0A94D2F7EE
:101BB00004FF10C04FE050E060E070E004C0440F4C
:101BC000551F661F771F8A95D2F7409550956095EF
:101BD000709503C040E050E0BA01812F869586954C
:101BE000837000914D0310914E0320914F0330916B
:101BF0005003823099F0E8F4813059F0482959298E
:101C00006A297B29CB01BA016023712382239323A4
:101C100026C0802A912AA22AB32A1BC04829592902
:101C20006A297B29CB01BA01602771278227932774
:101C300016C0CB01BA0160237123822393230E9433
:101C40000C2A40914D0350914E0360914F037091C7
:101C50005003CB01BA01682979298A299B290E945E
:101C60000C2AA9C0802F90E0FC01E05EF109E5316B
:101C7000F10508F07DC0EC58FF4F0C94C6310F7091
:101C8000812F8F71BB2031F00E94542A802F0E9437
:101C9000F62C88C00E94162A802F0E94EB2C82C04E
:101CA000BB2019F1F4E0FA1508F47CC01F7181E043
:101CB00090E0A0E0B0E0AC01BD0104C0440F551FAE
:101CC000661F771F1A95D2F780914D0390914E03AE
:101CD000A0914F03B09150038A019B010827192757
:101CE0002A273B27C901B80121C025E02A1508F49D
:101CF00059C0DCCFBB2029F0812F8F712CC0BB20B5
:101D0000D9F3812F8F710E94162A4CC0BB2089F015
:101D10001F7181E090E0A0E0B0E0BC01CD0104C003
:101D2000660F771F881F991F1A95D2F70E940C2AF9
:101D300039C060E070E0CB01F9CFBB2079F01F71B2
:101D4000812F0E94542A38E0139FC0011124836020
:101D500080935103812F0E94542A24C081E00E9465
:101D60003B2A81E08A15F0F482E00E943B2A1AC0E7
:101D7000BB2039F0AA2009F4BFCF802F0E943F2D4D
:101D800011C0AA2009F4BDCF093349F49FEFE7EE53
:101D9000F3E09150E040F040E1F700C00000802FF8
:101DA0000E94002D08E0D01631F0D01630F086EFFA
:101DB0008D0D823010F40E945A15CC2031F18091A3
:101DC000510380FD22C0F701128285958595859586
:101DD0000E94542AC7010E94600780915103859593
:101DE000859585950F900F900F900F900F90DF9134
:101DF000CF911F910F91FF90EF90DF90CF90BF9008
:101E0000AF909F908F900C94162A0F900F900F9088
:101E10000F900F90DF91CF911F910F91FF90EF9056
:101E2000DF90CF90BF90AF909F908F9008950895CE
:101E300008952091FD01211103C02091D60202C016
:101E4000223011F02430F1F422E02093E9002FEF4A
:101E50003091E800215035FD06C035ED3A95F1F797
:101E600000002111F5CF2091E80025FF0BC040E0D4
:101E700050E066E070E00E944C228091E8008E778E
:101E80008093E8000895CF93DF932091FD01211105
:101E900003C02091D60202C0223011F0243039F55F
:101EA00021E02093E9002FEF3091E800215035FD2B
:101EB00006C035ED3A95F1F700002111F5CF2091DC
:101EC000E80025FF14C0EC0140E050E068E070E05D
:101ED0000E944C228091E8008E778093E80088E091
:101EE000FE01ACECB2E001900D928A95E1F7DF9132
:101EF000CF9108952091E4003091E50095E640915E
:101F0000EC00842F817040FF23C08091E80080FDA9
:101F10001DC08091D602882399F0853099F0809178
:101F2000EB0085FD11C04091E4005091E5002417BD
:101F3000350729F3915011F09A01E1CF84E008951B
:101F400082E0089583E0089581E0089580E0089597
:101F50004091E80042FFDDCF08958091D80287FFCD
:101F600011C08091E80082FD05C08091D6028111E8
:101F7000F8CF11C08091E8008B770BC08091D6021A
:101F8000882349F08091E80080FFF8CF8091E80035
:101F90008E778093E8000895982F973068F5909396
:101FA000E900981739F07091EC002091ED00509104
:101FB000F00003C0242F762F50E021FD02C09F5F68
:101FC000ECCF3091EB003E7F3093EB003091ED0091
:101FD0003D7F3093ED003091EB0031603093EB00AA
:101FE0007093EC002093ED005093F0002091EE00F0
:101FF00027FDE5CF80E008958F708093E90081E0B0
:1020000008952091DE023091DF022617370748F04D
:102010006115710539F42091E8002E772093E800CE
:1020200001C0B901FC0120E06115710579F18091D1
:10203000D6028823F1F18530F1F18091E80083FD2B
:102040003CC08091E80082FD2EC08091E80080FFB6
:10205000EBCF2091F3008091F20090E0922B61157C
:10206000710551F08830910538F421912093F100E9
:10207000615071090196F3CF21E0089709F020E043
:102080008091E8008E778093E800CECF2111CFCFEA
:102090000AC08091D602882361F0853061F080917A
:1020A000E80083FD0AC08091E80082FFF2CF80E063
:1020B000089582E0089583E0089581E00895CF9324
:1020C000DF93CDB7DEB72A970FB6F894DEBF0FBE09
:1020D000CDBF84B7877F84BF0FB6F894A895809151
:1020E0006000886180936000109260000FBE80E8FD
:1020F000809361001092610085B7806885BF85B7C5
:10210000806885BF0E948A1B809301010E948A1B00
:10211000882361F082E091E0909300028093FF01B8
:1021200083E08093FE01529A5A9A11C082E091E0B6
:10213000909300028093FF0183E08093FE01529808
:102140005A9AEA9A809169008F7C8093690078940A
:102150000E9493250E94B2258091E20084608093C2
:10216000E20078948091D6028823A1F01091E900D2
:102170001F709091EC00892F817090FD80E8182BE2
:102180001092E9008091E80083FD0E9478221F7080
:102190001093E90082E084BD93E095BD9AEF97BD6E
:1021A00080936E0080917F028360886080937F02BD
:1021B0000E94971BA1E8B1E041E050E08D91E82F2B
:1021C000E295EF70F0E021A18F70BA0102C0660FB6
:1021D000771F8A95E2F7CB01962F9095922391A3D2
:1021E00092A1892B82A371E0A838B70739F7559AD5
:1021F000209A5D9A289AABE5B2E085E792E0EBE69B
:10220000F2E011921D928E179F07D9F70E948A1B48
:1022100080935A020E94D828811102C00E94E328AC
:102220008091900286958F7390E0909359028093ED
:1022300058020E948A1B182F1092B9008CE08093DC
:10224000B8008EEA0E94101F882309F4AFC060E82E
:1022500085ED0E94E921882309F4A8C06FE188EA8E
:102260000E94E921882309F4A1C060E083ED0E9467
:10227000E921882309F49AC080E40E94101F882372
:1022800009F494C064E18DE80E94E921882309F4EF
:102290008DC060E080E20E94E921882309F486C0B5
:1022A000111114C080EA0E94101F882309F47EC017
:1022B00080EC0E94101F882309F478C062E08AED48
:1022C0000E94E921882309F471C008C081EA0E94B4
:1022D000101F882309F46AC088ECEBCF6FE881E80F
:1022E0000E94E921882309F461C061EF89ED0E9411
:1022F000E921882309F45AC060E48BED0E94E921AA
:10230000882309F453C084EA0E94101F882309F42B
:102310004DC086EA0E94101F882309F447C08EE250
:102320000E94101F882309F441C08FEA0E94101FE9
:102330008823E1F160E081E80E94E9218823B1F17E
:1023400044E550E060E270E081E092E00E94F83104
:1023500081E092E0909356028093550281E0809351
:10236000570263E082E20E941B228823D9F06FE7C4
:1023700081E20E941B228823A9F00E94F62181118C
:1023800011C080E40E94011F81110CC004E010E024
:1023900080E00E94011F1F5F1038D1F70150B9F78C
:1023A000109257020E94EC1E0E94261F0E94D828FD
:1023B000811102C00E94E32882E090E00E940D2E6D
:1023C00080937F0284E090E00E940D2E90E0909335
:1023D00066028093650283E090E00E940D2E682FD4
:1023E00070E080E090E00E94752A80916702811180
:1023F00039C080917F02816080937F020E94D8283B
:10240000811104C00E94E3280E94C31888E090E074
:102410000E94152E60939002709391028093920215
:10242000909393026E7771F40E94C31888E090E055
:102430000E94152E609390027093910280939202F5
:10244000909393020E944F171092960280919002EF
:1024500080FF05C0869560E08F730E945C1881E064
:10246000809367028AE191E0909369028093680209
:10247000BB24BA94EE24E394F12CE8E1CE2ED12CC7
:102480008091D602853009F037C08091D602843021
:1024900011F110926A0280E40FB6F894A895C092E8
:1024A00060000FBE8093600083B7817F846083BF2C
:1024B00083B7816083BF7894889583B78E7F83BF0D
:1024C0000FB6F894A89580916000886180936000B1
:1024D000109260000FBE8091D502882309F4D0CFFE
:1024E0000E941321EBE6F2E08191811167C182E045
:1024F000E537F807C9F7C4CF0E941321E0E8F2E0FE
:10250000ABE6B2E000E010E0702F6D91219126273C
:10251000A9F180E090E030E0A901082E02C05595B5
:1025200047950A94E2F740FF25C089837A83F70133
:1025300002C0EE0FFF1F8A95E2F74F01862F90E051
:102540008E239F2321E0892B09F420E02B830E9416
:1025500073288160782F9D838C8349815A816B8198
:102560008D810E949014F801E058FD4F80818826EB
:10257000808219C001968730910571F60F5F1F4F59
:102580000A30110509F0C0CFBE82BF8218860E94B2
:1025900073288160782F9A8789874E815F8168854B
:1025A0008A850E94901480917C0290917D020E9405
:1025B000492880917B0290917702109178029111C5
:1025C0000BC0111111C12091790221110DC120916F
:1025D0007A02211109C15AC08F3F19F08F5F809391
:1025E0007B02191624F40E94982780937702809129
:1025F000770287FF05C00E94982781958093770214
:10260000111624F40E949827809378028091780212
:1026100087FF05C00E9498278195809378023091AA
:102620007702332379F020917802222359F045EB89
:102630003403C0011124909377022403C0011124B4
:102640009093780280917902181624F40E947627DC
:10265000809379028091790287FF05C00E947627D6
:1026600081958093790280917A02181624F40E9451
:10267000762780937A0280917A0287FF05C00E94B4
:102680007627819580937A020E947F280E945A15AE
:1026900090917E02891721F00E945A1580937E0244
:1026A00080919602882309F4EBCE80919502E09107
:1026B0009002E695EF73E81BE0938C02823059F4A8
:1026C000F0E0E851FB4FE4910E2F10E066E0862E1B
:1026D00067E1962E45C0863059F4F0E0EB51FB4F90
:1026E000E4910E2F10E05FEE852E56E1952E38C056
:1026F000893061F4E695F0E0EE51FB4FE4910E2F46
:1027000010E04FE7842E46E1942E2AC08F3061F40A
:10271000E695F0E0E152FB4FE4910E2F10E032E13C
:10272000832E36E1932E1CC0853159F4F0E0E4523B
:10273000FB4FE4910E2F10E029EB822E25E1922E23
:102740000FC0883139F408EE13E092E8892E95E144
:10275000992E06C000ED17E088EF882E83E1982EB1
:1027600080918D02882389F010928D020E94732837
:10277000980120953095820F931F90938B02809340
:102780008A0210928F0210928E0280918A0290919A
:102790008B020E9449288017910708F471CEE091BE
:1027A0008A02F0918B020E0F1F1F10938B02009371
:1027B0008A028AE892E0F401099562CE80E189BD3F
:1027C00082E189BD09B400FEFDCF8091D8008F7DE4
:1027D0008093D8008091E00082608093E000809137
:1027E000E00081FDFCCF4CCE8F3F09F0F7CE08CF43
:1027F0000895EF92FF920F931F93CF93DF93E90118
:10280000662309F44BC0242F30E0EFEFF0E0E61B25
:10281000F109B901E69F9001E79F300DF69F300D59
:102820001124232F8B01031B11095CE3E52EF12CEE
:10283000B7010E949E31FB01BC01069FC001079FAA
:10284000900D169F900D1124B7010E949E31E23029
:10285000F105B1F040F4309779F0319711F5832FFD
:10286000242F461B21C0E430F105A1F068F0359714
:10287000C1F4842F861B18C0832F262F230F14C06A
:10288000862F830FE42F03C0E42FE61B842F432FF2
:102890002E2F0AC0842F462F430F06C0842F242FCB
:1028A00003C080E020E040E0E42FF0E0E459F94F7D
:1028B0004491E22FF0E0E459F94F9491E82FF0E0D1
:1028C000E459F94FE49149839883EA83DF91CF91EA
:1028D0001F910F91FF90EF9008959091650292FFE4
:1028E0000DC0282F2871283019F4877F846006C016
:1028F000282F2471243011F48B7F886093FF0DC042
:10290000282F2871283119F4877E846106C0282F6A
:102910002471243111F48B7E886194FD877E0895A3
:102920001F93CF93DF93CDB7DEB767970FB6F894B9
:10293000DEBF0FBECDBF4B8B5C8B6D8B7E8B8F8BC9
:1029400086E09E01235F3F4FD901E82F1D92EA9553
:10295000E9F795E0FE017396D90101900D929A95E1
:10296000E1F7F901DE01179601900D928A95E1F7E2
:10297000CE0107960E941A2B81113EC086E0FE010F
:102980003796DE01119601900D928A95E1F7FF814D
:10299000E8856A857B856115710531F0EF3F31F47B
:1029A00081E0FF3F19F403C081E001C080E080FDB9
:1029B00023C02091EE0230E0C9010196877099276B
:1029C00040911F0350E08417950779F1F983EA835A
:1029D0007D836C8396E0929FD001939FB00D11246C
:1029E000A151BD4FFE01319601900D929A95E1F7EC
:1029F0008093EE020E947F2A16E080911F0390913F
:102A0000EE02891709F1189FC001112481519D4FD1
:102A10000E941A2B8823C1F080911F0390E0019639
:102A20008770992780931F03E8CF1092C9020E94F4
:102A3000E22C1092EE0210921F03E8EEF2E086E024
:102A4000DF011D928A95E9F767960FB6F894DEBF0D
:102A50000FBECDBFDF91CF911F9108952091AD02A0
:102A60003091AE022817390771F09093AE0280932F
:102A7000AD02E0916802F0916902309721F0008484
:102A8000F185E02D099408952091AB023091AC02BC
:102A90002817390771F09093AC028093AB02E09154
:102AA0006802F0916902309721F00680F781E02DED
:102AB00009940895E0916802F0916902309721F03D
:102AC0000190F081E02D099480E0089580919002BA
:102AD00080FD0AC0E9E9F2E0118210821282339689
:102AE00092E0EB3AF907C1F7539A62E170E089E9A5
:102AF00092E00E942D2287EC90E00197F1F700C050
:102B000000000895EF92FF920F931F93CF93DF93EE
:102B1000EC018C819D810196817099279D838C8326
:102B200089E9E82E82E0F82E10E008E7212F2695AB
:102B30008C819D81820F911D817099279701409111
:102B4000930260919202FC010E9FC0010F9F900DB5
:102B500011240E94F9131F5FF3E0EF0EF11C1630F1
:102B600029F7DF91CF911F910F91FF90EF900C9477
:102B700066150F931F93CF93DF93C9E9D2E0FE014F
:102B8000118210821282339682E0EB3AF807C1F785
:102B900000E010E080919802082E000C990B0817B5
:102BA0001907ECF080913001082E000C990B80176A
:102BB0009107ACF080919002881F8827881F909120
:102BC0009102592F550F97FB992790F99E0140913B
:102BD000930260919202852B0E94F91303C019821F
:102BE00018821A820F5F1F4F23960630110591F647
:102BF0000E94661580912F0190919802980F9093F2
:102C0000980220913001280F20933001121614F4FD
:102C100095301CF0819580932F01DF91CF911F910A
:102C20000F910895CF92DF92EF92FF920F931F932F
:102C3000CF93DF93FC01828180FF03C0DD24DA940F
:102C400002C0DD24D39409E912E0C0E0D0E0F8012D
:102C500011821082128294E0E92EF12CC12C809115
:102C600097028C0D87FD8A5F082E000C990BC81700
:102C7000D907E9F4809193028E9DA0018F9D500D9C
:102C80001124559547955595479580919002881F39
:102C90008827881F90919102592F550F97FB9927EC
:102CA00090F9980160919202852B0E94F913CD0C46
:102CB000F1E0EF1AF10899F621960D5F1F4FC6302B
:102CC000D10529F60E9466158091970291E0D912EC
:102CD00006C0811102C085E007C0815005C090E0A8
:102CE0000196BE010E94B23180939702DF91CF918D
:102CF0001F910F91FF90EF90DF90CF900895CF92AA
:102D0000DF92EF92FF920F931F93CF93DF93EC012B
:102D100089E9E82E82E0F82E00E010E098E6C92E5E
:102D2000DD24D3948C819D81800F911FB6010E9478
:102D3000B231970140919302609192020E94F9137F
:102D4000045C1F4F83E0E80EF11C083681E0180791
:102D500049F70E9466152A818C819D8120FF05C05C
:102D60000196B8010E94B23107C0181619061CF06E
:102D700087E691E001C001979D838C83DF91CF911D
:102D80001F910F91FF90EF90DF90CF900895CF9318
:102D9000DF9300D01F92CDB7DEB72091900220FFC5
:102DA00018C09E012F5F3F4F0E94F913809190023F
:102DB00080FF0FC08B8199812A81E9E9F2E02183AC
:102DC00090838283339632E0EB3AF307C1F70E9497
:102DD00066150F900F900F90DF91CF910895CF93CC
:102DE000DF93EC01E0E9F2E0438162818C819D8117
:102DF0000E94C7168C819D81019668E671E00E9451
:102E0000B2319D838C83DF91CF910895CF93DF936F
:102E1000EC016C8170E080E090E00E949F2F20E048
:102E200030E04FE753E40E94C22E2BED3FE049E42F
:102E300050E40E94C8300E9435310E943C2F2BE4A0
:102E40003AE34EE25FE30E94552E20EF3BEF48ED60
:102E500052E40E94C8300E946E2F462FE0E9F2E053
:102E60008081881F8827881F90919102292F220F27
:102E700097FB992790F96281822B0E94C7168C815B
:102E800090E001968C83DF91CF910895809190021C
:102E900080FF03C086958F73089580E00895809128
:102EA0009002282F26952F7330E02115310519F453
:102EB0008178826005C02332310524F081788464F2
:102EC0008093900230919002432F441F4427441F67
:102ED00020919102522F550F852F842B27FB992784
:102EE00090F9893641E094077CF068E671E00E9431
:102EF000B23180FB37F93093900286952078822B8F
:102F000090FB87F9809391020895CF92DF92EF9220
:102F1000FF926B017C010E944F17B701A60188E068
:102F200090E0FF90EF90DF90CF900C94332E5F9263
:102F30006F927F928F929F92AF92BF92CF92DF92C9
:102F4000EF92FF920F931F93CF93DF9300D01F92C6
:102F5000CDB7DEB78C01E62EF42E522E8091900272
:102F600080FF97C0E82FE695EF73AE2FB0E0AE5626
:102F7000BE4F9C9190939502282F2E772230C1F45A
:102F80009E012F5F3F4FC8010E94F913809190026C
:102F900080FF5FC08B8199812A81E9E9F2E021837A
:102FA00090838283339632E0EB3AF307C1F74FC048
:102FB000923019F4F09093024CC0963069F4881F57
:102FC0008827881F90919102292F220F022F082B0A
:102FD00097FB112710F93DC0993089F39931C9F554
:102FE000E951E0FD02C021E001C02FEFE695F0E0DD
:102FF000EE0FFF1FE459F84F8591949166E070E061
:103000000E949E3126034001279F900C11245801F5
:1030100088E9A81A8EEFB80A99E9C92E92E0D92E4C
:1030200028E6622E77247394C501B3010E949E3175
:1030300096014F2D6E2D0E94F913A80CB91C33E098
:10304000C30ED11C8BEAC81682E0D80669F70E942D
:1030500066158091900200FB87F980939002902F73
:103060009695809191028078892B10FB87F9809347
:103070009102E0929202F0929302552051F06091F9
:1030800090027091910280919202909193020E941D
:1030900085170F900F900F90DF91CF911F910F9197
:1030A000FF90EF90DF90CF90BF90AF909F908F9068
:1030B0007F906F905F9008959091900290FF4AC02A
:1030C0009178811102C0926007C0833210F094643D
:1030D00003C08F73880F982B90939002662351F052
:1030E000609190027091910280919202909193026E
:1030F0000E9485176091900266956F7370E04BE0B7
:1031000050E084E291E00E94CC31892B19F01092BA
:10311000960209C081E0809396020E9473289093E2
:103120008B0280938A0281E080938D0280919002CD
:10313000881F8827881F90919102392F330F97FBA2
:10314000992790F920E04091930260919202832B9D
:103150000C949717089561E00C945C18809190028C
:1031600086958F73815009F482E261E00C945C18BB
:103170008091900286958F738F5F833208F081E093
:1031800061E00C945C18E0E9F2E083E08083109247
:1031900091028FEF828383831482608171818281A7
:1031A00093810C948517CF93DF9326E4829FC0010F
:1031B0001124FC0137E0739FE00DF11D1124E60F8F
:1031C000F11DEE0FFF1FE857FE4FC591D491CE01C0
:1031D000C238D10549F1B0F4C133D10509F464C056
:1031E00048F4C932D10509F458C0CA32D10509F4EE
:1031F00062C068C0C533D10509F448C0C933D105E0
:1032000099F060C0C33ED10541F138F4C03ED1050C
:1032100091F0C23ED105B1F055C0C63ED10521F1B5
:10322000C73ED10561F14EC02091650220FD09C263
:1032300021FD07C208C22091650220FF04C289E374
:1032400090E001C22091650222FFFDC180916502DC
:1032500084FDA9C183EE90E0F6C18091650282FFF2
:10326000F5CF82EE90E0EFC12091650223FFEBC124
:103270008091650284FD97C187EE90E0E4C1809162
:10328000650283FFF5CF86EE90E0DDC120916502F7
:1032900025FFD9C189E290E0D6C12091650225FFC2
:1032A000D2C185E390E0CFC12091650226FFCBC15A
:1032B0008AE290E0C8C12091650226FFC4C181E383
:1032C00090E0C1C1C11540E5D40708F049C0C1155F
:1032D00020E4D20708F030C1C83ED10520F5C03E39
:1032E000D10508F0B0C1C83AD10570F4C53AD1058E
:1032F00008F0ADC0C130D10509F4A5C108F453C12F
:10330000249708F450C19FC1CF3BD10508F4AAC04F
:10331000C03CD10508F447C1CE01880F991FFC01BC
:10332000E451FB4FFEC0C11530E2D30760F4C11574
:1033300041E0D40708F087C1C03FD10508F433C18C
:10334000CE01906580C1C11580E3D80708F0ECC0BC
:10335000CE019F70FC01EE0FFF1FE459F94FE1C051
:10336000C11525E5D20708F045C0C11534E5D307DE
:1033700008F0FAC0C11542E5D40718F5C11581E57A
:10338000D80708F0DDC0CE0174E0969587957A9550
:10339000E1F7282F23703C2F337081E090E002C0CA
:1033A000880F991F3A95E2F79C68922BEC2FEF70EB
:1033B000E695E69520E2E29FF00111248E2B9F2BEB
:1033C00042C1AE01437055272C2F26952695C11575
:1033D000D34508F0BAC081E090E002C0880F991F81
:1033E0004A95E2F740E2249F90011124822B932B0F
:1033F0009C6829C1C11549E5D40798F4C11588E531
:10340000D80708F0B6C0C11526E5D20708F0CBC032
:103410008C2F0E946D148F7190E0982F88279062F6
:1034200012C1C1153AE5D30708F4A8C0CE019056E1
:103430008115904208F0B7C08D2F8F710E946D14D6
:10344000FE01FF27F0628F719F01382BAAC0C53A99
:10345000D10509F4ABC0C63AD10509F0AAC082E88B
:1034600090E4F1C0C83AD10509F4A6C0C93AD10523
:1034700009F4A5C0CA3AD10509F4A4C0CB3AD105D4
:1034800009F4A3C0CC3AD10509F4A2C0CB3BD105C5
:1034900009F4A1C0CC3BD10509F4A0C0CD3AD105B7
:1034A00009F49FC0C03BD10509F49EC0CE3AD105B6
:1034B00009F49DC0CF3AD10509F49CC0C13BD105A8
:1034C00009F49BC0C23BD10509F49AC0C33BD105A6
:1034D00009F499C0C43BD10509F498C0C53BD10596
:1034E00009F497C0C63BD10509F496C0C73BD10586
:1034F00009F495C0C83BD10509F494C0C93BD10576
:1035000009F493C0CD3BD10509F492C0CE3BD1055F
:1035100009F491C0CA3BD10509F490C080E094E45D
:1035200092C0859194918FC0CE019927D3FF02C09C
:10353000986C89C0906C87C0CE019F70906A83C0E0
:103540009C2F8827816F906A7EC081E090E002C046
:10355000880F991F4A95E2F740E2249F90011124B9
:10356000822B932B9A686FC09C2F8827846F906A58
:103570006AC09C2F8827806F906A65C08C2F8F70DF
:103580000E946D14FE0194E0F695E7959A95E1F797
:10359000EF70F0E0FE2FEE27F06A8F70806E9F01D3
:1035A000282BC90150C080E090E04DC081E890E434
:1035B0004AC083E890E447C082EE94E444C089EEB8
:1035C00094E441C08AEE94E43EC085EB94E43BC0B1
:1035D00086EB94E438C083EB94E435C084EB94E448
:1035E00032C087EB94E42FC08CEC94E42CC08DECBB
:1035F00094E429C083E895E426C08AE895E423C0D2
:1036000082E995E420C084E995E41DC081E296E456
:103610001AC083E296E417C084E296E414C085E2FF
:1036200096E411C086E296E40EC087E296E40BC0F1
:103630008FE694E408C080E794E405C08AE296E44B
:1036400002C080EE90E0DF91CF910895FF920F933A
:103650001F93CF93DF938C01F8012491222309F467
:1036600044C0C8010196213041F48C01FC01C49191
:103670008C2F0E943F2D8C2F33C0223031F48C01CF
:10368000FC0184910E943F2D2DC0233021F48C0138
:10369000FC01849125C030E0F901E451FA4FF49027
:1036A000F901E459FA4FD491F901E451FB4FC49167
:1036B000DD2319F081EE0E943F2DCC2319F086EE18
:1036C0000E943F2D8F2D0E943F2D8F2D0E94002D97
:1036D000CC2319F086EE0E94002DDD2319F081EE37
:1036E0000E94002D0F5F1F4FB7CFDF91CF911F9129
:1036F0000F91FF900895CF93DF93EC01682F83E043
:1037000090E00E94212EBE0180E090E0DF91CF91F9
:103710000C94752AE8EDF0E08081806180838AE175
:103720008A95F1F700C08091D90081700895CF93F8
:10373000DF93A8E8B1E04DE851E061E070E08D91E1
:10374000E82FE295EF70F0E021A18F70EB0102C04D
:10375000CC0FDD1F8A95E2F7CE019C2F9095922326
:1037600091A392A1892B82A34A175B0741F7DF91AE
:10377000CF9108958EE14A9B02C08150E1F74A9BA8
:10378000FECF0895615091E001C0990F6A95EAF764
:1037900020E031E0992361F0492F482319F05A9A2B
:1037A000232701C05A9840E24A95F1F79695F2CF47
:1037B000222311F05A9A01C05A9880E28A95F1F7B3
:1037C0005A980895FC012AE02A95F1F790E020E04C
:1037D00080E031E0261779F040E14A95F1F7880F53
:1037E0004A9B02C08160932700C0000040E14A95D7
:1037F000F1F72F5FEFCF20E12A95F1F729B100C053
:10380000000030E13A95F1F722FB222720F99227B8
:103810002081920F90830895EF92FF920F931F9350
:10382000CF93DF931F92CDB7DEB719828C017C0155
:10383000E60EF11C0E151F0559F00E94BA1B68E038
:10384000CE0101960E94E21BF80181938F01F2CF15
:1038500081E09981911180E00F90DF91CF911F91CC
:103860000F91FF90EF9008955A9880E28A95F1F7B2
:103870005A9A0895FF920F931F93CF93DF93EC0111
:103880008C01060F111DC017D10741F0F9900E945D
:10389000341C68E08F2D0E94C21BF5CFDF91CF91C1
:1038A0001F910F91FF9008950F931F93CF93DF9374
:1038B0002091FE0130E0281739070CF471C09C01FB
:1038C00093E0220F331F9A95E1F7C091FF01D09149
:1038D0000002C20FD31FF894529A5A9845E04A95B5
:1038E000F1F70000982F969595708570890F982FA5
:1038F000937086958695890F8901082B0E94341C48
:1039000084E08A95F1F700C067E0802F0E94C21B17
:1039100040E14A95F1F752985A9A4A9902C000C07C
:10392000FCCF87E090E04A9B0EC0019751F4529A79
:103930005A9AE881F98181E08083789481E090E06F
:1039400031C000C0F0CF6D81662381F08E819F81F0
:103950000E940C1C81110AC0529A5A9AE881F9817E
:1039600082E08083789482E090E01CC00E94BA1BC1
:1039700080E28A95F1F75A98529A40E14A95F1F718
:103980006A81662321F08B819C810E943A1C0E94EF
:10399000341CE881F9811082789480E090E002C0C4
:1039A00084E090E0DF91CF911F910F9108959F9255
:1039B000AF92BF92CF92DF92EF92FF920F931F933D
:1039C000CF93DF9380910101811103C0C5E0D0E066
:1039D00002C0C0E0D0E0AE01455A5D4F7A0188E8F0
:1039E000C82E81E0D82E8A01AA24A394B12C25E008
:1039F000922EFDE8CF16F1E0DF0609F44AC0F60189
:103A000081916F01E82FE295EF70F0E021A18F70B6
:103A1000A50102C0440F551F8A95E2F7CA01922FF3
:103A2000982B91A392A18095892382A350EA5A955D
:103A3000F1F7E1E8F1E020E040E050E03191A32F20
:103A4000A295AF70B0E090968C9190E03F7002C06C
:103A5000959587953A95E2F780FD07C0C501042E3C
:103A600001C0880F0A94EAF702C080E090E0282B9A
:103A70004F5F5F4F4730510509F7F801808182178A
:103A800019F0208390927D010E94971B0F5F1F4FBA
:103A9000B0CF80917D018823B1F0815080937D016A
:103AA000811103C0C559DD4F07C08FE99FE0019721
:103AB000F1F700C0000007C0F70191917F019993D1
:103AC0008F5F8530C9F781E0DF91CF911F910F9112
:103AD000FF90EF90DF90CF90BF90AF909F900895B0
:103AE0000F931F93CF93DF938C010C5A1F4FD80174
:103AF000ED91FC91119760832D913C9111972F5F6F
:103B00003F4F2D933C93281B390B24353105B9F4D5
:103B1000EC01BC016B5E7F4F4FE350E00E94E63149
:103B2000CE01CF96F8019183808345E150E060E2B9
:103B300070E0DF91CF911F910F910C94F831DF91DC
:103B4000CF911F910F9108951F93CF93DF93FC01A5
:103B5000EA5AFF4F21E020836A3099F4EC01329752
:103B6000808191818C1B9D0B65E170E00E94B231D8
:103B7000182F153158F460E2CE010E94701D1F5FAE
:103B8000F8CFDF91CF911F910C94701DDF91CF91F1
:103B90001F9108950F931F93CF93DF938C01EB0137
:103BA000FE016491662329F0C8010E94A41D21969C
:103BB000F7CFDF91CF911F910F910895EF92FF9270
:103BC0000F931F93CF93DF937C01EB01FB010190D7
:103BD0000020E9F78F0101501109C017D10728F41F
:103BE0006991C7010E94A41DF8CFDF91CF911F9169
:103BF0000F91FF90EF9008951F920F920FB60F92C2
:103C000011240F931F932F933F934F935F936F93C1
:103C10007F938F939F93AF93BF93EF93FF93CF9334
:103C2000DF931F92CDB7DEB719820E94BA1B67E0FF
:103C3000CE0101960E94E21B382F369536953695B7
:103C4000932F96959570232F2570920F292F23700F
:103C5000969596958770920F891348C08981811136
:103C600045C08091FE01831708F440C080E18A9529
:103C7000F1F75A9A529AA2E0AA95F1F700C0009182
:103C8000FF0110910002B8E03B9F000D111D1124AF
:103C90005A98F8016581662321F0868197810E94F8
:103CA0003A1C0E94341CF0E1FA95F1F75A985298A8
:103CB0005A9A80E18A95F1F7D80112966C91129781
:103CC000662369F013968D919C9114970E940C1CA9
:103CD000D801ED91FC91811105C082E004C0D801AA
:103CE000ED91FC9188E080830E94BA1B0F90DF91D8
:103CF000CF91FF91EF91BF91AF919F918F917F9164
:103D00006F915F914F913F912F911F910F910F9064
:103D10000FBE0F901F9018951F920F920FB60F9223
:103D200011248F939F93EF93FF938091B900887F25
:103D3000803869F038F48823C9F18036C9F51092CB
:103D4000C00236C0883A09F1883BF9F031C0809151
:103D5000C002811111C08091BB008093BF0280918D
:103D6000BF02803120F01092BF0280E001C081E0EC
:103D700091E09093C0021DC0E091BF02F0E08091FD
:103D8000BB00E155FD4F808308C0E091BF02F0E029
:103D9000E155FD4F80818093BB008091BF0290E090
:103DA00001968F7099278093BF0202C01092BC00C9
:103DB00081E09091BC008295880F880F807C956887
:103DC000892B8093BC00FF91EF919F918F910F9071
:103DD0000FBE0F901F90189584E98093BC0083E379
:103DE00090E02091BC0024FD02C00197D1F7089516
:103DF00083E390E02091BC0027FD02C00197D1F73A
:103E000008958093BB0084E88093BC000E94F81E54
:103E10009091B900987F81E0983209F480E008958C
:103E2000CF93C82F0E94F62181110AC080E00E9422
:103E3000011F811105C08C2F0E94011FC1E081115B
:103E4000C0E00E94EC1E8C2FCF910895BF92CF92BC
:103E5000DF92EF92FF920F931F93CF93DF930E9415
:103E600073289093C4028093C3028FEA0E94101FAC
:103E700063E082E20E941B228823D1F16DE781E298
:103E80000E941B228823A1F10E94F621811130C0DB
:103E900080E40E94011F81112BC081E0E82E82E0A6
:103EA000F82E94E0B92EC0E0D0E0F701EC0FFD1F32
:103EB000C08086E0C89E6001112400E010E0F60199
:103EC000E00FF11FEA58F84F84910E94011F0F5F25
:103ED0001F4F0630110599F72196C531D10529F7F5
:103EE000BA9485E1E80EF11CB110DDCF10925702B3
:103EF000DF91CF911F910F91FF90EF90DF90CF90C6
:103F0000BF900C94EC1ECF92DF92EF92FF920F9332
:103F10001F93CF93DF93CDB7DEB7C75AD1090FB642
:103F2000F894DEBF0FBECDBF44E550E060E270E024
:103F30008E010F5F1F4FC8010E94F83167961FAFB7
:103F40000EAF679781E068968FAF689780915A02AD
:103F5000882309F427C18091650282FD0DC061E3C9
:103F600071E0C8010E94DE1D68E17DE0C8010E9489
:103F7000CA1D64E371E00CC067E371E0C8010E94F0
:103F8000DE1D66E17DE0C8010E94CA1D6AE371E0A2
:103F9000C8010E94DE1D809150038F9380914F03D2
:103FA0008F9380914E038F9380914D038F938FEC6D
:103FB00091E09F938F931F9288E28F93CE01805858
:103FC0009F4F9F938F930E94FF316DE07DE0C8016A
:103FD0000E94CA1D80914D0390914E03A0914F0302
:103FE000B09150030FB6F894DEBF0FBECDBF803244
:103FF0009105A105B105F1F060F481309105A105AD
:10400000B10531F581E090E09093C2028093C10246
:1040100073C080349105A105B10599F080389105F0
:10402000A105B105A9F480E890E09093C2028093C5
:10403000C10271C080E290E09093C2028093C102FD
:1040400064C080E490E09093C2028093C10260C09B
:1040500088309105A105B10509F454C0A8F4813058
:104060009105A105B10509F447C038F182309105E9
:10407000A105B10509F443C00497A105B10509F0F4
:104080004FC06CEC7CE049C080329105A105B105C0
:10409000E1F140F44097A105B10509F041C062ED9E
:1040A0007CE03BC080349105A105B10589F18038E1
:1040B0009105A105B105A1F52EC08091C102909195
:1040C000C2028130910519F467E07DE026C080329C
:1040D000910519F460E07DE020C08034910519F469
:1040E00068EF7CE01AC08038910519F461EF7CE03C
:1040F00014C069EE7CE011C063EE7CE00EC06DED93
:104100007CE00BC067ED7CE008C065EC7CE005C09E
:104110006DEB7CE002C066EB7CE0C8010E94CA1D2A
:104120000E945A1582FD05C03AECC32E31E0D32E11
:1041300004C025EBC22E21E0D22E0E945A1581FD2B
:1041400005C09AECE92E91E0F92E04C08AEBE82E26
:1041500081E0F82E0E945A1580FD03C087EC91E0A3
:1041600002C08FEB91E0DF92CF92FF92EF929F938C
:104170008F9389ED91E09F938F931F9288E28F93A5
:104180007E0138E5E30EF11CFF92EF920E94FF31B1
:10419000B701C8010E94DE1D0FB6F894DEBF0FBE46
:1041A000CDBF05C06DE371E0C8010E94DE1D44E58E
:1041B00050E0B80181E092E00E94D931892B59F09A
:1041C00084E5F801A1E0B2E001900D928A95E1F753
:1041D00081E08093570280915702811104C0809141
:1041E0000001882321F00E94261F10920001809177
:1041F000C3029091C4020E94492881369A4E18F059
:104200008EEA0E94101FC955DF4F0FB6F894DEBF2B
:104210000FBECDBFDF91CF911F910F91FF90EF9017
:10422000DF90CF900895EF92FF920F931F93CF935B
:10423000DF9380915A02882309F472C00E94D71C30
:1042400080910101811103C0C5E0D0E002C0C0E04F
:10425000D0E0C559DD4F45E050E0BE0186EF91E06A
:104260000E94D9317C0185E0FE01A6EFB1E001900A
:104270000D928A95E1F780910101811103C0C0E0A0
:10428000D0E002C0C5E0D0E090917F0180917E0136
:10429000981761F082E090E00E94541C8C01892BF9
:1042A00039F480917E0180937F0102C000E010E02C
:1042B000EF2849F48091C5029091C602892B19F428
:1042C00080E090E002C081E090E00E94541C892BC5
:1042D00049F48091FB0180937E011092C6021092F6
:1042E000C50206C081E090E09093C6028093C502AB
:1042F0000115110531F00230110509F04FC0289861
:104300004DC0289ADE01A559BD4F85E0E0EFF1E0F0
:1043100001900D928A95E1F75D9A1092C70234C020
:104320000E94D71C80910101811103C0E5E0F0E0FB
:1043300002C0E0E0F0E0E559FD4F80E020E030E031
:10434000D901A051BE4F4C919191491381E09C93AA
:104350002F5F3F4F2530310599F79091FB01890F71
:104360008093FB0180910101811103C0A0E0B0E0C6
:1043700002C0A5E0B0E0A559BD4F85E0E6EFF1E051
:1043800001900D928A95E1F70E94831F81E0DF91F1
:10439000CF911F910F91FF90EF9008955D988091BC
:1043A000C7028F5F8093C702863070F3809101014E
:1043B000811103C0E0E0F0E002C0E5E0F0E0E55983
:1043C000FD4F80E090E01192019685309105D9F77C
:1043D000DBCFCF93C62F0E94101F882321F08C2F94
:1043E000CF910C94101F80E0CF91089584EA8093C0
:1043F000BC000E94F81E8091B900887F883039F097
:104400008091B900887F803111F081E0089588E7BC
:104410008093BB0084E88093BC000E94F81E8091CA
:10442000B900887F883129F08091B900887F803475
:1044300061F780E00895CF93C62F0E94101F882354
:1044400049F080E00E94101F882321F08C2FCF912B
:104450000C94101F80E0CF9108952BB1277F3BB1C2
:1044600038604FB7F894FC01680F791FE617F7071B
:1044700089F0819198E03BB9000000C087FF2BB91B
:10448000880F000000C000C000C02BB900C09A9582
:1044900091F7ECCF4FBF0895EF92FF920F931F93C8
:1044A000CF93DF937C018B010E947A0F811119C099
:1044B000E70101151105A1F08091E80085FD0AC012
:1044C0008091E8008E778093E8000E947A0F88231D
:1044D00081F307C089918093F10001501109E9CF60
:1044E00080E0DF91CF911F910F91FF90EF900895A1
:1044F0001F93CF93DF93CDB7DEB7AA970FB6F8948B
:10450000DEBF0FBECDBFE8EDF2E08091F1008193F8
:1045100022E0E03EF207C9F78091D902833009F426
:1045200060C030F4813071F0823009F49CC0B3C0B7
:104530008A3009F488C08B3009F46BC0893009F0E7
:10454000AAC020C08091D802813A09F0A4C080910D
:10455000E800877F8093E8008091DC029091DD0283
:10456000892B21F468E08CEC92E003C060E080E0ED
:1045700090E070E00E9401108091E8008B778093BA
:10458000E80089C08091D802813209F084C080910E
:10459000DC029091DD02029708F07DC08091E80076
:1045A000877F8093E8008091E80082FD05C08091BC
:1045B000D6028111F8CF6FC02091F3008091F200F4
:1045C00090E0922B029729F48091F1008B7F81304B
:1045D00021F48091F1008093CB028091E8008B77E9
:1045E00056C08091D802813A09F055C08091DC0212
:1045F0009091DD02892B09F04EC08091E800877F01
:104600008093E8008091E80080FFFCCF80918001DA
:1046100039C08091D8028132F1F58091DC0290910D
:10462000DD02892BC1F58091E800877F8093E80047
:104630000E94AD0F8091DA02809380011092C9022E
:104640000E94E22C28C08091D802813221F580910D
:10465000E800877F8093E8000E94AD0F8091DB0225
:104660008093CA0218C08091D802813AA1F4809147
:10467000E800877F8093E8008091E80080FFFCCF0E
:104680008091CA028093F1008091E8008E77809338
:10469000E8000E94AD0F8091E80083FFD8C18091AF
:1046A000D8029091D902492F50E04A30510508F0C4
:1046B000CEC1FA01E757FF4F0C94C631803821F084
:1046C000823809F0C4C108C08091D4029091D5020B
:1046D000992389F082600FC08091DC028F7087304F
:1046E00008F0B5C18093E9008091EB0085FB882735
:1046F00080F91092E9009091E800977F9093E8008C
:104700008093F1001092F10071C1282F2D7F09F0E4
:104710009EC1882319F0823061F099C18091DA023C
:10472000813009F094C1933009F080E08093D50284
:104730002EC08091DA0281112AC08091DC028F7034
:104740002FEF280F263008F082C18093E9002091D6
:10475000EB0020FF1CC0933021F48091EB008062BD
:1047600014C09091EB0090619093EB0021E030E059
:10477000A90102C0440F551F8A95E2F74093EA0051
:104780001092EA008091EB0088608093EB00109219
:10479000E9008091E800877F2CC1811158C11091F8
:1047A000DA021F778091E3008078812B8093E30009
:1047B0008091E800877F8093E8000E94AD0F809190
:1047C000E80080FFFCCF8091E30080688093E300E5
:1047D000111102C082E001C083E08093D60237C18C
:1047E0008058823008F033C18091DA029091DB0268
:1047F0008C3D53E0950779F583E08A838AE28983CB
:104800004FB7F894DE01139620E03EE051E2E32F2B
:10481000F0E050935700E49120FF03C0E295EF7061
:104820003F5FEF708E2F90E0EA3010F0C79601C026
:10483000C0968D939D932F5F243149F74FBF809190
:10484000E800877F8093E8006AE270E0CE0101967D
:104850000E940110BAC04091DC025091DD02292F64
:10486000332723303105B1F068F42130310509F4E4
:10487000FDC02230310509F0EAC08BE390E0E9EA9F
:10488000FDE050C02132310581F12232310509F4B9
:1048900039C0DDC0992781309105B9F070F08230C0
:1048A0009105D9F0039709F0D2C0E6EFFDE0E4915D
:1048B0008E2F90E0E6EFFDE032C0EAE2FEE0E49108
:1048C0008E2F90E0EAE2FEE02AC0E4E1FEE0E4910F
:1048D0008E2F90E0E4E1FEE022C0ECEFFDE0E491F9
:1048E0008E2F90E0ECEFFDE01AC04115510509F460
:1048F000C2C04130510509F0AAC089E090E0E4ED62
:10490000FDE010C04115510509F4BAC04130510510
:1049100009F09DC08FE490E0EAE1FDE003C000975C
:1049200009F495C02091E800277F2093E8002091AA
:10493000DE023091DF028217930708F49C0140E009
:104940002115310589F18091D602882309F43DC0F3
:104950008530D9F18091E80083FD37C08091E8006F
:1049600082FD2FC08091E80080FFEACF4091F300E4
:104970008091F20090E0942B2115310559F0883098
:10498000910540F444914093F10031962150310952
:104990000196F2CF41E0089709F040E08091E800ED
:1049A0008E778093E800CCCF4111CDCF0AC08091A3
:1049B000D602882351F0853041F08091E80083FDD4
:1049C00004C08091E80082FFF2CF8091E8008B77ED
:1049D0008093E8003CC08038D1F58091E800877F63
:1049E0008093E8008091D7028093F1008091E800E5
:1049F0008E778093E8000E94AD0F29C0811127C0F7
:104A00008091DA029091DB029927029704F5809158
:104A1000E800877F8093E8001091DA021093D702B4
:104A20000E94AD0F111106C08091E30087FD02C006
:104A300081E001C084E08093D60242E061EC81E035
:104A40000E94CC0F42E261EC82E00E94CC0F809188
:104A5000E80083FF1AC08091E800877F8093E80018
:104A60008091EB0080628093EB000FC082E190E0C8
:104A7000E4EEFDE057CF89E090E0EBEBFDE052CFB4
:104A800080E490E0E9E6FDE04DCFAA960FB6F894F9
:104A9000DEBF0FBECDBFDF91CF911F9108951F9252
:104AA0000F920FB60F9211242F933F934F935F9362
:104AB0006F937F938F939F93AF93BF93CF93DF9326
:104AC000EF93FF93C091E900CF708091EC00D82F55
:104AD000D17080FDD0E81092E9008091F000877FCE
:104AE0008093F00078940E9478221092E9008091DF
:104AF000F00088608093F000CD2BCF70C093E90068
:104B0000FF91EF91DF91CF91BF91AF919F918F91E5
:104B10007F916F915F914F913F912F910F900FBEB9
:104B20000F901F901895E8EDF0E080818E7F8083D4
:104B30001092E2001092DA001092E100A0EEB0E0D4
:104B40008C9181608C9380818F77808319BCA7EDD5
:104B5000B0E08C918E7F8C9380818F7E80831092C9
:104B6000C8020895CF92DF92EF92FF920F931F93A6
:104B7000CF93DF93C8EDD0E088818F7E8883E7ED07
:104B8000F0E080818160808384E082BF81E0809357
:104B9000C80288818E7F888302EE10E0F8011082BF
:104BA0001092DA0081EEC82ED12CF6011082888195
:104BB0008F77888388818068888388818F7D8883C8
:104BC00019BC1092D6021092D7021092D502109200
:104BD000D40290EEE92EF12CF70180818B7F808347
:104BE00088818160888342E060E080E00E94CC0F91
:104BF000F60180818E7F8083F801808181608083CF
:104C0000808188608083F70180818E7F80838881A6
:104C100080618883DF91CF911F910F91FF90EF907A
:104C2000DF90CF9008951F920F920FB60F9211242C
:104C30002F933F934F935F936F937F938F939F93A4
:104C4000AF93BF93EF93FF938091E10082FF09C080
:104C50008091E20082FF05C08091E1008B7F80930C
:104C6000E1008091DA0080FF2AC08091D80080FFA7
:104C700026C08091DA008E7F8093DA008091D9007F
:104C800080FF18C080E189BD82E189BD09B400FEC2
:104C9000FDCF81E08093D6028091C80281110FC0C0
:104CA0000E9493250E94B2258091E2008460809347
:104CB000E20005C019BC1092D6021092C802809181
:104CC000E10080FF17C08091E20080FF13C0809157
:104CD000E2008E7F8093E2008091E2008061809309
:104CE000E2008091D80080628093D80019BC85E0F2
:104CF0008093D6028091E10084FF34C08091E2006D
:104D000084FF30C080E189BD82E189BD09B400FE25
:104D1000FDCF8091D8008F7D8093D8008091E100F5
:104D20008F7E8093E1008091E2008F7E8093E2008D
:104D30008091E20081608093E2008091D702882315
:104D400011F084E007C08091E30087FD02C081E09C
:104D500001C083E08093D6021092C9020E94E22C27
:104D60000E945A158091E10083FF27C08091E200E4
:104D700083FF23C08091E100877F8093E10082E080
:104D80008093D6021092D7028091E1008E7F8093AB
:104D9000E1008091E2008E7F8093E2008091E2004A
:104DA00080618093E20042E060E080E00E94CC0FEE
:104DB0008091F00088608093F000FF91EF91BF91A7
:104DC000AF919F918F917F916F915F914F913F91A3
:104DD0002F910F900FBE0F901F9018958091CB02CE
:104DE0000895803F39F48091780287FF6CC010925B
:104DF000780269C0813F29F4809178021816BCF3CB
:104E000062C090917702823F29F497FF5CC01092B4
:104E1000770259C0833F19F41916CCF354C0893F67
:104E200041F48091790218160CF04DC0109279026D
:104E30004AC08A3F29F48091790287FF44C0F6CFA7
:104E40008B3F39F480917A0287FF3DC010927A023D
:104E50003AC08C3F29F480917A021816BCF333C013
:104E6000843F21F4809176028E7F17C0853F21F424
:104E7000809176028D7F11C0863F21F48091760269
:104E80008B7F0BC0873F21F480917602877F05C01E
:104E9000883F31F4809176028F7E8093760213C032
:104EA0008D3F21F480915D038E7F0BC08E3F21F4F6
:104EB00080915D038D7F05C08F3F29F480915D0354
:104EC0008B7F80935D038091770281110EC080916A
:104ED000780281110AC080917902811106C0809107
:104EE0007A02811102C010927B02089580915D03C5
:104EF00080FD16C081FD16C082FD18C080917B0226
:104F0000882391F0883290F428E0829FC001112418
:104F100068E270E00E94B231862F672B29F007C04B
:104F200082E0089584E0089581E0089588E008957E
:104F300080915D0380FD17C081FD17C082FD19C0FF
:104F400080917B02882399F0863998F42FE0829F24
:104F5000C001112466E970E00E94B231862F672BF0
:104F600049F481E0089583E0089587E0089585E09D
:104F700008958FE00895803F21F40E94982781953D
:104F800004C0813F29F40E949827809378020895F5
:104F9000823F21F40E949827819504C0833F29F421
:104FA0000E949827809377020895893F19F40E9400
:104FB000762705C08A3F31F40E9476278195809339
:104FC000790208958B3F21F40E947627819504C0D1
:104FD0008C3F29F40E94762780937A020895843FBB
:104FE00021F480917602816017C0853F21F4809181
:104FF0007602826011C0863F21F48091760284603F
:105000000BC0873F21F480917602886005C0883FFD
:1050100031F48091760280618093760208958D3F0D
:1050200021F480915D0381600BC08E3F21F480915B
:105030005D03826005C08F3F29F480915D03846029
:1050400080935D03089578941F920F920FB60F928C
:1050500011248F939F93AF93BF93809159039091A5
:105060005A03A0915B03B0915C030196A11DB11D91
:105070008093590390935A03A0935B03B0935C030E
:10508000BF91AF919F918F910F900FBE0F901F9086
:105090001895CF92DF92EF92FF920F931F932FB745
:1050A000F8944091590350915A0360915B037091B9
:1050B0005C032FBF6A017B01EE24FF248C0120E0FA
:1050C00030E0C016D106E206F30610F44150510953
:1050D0009A01281B390BC9011F910F91FF90EF9086
:1050E000DF90CF9008952FB7F89480915903909155
:1050F0005A03A0915B03B0915C032FBF0895E09128
:105100006802F0916902309749F082E0809375025D
:105110000480F581E02D85E792E009950E947328CF
:1051200090937D0280937C0208951F920F920FB698
:105130000F9211248F939F93AF93BF9380916A0234
:10514000811113C08091590390915A03A0915B0380
:10515000B0915C034196A11DB11D809359039093BA
:105160005A03A0935B03B0935C03BF91AF919F91EF
:105170008F910F900FBE0F901F9018959C01FC010E
:1051800032969FEF80E04191461789F09F3F19F4D6
:10519000411101C0982F8F5F8630A9F79F3F39F0EA
:1051A000F901E90FF11D97FDFA95628308950895BD
:1051B00080E090E00E941B2E21E08D3E9E4F09F082
:1051C00020E0822F08956DEE7EEF80E090E00E9457
:1051D0003F2E60E082E090E00E94212E60E083E0BC
:1051E00090E00E94212E10925503109256031092C7
:1051F00057031092580360E084E090E00E94212E53
:1052000060E085E090E00E94212E60E086E090E082
:105210000E94212E6FEF87E090E00E94212E40E057
:1052200050E0BA0188E090E00E94332E60E08DE00B
:1052300090E00E94212E40E050E0BA0188E190E029
:105240000E94332E60E087E190E00E94212E40E032
:1052500050E0BA018FE090E00E94332E40E050E031
:10526000BA0183E190E00C94332E809154038111B4
:105270001092540308959091C90280915303892B91
:1052800020915203982F922B9093E0028091540327
:10529000882389F0892B8093E002E2EEF2E097E028
:1052A00080E0915029F021912223D9F38F5FF9CF2B
:1052B00081110E943529E0916802F09169023097CE
:1052C00031F00280F381E02D80EE92E009940895A0
:1052D000BF92CF92DF92EF92FF920F931F93CF93E3
:1052E000DF938C01C0904D03D0904E03E0904F03AC
:1052F000F09050038091550390915603A09157036D
:10530000B0915803C82AD92AEA2AFB2ACFE1D0E073
:10531000D701C6010C2E04C0B695A7959795879521
:105320000A94D2F780FD04C0219790F7B12C07C0F2
:10533000BC2EB8018C2F0E94D3180197A9F38B2D96
:10534000DF91CF911F910F91FF90EF90DF90CF9061
:10535000BF900895CF93DF93EC010E946829BE01AE
:105360000E94D318DF91CF91089527E0929F800D7E
:105370001124682F669566956695982F977085E03D
:10538000689FB001112440E050E080E0FB01E40F91
:10539000F51FE05EFC4F208130E0092E02C03695FB
:1053A00027950A94E2F721703327042E01C0220FBB
:1053B0000A94EAF7822B4F5F5F4F4530510531F772
:1053C000089527E0929F800D1124E82FE695E69539
:1053D000E695877051E001C0550F8A95EAF785E0A0
:1053E000E89FF0011124E05EFC4F20E030E070E027
:1053F0004081CB01022E02C0969587950A94E2F770
:105400008170819584278523842781932F5F3F4F67
:105410002530310569F7089560934D0370934E036D
:1054200080934F03909350030C94CF2C0F931F93B2
:1054300041E050E060E070E004C0440F551F661F7B
:10544000771F8A95D2F74095509560957095809119
:105450004D0390914E03A0914F03B09150038A01E8
:105460009B01082319232A233B23C901B8011F915B
:105470000F910C940C2A20915103809582238093E4
:105480005103982F977079F430E0482F082E000CC4
:10549000550B2417350739F08595859585950E941C
:1054A000162A1092510308950F931F9341E050E084
:1054B00060E070E004C0440F551F661F771F8A9597
:1054C000D2F780914D0390914E03A0914F03B0917C
:1054D00050038A019B01082B192B2A2B3B2BC90156
:1054E000B8011F910F910C940C2A6093550370938F
:1054F000560380935703909358030C94CF2C8091BC
:105500001F039091EE02891719F08F5F8770FBCF10
:105510000895CF938091ED0282958F7009F05FC05E
:105520008091EA02882309F45AC080911F03B09148
:10553000EE027091E802A091E9024091EB025091D5
:10554000EC0291E07F3F09F090E0692FC6E08B17F5
:1055500009F445C04115510521F0AF3F21F020E08D
:1055600003C021E001C0262F90E020FD35C0C89F78
:10557000F001C99FF00D1124E151FD4F21812A1343
:105580002BC02081271328C02281211125C023810F
:1055900034812417350710F421503109241B350BB1
:1055A00024363105C8F42091ED022F70206120933C
:1055B000ED0226E0289FF001299FF00D1124EC5008
:1055C000FD4F80818F708061808388EE92E00E9421
:1055D0006007CF910C947F2A01968770B8CFCF9146
:1055E00008950E94AA29292F2F70E92FE295EF70C4
:1055F0004E2F50E0FA013297EE30F105B8F4ED5637
:10560000FF4F0C94C631803F99F018F4803E70F43F
:105610000FC0843F59F40CC0803E50F0813F31F4FC
:1056200007C0822F869586958695089580E0089517
:1056300081E00895AF92BF92CF92DF92EF92FF92F6
:105640000F931F93CF93DF93CDB7DEB761970FB65C
:10565000F894DEBF0FBECDBF7C0185E0F701DE010F
:105660001D9601900D928A95E1F7D7013C91119614
:105670002C91119712960C915091E8026091E902D9
:105680008091EB029091EC02009731F06F3F31F482
:1056900041E05F3F19F403C041E001C040E0B42F96
:1056A000B170BB2E40FD28C1F701C380D480A0900B
:1056B000EA02AA2009F4E3C04091ED02C816D90617
:1056C00028F0D601A81BB90BCD0104C08095909598
:1056D0008C0D9D1D11E08436910548F010E0407F4F
:1056E00009F093C088EE92E00E946007FDC0842F0D
:1056F000807F09F051C0621312C0531310C0102FE5
:1057000001110DC04F7040614093ED0288EE92E0B0
:105710000E9460078091ED02F70185832EC1CD289C
:1057200031F02F3F31F481E03F3F19F403C081E0B5
:1057300001C080E080FD03C081E0802702C080E0DE
:1057400090E0182F117080FF1CC080911F034091C2
:10575000EE0256E0841709F4EDC090E0589FF00186
:10576000599FF00D1124E151FD4F6181261306C0B0
:105770006081361303C06281061303C001968770EF
:10578000E9CF102F002309F4F8C08091ED02816069
:105790008093ED0210E0F1C062130CC053130AC0F5
:1057A000011108C08091ED02F7018583C7010E94B5
:1057B000600780C03D872E878D859E850E94F12AD7
:1057C000882369F1002359F12091ED02822F8295FF
:1057D0008F7090E0029774F08091E8029091E90256
:1057E00098878F831986DB86CA862C87CE01079619
:1057F0000E94600786E0F701A8EEB2E001900D92EA
:105800008A95E1F70E94892A0DC0621769F03D87E9
:105810002E878D859E850E94F12A811119C0C701AE
:105820000E94600711E0A9C05313F1CF0111EFCF1F
:105830008091ED02F7018583C7010E94600786E031
:10584000E8EEF2E0DF011D928A95E9F71A2D95C086
:10585000002329F32091ED02822F82958F7090E032
:10586000029744F28091E8029091E9029A83898339
:105870001B82DD82CC822E83CE010196B9CFC81661
:10588000D90638F0C81AD90AB4E6CB16D10450F0BC
:1058900007C0809590958C0D9D1D8436910510F064
:1058A00010E022C0102F002309F4B9CF62130BC0FF
:1058B000531309C086E0F701A8EEB2E001900D9203
:1058C0008A95E1F75AC03D872E878D859E850E9477
:1058D000F12A81118FCF8091ED0281608093ED02DA
:1058E000C7010E94600749C0E8EEF2E086E0DF01F0
:1058F0001D928A95E9F741C0002309F490CF3D87B6
:105900002E878D859E850E94F12A182F882309F401
:1059100086CF86E0F701A8EEB2E001900D928A955D
:10592000E1F78091E8029091E9020E94AA290E9481
:10593000892A23C03D872E878D859E850E94AA29AE
:10594000292F22952F70223028F49F7039F0811171
:1059500005C00BC0243028F49F7049F4805E883065
:1059600020F0C7010E946007B12E1B2D06C0D70191
:1059700015969C91907F91F7F8CF812F61960FB685
:10598000F894DEBF0FBECDBFDF91CF911F910F9175
:10599000FF90EF90DF90CF90BF90AF90089510925E
:1059A0005303109252030E943B29E5E7F2E086E0A0
:1059B000DF011D928A95E9F710927B0210925D0338
:1059C0000C947F2886E0E2EEF2E0DF011D928A95DA
:1059D000E9F70C94CF2C882341F080959091C9026F
:1059E00089238093C9020C943B290895882339F0B8
:1059F0009091C902892B8093C9020C943B29089588
:105A00008823E1F19CEF980F913A60F4E0EEF2E028
:105A10009281891301C01282319642E0E63EF4077A
:105A2000B9F714C090E2980F983090F4877021E095
:105A300030E0A90102C0440F551F8A95E2F7CA0160
:105A400080959091C90289238093C9020C943B29C7
:105A50009BE5980F933020F480E090E00C9444157F
:105A600098E5980F973120F480E090E00C942E1583
:105A7000803F20F00E94F1260C947F28089588230F
:105A800009F4CAC09CEF980F913A30F4682F80EE69
:105A900092E00E94BE2813C090E2980F983088F4DC
:105AA000877021E030E0A90102C0440F551F8A959C
:105AB000E2F7CA019091C902892B8093C9020C9424
:105AC0003B299BE5980F933070F4853A29F0863A8C
:105AD00031F083E890E005C081E890E002C082E800
