:100000000C9491080C94D8080C94D8080C94C71A36
:100010000C94D8080C94D8080C94D8080C94D808E0
:100020000C94D8080C94D8080C94542A0C94912958
:100030000C9409220C94D8080C94D8080C94D80875
:100040000C94D8080C94D8080C94D8080C94D808B0
:100050000C94D8080C94AD210C94D8080C94D808B2
:100060000C94D8080C94D8080C94D8080C94D80890
:100070000C94D8080C94D8080C94D8080C94D80880
:100080000C94D8080C94D8080C94D8080C94D80870
:100090000C94571B0C94D8080C94D8080C94D808CE
:1000A0000C94D8080C94D8080C94D80837093F0948
:1000B00047094F0957095F0967096F0977097F09E0
:1000C0008709730D90099F09B4095A0C5C0C670CE1
:1000D0005E0C600C620C640C660C690C6B0C6D0C95
:1000E000780C6F0C710C730C750C770C7A0CBA0DC4
:1000F000BA0DF40DF40DC50FC50FC50FC50F380EA1
:10010000C50F250F250F320F320F320F320F320F6E
:10011000320F320F320F320F320F320F320F320FD7
:10012000320F320F320F430F6D0F720F790F900F96
:10013000B927E0276929E027692928284B28692958
:1001400033294629F02BF02B032C032CF92B032CFD
:10015000032C032CF02BF02BFE2B032C032CFE2B5B
:1001600007634236B79BD8A71A39685618AEBAABA0
:10017000558C1D3CB7CC5763BD6DEDFD753EF61734
:100180007231BF000000803F05A84CCDB2D44EB9FB
:100190003836A9020C50B9918688083CA6AAAA2A2A
:1001A000BE000000803F29001E001F00200021002B
:1001B000220000002B0014001A0008001500170090
:1001C0000000E00004001600070009000A0000001B
:1001D00008511D001B000600190005000351E20034
:1001E000005C0A51E30091002C0004514C002700F0
:1001F000260025002400230000002A00130012001E
:100200000C0018001C000000280033000F000E0036
:100210000D000B00000008513800370036001000B8
:1002200011000351005201520253005C90002C0057
:10023000055129001E001F0020002100220000009F
:100240002B0014001A00070009000A000000E0005B
:1002500004001200080018000C00000009511D00E5
:100260001B000600190005000351E200005C0A5261
:10027000E30091002C0004514C00270026002500CB
:100280002400230000002A001300150017001600A8
:100290001C000000280033000F000E000D000B00B2
:1002A00000000951380037003600100011000351DA
:1002B000005201520253005C90002C0005510000D6
:1002C000000000000000000000000000000000002E
:1002D000000000000000000000000000000000001E
:1002E000000000000000000000000000000000000E
:1002F00000000000005C00000000000000000000A2
:10030000000000000000000056005500540053009B
:100310000000000000005700610060005F00000066
:100320000000000058005E005D005C00000000005E
:10033000000058005B005A005900005C0052015256
:10034000010063006200620000003A003B003C00D4
:100350003D003E003F000000005CCD5CD35CD45CFF
:10036000C85CC75C0000DE5CD15CCE5CCF5CC65C68
:10037000C55C0000E100D05C0000C25CCA5CC95CE6
:100380000100135C0A5CC45CC35CCC5CCB5C005CAD
:100390004500440043004200410040000000005C72
:1003A000F900F500F600F40000000000DE5CFA0041
:1003B000F300F000F100F2000000E5000000000092
:1003C0000000000000000100005201520000000087
:1003D0000000DE5C005C000059005A005B005C001D
:1003E0005D00000000000000520000004A004B00C9
:1003F00000000000500051004F004D004E00000072
:10040000000000000000000046004900005C000001
:10041000000000000000DE5C005C01004C00620097
:10042000610060005F005E0000002A0023023702C6
:100430003602260225020000280089023200300020
:1004400032023002000000000000000000002E0018
:100450002F00005C0052015200000000DE5C005CD6
:10046000000000001E001F002000210022000000EC
:1004700000002E0287021F0224022F020000E0006B
:1004800033022D0034022D0234000000E1001E0270
:100490003802200221022202005CE200000000007B
:1004A000E30091002C0000004C00270026002500EE
:1004B0002400230000002A0023023702360226020D
:1004C000250200002800890232003000320230028A
:1004D0000000E1000000000000002E002F00005C82
:1004E000005201520000E70090002C0001000000C3
:1004F00000000000000000000000000000000000FC
:1005000000000000000000000000000000000000EB
:1005100000000000000000000000000000000000DB
:1005200000000000005C0000000000000000DE5C35
:10053000005C00000000000000000000000000005F
:1005400000000000000000000000000000000000AB
:10055000000000000000000000000000000000009B
:1005600000000000000000000000005C005201528A
:1005700000000000DE5C005C0000000000000000E5
:10058000000000000000000000000000000000006B
:10059000000000000000000000000000000000005B
:1005A000000000000000000000000000000000004B
:1005B000005C0000000000000000DE5C005C000049
:1005C000000000000000000000000000000000002B
:1005D000000000000000000000000000000000001B
:1005E000000000000000000000000000000000000B
:1005F000000000000000005C0052015200000000FA
:10060000DE5C005C000029001E001F0020002100AD
:10061000220000002B0014021A0208021502170221
:100620000000E00004021602070209020A020000AC
:1006300001001D621B02060219020502005CE200B5
:1006400000000A52E30291002C0200004C00270037
:10065000260025002400230000002A0013021202B5
:100660000C0218021C020000280033020F020E02C6
:100670000D020B02000001003802370236021002A0
:100680001102005C005201520000E70290002C02AF
:10069000000029001E001F00200021002200000091
:1006A0002B0014021A02070209020A020000E000ED
:1006B00004021202080218020C02000001001D02CE
:1006C0001B02060219020502005CE20000000A5249
:1006D000E30291002C0200004C00270026002500B8
:1006E0002400230000002A0013021502170216023C
:1006F0001C020000280033020F020E020D020B0242
:100700000000010038023702360210021102005CBC
:10071000005201520000E70290002C02000000008D
:1007200000520152025203520452000000000052D3
:100730000052005200520052000000000000000071
:1007400000000000000000000000000000000000A9
:1007500000000000005C000000000100000000003C
:1007600000000000000009520852075206520552CC
:100770000000000000000000000000000052000027
:100780000000000000000000000000000000000069
:1007900000000000000000000000005C0052015258
:1007A0000000000000000000000002E26003E20020
:1007B00002E26003E200556E6465662D004C6179CB
:1007C000657273005368696674597374727000536C
:1007D000686966745171776572747900456D7074DB
:1007E000793700456D707479360053796D626F6C9E
:1007F000004172726F77004D6F7573650054656EBE
:100800006B657900597374727000517177657274F9
:10081000790044656661756C74004C617965723A63
:1008200020000000000000000000000000000000A8
:1008300000000000000000000000000000000000B8
:1008400000000000000000000000000000000000A8
:100850000000000000000000000000000000000098
:100860000000000000000000000000000000000088
:100870000000000000000000000000000000000078
:100880000000000000000000000000000000000068
:100890000000000000000000000000000000000058
:1008A0000000000000000000000000000000000048
:1008B0000000000000000000000000000000000038
:1008C000000000010101010101000101010100001E
:1008D0000000000000000000000000000100010016
:1008E00001010101010101010101010101010101F8
:1008F00001010101010101010101010101000000EB
:1009000001010000000000000000000000000000E5
:1009100000000000000000000000000000010101D4
:10092000010000000000000000002A2B2800000049
:10093000000000000000000000000000002900008E
:1009400000002C1E3420212224342627252E362D6B
:100950003738271E1F202122232425263333362E05
:1009600037381F0405060708090A0B0C0D0E0F1077
:100970001112131415161718191A1B1C1D2F3130BC
:10098000232D350405060708090A0B0C0D0E0F1060
:100990001112131415161718191A1B1C1D2F31309C
:1009A000354C0000000000010101010101010101BD
:1009B0000202020202020202020303030303030310
:1009C00003040404040404050505050506060606DB
:1009D0000607070707080808080909090A0A0A0A92
:1009E0000B0B0B0C0C0C0D0D0D0E0E0F0F0F101032
:1009F00011111112121313141415151616171718B6
:100A00001819191A1A1B1C1C1D1D1E1F1F2020211E
:100A100022222324252526272728292A2B2B2C2D63
:100A20002E2F2F30313233343536363738393A3B82
:100A30003C3D3E3F4041424344464748494A4B4C77
:100A40004D4F50515253555657585A5B5C5E5F603C
:100A50006263646667696A6C6D6E707173747678D0
:100A6000797B7C7E8081838486888A8B8D8F91922E
:100A70009496989A9B9D9FA1A3A5A7A9ABADAFB152
:100A8000B3B5B7B9BBBDBFC1C4C6C8CACCCFD1D33B
:100A9000D6D8DADCDFE1E4E6E8EBEDF0F2F5F7FAE0
:100AA000FCFF6801F000B40078005A00000000006C
:100AB00000003E5B4F5B3E003E6B4F6B3E001C3EBA
:100AC0007C3E1C00183C7E3C18001C577D571C00C7
:100AD0001C5E7F5E1C0000183C180000FFE7C3E7A7
:100AE000FF00001824180000FFE7DBE7FF00304894
:100AF0003A060E00262979292600407F05050700C1
:100B0000407F05253F005A3CE73C5A007F3E1C1CB5
:100B10000800081C1C3E7F0014227F2214005F5F27
:100B2000005F5F0006097F017F00006689956A000B
:100B300060606060600094A2FFA2940008047E04DC
:100B4000080010207E20100008082A1C0800081C3D
:100B50002A0808001E10101010000C1E0C1E0C009D
:100B600030383E383000060E3E0E06000000000011
:100B7000000000005F000000000700070000147F75
:100B8000147F1400242A7F2A1200231308646200B1
:100B9000364956205000000807030000001C22417F
:100BA00000000041221C00002A1C7F1C2A000808AB
:100BB0003E0808000080703000000808080808009F
:100BC0000000606000002010080402003E5149450A
:100BD0003E0000427F4000007249494946002141E1
:100BE000494D33001814127F100027454545390040
:100BF0003C4A494931004121110907003649494918
:100C00003600464949291E0000001400000000403B
:100C100034000000000814224100141414141400BD
:100C20000041221408000201590906003E415D59A5
:100C30004E007C1211127C007F49494936003E412A
:100C4000414122007F4141413E007F4949494100E5
:100C50007F09090901003E41415173007F080808DE
:100C60007F0000417F4100002040413F01007F089C
:100C7000142241007F40404040007F021C027F0060
:100C80007F0408107F003E4141413E007F09090971
:100C900006003E4151215E007F0919294600264980
:100CA0004949320003017F0103003F4040403F00BB
:100CB0001F2040201F003F4038403F0063140814AD
:100CC00063000304780403006159494D4300007F29
:100CD00041414100020408102000004141417F00D1
:100CE00004020102040040404040400000030708A5
:100CF00000002054547840007F2844443800384491
:100D000044442800384444287F0038545454180080
:100D100000087E09020018A4A49C78007F0804043F
:100D2000780000447D4000002040403D00007F10DE
:100D30002844000000417F4000007C0478047800D3
:100D40007C0804047800384444443800FC18242407
:100D5000180018242418FC007C08040408004854D7
:100D60005454240004043F4424003C4040207C00B0
:100D70001C2040201C003C4030403C0044281028EF
:100D800044004C9090907C004464544C4400000813
:100D900036410000000077000000004136080000E6
:100DA0000201020402003C2623263C0003071F7FA9
:100DB000FFFFFEF8F0C020F8FEFFFE79271F7FFF3F
:100DC000FFFEF8F0C020F8FEFFFF7F3F3F7FFFFEF1
:100DD000F8F0C0000000000000000000000000006B
:100DE0000000000000000000000000000000000003
:100DF00000000000000000000000000000000000F3
:100E000000000000000000000000000000000000E2
:100E100000000000000000000000000000000000D2
:100E200000000000000000000000E0F0F0F0E0EC46
:100E3000EEF7F37020007C7C7C7E007E7E7E7F7FE0
:100E40007F000080C0E07E5B4F5BFEC00000C00002
:100E5000DCD7DEDEDED7DC00C000000000000000D2
:100E60000000000000000000000000000000000082
:100E7000C1F3CFBF7FFFFFFCFBE7810000000080D4
:100E8000E3CF3FFFFFFFFCFBE7810000000081E7AD
:100E9000FFFFFFFF3C00000000000000000000001A
:100EA0000000000000000000000000000000000042
:100EB0000000000000000000000000000000000032
:100EC0000000000000000000000000000000000022
:100ED0000000000000000000000000000000000012
:100EE000000000000000000000000F1F3F7F7F7F18
:100EF0007F7F3F1E0C001F1F1F3F003F3F3F7F7F34
:100F00007F00307B7F7830202030787F3B000300EB
:100F10000F7F0F0F0F7F0F00030000000000000085
:100F200000000000000000000000000060707C7FF6
:100F30007F7F7F1F0601030F3F7F7F7E7C7C7E7F4C
:100F40007F7F1F0601070F3F7F7F7E7C7C7E7F7F38
:100F50003F0F030000000000000000000000000040
:100F60000000000000000000000000000000000081
:100F70000000000000000000000000000000000071
:100F80000000000000000000000000000000000061
:100F90000000000000000000000000000000000051
:100FA0000000000000000000000000000000000041
:100FB0000000000000000000000000000000000031
:100FC0000000000000000000000000000000000021
:100FD0000000000000000000000000000000000011
:100FE0000000000000000000000000002020202081
:100FF0000053434C4B000A00202020200043415066
:10100000530020202020202020004E554D4C4F43DF
:101010004B000A0020000A000A00959600B5B600B1
:10102000979800B7B80080818283848586878889F5
:101030008A8B8C8D8E8F9091929394A0A1A2A3A461
:10104000A5A6A7A8A9AAABACADAEAFB0B1B2B3B4D8
:10105000C0C1C2C3C4C5C6C7C8C9CACBCCCDCECF18
:10106000D0D1D2D3D4007F3F1F64321464321478BD
:101070003C1E1E140A0505010906A101050719E019
:1010800029E715002501950875018102950175086C
:101090008101050819012905950575019102950140
:1010A000750391010507190029FF150026FF00951A
:1010B0000675088100C009022200010100A0C809CC
:1010C0000400000103010100092111010001224077
:1010D000000705810308000A120110010000000842
:1010E000EDFE603001000102030104033000000046
:1010F0001603480065006C0069007800200042007B
:10110000650074006100000014035900750073004D
:10111000680061006B006F0062006F000000040354
:10112000090411241FBECFEFDAE0DEBFCDBF04B645
:1011300003FE27C08091EF029091F002A091F1028E
:10114000B091F2028730904BA740B04BD1F410928F
:10115000EF021092F0021092F1021092F20214BE0D
:1011600084B7877F84BF0FB6F894A89580916000FC
:10117000886180936000109260000FBEE0E0F8E3A9
:10118000099511E0A0E0B1E0E4E5F8E602C00590C1
:101190000D92A838B107D9F722E0A8E8B1E001C064
:1011A0001D92AF3EB207E1F70E948F1E0C942834C7
:1011B0000C9400008F929F92AF92BF92CF92DF92D9
:1011C000EF92FF920F931F93CF93DF9300D000D045
:1011D0001F92CDB7DEB7FC010081D180838194815D
:1011E000892B39F01FEFD11206C091E00F3F19F49F
:1011F00003C091E001C090E090FDFAC67F0185E058
:10120000DE01119601900D928A95E1F7F701228196
:1012100089819A81222349F00E94DC22182F682FAD
:1012200089819A810E94552303C00E942923182F87
:1012300026E4129FF001112437E0D39EE00DF11D4A
:101240001124E00FF11DEE0FFF1FEA55FE4F05912F
:10125000149181E080930001F801E05FFC45EF30DC
:10126000F10508F040C4EA5AFF4F0C94EE30F70144
:101270008281882309F489C081E090E04EC0F701A3
:101280008281882309F481C082E090E046C0F701A2
:101290008281882309F479C084E090E03EC0F701A0
:1012A0008281882309F471C088E090E036C0F7019C
:1012B0008281882309F469C080E190E02EC0F701A3
:1012C0008281882309F461C080E290E026C0F701A2
:1012D0008281882309F459C080E490E01EC0F701A0
:1012E0008281882309F451C080E890E016C0F7019C
:1012F0008281882309F449C080E091E00EC0F701A3
:101300008281882309F441C080E092E006C0F701A1
:1013100082818823D1F180E094E00E94BD1935C01C
:10132000F7018281882349F08091350282FD02C055
:1013300081E90EC080EB97E010C081E912C0F7018F
:101340008281882369F08091350282FD04C080E9A2
:101350000E94612C1AC08AEA97E00E94381715C0D3
:1013600080E90E94292C11C0F7018281882309F4A9
:10137000BAC30E94D51480915702816080935702AE
:1013800086958F730E94BD14AEC380E0882309F454
:101390002FC60C3CFCE51F0709F4CEC1E8F5F701A8
:1013A0008281043CFCE51F0709F408C1F8F405310B
:1013B0003CE5130778F402309CE5190708F058C2A1
:1013C0000115ECE51E0709F467C001301C4509F45E
:1013D00084C083C3023C2CE5120709F49DC008F0C9
:1013E000D3C006311C4509F43EC377C3083CECE585
:1013F0001E0709F462C140F4063C2CE5120709F40B
:101400000AC108F4F5C029C10A3C9CE5190709F492
:101410006FC108F45FC188C1043DFCE51F0709F4F2
:101420000DC2C0F4F7018281003DFCE51F0709F4FD
:10143000DFC140F40E3C3CE5130709F4C3C108F4D6
:10144000AAC1CBC1023DECE51E0709F4E7C108F4CF
:10145000DAC1EFC1093D2CE5120709F4D9C260F4E5
:10146000073D8CE5180709F469C208F08AC2053DFA
:101470001C4509F4BDC531C3F70182810D3DFCE572
:101480001F0709F4EEC10E3D2CE5120779F10C3D62
:101490001C4509F022C3DFC1882309F4A9C51092B5
:1014A000D7020E94072C8FEF94E3ECE0815090402C
:1014B000E040E1F700C0000087E797E7909301085C
:1014C000809300089AE088E10FB6F894A89580937D
:1014D00060000FBE90936000FFCF882309F488C599
:1014E0008091460281608093460282C5882309F478
:1014F0007FC50F900F900F900F900F90DF91CF91BD
:101500001F910F91FF90EF90DF90CF90BF90AF9021
:101510009F908F900C945722882309F469C580917D
:10152000570280FF2BC08E7F809357026091570235
:10153000709158028091590290915A020E9497131B
:1015400010925D02FFEF00E712E0F1500040104002
:10155000E1F700C000000F900F900F900F900F90D8
:10156000DF91CF911F910F91FF90EF90DF90CF907F
:10157000BF90AF909F908F900C9478118160809372
:10158000570286958F730BC1882309F431C580916A
:10159000D7028272D1F00F900F900F900F900F90A2
:1015A000DF91CF911F910F91FF90EF90DF90CF903F
:1015B000BF90AF909F908F900C94C014882309F433
:1015C00017C58091D702827231F30F900F900F9060
:1015D0000F900F90DF91CF911F910F91FF90EF909F
:1015E000DF90CF90BF90AF909F908F900C94CA14D3
:1015F000882309F4FDC420915702221F2227221FAD
:1016000030915802432F440F842F822B37FB9927A8
:1016100090F90A9618C0882309F4EAC42091570269
:10162000221F2227221F30915802432F440F842F5C
:10163000822B37FB992790F98A3091051CF4825A46
:101640009E4F05C00A9768E671E00E94DA3021E0FB
:1016500040915A02609159021DC0882309F4C8C400
:1016600060915902862F90E08F3E910514F46F5ED1
:1016700001C06FEF80915702881F8827881F9091C3
:101680005802392F330F97FB992790F921E04091A9
:101690005A02832B0F900F900F900F900F90DF91B5
:1016A000CF911F910F91FF90EF90DF90CF90BF905F
:1016B000AF909F908F900C94A913882309F498C43D
:1016C00060915902862F90E0419714F06151D2CF7A
:1016D00060E0D0CF882309F48BC440915A02842F54
:1016E00090E08F3E910514F44F5E0EC04FEF0CC09A
:1016F000882309F47DC440915A02842F90E04197D9
:1017000014F0415101C040E080915702881F8827A2
:10171000881F90915802392F330F97FB992790F922
:1017200021E060915902B5CF882309F461C480910A
:101730005B0290E001960DC0F7018281882309F4D5
:1017400057C480915B0290E0019797FF02C080E050
:1017500090E08430910514F083E090E080935B0288
:1017600060915702709158028091590290915A02EB
:101770000F900F900F900F900F90DF91CF911F91CE
:101780000F91FF90EF90DF90CF90BF90AF909F9020
:101790008F900C949713882309F42AC481E00F904A
:1017A0000F900F900F900F90DF91CF911F910F919D
:1017B000FF90EF90DF90CF90BF90AF909F908F9071
:1017C0000C94BD14882309F413C40E94581382504A
:1017D000833008F4FACE82E0E2CF882309F408C40B
:1017E0000E9458138650823008F4EFCE86E0D7CF9F
:1017F000882309F4FDC30E9458138950853008F4EA
:10180000E4CE89E0CCCF882309F4F2C30E945813B8
:101810008F50853008F4D9CE8FE0C1CF882309F4EA
:10182000E7C30E9458138551823008F4CECE85E17B
:10183000B6CF882309F4DCC388E1B1CFF7018281F8
:10184000882309F4D5C30E9458138951893008F4BC
:10185000BCCE89E1A4CF882309F4CAC31092CF017A
:10186000C7C3882309F4C4C382E08093CF01C0C3F7
:10187000882309F43AC10E944C22811102C00E94BF
:10188000572284E090E00E94292D90E09093360248
:1018900080933502F801E350FC45E231F10530F464
:1018A000EB59FF4F809135020C94EE308091350258
:1018B000816027C0826025C0846023C0806121C010
:1018C00080621FC080641DC080681BC08460886007
:1018D00018C08E7F16C08D7F14C08B7F12C08F7E84
:1018E00010C08F7D0EC08F7B0CC08F770AC08B7F9E
:1018F000877F07C087FB222720F991E0922790FB82
:1019000087F9809335026091350284E090E00E946F
:101910003D2D1092D7020F900F900F900F900F90C7
:10192000DF91CF911F910F91FF90EF90DF90CF90BB
:10193000BF90AF909F908F900C94072CF7018281FD
:10194000882351F010928D010E94FD2190938A010D
:101950008093890182E022C080918D0181110FC0A6
:101960008091890190918A010E94D321843691054A
:1019700030F486E20E94612C86E20E94292C82E0EB
:1019800034C0F70182818823E1F010928E010E9419
:10199000FD2190938C0180938B0180E20F900F903A
:1019A0000F900F900F90DF91CF911F910F91FF90AB
:1019B000EF90DF90CF90BF90AF909F908F900C945E
:1019C0001F2C80918E0181110FC080918B0190910D
:1019D0008C010E94D3218436910530F487E20E9465
:1019E000612C87E20E94292C80E20F900F900F90CB
:1019F0000F900F90DF91CF911F910F91FF90EF907B
:101A0000DF90CF90BF90AF909F908F900C94142C4C
:101A1000F70182818111B9CF80918E018111E4CFCC
:101A200080918B0190918C010E94D3218436910585
:101A3000D8F680E20E94142C88E20E94612C88E291
:101A40000F900F900F900F900F90DF91CF911F91FB
:101A50000F91FF90EF90DF90CF90BF90AF909F904D
:101A60008F900C94292C882391F08091D7028A7A48
:101A700091E009F490E090938801811102C069E23D
:101A800001C065E38EE592E00E94322213C080918E
:101A90008801811102C089E201C085E3EEE5F2E030
:101AA00024E632E09281891301C0128231962E170A
:101AB0003F07C1F70F900F900F900F900F90DF919D
:101AC000CF911F910F91FF90EF90DF90CF90BF903B
:101AD000AF909F908F900C94AF2281E080938D0106
:101AE00080938E0102C081E051CCF7018281008198
:101AF0001181882349F0C8010E94DC22D82E682F6A
:101B0000C8010E94552304C0C8010E942923D82E71
:101B1000B8018D2D0E94E5148C01982EF701B58037
:101B2000B2949FE0B922A280A1101092D1028091BC
:101B3000CF02877079F0AA2069F080E2800F8830A8
:101B400048F082E00E94B3238091CF028770CC24BA
:101B5000C3948111C12CD12ED2948FE0D8228D2D27
:101B600090E08C30910508F010C2FC01E958FF4F5D
:101B70000C94EE30812F807F1F70882311F0129516
:101B8000107FAA20B9F0112309F4EAC180E2800F86
:101B9000883010F0911006C08091D702182B109356
:101BA000D70205C08091D102182B1093D1020E9458
:101BB000AF22D6C1802F0E94292C112309F4E5C140
:101BC000005E1095083010F0911006C08091D70289
:101BD00018231093D70205C08091D10218231093C7
:101BE000D1020E94AF22D1C1812F807F1F7080322D
:101BF00011F01295107F992021F0F1E09F16E1F08D
:101C000027C0AA2081F08091D202BB2051F001E0D0
:101C1000B01207C0182B181709F4B7C11093D202DD
:101C2000B4C1812B27C1BB2021F021E0B21609F4F9
:101C3000ACC10E94A9221AC0AA2029F035E03B15A8
:101C400008F4A3C10FC084E08B1508F49EC10EC038
:101C5000AA2051F0BB2031F0F701858180FF80C1BF
:101C60008F708583812F06C1B1108CC1812F08C16F
:101C7000812F837009F071C0A11090C1802F8295CF
:101C800086958770880F880F402F4F7050E060E076
:101C900070E04A015B01082E04C0880C991CAA1C44
:101CA000BB1C0A94D2F704FF10C04FE050E060E084
:101CB00070E004C0440F551F661F771F8A95D2F746
:101CC000409550956095709503C040E050E0BA0192
:101CD000812F8695869583700091D3021091D4024E
:101CE0002091D5023091D602823099F0E8F481300B
:101CF00059F0482959296A297B29CB01BA01602367
:101D000071238223932326C0802A912AA22AB32AF0
:101D10001BC0482959296A297B29CB01BA016027B0
:101D200071278227932716C0CB01BA016023712344
:101D3000822393230E94ED234091D3025091D40239
:101D40006091D5027091D602CB01BA016829792938
:101D50008A299B290E94ED2321C1AA2019F0812FF5
:101D6000817001C08695882309F418C1802F82955F
:101D700086958770880F880F402F4F7050E060E085
:101D800070E04A015B01082E04C0880C991CAA1C53
:101D9000BB1C0A94D2F704FF10C04FE050E060E093
:101DA00070E004C0440F551F661F771F8A95D2F755
:101DB000409550956095709503C040E050E0BA01A1
:101DC000812F8695869583700091CB021091CC026D
:101DD0002091CD023091CE02823099F0E8F481302A
:101DE00059F0482959296A297B29CB01BA01602376
:101DF00071238223932326C0802A912AA22AB32A00
:101E00001BC0482959296A297B29CB01BA016027BF
:101E100071278227932716C0CB01BA016023712353
:101E2000822393230E9480234091CB025091CC02C5
:101E30006091CD027091CE02CB01BA016829792957
:101E40008A299B290E948023A9C0802F90E0FC0151
:101E5000E05EF109E531F10508F07DC0ED57FF4F77
:101E60000C94EE300F70812F8F71AA2031F00E94F8
:101E7000CC23802F0E941F2C88C00E948E23802F8D
:101E80000E94142C82C0AA2019F1F4E0FB1508F47A
:101E90007CC01F7181E090E0A0E0B0E0AC01BD012A
:101EA00004C0440F551F661F771F1A95D2F7809103
:101EB000CB029091CC02A091CD02B091CE028A01CA
:101EC0009B01082719272A273B27C901B80121C0F0
:101ED00025E02B1508F459C0DCCFAA2029F0812F6A
:101EE0008F712CC0AA20D9F3812F8F710E948E236D
:101EF0004CC0AA2089F01F7181E090E0A0E0B0E022
:101F0000BC01CD0104C0660F771F881F991F1A9569
:101F1000D2F70E94802339C060E070E0CB01F9CF96
:101F2000AA2079F01F71812F0E94CC2338E0139FE3
:101F3000C001112483608093CF02812F0E94CC23A3
:101F400024C081E00E94B32381E08B15F0F482E08D
:101F50000E94B3231AC0AA2039F0BB2009F4BFCFD6
:101F6000802F0E94612C11C0BB2009F4BDCF093322
:101F700049F49FEFE7EEF3E09150E040F040E1F7E5
:101F800000C00000802F0E94292C08E0D01631F0FC
:101F9000D01630F086EF8D0D823010F40E946C1157
:101FA000CC2031F18091CF0280FD22C0F701128256
:101FB0008595859585950E94CC23C7010E94DA08F6
:101FC0008091CF028595859585950F900F900F9004
:101FD0000F900F90DF91CF911F910F91FF90EF9095
:101FE000DF90CF90BF90AF909F908F900C948E23F6
:101FF0000F900F900F900F900F90DF91CF911F9146
:102000000F91FF90EF90DF90CF90BF90AF909F9097
:102010008F9008950895EF92FF920F931F93CF939F
:10202000DF93E901662309F44BC0242F30E0EFEF82
:10203000F0E0E61BF109B901E69F9001E79F300D42
:10204000F69F300D1124232F8B01031B11095CE334
:10205000E52EF12CB7010E94C630FB01BC01069FA2
:10206000C001079F900D169F900D1124B7010E948B
:10207000C630E230F105B1F040F4309779F0319795
:1020800011F5832F242F461B21C0E430F105A1F068
:1020900068F03597C1F4842F861B18C0832F262F34
:1020A000230F14C0862F830FE42F03C0E42FE61BF9
:1020B000842F432F2E2F0AC0842F462F430F06C094
:1020C000842F242F03C080E020E040E0E42FF0E0E4
:1020D000EE55F64F4491E22FF0E0EE55F64F949115
:1020E000E82FF0E0EE55F64FE49149839883EA83B8
:1020F000DF91CF911F910F91FF90EF9008959091F4
:10210000350292FF0DC0282F2871283019F4877FDF
:10211000846006C0282F2471243011F48B7F8860DE
:1021200093FF0DC0282F2871283119F4877E846110
:1021300006C0282F2471243111F48B7E886194FD10
:10214000877E08951F93CF93DF93CDB7DEB7679750
:102150000FB6F894DEBF0FBECDBF4B8B5C8B6D8B83
:102160007E8B8F8B86E09E01235F3F4FD901E82F46
:102170001D92EA95E9F795E0FE017396D901019069
:102180000D929A95E1F7F901DE01179601900D92F3
:102190008A95E1F7CE0107960E946D2481113EC019
:1021A00086E0FE013796DE01119601900D928A9528
:1021B000E1F7FF81E8856A857B856115710531F05E
:1021C000EF3F31F481E0FF3F19F403C081E001C02B
:1021D00080E080FD23C020916C0230E0C9010196AF
:1021E0008770992740919D0250E08417950779F1F7
:1021F000F983EA837D836C8396E0929FD001939F5D
:10220000B00D1124A359BD4FFE01319601900D92DE
:102210009A95E1F780936C020E94FB2316E080916F
:102220009D0290916C02891709F1189FC001112439
:1022300083599D4F0E946D248823C1F080919D0297
:1022400090E001968770992780939D02E8CF1092C5
:10225000D7020E94072C10926C0210929D02E6E6B3
:10226000F2E086E0DF011D928A95E9F767960FB6E6
:10227000F894DEBF0FBECDBFDF91CF911F910895BF
:102280002091A5013091A6012817390771F090938C
:10229000A6018093A501E0913802F09139023097B0
:1022A00021F00084F185E02D099408952091A30187
:1022B0003091A4012817390771F09093A4018093FD
:1022C000A301E0913802F0913902309721F00680A5
:1022D000F781E02D09940895E0913802F0913902D8
:1022E000309721F00190F081E02D099480E008956D
:1022F0008091570280FD0AC0E1E9F1E0118210826D
:102300001282339691E0E33AF907C1F7539A62E1FA
:1023100070E081E991E00E94592687EC90E00197F6
:10232000F1F700C000000895EF92FF920F931F9302
:10233000CF93DF93EC018C819D8101968170992769
:102340009D838C8381E9E82E81E0F82E10E008E778
:10235000212F26958C819D81820F911D8170992757
:10236000970140915A0260915902FC010E9FC001F1
:102370000F9F900D11240E940B101F5FF3E0EF0ED2
:10238000F11C163029F7DF91CF911F910F91FF902B
:10239000EF900C9478110F931F93CF93DF93C1E9C3
:1023A000D1E0FE01118210821282339681E0E33A7D
:1023B000F807C1F700E010E080919001082E000CB2
:1023C000990B08171907ECF080910D01082E000CED
:1023D000990B80179107ACF080915702881F8827CE
:1023E000881F90915802592F550F97FB992790F904
:1023F0009E0140915A0260915902852B0E940B1058
:1024000003C0198218821A820F5F1F4F239606306D
:10241000110591F60E94781180910C019091900124
:10242000980F9093900120910D01280F20930D019A
:10243000121614F495301CF0819580930C01DF91F5
:10244000CF911F910F910895CF92DF92EF92FF925B
:102450000F931F93CF93DF93FC01828180FF03C012
:10246000DD24DA9402C0DD24D39401E911E0C0E058
:10247000D0E0F80111821082128294E0E92EF12C52
:10248000C12C80918F018C0D87FD8A5F082E000C76
:10249000990BC817D907E9F480915A028E9DA001C3
:1024A0008F9D500D112455954795559547958091D1
:1024B0005702881F8827881F90915802592F550F5F
:1024C00097FB992790F9980160915902852B0E94FA
:1024D0000B10CD0CF1E0EF1AF10899F621960D5F83
:1024E0001F4FC630D10529F60E94781180918F01C7
:1024F00091E0D91206C0811102C085E007C0815069
:1025000005C090E00196BE010E94DA3080938F01F1
:10251000DF91CF911F910F91FF90EF90DF90CF90BF
:102520000895CF92DF92EF92FF920F931F93CF9374
:10253000DF93EC0181E9E82E81E0F82E00E010E065
:1025400098E6C92EDD24D3948C819D81800F911F44
:10255000B6010E94DA30970140915A026091590207
:102560000E940B10045C1F4F83E0E80EF11C08363C
:1025700081E0180749F70E9478112A818C819D819A
:1025800020FF05C00196B8010E94DA3007C0181676
:1025900019061CF087E691E001C001979D838C83AA
:1025A000DF91CF911F910F91FF90EF90DF90CF902F
:1025B0000895CF93DF9300D01F92CDB7DEB720915F
:1025C000570220FF18C09E012F5F3F4F0E940B1043
:1025D0008091570280FF0FC08B8199812A81E1E9A8
:1025E000F1E0218390838283339631E0E33AF3076D
:1025F000C1F70E9478110F900F900F90DF91CF914B
:102600000895CF93DF93EC01E7E5F2E04381628127
:102610008C819D810E94D9128C819D81019668E6F2
:1026200071E00E94DA309D838C83DF91CF91089511
:10263000CF93DF93EC016C8170E080E090E00E942A
:10264000BB2E20E030E04FE753E40E94DE2D2BED5F
:102650003FE049E450E40E94E42F0E9451300E9480
:10266000582E2BE43AE34EE25FE30E94712D20EFF7
:102670003BEF48ED52E40E94E42F0E948A2E462F41
:10268000E7E5F2E08081881F8827881F9091580233
:10269000292F220F97FB992790F96281822B0E94A4
:1026A000D9128C8190E001968C83DF91CF910895AF
:1026B0008091570280FF03C086958F73089580E054
:1026C000089580915702282F26952F7330E0211509
:1026D000310519F48178826005C02332310524F078
:1026E000817884648093570230915702432F441FAE
:1026F0004427441F20915802522F550F852F842BB9
:1027000027FB992790F9893641E094077CF068E629
:1027100071E00E94DA3080FB37F9309357028695DA
:102720002078822B90FB87F9809358020895CF92EE
:10273000DF92EF92FF926B017C010E946113B7015F
:10274000A60188E090E0FF90EF90DF90CF900C948E
:102750004F2D5F926F927F928F929F92AF92BF9216
:10276000CF92DF92EF92FF920F931F93CF93DF935D
:1027700000D01F92CDB7DEB78C01E62EF42E522E7C
:102780008091570280FF97C0E82FE695EF73AE2F38
:10279000B0E0A75CBE4F9C9190935C02282F2E77EF
:1027A0002230C1F49E012F5F3F4FC8010E940B10E1
:1027B0008091570280FF5FC08B8199812A81E1E976
:1027C000F1E0218390838283339631E0E33AF3078B
:1027D000C1F74FC0923019F4F0905A024CC09630B5
:1027E00069F4881F8827881F90915802292F220F8B
:1027F000022F082B97FB112710F93DC0993089F360
:102800009931C9F5E951E0FD02C021E001C02FEF87
:10281000E695F0E0EE0FFF1FEE55F54F8591949190
:1028200066E070E00E94C63026034001279F900CAE
:102830001124580188E9A81A8EEFB80A91E9C92E27
:1028400091E0D92E28E6622E77247394C501B30156
:102850000E94C63096014F2D6E2D0E940B10A80CC1
:10286000B91C33E0C30ED11C83EAC81681E0D80638
:1028700069F70E9478118091570200FB87F98093D5
:102880005702902F9695809158028078892B10FBE3
:1028900087F980935802E0925902F0925A0255202B
:1028A00051F06091570270915802809159029091B5
:1028B0005A020E9497130F900F900F90DF91CF91C3
:1028C0001F910F91FF90EF90DF90CF90BF90AF904E
:1028D0009F908F907F906F905F9008959091570296
:1028E00090FF4AC09178811102C0926007C0833284
:1028F00010F0946403C08F73880F982B9093570245
:10290000662351F0609157027091580280915902EC
:1029100090915A020E9497136091570266956F73C7
:1029200070E04BE050E081E091E00E94F430892BB0
:1029300019F010925D0209C081E080935D020E944F
:10294000FD21909352028093510281E080935402C2
:1029500080915702881F8827881F90915802392F2D
:10296000330F97FB992790F920E040915A0260912C
:102970005902832B0C94A913089561E00C946E14F2
:102980008091570286958F73815009F482E261E04D
:102990000C946E148091570286958F738F5F8332EB
:1029A00008F081E061E00C946E14E7E5F2E083E06A
:1029B0008083109258028FEF828383831482608118
:1029C0007181828193810C949713CF93DF9326E4D6
:1029D000829FC0011124FC0137E0739FE00DF11DBF
:1029E0001124E60FF11DEE0FFF1FEA55FE4FC591B2
:1029F000D491CE01C238D10549F1B0F4C133D1052B
:102A000009F464C048F4C932D10509F458C0CA3287
:102A1000D10509F462C068C0C533D10509F448C0C6
:102A2000C933D10599F060C0C33ED10541F138F4F6
:102A3000C03ED10591F0C23ED105B1F055C0C63EB1
:102A4000D10521F1C73ED10561F14EC0209135027B
:102A500020FD09C221FD07C208C22091350220FFD6
:102A600004C289E390E001C22091350222FFFDC13A
:102A70008091350284FDA9C183EE90E0F6C180917A
:102A8000350282FFF5CF82EE90E0EFC12091350252
:102A900023FFEBC18091350284FD97C187EE90E062
:102AA000E4C18091350283FFF5CF86EE90E0DDC171
:102AB0002091350225FFD9C189E290E0D6C120914D
:102AC000350225FFD2C185E390E0CFC120913502C8
:102AD00026FFCBC18AE290E0C8C12091350226FFD3
:102AE000C4C181E390E0C1C1C11540E5D40708F03D
:102AF00049C0C11520E4D20708F030C1C83ED10555
:102B000020F5C03ED10508F0B0C1C83AD10570F437
:102B1000C53AD10508F0ADC0C130D10509F4A5C151
:102B200008F453C1249708F450C19FC1CF3BD1058D
:102B300008F4AAC0C03CD10508F447C1CE01880FF3
:102B4000991FFC01EE5DF74FFEC0C11530E2D307BF
:102B500060F4C11541E0D40708F087C1C03FD1053A
:102B600008F433C1CE01906580C1C11580E3D80758
:102B700008F0ECC0CE019F70FC01EE0FFF1FEE5578
:102B8000F64FE1C0C11525E5D20708F045C0C115D3
:102B900034E5D30708F0FAC0C11542E5D40718F5AB
:102BA000C11581E5D80708F0DDC0CE0174E0969527
:102BB00087957A95E1F7282F23703C2F337081E0B9
:102BC00090E002C0880F991F3A95E2F79C68922B1B
:102BD000EC2FEF70E695E69520E2E29FF0011124DC
:102BE0008E2B9F2B42C1AE01437055272C2F26956B
:102BF0002695C115D34508F0BAC081E090E002C027
:102C0000880F991F4A95E2F740E2249F9001112412
:102C1000822B932B9C6829C1C11549E5D40798F4F0
:102C2000C11588E5D80708F0B6C0C11526E5D2075A
:102C300008F0CBC08C2F0E947F108F7190E0982FEE
:102C40008827906212C1C1153AE5D30708F4A8C0DD
:102C5000CE0190568115904208F0B7C08D2F8F712C
:102C60000E947F10FE01FF27F0628F719F01382BB9
:102C7000AAC0C53AD10509F4ABC0C63AD10509F0DE
:102C8000AAC082E890E4F1C0C83AD10509F4A6C010
:102C9000C93AD10509F4A5C0CA3AD10509F4A4C0BE
:102CA000CB3AD10509F4A3C0CC3AD10509F4A2C0AE
:102CB000CB3BD10509F4A1C0CC3BD10509F4A0C0A0
:102CC000CD3AD10509F49FC0C03BD10509F49EC09F
:102CD000CE3AD10509F49DC0CF3AD10509F49CC084
:102CE000C13BD10509F49BC0C23BD10509F49AC090
:102CF000C33BD10509F499C0C43BD10509F498C080
:102D0000C53BD10509F497C0C63BD10509F496C06F
:102D1000C73BD10509F495C0C83BD10509F494C05F
:102D2000C93BD10509F493C0CD3BD10509F492C04C
:102D3000CE3BD10509F491C0CA3BD10509F490C03E
:102D400080E094E492C0859194918FC0CE01992740
:102D5000D3FF02C0986C89C0906C87C0CE019F7071
:102D6000906A83C09C2F8827816F906A7EC081E023
:102D700090E002C0880F991F4A95E2F740E2249F35
:102D800090011124822B932B9A686FC09C2F882767
:102D9000846F906A6AC09C2F8827806F906A65C094
:102DA0008C2F8F700E947F10FE0194E0F695E795BE
:102DB0009A95E1F7EF70F0E0FE2FEE27F06A8F7042
:102DC000806E9F01282BC90150C080E090E04DC06B
:102DD00081E890E44AC083E890E447C082EE94E43E
:102DE00044C089EE94E441C08AEE94E43EC085EB91
:102DF00094E43BC086EB94E438C083EB94E435C0A4
:102E000084EB94E432C087EB94E42FC08CEC94E420
:102E10002CC08DEC94E429C083E895E426C08AE8B0
:102E200095E423C082E995E420C084E995E41DC0BF
:102E300081E296E41AC083E296E417C084E296E445
:102E400014C085E296E411C086E296E40EC087E2E3
:102E500096E40BC08FE694E408C080E794E405C0D4
:102E60008AE296E402C080EE90E0DF91CF9108956F
:102E7000FF920F931F93CF93DF938C01F80124915E
:102E8000222309F444C0C8010196213041F48C0189
:102E9000FC01C4918C2F0E94612C8C2F33C02230F6
:102EA00031F48C01FC0184910E94612C2DC02330EF
:102EB00021F48C01FC01849125C030E0F901EE5D24
:102EC000F64FF490F901EE55F74FD491F901EE5D0C
:102ED000F74FC491DD2319F081EE0E94612CCC23C1
:102EE00019F086EE0E94612C8F2D0E94612C8F2D8F
:102EF0000E94292CCC2319F086EE0E94292CDD2378
:102F000019F081EE0E94292C0F5F1F4FB7CFDF9180
:102F1000CF911F910F91FF900895EF92FF920F9321
:102F20001F93CF93DF93CDB7DEB72A970FB6F894F0
:102F3000DEBF0FBECDBF8C016AE178E00E94951A1A
:102F40008091CB029091CC02A091CD02B091CE02A3
:102F500080319105A105B10509F451C000F5823019
:102F60009105A105B10509F444C060F40097A105DD
:102F7000B105E1F10197A105B10509F052C06AE080
:102F800078E04BC084309105A105B105A9F10897FF
:102F9000A105B10509F045C067EF77E03EC0803874
:102FA0009105A105B10589F168F480329105A1056B
:102FB000B10541F180349105A105B10591F563EEAC
:102FC00077E02BC0811522E09207A105B10501F140
:102FD000811524E09207A105B105E9F08115914022
:102FE000A105B105F1F46FEC77E017C062E178E07C
:102FF00014C064E078E011C06DEF77E00EC061EFBF
:1030000077E00BC06AEE77E008C06CED77E005C0B2
:1030100064EC77E002C06DEB77E0C8010E94951A7E
:1030200028C066EB77E0C8010E94951A8091CE0215
:103030008F938091CD028F938091CC028F9380915A
:10304000CB028F9385E391E09F938F931F928AE049
:103050008F93CE0101967C019F938F930E9427311D
:10306000B701C8010E94A91A0FB6F894DEBF0FBEBF
:10307000CDBF2A960FB6F894DEBF0FBECDBFDF914D
:10308000CF911F910F91FF90EF9008958EE14A9B91
:1030900002C08150E1F74A9BFECF0895615091E054
:1030A00001C0990F6A95EAF720E031E0992361F0B9
:1030B000492F482319F05A9A232701C05A9840E211
:1030C0004A95F1F79695F2CF222311F05A9A01C052
:1030D0005A9880E28A95F1F75A980895FC012AE0FF
:1030E0002A95F1F790E020E080E031E0261779F0B2
:1030F00040E14A95F1F7880F4A9B02C0816093270F
:1031000000C0000040E14A95F1F72F5FEFCF20E1CA
:103110002A95F1F729B100C0000030E13A95F1F7A6
:1031200022FB222720F992272081920F9083089575
:10313000EF92FF920F931F93CF93DF931F92CDB720
:10314000DEB719828C017C01E60EF11C0E151F05FD
:1031500059F00E94461868E0CE0101960E946E1850
:10316000F80181938F01F2CF81E09981911180E084
:103170000F90DF91CF911F910F91FF90EF900895E5
:103180005A9880E28A95F1F75A9A0895FF920F9320
:103190001F93CF93DF93EC018C01060F111DC01715
:1031A000D10741F0F9900E94C01868E08F2D0E946D
:1031B0004E18F5CFDF91CF911F910F91FF90089599
:1031C0000F931F93CF93DF932091D00130E0281706
:1031D00039070CF471C09C0193E0220F331F9A95BC
:1031E000E1F7C091D101D091D201C20FD31FF89461
:1031F000529A5A9845E04A95F1F70000982F969513
:1032000095708570890F982F937086958695890F94
:103210008901082B0E94C01884E08A95F1F700C04C
:1032200067E0802F0E944E1840E14A95F1F75298CE
:103230005A9A4A9902C000C0FCCF87E090E04A9BAE
:103240000EC0019751F4529A5A9AE881F98181E0AF
:103250008083789481E090E031C000C0F0CF6D8130
:10326000662381F08E819F810E94981881110AC087
:10327000529A5A9AE881F98182E08083789482E0B8
:1032800090E01CC00E94461880E28A95F1F75A9897
:10329000529A40E14A95F1F76A81662321F08B81C9
:1032A0009C810E94C6180E94C018E881F981108292
:1032B000789480E090E002C084E090E0DF91CF91CC
:1032C0001F910F9108950F931F93CF93DF938C015C
:1032D0000C5A1F4FD801ED91FC91119760832D91ED
:1032E0003C9111972F5F3F4F2D933C93281B390B37
:1032F00024353105B9F4EC01BC016B5E7F4F4FE31F
:1033000050E00E940E31CE01CF96F8019183808368
:1033100045E150E060E270E0DF91CF911F910F91A5
:103320000C942031DF91CF911F910F9108951F933D
:10333000CF93DF93FC01EA5AFF4F21E020836A30EC
:1033400099F4EC013297808191818C1B9D0B65E192
:1033500070E00E94DA30182F153158F460E2CE0187
:103360000E9463191F5FF8CFDF91CF911F910C94DA
:103370006319DF91CF911F910895CF93DF93EC01F3
:10338000682F83E090E00E943D2DBE0180E090E038
:10339000DF91CF910C94ED23E8EDF0E08081806126
:1033A00080838AE18A95F1F700C08091D90081700D
:1033B0000895CF93DF93A7E7B1E04CE751E061E0D8
:1033C00070E08D91E82FE295EF70F0E021A18F7011
:1033D000EB0102C0CC0FDD1F8A95E2F7CE019C2FD6
:1033E0009095922391A392A1892B82A34A175B0700
:1033F00041F7DF91CF9108959F92AF92BF92CF9204
:10340000DF92EF92FF920F931F93CF93DF93809100
:103410001101811103C0C5E0D0E002C0C0E0D0E0DE
:10342000AE01455D5D4F7A0187E7C82E81E0D82E59
:103430008A01AA24A394B12C25E0922EFCE7CF1692
:10344000F1E0DF0609F44AC0F60181916F01E82F2F
:10345000E295EF70F0E021A18F70A50102C0440F4A
:10346000551F8A95E2F7CA01922F982B91A392A13A
:103470008095892382A350EA5A95F1F7E1E8F1E0BB
:1034800020E040E050E03191A32FA295AF70B0E072
:1034900090968C9190E03F7002C0959587953A95F3
:1034A000E2F780FD07C0C501042E01C0880F0A9411
:1034B000EAF702C080E090E0282B4F5F5F4F473073
:1034C000510509F7F8018081821719F02083909245
:1034D0000E010E94D9190F5F1F4FB0CF80910E01CE
:1034E0008823B1F0815080930E01811103C0C55C27
:1034F000DD4F07C08FE99FE00197F1F700C00000A2
:1035000007C0F70191917F0199938F5F8530C9F7CB
:1035100081E0DF91CF911F910F91FF90EF90DF90AD
:10352000CF90BF90AF909F9008950F931F93CF932C
:10353000DF938C01EB01FE016491662329F0C80141
:103540000E9497192196F7CFDF91CF911F910F918C
:103550000895EF92FF920F931F93CF93DF937C0117
:10356000EB01FB0101900020E9F78F0101501109E7
:10357000C017D10728F46991C7010E949719F8CFA5
:10358000DF91CF911F910F91FF90EF9008951F92BF
:103590000F920FB60F9211240F931F932F933F9307
:1035A0004F935F936F937F938F939F93AF93BF934B
:1035B000EF93FF93CF93DF931F92CDB7DEB71982BE
:1035C0000E94461867E0CE0101960E946E18382FBF
:1035D000369536953695932F96959570232F2570B1
:1035E000920F292F2370969596958770920F8913C5
:1035F00048C08981811145C08091D001831708F4AA
:1036000040C080E18A95F1F75A9A529AA2E0AA95B1
:10361000F1F700C00091D1011091D201B8E03B9FB9
:10362000000D111D11245A98F8016581662321F0BF
:10363000868197810E94C6180E94C018F0E1FA9511
:10364000F1F75A9852985A9A80E18A95F1F7D80181
:1036500012966C911297662369F013968D919C9146
:1036600014970E949818D801ED91FC91811105C022
:1036700082E004C0D801ED91FC9188E080830E9433
:1036800046180F90DF91CF91FF91EF91BF91AF91CD
:103690009F918F917F916F915F914F913F912F916A
:1036A0001F910F910F900FBE0F901F9018951F92B2
:1036B0000F920FB60F9211248F939F93EF93FF9366
:1036C0008091B900887F803869F038F48823C9F187
:1036D0008036C9F51092B80136C0883A09F1883BA6
:1036E000F9F031C08091B801811111C08091BB0007
:1036F0008093B7018091B701803120F01092B7011B
:1037000080E001C081E091E09093B8011DC0E0919C
:10371000B701F0E08091BB00E955FE4F808308C0FF
:10372000E091B701F0E0E955FE4F80818093BB0046
:103730008091B70190E001968F7099278093B7012F
:1037400002C01092BC0081E09091BC008295880F6D
:10375000880F807C9568892B8093BC00FF91EF9146
:103760009F918F910F900FBE0F901F90189584E935
:103770008093BC0083E390E02091BC0024FD02C054
:103780000197D1F7089583E390E02091BC0027FDD5
:1037900002C00197D1F708958093BB0084E880931D
:1037A000BC000E94C31B9091B900987F81E09832C1
:1037B00009F480E00895CF93C82F0E94222681113A
:1037C0000AC080E00E94CC1B811105C08C2F0E9492
:1037D000CC1BC1E08111C0E00E94B71B8C2FCF91A0
:1037E0000895BF92CF92DF92EF92FF920F931F93B3
:1037F000CF93DF930E94FD219093BA018093B9018A
:103800008FEA0E94DB1B63E082E20E944726882346
:10381000D1F16DE781E20E9447268823A1F10E9441
:103820002226811130C080E40E94CC1B81112BC064
:1038300083EDE82E81E0F82E94E0B92EC0E0D0E0D0
:10384000F701EC0FFD1FC08086E0C89E60011124C7
:1038500000E010E0F601E00FF11FE455F54F849110
:103860000E94CC1B0F5F1F4F0630110599F7219660
:10387000C531D10529F7BA9485E1E80EF11CB110E4
:10388000DDCF10922902DF91CF911F910F91FF9010
:10389000EF90DF90CF90BF900C94B71BEF92FF9208
:1038A0000F931F93CF93DF93CDB7DEB7C557D109E1
:1038B0000FB6F894DEBF0FBECDBF44E550E060E226
:1038C00070E08E010F5F1F4FC8010E942031679684
:1038D0001FAF0EAF679781E068968FAF68978091B2
:1038E0002A02882309F499C08091350282FD0DC017
:1038F0006AE170E1C8010E94951A68E170E1C801AF
:103900000E94951A6DE170E10CC060E270E1C8019F
:103910000E94951A66E170E1C8010E94951A63E25F
:1039200070E1C8010E94951A64E170E1C8010E942B
:10393000951AC8010E948D1762E170E1C8010E94CA
:10394000951A0E946C1180FD03C062E070E102C014
:103950006AE070E1C8010E94951A0E946C1181FD15
:1039600003C068EF7FE002C06DEF7FE0C8010E94F6
:10397000951A0E946C1182FD03C06CEE7FE002C0BC
:1039800061EF7FE0C8010E94951A66EF7FE0C801F1
:103990000E94951A2091570220FF67C080915A0219
:1039A00031E1632F0E94BA301F928F9380915902A8
:1039B0000E94BA301F928F93822F881F8827881FFA
:1039C00090915802292F220F822B97FB992790F96B
:1039D0006AE070E00E94DA307F936F938091570223
:1039E00086958F731F928F938CE591E09F938F93B1
:1039F0001F928EE18F937E0128E5E20EF11CFF926B
:103A0000EF920E942731B701C8010E94A91A0FB690
:103A1000F894DEBF0FBECDBF28C066E270E1C801DA
:103A20000E94951A8091570280FF1CC086958F7363
:103A30001F928F9380E791E09F938F931F928EE167
:103A40008F937E0198E5E90EF11CFF92EF920E94A0
:103A50002731B701C8010E94A91A0FB6F894DEBF3A
:103A60000FBECDBFC8010E948D1744E550E0B801DC
:103A700083ED91E00E940131892B59F084E5F80132
:103A8000A3EDB1E001900D928A95E1F781E080937A
:103A9000290280912902811104C0809100018823AC
:103AA00021F00E94F11B109200018091B9019091C8
:103AB000BA010E94D32181369A4E18F08EEA0E94F4
:103AC000DB1BCB58DF4F0FB6F894DEBF0FBECDBF68
:103AD000DF91CF911F910F91FF90EF900895EF929A
:103AE000FF920F931F93CF93DF9380912A02882335
:103AF00009F472C00E94FC1980911101811103C068
:103B0000C5E0D0E002C0C0E0D0E0C55CDD4F45E0DC
:103B100050E0BE0184EC91E00E9401317C0185E01F
:103B2000FE01A4ECB1E001900D928A95E1F780913D
:103B30001101811103C0C0E0D0E002C0C5E0D0E0B7
:103B40009091100180910F01981761F082E090E050
:103B50000E94E0188C01892B39F480910F01809329
:103B6000100102C000E010E0EF2849F48091BB0191
:103B70009091BC01892B19F480E090E002C081E0B3
:103B800090E00E94E018892B49F48091C90180934C
:103B90000F011092BC011092BB0106C081E090E0C1
:103BA0009093BC018093BB010115110531F00230E7
:103BB000110509F04FC028984DC0289ADE01A55C78
:103BC000BD4F85E0EEEBF1E001900D928A95E1F7B3
:103BD0005D9A1092BD0134C00E94FC1980911101C0
:103BE000811103C0E5E0F0E002C0E0E0F0E0E55C58
:103BF000FD4F80E020E030E0D901A254BE4F4C914F
:103C00009191491381E09C932F5F3F4F25303105FF
:103C100099F79091C901890F8093C9018091110191
:103C2000811103C0A0E0B0E002C0A5E0B0E0A55C57
:103C3000BD4F85E0E4ECF1E001900D928A95E1F74B
:103C40000E944E1C81E0DF91CF911F910F91FF9058
:103C5000EF9008955D988091BD018F5F8093BD01C5
:103C6000863070F380911101811103C0E0E0F0E033
:103C700002C0E5E0F0E0E55CFD4F80E090E01192ED
:103C8000019685309105D9F7DBCFCF93C62F0E94DF
:103C9000DB1B882321F08C2FCF910C94DB1B80E061
:103CA000CF9108950895089508958091D9020895B7
:103CB000CF93DF932091CF01211103C02091E40223
:103CC00002C0223011F0243039F521E02093E900C0
:103CD0002FEF3091E800215035FD06C035ED3A95C3
:103CE000F1F700002111F5CF2091E80025FF14C065
:103CF000EC0140E050E068E070E00E94782680919E
:103D0000E8008E778093E80088E0FE01AAEDB2E03B
:103D100001900D928A95E1F7DF91CF910895CF93AD
:103D2000DF93CDB7DEB72A970FB6F894DEBF0FBE8C
:103D3000CDBF84B7877F84BF0FB6F894A8958091D4
:103D40006000886180936000109260000FBE80E880
:103D5000809361001092610085B7806885BF85B748
:103D6000806885BF0E94CC19809311010E94CC19F4
:103D7000882361F082E191E09093D2018093D10198
:103D800083E08093D001529A5A9A11C082E191E067
:103D90009093D2018093D10183E08093D001529817
:103DA0005A9AEA9A809169008F7C8093690078948E
:103DB0000E94D5290E94F4298091E20084608093BA
:103DC000E20078948091E4028823A1F01091E90048
:103DD0001F709091EC00892F817090FD80E8182B66
:103DE0001092E9008091E80083FD0E94D3261F70A5
:103DF0001093E90082E084BD93E095BD9AEF97BDF2
:103E000080936E00809146028360886080934602B2
:103E10000E94D919A1E8B1E048E851E061E070E002
:103E20008D91E82FE295EF70F0E021A18F708B016A
:103E300002C0000F111F8A95E2F7C801902F9095DC
:103E4000922391A392A1892B82A34A175B0741F782
:103E5000559A209A5D9A289AABE2B2E0F5E4EF2EEB
:103E6000F2E0FF2EEBE3F2E011921D92EE16FF0658
:103E7000D9F70E94CC1980932A020E944C2281110A
:103E800002C00E9457220E94CC19182F1092B9002C
:103E90008CE08093B8008EEA0E94DB1B882309F433
:103EA000AFC060E885ED0E94451E882309F4A8C0D4
:103EB0006FE188EA0E94451E882309F4A1C060E0F2
:103EC00083ED0E94451E882309F49AC080E40E9475
:103ED000DB1B882309F494C064E18DE80E94451E31
:103EE000882309F48DC060E080E20E94451E88238B
:103EF00009F486C0111114C080EA0E94DB1B8823DC
:103F000009F47EC080EC0E94DB1B882309F478C092
:103F100062E08AED0E94451E882309F471C008C042
:103F200081EA0E94DB1B882309F46AC088ECEBCF8E
:103F30006FE881E80E94451E882309F461C061EFA3
:103F400089ED0E94451E882309F45AC060E48BED78
:103F50000E94451E882309F453C084EA0E94DB1B9B
:103F6000882309F44DC086EA0E94DB1B882309F4EC
:103F700047C08EE20E94DB1B882309F441C08FEA10
:103F80000E94DB1B8823E1F160E081E80E94451E6E
:103F90008823B1F144E550E060E270E083ED91E008
:103FA0000E94203183ED91E09093280280932702B4
:103FB00081E08093290263E082E20E944726882301
:103FC000D9F06FE781E20E9447268823A9F00E947A
:103FD0002226811111C080E40E94CC1B81110CC0EB
:103FE00004E010E080E00E94CC1B1F5F1038D1F786
:103FF0000150B9F7109229020E94B71B0E94F11BD1
:104000000E944C22811102C00E94572282E090E05F
:104010000E94292D8093460284E090E00E94292D81
:1040200090E0909336028093350283E090E00E9406
:10403000292D682F70E080E090E00E94ED238091B0
:104040003702811139C08091460281608093460217
:104050000E944C22811104C00E9457220E94D51454
:1040600088E090E00E94312D6093570270935802CF
:104070008093590290935A026E7771F40E94D5147E
:1040800088E090E00E94312D6093570270935802AF
:104090008093590290935A020E94611310925D021C
:1040A0008091570280FF05C0869560E08F730E9463
:1040B0006E1481E0809337028AE291E09093390296
:1040C0008093380299249A94CC24C394D12CE8E1AB
:1040D000AE2EB12C8091E402853009F036C080917B
:1040E000E402843011F110923A0280E40FB6F894A1
:1040F000A895A09260000FBE8093600083B7817F77
:10410000846083BF83B7816083BF7894889583B7C9
:104110008E7F83BF0FB6F894A89580916000886168
:1041200080936000109260000FBE8091E3028823AC
:1041300009F4D0CF0E946F1DEBE3F2E08191811171
:10414000F6C0EE16FF06D1F7C5CF0E946F1DE7E45B
:10415000F2E0ABE3B2E0612C712C762D6D912191F0
:104160002627B1F180E090E030E0182FA901082E59
:1041700002C0559547950A94E2F740FF25C0898310
:104180007A83C60102C0880F991F1A95E2F78C0145
:10419000862F90E08023912321E0892B09F420E0F1
:1041A0002B830E94FD218160782F9D838C83498120
:1041B0005A816B818D810E94A210F301E95BFD4F52
:1041C0008081082700831BC001968730910569F61E
:1041D0009FEF691A790A0AE06016710409F0BDCFF1
:1041E0009E829F8218860E94FD218160782F9A8787
:1041F00089874E815F8168858A850E94A2100E940E
:104200006C1190914502891721F00E946C118093E6
:10421000450280915D02882309F45CCF80915C02A5
:10422000E0915702E695EF73E81BE093530282306A
:1042300059F4F0E0EE58FF4EE4910E2F10E068E1E3
:10424000662E63E1762E45C0863059F4F0E0E159E0
:10425000FF4EE4910E2F10E051E0652E53E1752ED4
:1042600038C0893061F4E695F0E0E459FF4EE491FE
:104270000E2F10E041E9642E42E1742E2AC08F30E7
:1042800061F4E695F0E0E759FF4EE4910E2F10E05F
:1042900034E2632E32E1732E1CC0853159F4F0E014
:1042A000EA59FF4EE4910E2F10E02BEC622E21E133
:1042B000722E0FC0883139F408EE13E094E9692EAC
:1042C00091E1792E06C000ED17E08AE0682E80E1CA
:1042D000782E80915402882389F0109254020E9413
:1042E000FD21980120953095820F931F90935202E3
:1042F0008093510210925602109255028091510201
:10430000909152020E94D3218017910708F4E2CEC7
:10431000E0915102F09152020E0F1F1F10935202B2
:104320000093510281E592E0F3010995D3CE80E13B
:1043300089BD82E189BD09B400FEFDCF8091D8001E
:104340008F7D8093D8008091E00082608093E000B0
:104350008091E00081FDFCCFBDCE78941F920F923A
:104360000FB60F9211248F939F93AF93BF938091B9
:10437000CB019091CC01A091CD01B091CE010196DD
:10438000A11DB11D8093CB019093CC01A093CD01D1
:10439000B093CE01BF91AF919F918F910F900FBEBF
:1043A0000F901F901895CF92DF92EF92FF920F938C
:1043B0001F932FB7F8944091CB015091CC0160919D
:1043C000CD017091CE012FBF6A017B01EE24FF2445
:1043D0008C0120E030E0C016D106E206F30610F4AE
:1043E000415051099A01281B390BC9011F910F91A6
:1043F000FF90EF90DF90CF9008952FB7F8948091C1
:10440000CB019091CC01A091CD01B091CE012FBFF5
:1044100008951F920F920FB60F9211248F939F93BE
:10442000AF93BF9380913A02811113C08091CB0169
:104430009091CC01A091CD01B091CE014196A11DEA
:10444000B11D8093CB019093CC01A093CD01B0938B
:10445000CE01BF91AF919F918F910F900FBE0F90A2
:104460001F9018959C01FC0132969FEF80E04191CE
:10447000461789F09F3F19F4411101C0982F8F5FB3
:104480008630A9F79F3F39F0F901E90FF11D97FD3B
:10449000FA9562830895089580E090E00E94372D98
:1044A00021E08D3E9E4F09F020E0822F08956DEEB1
:1044B0007EEF80E090E00E945B2D60E082E090E083
:1044C0000E943D2D60E083E090E00E943D2D10921F
:1044D000D3021092D4021092D5021092D60260E05C
:1044E00084E090E00E943D2D60E085E090E00E9435
:1044F0003D2D60E086E090E00E943D2D6FEF87E06B
:1045000090E00E943D2D40E050E0BA0188E090E04C
:104510000E944F2D60E08DE090E00E943D2D40E034
:1045200050E0BA0188E190E00E944F2D60E087E101
:1045300090E00E943D2D40E050E0BA018FE090E015
:104540000E944F2D40E050E0BA0183E190E00C94CE
:104550004F2D8091D20281111092D2020895909134
:10456000D7028091D102892B2091D002982F922BD3
:1045700090935E028091D202882389F0892B8093E8
:104580005E02E0E6F2E097E080E0915029F02191B0
:104590002223D9F38F5FF9CF81110E94A922E091E4
:1045A0003802F0913902309731F00280F381E02D2A
:1045B0008EE592E009940895BF92CF92DF92EF9238
:1045C000FF920F931F93CF93DF938C01C090CB0288
:1045D000D090CC02E090CD02F090CE028091D30238
:1045E0009091D402A091D502B091D602C82AD92ABE
:1045F000EA2AFB2ACFE1D0E0D701C6010C2E04C085
:10460000B695A795979587950A94D2F780FD04C033
:10461000219790F7B12C07C0BC2EB8018C2F0E94B7
:10462000E5140197A9F38B2DDF91CF911F910F9185
:10463000FF90EF90DF90CF90BF900895CF93DF93DE
:10464000EC010E94DC22BE010E94E514DF91CF91B3
:10465000089527E0929F800D1124682F6695669536
:104660006695982F977085E0689FB001112440E00F
:1046700050E080E0FB01E40FF51FE256FD4F208182
:1046800030E0092E02C0369527950A94E2F7217092
:104690003327042E01C0220F0A94EAF7822B4F5FC2
:1046A0005F4F4530510531F7089527E0929F800D07
:1046B0001124E82FE695E695E695877051E001C054
:1046C000550F8A95EAF785E0E89FF0011124E2563C
:1046D000FD4F20E030E070E04081CB01022E02C0AF
:1046E000969587950A94E2F78170819584278523B2
:1046F000842781932F5F3F4F2530310569F7089557
:104700006093CB027093CC028093CD029093CE0243
:104710001092D1021092D0020C94AF220F931F93EB
:1047200041E050E060E070E004C0440F551F661F98
:10473000771F8A95D2F74095509560957095809136
:10474000CB029091CC02A091CD02B091CE028A0111
:104750009B01082319232A233B23C901B8011F9178
:104760000F910C9480232091CF0280958223809317
:10477000CF02982F977079F430E0482F082E000C64
:10478000550B2417350739F08595859585950E9439
:104790008E231092CF0208950F931F9341E050E0B3
:1047A00060E070E004C0440F551F661F771F8A95B4
:1047B000D2F78091CB029091CC02A091CD02B09122
:1047C000CE028A019B01082B192B2A2B3B2BC901F6
:1047D000B8011F910F910C9480236093D3027093C2
:1047E000D4028093D5029093D6021092D1021092F7
:1047F000D0020C94AF2280919D0290916C02891797
:1048000019F08F5F8770FBCF0895CF9380916B0273
:1048100082958F7009F05FC080916802882309F447
:104820005AC080919D02B0916C0270916602A09175
:1048300067024091690250916A0291E07F3F09F05E
:1048400090E0692FC6E08B1709F445C0411551056A
:1048500021F0AF3F21F020E003C021E001C0262F6E
:1048600090E020FD35C0C89FF001C99FF00D1124D4
:10487000E359FD4F21812A132BC02081271328C023
:104880002281211125C0238134812417350710F49A
:1048900021503109241B350B24363105C8F42091F1
:1048A0006B022F70206120936B0226E0289FF0019D
:1048B000299FF00D1124EE58FD4F80818F7080618B
:1048C000808386E692E00E94DA08CF910C94FB2365
:1048D00001968770B8CFCF910895AF92BF92CF92D3
:1048E000DF92EF92FF920F931F93CF93DF93CDB799
:1048F000DEB761970FB6F894DEBF0FBECDBF7C0167
:1049000085E0F701DE011D9601900D928A95E1F791
:10491000D7013C9111962C91119712960C915091C0
:104920006602609167028091690290916A02009725
:1049300031F06F3F31F441E05F3F19F403C041E0D3
:1049400001C040E0B42FB170BB2E40FD28C1F7017B
:10495000C380D480A0906802AA2009F4E3C04091EB
:104960006B02C816D90628F0D601A81BB90BCD01D9
:1049700004C0809590958C0D9D1D11E084369105A5
:1049800048F010E0407F09F093C086E692E00E9474
:10499000DA08FDC0842F807F09F051C0621312C075
:1049A000531310C0102F01110DC04F704061409380
:1049B0006B0286E692E00E94DA0880916B02F701B2
:1049C00085832EC1CD2831F02F3F31F481E03F3F68
:1049D00019F403C081E001C080E080FD03C081E0E4
:1049E000802702C080E090E0182F117080FF1CC06B
:1049F00080919D0240916C0256E0841709F4EDC04D
:104A000090E0589FF001599FF00D1124E359FD4F9C
:104A10006181261306C06081361303C062810613CC
:104A200003C001968770E9CF102F002309F4F8C066
:104A300080916B02816080936B0210E0F1C0621381
:104A40000CC053130AC0011108C080916B02F7011A
:104A50008583C7010E94DA0880C03D872E878D8537
:104A60009E850E94DE2B882369F1002359F1209155
:104A70006B02822F82958F7090E0029774F0809184
:104A800066029091670298878F831986DB86CA86B3
:104A90002C87CE0107960E94DA0886E0F701A6E689
:104AA000B2E001900D928A95E1F70E9405240DC0B5
:104AB000621769F03D872E878D859E850E94DE2BCB
:104AC000811119C0C7010E94DA0811E0A9C053136F
:104AD000F1CF0111EFCF80916B02F7018583C70100
:104AE0000E94DA0886E0E6E6F2E0DF011D928A9590
:104AF000E9F71A2D95C0002329F320916B02822F2C
:104B000082958F7090E0029744F2809166029091B6
:104B100067029A8389831B82DD82CC822E83CE0139
:104B20000196B9CFC816D90638F0C81AD90AB4E622
:104B3000CB16D10450F007C0809590958C0D9D1D2B
:104B40008436910510F010E022C0102F002309F4E4
:104B5000B9CF62130BC0531309C086E0F701A6E674
:104B6000B2E001900D928A95E1F75AC03D872E87F9
:104B70008D859E850E94DE2B81118FCF80916B02E7
:104B8000816080936B02C7010E94DA0849C0E6E6A3
:104B9000F2E086E0DF011D928A95E9F741C000232B
:104BA00009F490CF3D872E878D859E850E94DE2B50
:104BB000182F882309F486CF86E0F701A6E6B2E035
:104BC00001900D928A95E1F78091660290916702BB
:104BD0000E941E230E94052423C03D872E878D85B9
:104BE0009E850E941E23292F22952F70223028F4A3
:104BF0009F7039F0811105C00BC0243028F49F70DC
:104C000049F4805E883020F0C7010E94DA08B12E96
:104C10001B2D06C0D70115969C91907F91F7F8CF78
:104C2000812F61960FB6F894DEBF0FBECDBFDF9126
:104C3000CF911F910F91FF90EF90DF90CF90BF9099
:104C4000AF90089584EA8093BC000E94C31B8091BA
:104C5000B900887F883039F08091B900887F803131
:104C600011F081E0089588E78093BB0084E8809389
:104C7000BC000E94C31B8091B900887F883129F055
:104C80008091B900887F803461F780E00895CF93E8
:104C9000C62F0E94DB1B882349F080E00E94DB1BAB
:104CA000882321F08C2FCF910C94DB1B80E0CF91D7
:104CB00008952BB1277F3BB138604FB7F894FC01C2
:104CC000680F791FE617F70789F0819198E03BB9E3
:104CD000000000C087FF2BB9880F000000C000C093
:104CE00000C02BB900C09A9591F7ECCF4FBF089543
:104CF0000F931F93CF93DF938C010E942E2B811172
:104D000018C0E80108E010E08091E80085FD0AC0C5
:104D10008091E8008E778093E8000E942E2B8823F4
:104D200099F307C089918093F1000150110961F74F
:104D300080E0DF91CF911F910F910895982F9730C8
:104D400068F59093E900981739F05091EC002091A4
:104D5000ED004091F00003C0562F40E022E021FD1D
:104D600002C09F5FECCF3091EB003E7F3093EB00B1
:104D70003091ED003D7F3093ED003091EB003160DC
:104D80003093EB005093EC002093ED004093F00043
:104D90002091EE0027FDE5CF80E008958F7080938D
:104DA000E90081E008951F93CF93DF93CDB7DEB77D
:104DB000AA970FB6F894DEBF0FBECDBFE6EEF2E0C5
:104DC0008091F100819322E0EE3EF207C9F78091D5
:104DD000E702833009F460C030F4813071F0823032
:104DE00009F49CC0B3C08A3009F488C08B3009F440
:104DF0006BC0893009F0AAC020C08091E602813AD8
:104E000009F0A4C08091E800877F8093E80080913A
:104E1000EA029091EB02892B21F468E08AED92E09E
:104E200003C060E080E090E070E00E94802B809101
:104E3000E8008B778093E80089C08091E602813298
:104E400009F084C08091EA029091EB02892B09F06D
:104E50007DC08091E800877F8093E8008091E80022
:104E600082FD05C08091E4028111F8CF6FC02091CE
:104E7000F3008091F20090E0922B029729F4809148
:104E8000F1008B7F813021F48091F1008093D90271
:104E90008091E8008B7756C08091E602813A09F054
:104EA00055C08091EA029091EB02892B09F04EC027
:104EB0008091E800877F8093E8008091E80080FF80
:104EC000FCCF8091340139C08091E6028132F1F546
:104ED0008091EA029091EB02892BC1F58091E80064
:104EE000877F8093E8000E94612B8091E802809385
:104EF00034011092D7020E94072C28C08091E6024C
:104F0000813221F58091E800877F8093E8000E943C
:104F1000612B8091E9028093D80218C08091E6024B
:104F2000813AA1F48091E800877F8093E800809126
:104F3000E80080FFFCCF8091D8028093F10080913F
:104F4000E8008E778093E8000E94612B8091E80052
:104F500083FFBFC18091E6029091E702492F50E0A4
:104F60004A30510508F0B5C1FA01E856FF4F0C94DC
:104F7000EE30803821F0823809F0ABC108C0809152
:104F8000E2029091E302992389F082600FC0809140
:104F9000EA028F70873008F09CC18093E90080910D
:104FA000EB0085FB882780F91092E9009091E800DA
:104FB000977F9093E8008093F1001092F1005EC11A
:104FC000282F2D7F09F085C1882319F0823061F0E8
:104FD00080C18091E802813009F07BC1933009F0F3
:104FE00080E08093E3022EC08091E80281112AC004
:104FF0008091EA028F702FEF280F263008F069C1E8
:105000008093E9002091EB0020FF1CC0933021F435
:105010008091EB00806214C09091EB0090619093BE
:10502000EB0021E030E0A90102C0440F551F8A9532
:10503000E2F74093EA001092EA008091EB0088606A
:105040008093EB001092E9008091E800877F19C1FE
:1050500081113FC11091E8021F778091E3008078B1
:10506000812B8093E3008091E800877F8093E800A4
:105070000E94612B8091E80080FFFCCF8091E300CB
:1050800080688093E300111102C082E001C083E0D8
:105090008093E4021EC18058823008F01AC18091CA
:1050A000E8029091E9028C3D53E0950779F583E0A1
:1050B0008A838AE289834FB7F894DE01139620E051
:1050C0003EE051E2E32FF0E050935700E49120FFDF
:1050D00003C0E295EF703F5FEF708E2F90E0EA30F3
:1050E00010F0C79601C0C0968D939D932F5F243119
:1050F00049F74FBF8091E800877F8093E8006AE21C
:1051000070E0CE0101960E94802BA7C04091EA0278
:105110005091EB02292F332723303105A9F068F491
:105120002130310509F4E4C02230310509F0D1C045
:1051300082E290E0E6EBF0E13DC02132310579F109
:105140002232310581F1C5C0992781309105B9F02E
:1051500070F082309105D9F0039709F0BAC0EAEEF9
:10516000F0E1E4918E2F90E0EAEEF0E120C0EEE174
:10517000F1E1E4918E2F90E0EEE1F1E118C0E8E07A
:10518000F1E1E4918E2F90E0E8E0F1E110C0E0EF72
:10519000F0E1E4918E2F90E0E0EFF0E108C0452BC4
:1051A00009F4ABC096C0452B09F4ACC092C000977F
:1051B00009F48FC02091E800277F2093E800209118
:1051C000EC023091ED028217930708F49C0140E055
:1051D0002115310589F18091E402882309F43DC04D
:1051E0008530D9F18091E80083FD37C08091E800D7
:1051F00082FD2FC08091E80080FFEACF4091F3004C
:105200008091F20090E0942B2115310559F08830FF
:10521000910540F444914093F100319621503109B9
:105220000196F2CF41E0089709F040E08091E80054
:105230008E778093E800CCCF4111CDCF0AC080910A
:10524000E402882351F0853041F08091E80083FD2D
:1052500004C08091E80082FFF2CF8091E8008B7754
:105260008093E80036C08038A1F58091E800877F00
:105270008093E8008091E5028093F1008091E8003E
:105280008E778093E8000E94612B23C0811121C09A
:105290008091E8029091E90299270297D4F48091D5
:1052A000E800877F8093E8001091E8021093E50200
:1052B0000E94612B111106C08091E30087FD02C09E
:1052C00081E001C084E08093E40261EC81E00E940F
:1052D0009E268091E80083FF1AC08091E800877FB6
:1052E0008093E8008091EB0080628093EB000FC018
:1052F00082E190E0E8EDF0E15DCF89E090E0E8EC5C
:10530000F0E158CF80E490E0E6E7F0E153CFAA96D1
:105310000FB6F894DEBF0FBECDBFDF91CF911F91C6
:1053200008951F920F920FB60F9211242F933F935F
:105330004F935F936F937F938F939F93AF93BF939D
:10534000CF93DF93EF93FF93C091E900CF708091EB
:10535000EC00D82FD17080FDD0E81092E900809148
:10536000F000877F8093F00078940E94D3261092FB
:10537000E9008091F00088608093F000CD2BCF7021
:10538000C093E900FF91EF91DF91CF91BF91AF9171
:105390009F918F917F916F915F914F913F912F914D
:1053A0000F900FBE0F901F901895E8EDF0E08081F0
:1053B0008E7F80831092E2001092DA001092E1005A
:1053C000A0EEB0E08C9181608C9380818F77808398
:1053D00019BCA7EDB0E08C918E7F8C9380818F7E7D
:1053E00080831092EE020895CF92DF92EF92FF92A7
:1053F0000F931F93CF93DF93C8EDD0E088818F7E0A
:105400008883E7EDF0E080818160808384E082BF63
:1054100081E08093EE0288818E7F888302EE10E027
:10542000F80110821092DA0081EEC82ED12CF6011C
:10543000108288818F7788838881806888838881BB
:105440008F7D888319BC1092E4021092E5021092BD
:10545000E3021092E20290EEE92EF12CF701808136
:105460008B7F808388818160888360E080E00E94F8
:105470009E26F60180818E7F8083F8018081816085
:105480008083808188608083F70180818E7F808324
:10549000888180618883DF91CF911F910F91FF9068
:1054A000EF90DF90CF9008951F920F920FB60F925A
:1054B00011242F933F934F935F936F937F938F9319
:1054C0009F93AF93BF93EF93FF938091E10082FF8F
:1054D00009C08091E20082FF05C08091E1008B7FCE
:1054E0008093E1008091DA0080FF2AC08091D8008B
:1054F00080FF26C08091DA008E7F8093DA00809151
:10550000D90080FF18C080E189BD82E189BD09B45E
:1055100000FEFDCF81E08093E4028091EE028111D4
:105520000FC00E94D5290E94F4298091E200846076
:105530008093E20005C019BC1092E4021092EE02C2
:105540008091E10080FF17C08091E20080FF13C0CE
:105550008091E2008E7F8093E2008091E200806182
:105560008093E2008091D80080628093D80019BCBB
:1055700085E08093E4028091E10084FF34C0809153
:10558000E20084FF30C080E189BD82E189BD09B4B9
:1055900000FEFDCF8091D8008F7D8093D800809150
:1055A000E1008F7E8093E1008091E2008F7E809306
:1055B000E2008091E20081608093E2008091E50248
:1055C000882311F084E007C08091E30087FD02C0CA
:1055D00081E001C083E08093E4021092D7020E9430
:1055E000072C0E946C118091E10083FF26C08091FE
:1055F000E20083FF22C08091E100877F8093E10079
:1056000082E08093E4021092E5028091E1008E7FB7
:105610008093E1008091E2008E7F8093E200809190
:10562000E20080618093E20060E080E00E949E26BC
:105630008091F00088608093F000FF91EF91BF911E
:10564000AF919F918F917F916F915F914F913F911A
:105650002F910F900FBE0F901F9018952091E4008E
:105660003091E50095E64091EC00842F817040FF79
:1056700023C08091E80080FD1DC08091E402882352
:1056800099F0853099F08091EB0085FD11C0409133
:10569000E4005091E5002417350729F3915011F0EB
:1056A0009A01E1CF84E0089582E0089583E00895AF
:1056B00081E0089580E008954091E80042FFDDCF49
:1056C00008958091E60287FF11C08091E80082FD75
:1056D00005C08091E4028111F8CF11C08091E800EB
:1056E0008B770BC08091E402882349F08091E80019
:1056F00080FFF8CF8091E8008E778093E8000895CE
:105700002091EC023091ED022617370748F0611521
:10571000710539F42091E8002E772093E80001C04C
:10572000B901FC0120E06115710579F18091E40275
:105730008823F1F18530F1F18091E80083FD3CC0D0
:105740008091E80082FD2EC08091E80080FFEBCFC1
:105750002091F3008091F20090E0922B6115710589
:1057600051F08830910538F421912093F100615077
:1057700071090196F3CF21E0089709F020E08091AC
:10578000E8008E778093E800CECF2111CFCF0AC0FA
:105790008091E402882361F0853061F08091E80017
:1057A00083FD0AC08091E80082FFF2CF80E0089577
:1057B00082E0089583E0089581E008950E941E2309
:1057C000292F2F70E92FE295EF704E2F50E0FA014C
:1057D0003297EE30F105B8F4EE55FF4F0C94EE30F1
:1057E000803F99F018F4803E70F40FC0843F59F464
:1057F0000CC0803E50F0813F31F407C0822F869567
:1058000086958695089580E0089581E0089586E064
:10581000E0E6F2E0DF011D928A95E9F71092D102ED
:105820001092D0020C94AF22882341F08095909181
:10583000D70289238093D7020C94AF22089588233E
:1058400039F09091D702892B8093D7020C94AF2224
:1058500008958823A9F19CEF980F913A60F4EEE542
:10586000F2E09281891301C01282319642E0E4365F
:10587000F407B9F714C090E2980F983090F487704D
:1058800021E030E0A90102C0440F551F8A95E2F7DC
:10589000CA0180959091D70289238093D7020C94F6
:1058A000AF229BE5980F933020F480E090E00C94B9
:1058B0005611885A873120F480E090E00C94401112
:1058C0000895882309F4C4C09CEF980F913A30F4EE
:1058D000682F8EE592E00E94322213C090E2980F6A
:1058E000983088F4877021E030E0A90102C0440FAD
:1058F000551F8A95E2F7CA019091D702892B8093B0
:10590000D7020C94AF229BE5980F933070F4853A40
:1059100029F0863A31F083E890E005C081E890E014
:1059200002C082E890E00C94561198E5980F9731E8
:1059300008F08EC0883A09F445C0893A09F445C098
:105940008A3A09F445C08B3A09F445C08C3A09F407
:1059500045C08B3B09F445C08C3B09F445C08D3AEA
:1059600009F445C0803B09F445C08E3A09F445C0AE
:105970008F3A09F445C0813B09F445C0823B09F4E4
:1059800045C0833B09F445C0843B09F445C0853BD1
:1059900009F445C0863B09F445C0873B09F445C07E
:1059A000883B09F445C0893B09F445C08D3B09F4A7
:1059B00045C08E3B09F445C08A3B09F445C080E0F0
:1059C00090E044C082EE90E041C089EE90E03EC09D
:1059D0008AEE90E03BC085EB90E038C086EB90E02B
:1059E00035C083EB90E032C084EB90E02FC087EBB2
:1059F00090E02CC08CEC90E029C08DEC90E026C0AB
:105A000083E891E023C08AE891E020C082E991E038
:105A10001DC084E991E01AC081E292E017C083E2E0
:105A200092E014C084E292E011C085E292E00EC0E0
:105A300086E292E00BC087E292E008C08FE690E039
:105A400005C080E790E002C08AE292E00C94401129
:105A50000895F999FECF92BD81BDF89A992780B536
:105A60000895A6E1B0E044E050E00C94632DA8E175
:105A7000B0E042E050E00C94632D262FF999FECF60
:105A800092BD81BDF89A019700B4021639F01FBA91
:105A900020BD0FB6F894FA9AF99A0FBE08950396AE
:105AA000272F0E943E2D0E943D2D252F0E943E2D26
:105AB000242F0C943E2D0196272F0E943E2D0C94EE
:105AC0003D2DDC01CB01FC01F999FECF06C0F2BDF2
:105AD000E1BDF89A319600B40D9241505040B8F7AC
