:100000000C94C2080C9409090C9409090C941F2043
:100010000C9409090C9409090C9409090C94090918
:100020000C9409090C9409090C94C7270C94032714
:100030000C94462A0C9409090C9409090C9409099A
:100040000C9409090C9409090C9409090C940909E8
:100050000C9409090C94D4290C9409090C940909ED
:100060000C9409090C9409090C9409090C940909C8
:100070000C9409090C9409090C9409090C940909B8
:100080000C9409090C9409090C9409090C940909A8
:100090000C94AF200C9409090C9409090C940909DB
:1000A0000C9409090C9409090C9409096809700950
:1000B00078098009880990099809A009A809B00958
:1000C000B809A40DC109D009E5098B0C8D0C980C59
:1000D0008F0C910C930C950C970C9A0C9C0C9E0C0D
:1000E000A90CA00CA20CA40CA60CA80CAB0CEB0D3C
:1000F000EB0D250E250E3810690E38103810AB0E9A
:100100003810980F980FA50FA50FA50FA50FA50FD5
:10011000A50FA50FA50FA50FA50FA50FA50FA50F3F
:10012000A50FA50FA50FB60FE00FE50FEC0F0310FD
:1001300012253925DB263925DB268125A425DB265A
:100140009F26B226B42CB42CC72CC72CBD2CC72C90
:10015000C72CC72CB42CB42CC22CC72CC72CC22C37
:1001600007634236B79BD8A71A39685618AEBAABA0
:10017000558C1D3CB7CC5763BD6DEDFD753EF61734
:100180007231BF000000803F05A84CCDB2D44EB9FB
:100190003836A9020C50B9918688083CA6AAAA2A2A
:1001A000BE000000803F29001E001F00200021002B
:1001B000220000002B0014001A0008001500170090
:1001C0000000E00004001600070009000A0000001B
:1001D00008511D001B000600190005000351E20034
:1001E000005C0A51E3008B002C0004514C002700F6
:1001F000260025002400230000002A00130012001E
:100200000C0018001C000000280033000F000E0036
:100210000D000B0000000851370089003800100065
:1002200011000351005201520253005C8A002C005D
:10023000055129001E001F0020002100220000009F
:100240002B0014001A00070009000A000000E0005B
:1002500004001200080018000C00000009511D00E5
:100260001B000600190005000351E200005C0A5261
:10027000E30091002C0004514C00270026002500CB
:100280002400230000002A001300150017001600A8
:100290001C000000280033000F000E000D000B00B2
:1002A0000000095137008900380010001100035187
:1002B000005201520253005C90002C0005510000D6
:1002C000000000000000000000000000000000002E
:1002D000000000000000000000000000000000001E
:1002E000000000000000000000000000000000000E
:1002F00000000000005C00000000000000000000A2
:10030000000000004C00000056005500540053004F
:1003100000002A0000005700610060005F0000003C
:100320000000000058005E005D005C00000000005E
:10033000000058005B005A005900005C0052015256
:1003400001006300620062002A003A003B003C00AA
:100350003D003E003F000000005CCD5CD35CD45CFF
:10036000C85CC75C0000DE5CD15CCE5CCF5CC65C68
:10037000C55C0000E100D05C0000C25CCA5CC95CE6
:100380000100135C0A5CC45CC35CCC5CCB5C005CAD
:100390004500440043004200410040000000005C72
:1003A000F900F500F600F40000000000DE5CFA0041
:1003B000F300F000F100F2000000E500E400E600C8
:1003C0000000000000000100005201520000000087
:1003D0000000DE5C005C29001E001F0020002100E0
:1003E000220000002B002E0287021F0224022F028F
:1003F0000000E00033022D0034022D023400000022
:10040000E1001E0238022002210222020000E20066
:10041000005C0000E30091002C0001004C0027006C
:10042000260025002400230000002A0023023702B2
:100430003602260225020000280089023200300020
:10044000320230020000E5000000000000002E0033
:100450002F000000005201520000005C90002C00B0
:100460000000290059005A005B005C005D0000009C
:100470002B000000520000004A004B000000E0008A
:10048000500051004F004D004E000000E100000000
:1004900000000000460049000000E2000000E30008
:1004A0000000DE5C005C00004C0062006100600047
:1004B0005F005E0000002A0046004D004B004E0029
:1004C0004A000000280049004F005200510050002F
:1004D0000000E50000000000000000000000000037
:1004E0000052015200000000DE5C005C01000000D0
:1004F00000000000000000000000000000000000FC
:1005000000000000000000000000000000000000EB
:1005100000000000000000000000000000000000DB
:1005200000000000005C0000000000000000DE5C35
:10053000005C00000000000000000000000000005F
:1005400000000000000000000000000000000000AB
:10055000000000000000000000000000000000009B
:1005600000000000000000000000005C005201528A
:1005700000000000DE5C005C0000000000000000E5
:10058000000000000000000000000000000000006B
:10059000000000000000000000000000000000005B
:1005A000000000000000000000000000000000004B
:1005B000005C0000000000000000DE5C005C000049
:1005C000000000000000000000000000000000002B
:1005D000000000000000000000000000000000001B
:1005E000000000000000000000000000000000000B
:1005F000000000000000005C0052015200000000FA
:10060000DE5C005C000029001E001F0020002100AD
:10061000220000002B0014021A0208021502170221
:100620000000E00004021602070209020A020000AC
:1006300001001D621B02060219020502005CE200B5
:1006400000000A52E30291002C0200004C00270037
:10065000260025002400230000002A0013021202B5
:100660000C0218021C020000280034000F020E02C7
:100670000D020B0200000100360089003800100254
:100680001102005C005201520000E70290002C02AF
:10069000000029001E001F00200021002200000091
:1006A0002B0014021A02070209020A020000E000ED
:1006B00004021202080218020C02000001001D02CE
:1006C0001B02060219020502005CE20000000A5249
:1006D000E30291002C0200004C00270026002500B8
:1006E0002400230000002A0013021502170216023C
:1006F0001C020000280034000F020E020D020B0243
:100700000000010036008900380010021102005C70
:10071000005201520000E70290002C02000000008D
:1007200000520152025203520452000000000052D3
:100730000052005200520052000000000000000071
:1007400000000000000000000000000000000000A9
:1007500000000000005C000000000100000000003C
:1007600000000000000009520852075206520552CC
:100770000000000000000000000000000052000027
:100780000000000000000000000000000000000069
:1007900000000000000000000000005C0052015258
:1007A0000000000000000000000002E26003E20020
:1007B00002E26003E200556E6465662D004C6179CB
:1007C00065727300532E597374727000532E5171F9
:1007D000776572747900456D7074793700456D7076
:1007E0007479360053796D626F6C004172726F7765
:1007F000004D6F7573650054656E6B6579005973B4
:100800007472700051717765727479004465666125
:10081000756C74004C617965723A2000000000002C
:1008200000000000000000000000000000000000C8
:1008300000000000000000000000000000000000B8
:1008400000000000000000000000000000000000A8
:100850000000000000000000000000000000000098
:100860000000000000000000000000000000000088
:100870000000000000000000000000000000000078
:100880000000000000000000000000000000000068
:100890000000000000000000000000000000000058
:1008A0000000000000000000000000000000000048
:1008B0000000000000000000000000000001010135
:1008C0000101010001010101000000000000000021
:1008D0000000000000000100010001010101010110
:1008E00001010101010101010101010101010101F8
:1008F00001010101010101000000010100000000EF
:1009000000000000000000000000000000000000E7
:1009100000000000000000010101010000000000D3
:10092000000000002A2B280000000000000000004A
:100930000000000000000029000000002C1E3420F0
:10094000212224342627252E362D3738271E1F2016
:100950002122232425263333362E37381F0405065B
:100960000708090A0B0C0D0E0F101112131415169F
:100970001718191A1B1C1D2F3130232D350405069D
:100980000708090A0B0C0D0E0F101112131415167F
:100990001718191A1B1C1D2F3130354C0000000090
:1009A0000001010101010101010102020202020232
:1009B0000202020303030303030303040404040405
:1009C00004050505050506060606060707070708C8
:1009D0000808080909090A0A0A0A0B0B0B0C0C0C77
:1009E0000D0D0D0E0E0F0F0F10101111111212130D
:1009F000131414151516161717181819191A1A1B87
:100A00001C1C1D1D1E1F1F202021222223242525E2
:100A100026272728292A2B2B2C2D2E2F2F30313219
:100A200033343536363738393A3B3C3D3E3F40412A
:100A3000424344464748494A4B4C4D4F505152530C
:100A4000555657585A5B5C5E5F60626364666769BF
:100A50006A6C6D6E707173747678797B7C7E808140
:100A6000838486888A8B8D8F91929496989A9B9D89
:100A70009FA1A3A5A7A9ABADAFB1B3B5B7B9BBBD96
:100A8000BFC1C4C6C8CACCCFD1D3D6D8DADCDFE167
:100A9000E4E6E8EBEDF0F2F5F7FAFCFF6801F000B0
:100AA000B40078005A007F3F1F6432146432147817
:100AB0003C1E1E140A050000000000003E5B4F5B58
:100AC0003E003E6B4F6B3E001C3E7C3E1C00183CC3
:100AD0007E3C18001C577D571C001C5E7F5E1C006E
:100AE00000183C180000FFE7C3E7FF0000182418B7
:100AF0000000FFE7DBE7FF0030483A060E0026293A
:100B000079292600407F05050700407F05253F0025
:100B10005A3CE73C5A007F3E1C1C0800081C1C3E47
:100B20007F0014227F2214005F5F005F5F000609D0
:100B30007F017F00006689956A00606060606000E8
:100B400094A2FFA2940008047E04080010207E20D6
:100B5000100008082A1C0800081C2A0808001E109B
:100B6000101010000C1E0C1E0C0030383E383000E7
:100B7000060E3E0E060000000000000000005F00B0
:100B80000000000700070000147F147F1400242ACF
:100B90007F2A120023130864620036495620500051
:100BA000000807030000001C224100000041221C35
:100BB00000002A1C7F1C2A0008083E08080000804C
:100BC000703000000808080808000000606000009D
:100BD0002010080402003E5149453E0000427F407B
:100BE00000007249494946002141494D330018141B
:100BF000127F10002745454539003C4A49493100DC
:100C00004121110907003649494936004649492919
:100C10001E00000014000000004034000000000826
:100C2000142241001414141414000041221408006A
:100C30000201590906003E415D594E007C12111215
:100C40007C007F49494936003E41414122007F41B5
:100C500041413E007F49494941007F09090901009E
:100C60003E41415173007F0808087F0000417F41E9
:100C700000002040413F01007F08142241007F40D6
:100C8000404040007F021C027F007F0408107F006C
:100C90003E4141413E007F09090906003E41512184
:100CA0005E007F091929460026494949320003019F
:100CB0007F0103003F4040403F001F2040201F00B5
:100CC0003F4038403F006314081463000304780475
:100CD00003006159494D4300007F41414100020436
:100CE00008102000004141417F000402010204007D
:100CF0004040404040000003070800002054547862
:100D000040007F2844443800384444442800384494
:100D100044287F0038545454180000087E0902000B
:100D200018A4A49C78007F080404780000447D4047
:100D300000002040403D00007F102844000000419A
:100D40007F4000007C04780478007C08040478006C
:100D5000384444443800FC1824241800182424186B
:100D6000FC007C0804040800485454542400040483
:100D70003F4424003C4040207C001C2040201C00BC
:100D80003C4030403C004428102844004C90909057
:100D90007C004464544C44000008364100000000CC
:100DA0007700000000413608000002010204020042
:100DB0003C2623263C0003071F7FFFFFFEF8F0C000
:100DC00020F8FEFFFE79271F7FFFFFFEF8F0C0200E
:100DD000F8FEFFFF7F3F3F7FFFFEF8F0C0000000FE
:100DE0000000000000000000000000000000000003
:100DF00000000000000000000000000000000000F3
:100E000000000000000000000000000000000000E2
:100E100000000000000000000000000000000000D2
:100E200000000000000000000000000000000000C2
:100E300000000000E0F0F0F0E0ECEEF7F3702000CE
:100E40007C7C7C7E007E7E7E7F7F7F000080C0E099
:100E50007E5B4F5BFEC00000C000DCD7DEDEDED76D
:100E6000DC00C000000000000000000000000000E6
:100E700000000000000000000000C1F3CFBF7FFFB2
:100E8000FFFCFBE7810000000080E3CF3FFFFFFF96
:100E9000FCFBE7810000000081E7FFFFFFFF3C0053
:100EA0000000000000000000000000000000000042
:100EB0000000000000000000000000000000000032
:100EC0000000000000000000000000000000000022
:100ED0000000000000000000000000000000000012
:100EE0000000000000000000000000000000000002
:100EF000000000000F1F3F7F7F7F7F7F3F1E0C00A1
:100F00001F1F1F3F003F3F3F7F7F7F00307B7F7869
:100F100030202030787F3B0003000F7F0F0F0F7FC2
:100F20000F000300000000000000000000000000AF
:100F300000000000000060707C7F7F7F7F1F060143
:100F4000030F3F7F7F7E7C7C7E7F7F7F1F060107B4
:100F50000F3F7F7F7E7C7C7E7F7F3F0F0300000002
:100F60000000000000000000000000000000000081
:100F70000000000000000000000000000000000071
:100F80000000000000000000000000000000000061
:100F90000000000000000000000000000000000051
:100FA0000000000000000000000000000000000041
:100FB0000000000000000000000000000000000031
:100FC0000000000000000000000000000000000021
:100FD0000000000000000000000000000000000011
:100FE0000000000000000000000000000000000001
:100FF000000000000000202020200053434C4B0044
:101000000A002020202000434150530020202020AF
:10101000202020004E554D4C4F434B000A0020002D
:101020000A000A00959600B5B600979800B7B80078
:10103000808182838485868788898A8B8C8D8E8F38
:101040009091929394A0A1A2A3A4A5A6A7A8A9AAAF
:10105000ABACADAEAFB0B1B2B3B4C0C1C2C3C4C526
:10106000C6C7C8C9CACBCCCDCECFD0D1D2D3D4007D
:1010700005010902A10185020901A1000509190163
:101080002905150025019505750181029501750356
:1010900081010501093009311581257F9502750807
:1010A000810609381581257F950175088106050C93
:1010B0000A38021581257F950175088106C0C00593
:1010C000010906A101050719E029E7150025019589
:1010D000087501810295017508810105081901292A
:1010E0000595057501910295017503910105071993
:1010F0000029FF150026FF00950675088100C0092C
:10110000023B00020100A0C8090400000103010124
:101110000009211101000122400007058103080098
:101120000A09040100010300000009211101000166
:10113000224F000705820320000A1201100100005F
:101140000008EDFE603001000102030104033000DD
:1011500000001603480065006C006900780020005C
:10116000420065007400610000001403590075001E
:101170007300680061006B006F0062006F00000088
:101180000403090411241FBECFEFDAE0DEBFCDBF98
:1011900004B603FE27C08091FB029091FC02A0914F
:1011A000FD02B091FE028730904BA740B04BD1F4C6
:1011B0001092FB021092FC021092FD021092FE02AD
:1011C00014BE84B7877F84BF0FB6F894A89580912A
:1011D0006000886180936000109260000FBEE0E0C4
:1011E000F8E3099511E0A0E0B1E0EEE7FDE602C00A
:1011F00005900D92A838B107D9F722E0A8E8B1E030
:1012000001C01D92AB3FB207E1F70E94011A0C9496
:10121000BD360C9400008F929F92AF92BF92CF92F6
:10122000DF92EF92FF920F931F93CF93DF9300D043
:1012300000D01F92CDB7DEB7FC010081D180838141
:101240009481892B39F01FEFD11206C091E00F3F36
:1012500019F403C091E001C090E090FD3CC77F010C
:1012600085E0DE01119601900D928A95E1F7F70174
:10127000228189819A81222349F00E94192B182FFB
:10128000682F89819A810E94922B03C00E94662B4D
:10129000182F26E4129FF001112437E0D39EE00DB1
:1012A000F11D1124E00FF11DEE0FFF1FEA55FE4F57
:1012B0000591149181E080930001F801E05FFC4505
:1012C000EF30F10508F040C4EA5AFF4F0C94833325
:1012D000F7018281882309F489C081E090E04EC043
:1012E000F7018281882309F481C082E090E046C042
:1012F000F7018281882309F479C084E090E03EC040
:10130000F7018281882309F471C088E090E036C03B
:10131000F7018281882309F469C080E190E02EC042
:10132000F7018281882309F461C080E290E026C041
:10133000F7018281882309F459C080E490E01EC03F
:10134000F7018281882309F451C080E890E016C03B
:10135000F7018281882309F449C080E091E00EC042
:10136000F7018281882309F441C080E092E006C041
:10137000F70182818823D1F180E094E00E94151F5B
:1013800035C0F7018281882349F080911C0282FDDB
:1013900002C081E90EC080EB97E010C081E912C065
:1013A000F7018281882369F080911C0282FD04C0CC
:1013B00080E90E94F02E1AC08AEA97E00E94AB17DB
:1013C00015C080E90E94B12E11C0F70182818823E7
:1013D00009F4BAC30E944815809147028160809346
:1013E000470286958F730E943015AEC380E0882334
:1013F00009F471C60C3CFCE51F0709F4CEC1E8F501
:10140000F7018281043CFCE51F0709F408C1F8F4E8
:1014100005313CE5130778F402309CE5190708F024
:1014200058C20115ECE51E0709F467C001301C45E0
:1014300009F484C083C3023C2CE5120709F49DC063
:1014400008F0D3C006311C4509F43EC377C3083CFD
:10145000ECE51E0709F462C140F4063C2CE51207D6
:1014600009F40AC108F4F5C029C10A3C9CE5190732
:1014700009F46FC108F45FC188C1043DFCE51F0792
:1014800009F40DC2C0F4F7018281003DFCE51F079D
:1014900009F4DFC140F40E3C3CE5130709F4C3C175
:1014A00008F4AAC1CBC1023DECE51E0709F4E7C16F
:1014B00008F4DAC1EFC1093D2CE5120709F4D9C2DD
:1014C00060F4073D8CE5180709F469C208F08AC288
:1014D000053D1C4509F4FFC531C3F70182810D3D6F
:1014E000FCE51F0709F4EEC10E3D2CE5120779F16A
:1014F0000C3D1C4509F022C3DFC1882309F4EBC56C
:10150000109266020E94932E8FEF94E3ECE08150DC
:101510009040E040E1F700C0000087E797E7909334
:101520000108809300089AE088E10FB6F894A89526
:10153000809360000FBE90936000FFCF882309F472
:10154000CAC580913602816080933602C4C5882363
:1015500009F4C1C50F900F900F900F900F90DF917D
:10156000CF911F910F91FF90EF90DF90CF90BF90A0
:10157000AF909F908F900C94942A882309F4ABC568
:101580008091470280FF2BC08E7F8093470260913D
:101590004702709148028091490290914A020E944C
:1015A0000A1410924D02FFEF00E712E0F1500040E4
:1015B0001040E1F700C000000F900F900F900F90C7
:1015C0000F90DF91CF911F910F91FF90EF90DF90DF
:1015D000CF90BF90AF909F908F900C94EB11816053
:1015E0008093470286958F730BC1882309F473C5D6
:1015F000809166028272D1F00F900F900F900F9041
:101600000F90DF91CF911F910F91FF90EF90DF909E
:10161000CF90BF90AF909F908F900C9433158823FC
:1016200009F459C580916602827231F30F900F90D0
:101630000F900F900F90DF91CF911F910F91FF901E
:10164000EF90DF90CF90BF90AF909F908F900C94D1
:101650003D15882309F43FC520914702221F222708
:10166000221F30914802432F440F842F822B37FBD7
:10167000992790F90A9618C0882309F42CC520915F
:101680004702221F2227221F30914802432F440F76
:10169000842F822B37FB992790F98A3091051CF40F
:1016A000825A9E4F05C00A9768E671E00E946F3328
:1016B00021E040914A02609149021DC0882309F44B
:1016C0000AC560914902862F90E08F3E910514F47F
:1016D0006F5E01C06FEF80914702881F8827881FC7
:1016E00090914802392F330F97FB992790F921E009
:1016F00040914A02832B0F900F900F900F900F9004
:10170000DF91CF911F910F91FF90EF90DF90CF90DD
:10171000BF90AF909F908F900C941C14882309F475
:10172000DAC460914902862F90E0419714F061512C
:10173000D2CF60E0D0CF882309F4CDC440914A02D3
:10174000842F90E08F3E910514F44F5E0EC04FEF52
:101750000CC0882309F4BFC440914A02842F90E052
:10176000419714F0415101C040E080914702881F29
:101770008827881F90914802392F330F97FB9927AC
:1017800090F921E060914902B5CF882309F4A3C400
:1017900080914B0290E001960DC0F7018281882371
:1017A00009F499C480914B0290E0019797FF02C021
:1017B00080E090E08430910514F083E090E0809325
:1017C0004B026091470270914802809149029091CA
:1017D0004A020F900F900F900F900F90DF91CF91D2
:1017E0001F910F91FF90EF90DF90CF90BF90AF903F
:1017F0009F908F900C940A14882309F46CC481E0A4
:101800000F900F900F900F900F90DF91CF911F913D
:101810000F91FF90EF90DF90CF90BF90AF909F908F
:101820008F900C943015882309F455C40E94CB1373
:101830008250833008F4FACE82E0E2CF882309F4A4
:101840004AC40E94CB138650823008F4EFCE86E063
:10185000D7CF882309F43FC40E94CB138950853029
:1018600008F4E4CE89E0CCCF882309F434C40E9484
:10187000CB138F50853008F4D9CE8FE0C1CF8823A9
:1018800009F429C40E94CB138551823008F4CECECE
:1018900085E1B6CF882309F41EC488E1B1CFF701F2
:1018A0008281882309F417C40E94CB13895189309F
:1018B00008F4BCCE89E1A4CF882309F40CC41092AB
:1018C000B60109C4882309F406C482E08093B601F6
:1018D00002C4882309F43AC10E94892A811102C0F6
:1018E0000E94942A84E090E00E94BE2F90E09093A2
:1018F0001D0280931C02F801E350FC45E231F10522
:1019000030F4EB59FF4F80911C020C94833380918B
:101910001C02816027C0826025C0846023C0806172
:1019200021C080621FC080641DC080681BC08460AD
:10193000886018C08E7F16C08D7F14C08B7F12C048
:101940008F7E10C08F7D0EC08F7B0CC08F770AC03A
:101950008B7F877F07C087FB222720F991E09227A2
:1019600090FB87F980931C0260911C0284E090E058
:101970000E94D22F109266020F900F900F900F903E
:101980000F90DF91CF911F910F91FF90EF90DF901B
:10199000CF90BF90AF909F908F900C94932EF701B3
:1019A0008281882351F010928D010E94242A909305
:1019B0008A018093890182E022C080918D0181118A
:1019C0000FC08091890190918A010E94FA29843682
:1019D000910530F486E20E94F02E86E20E94B12E3C
:1019E00082E034C0F70182818823E1F010928E01F9
:1019F0000E94242A90938C0180938B0180E20F90A7
:101A00000F900F900F900F90DF91CF911F910F913A
:101A1000FF90EF90DF90CF90BF90AF909F908F900E
:101A20000C94A72E80918E0181110FC080918B01A3
:101A300090918C010E94FA298436910530F487E256
:101A40000E94F02E87E20E94B12E80E20F900F904C
:101A50000F900F900F90DF91CF911F910F91FF90FA
:101A6000EF90DF90CF90BF90AF909F908F900C94AD
:101A70009C2EF70182818111B9CF80918E01811155
:101A8000E4CF80918B0190918C010E94FA298436D9
:101A90009105D8F680E20E949C2E88E20E94F02EEA
:101AA00088E20F900F900F900F900F90DF91CF91E1
:101AB0001F910F91FF90EF90DF90CF90BF90AF906C
:101AC0009F908F900C94B12E882391F080916602A4
:101AD0008A7A91E009F490E090938801811102C024
:101AE00069E201C065E38DE792E00E946F2A13C0AE
:101AF00080918801811102C089E201C085E3EDE790
:101B0000F2E023E832E09281891301C0128231961B
:101B10002E173F07C1F70F900F900F900F900F9067
:101B2000DF91CF911F910F91FF90EF90DF90CF90B9
:101B3000BF90AF909F908F900C94EC2A81E080939F
:101B40008D0180938E0102C081E051CCF70182812A
:101B500000811181882349F0C8010E94192BD82ED9
:101B6000682FC8010E94922B04C0C8010E94662BF6
:101B7000D82EB8018D2D0E9458158C01982EF70192
:101B8000A580A2949FE0A922B280B1101092F00229
:101B90008091EE02877079F0BB2069F080E2800FBF
:101BA000883048F082E00E94EC2B8091EE02877032
:101BB000CC24C3948111C12CD12ED2948FE0D82291
:101BC0008D2D90E08C30910508F052C2FC01E9584F
:101BD000FF4F0C948333812F807F1F70882311F077
:101BE0001295107FBB20B9F0112309F42CC280E2BA
:101BF000800F883010F0911006C080916602182B7B
:101C00001093660205C08091F002182B1093F00229
:101C10000E94EC2A18C2802F0E94B12E112309F4D1
:101C200027C2005E1095083010F0911006C0809118
:101C3000660218231093660205C08091F0021823F3
:101C40001093F0020E94EC2A13C2812F807F1F7034
:101C5000803211F01295107F992021F0F1E09F164B
:101C6000E1F027C0BB2081F08091F102AA2051F061
:101C700001E0A01207C0182B181709F4F9C110933E
:101C8000F102F6C1812B69C1AA2021F021E0A21640
:101C900009F4EEC10E94E62A1AC0BB2029F035E003
:101CA0003A1508F4E5C10FC084E08A1508F4E0C1D4
:101CB0000EC0BB2051F0AA2031F0F701858180FFD2
:101CC000C2C18F708583812F48C1A110CEC1812FE1
:101CD0004AC1BB20F9F0053F51F0063F71F0043FC7
:101CE000A9F480918F019091900181600BC0809147
:101CF0008F0190919001826005C080918F01909139
:101D0000900184609093900180938F01802F0E94B6
:101D10006C291EC0053F51F0063F71F0043FA9F445
:101D200080918F01909190018E7F0BC080918F01E7
:101D3000909190018D7F05C080918F0190919001CD
:101D40008B7F9093900180938F01802F0E94A52814
:101D50000E94302A98C1812F837009F071C0B110A0
:101D600090C1802F829586958770880F880F402FAD
:101D70004F7050E060E070E04A015B01082E04C043
:101D8000880C991CAA1CBB1C0A94D2F704FF10C033
:101D90004FE050E060E070E004C0440F551F661F44
:101DA000771F8A95D2F7409550956095709503C03E
:101DB00040E050E0BA01812F8695869583700091AE
:101DC000F2021091F3022091F4023091F502823078
:101DD00099F0E8F4813059F0482959296A297B297A
:101DE000CB01BA01602371238223932326C0802A6A
:101DF000912AA22AB32A1BC0482959296A297B297A
:101E0000CB01BA01602771278227932716C0CB0127
:101E1000BA0160237123822393230E94262C4091D0
:101E2000F2025091F3026091F4027091F502CB013D
:101E3000BA01682979298A299B290E94262C21C167
:101E4000BB2019F0812F817001C08695882309F489
:101E500018C1802F829586958770880F880F402F34
:101E60004F7050E060E070E04A015B01082E04C052
:101E7000880C991CAA1CBB1C0A94D2F704FF10C042
:101E80004FE050E060E070E004C0440F551F661F53
:101E9000771F8A95D2F7409550956095709503C04D
:101EA00040E050E0BA01812F8695869583700091BD
:101EB000EA021091EB022091EC023091ED028230A7
:101EC00099F0E8F4813059F0482959296A297B2989
:101ED000CB01BA01602371238223932326C0802A79
:101EE000912AA22AB32A1BC0482959296A297B2989
:101EF000CB01BA01602771278227932716C0CB0137
:101F0000BA0160237123822393230E94BD2B409149
:101F1000EA025091EB026091EC027091ED02CB016C
:101F2000BA01682979298A299B290E94BD2BA9C059
:101F3000802F90E0FC01E05EF109E531F10508F049
:101F40007DC0ED57FF4F0C9483330F70812F8F713D
:101F5000BB2031F00E94052C802F0E94A72E88C044
:101F60000E94C72B802F0E949C2E82C0BB2019F19B
:101F7000F4E0FA1508F47CC01F7181E090E0A0E065
:101F8000B0E0AC01BD0104C0440F551F661F771FB0
:101F90001A95D2F78091EA029091EB02A091EC029F
:101FA000B091ED028A019B01082719272A273B27B8
:101FB000C901B80121C025E02A1508F459C0DCCFB9
:101FC000BB2029F0812F8F712CC0BB20D9F3812F2A
:101FD0008F710E94C72B4CC0BB2089F01F7181E01C
:101FE00090E0A0E0B0E0BC01CD0104C0660F771F17
:101FF000881F991F1A95D2F70E94BD2B39C060E047
:1020000070E0CB01F9CFBB2079F01F71812F0E94C6
:10201000052C38E0139FC001112483608093EE02E9
:10202000812F0E94052C24C081E00E94EC2B81E0CE
:102030008A15F0F482E00E94EC2B1AC0BB2039F024
:10204000AA2009F4BFCF802F0E94F02E11C0AA2031
:1020500009F4BDCF093349F49FEFE7EEF3E0915067
:10206000E040F040E1F700C00000802F0E94B12E58
:1020700008E0D01631F0D01630F086EF8D0D8230AA
:1020800010F40E94DF11CC2031F18091EE0280FD2E
:1020900022C0F70112828595859585950E94052CB1
:1020A000C7010E940B098091EE0285958595859563
:1020B0000F900F900F900F900F90DF91CF911F9185
:1020C0000F91FF90EF90DF90CF90BF90AF909F90D7
:1020D0008F900C94C72B0F900F900F900F900F9034
:1020E000DF91CF911F910F91FF90EF90DF90CF90F4
:1020F000BF90AF909F908F9008950895EF92FF92B8
:102100000F931F93CF93DF93E901662309F44BC02C
:10211000242F30E0EFEFF0E0E61BF109B901E69F74
:102120009001E79F300DF69F300D1124232F8B0176
:10213000031B11095CE3E52EF12CB7010E945B3310
:10214000FB01BC01069FC001079F900D169F900DDB
:102150001124B7010E945B33E230F105B1F040F485
:10216000309779F0319711F5832F242F461B21C02A
:10217000E430F105A1F068F03597C1F4842F861B97
:1021800018C0832F262F230F14C0862F830FE42F10
:1021900003C0E42FE61B842F432F2E2F0AC0842F69
:1021A000462F430F06C0842F242F03C080E020E079
:1021B00040E0E42FF0E0E456F64F4491E22FF0E0E7
:1021C000E456F64F9491E82FF0E0E456F64FE49190
:1021D00049839883EA83DF91CF911F910F91FF90FC
:1021E000EF90089590911C0292FF0DC0282F287146
:1021F000283019F4877F846006C0282F247124308A
:1022000011F48B7F886093FF0DC0282F287128312F
:1022100019F4877E846106C0282F2471243111F4BB
:102220008B7E886194FD877E08951F93CF93DF9303
:10223000CDB7DEB767970FB6F894DEBF0FBECDBF40
:102240004B8B5C8B6D8B7E8B8F8B86E09E01235F2F
:102250003F4FD901E82F1D92EA95E9F795E0FE017D
:102260007396D90101900D929A95E1F7F901DE017B
:10227000179601900D928A95E1F7CE0107960E947C
:10228000CB2C81113EC086E0FE013796DE0111960F
:1022900001900D928A95E1F7FF81E8856A857B853B
:1022A0006115710531F0EF3F31F481E0FF3F19F422
:1022B00003C081E001C080E080FD23C020918B023B
:1022C00030E0C9010196877099274091BC0250E027
:1022D0008417950779F1F983EA837D836C8396E00F
:1022E000929FD001939FB00D1124A457BD4FFE01C2
:1022F000319601900D929A95E1F780938B020E949E
:10230000302C16E08091BC0290918B02891709F164
:10231000189FC001112484579D4F0E94CB2C882305
:10232000C1F08091BC0290E001968770992780935C
:10233000BC02E8CF109266020E94932E10928B028C
:102340001092BC02E5E8F2E086E0DF011D928A957A
:10235000E9F767960FB6F894DEBF0FBECDBFDF91E9
:10236000CF911F9108952091A7013091A8012817BE
:10237000390771F09093A8018093A701E0911F02A3
:10238000F0912002309721F00084F185E02D09942E
:1023900008952091A5013091A6012817390771F001
:1023A0009093A6018093A501E0911F02F091200275
:1023B000309721F00680F781E02D09940895E0918F
:1023C0001F02F0912002309721F00190F081E02D62
:1023D000099480E008958091470280FD0AC0E3E9F6
:1023E000F1E0118210821282339691E0E53AF9070A
:1023F000C1F7539A62E170E083E991E00E94E12322
:1024000087EC90E00197F1F700C000000895EF928B
:10241000FF920F931F93CF93DF93EC018C819D81EB
:102420000196817099279D838C8383E9E82E81E052
:10243000F82E10E008E7212F26958C819D81820FD0
:10244000911D81709927970140914A02609149023C
:10245000FC010E9FC0010F9F900D11240E947E1061
:102460001F5FF3E0EF0EF11C163029F7DF91CF91DB
:102470001F910F91FF90EF900C94EB110F931F930E
:10248000CF93DF93C3E9D1E0FE0111821082128263
:10249000339681E0E53AF807C1F700E010E080915B
:1024A0009201082E000C990B08171907ECF0809187
:1024B0000D01082E000C990B80179107ACF080914C
:1024C0004702881F8827881F90914802592F550F6F
:1024D00097FB992790F99E0140914A026091490229
:1024E000852B0E947E1003C0198218821A820F5F0A
:1024F0001F4F23960630110591F60E94EB11809133
:102500000C0190919201980F9093920120910D01EE
:10251000280F20930D01121614F495301CF08195AC
:1025200080930C01DF91CF911F910F910895CF926D
:10253000DF92EF92FF920F931F93CF93DF93FC01F3
:10254000828180FF03C0DD24DA9402C0DD24D394AD
:1025500003E911E0C0E0D0E0F8011182108212829C
:1025600094E0E92EF12CC12C809191018C0D87FD16
:102570008A5F082E000C990BC817D907E9F48091DF
:102580004A028E9DA0018F9D500D112455954795AF
:102590005595479580914702881F8827881F9091FD
:1025A0004802592F550F97FB992790F99801609190
:1025B0004902852B0E947E10CD0CF1E0EF1AF10844
:1025C00099F621960D5F1F4FC630D10529F60E945E
:1025D000EB118091910191E0D91206C0811102C0E6
:1025E00085E007C0815005C090E00196BE010E94C1
:1025F0006F3380939101DF91CF911F910F91FF90E5
:10260000EF90DF90CF900895CF92DF92EF92FF92FC
:102610000F931F93CF93DF93EC0183E9E82E81E0C2
:10262000F82E00E010E098E6C92EDD24D3948C81CA
:102630009D81800F911FB6010E946F3397014091D9
:102640004A02609149020E947E10045C1F4F83E0A1
:10265000E80EF11C083681E0180749F70E94EB11DB
:102660002A818C819D8120FF05C00196B8010E94BE
:102670006F3307C0181619061CF087E691E001C0F9
:1026800001979D838C83DF91CF911F910F91FF90D4
:10269000EF90DF90CF900895CF93DF9300D01F92FB
:1026A000CDB7DEB72091470220FF18C09E012F5FF3
:1026B0003F4F0E947E108091470280FF0FC08B81A8
:1026C00099812A81E3E9F1E0218390838283339623
:1026D00031E0E53AF307C1F70E94EB110F900F903C
:1026E0000F90DF91CF910895CF93DF93EC01E7E452
:1026F000F2E0438162818C819D810E944C138C8128
:102700009D81019668E671E00E946F339D838C8302
:10271000DF91CF910895CF93DF93EC016C8170E04E
:1027200080E090E00E94503120E030E04FE753E439
:102730000E9473302BED3FE049E450E40E9479326F
:102740000E94E6320E94ED302BE43AE34EE25FE372
:102750000E94063020EF3BEF48ED52E40E947932B0
:102760000E941F31462FE7E4F2E08081881F88270E
:10277000881F90914802292F220F97FB992790F9E3
:102780006281822B0E944C138C8190E001968C8395
:10279000DF91CF9108958091470280FF03C0869515
:1027A0008F73089580E0089580914702282F269521
:1027B0002F7330E02115310519F48178826005C04E
:1027C0002332310524F0817884648093470230916C
:1027D0004702432F441F4427441F20914802522F91
:1027E000550F852F842B27FB992790F9893641E0D7
:1027F00094077CF068E671E00E946F3380FB37F944
:102800003093470286952078822B90FB87F980933E
:1028100048020895CF92DF92EF92FF926B017C0104
:102820000E94D413B701A60188E090E0FF90EF90DA
:10283000DF90CF900C94E42F5F926F927F928F92F3
:102840009F92AF92BF92CF92DF92EF92FF920F933F
:102850001F93CF93DF9300D01F92CDB7DEB78C01CB
:10286000E62EF42E522E8091470280FF97C0E82F6B
:10287000E695EF73AE2FB0E0A75CBE4F9C919093AE
:102880004C02282F2E772230C1F49E012F5F3F4F3C
:10289000C8010E947E108091470280FF5FC08B813B
:1028A00099812A81E3E9F1E0218390838283339641
:1028B00031E0E53AF307C1F74FC0923019F4F090D8
:1028C0004A024CC0963069F4881F8827881F90916F
:1028D0004802292F220F022F082B97FB112710F9EE
:1028E0003DC0993089F39931C9F5E951E0FD02C045
:1028F00021E001C02FEFE695F0E0EE0FFF1FE45658
:10290000F54F8591949166E070E00E945B33260359
:102910004001279F900C1124580188E9A81A8EEFD6
:10292000B80A93E9C92E91E0D92E28E6622E7724C1
:102930007394C501B3010E945B3396014F2D6E2D38
:102940000E947E10A80CB91C33E0C30ED11C85EA8E
:10295000C81681E0D80669F70E94EB118091470202
:1029600000FB87F980934702902F9695809148024B
:102970008078892B10FB87F980934802E092490206
:10298000F0924A02552051F060914702709148023E
:102990008091490290914A020E940A140F900F9070
:1029A0000F90DF91CF911F910F91FF90EF90DF90EB
:1029B000CF90BF90AF909F908F907F906F905F90DF
:1029C00008959091470290FF4AC09178811102C00A
:1029D000926007C0833210F0946403C08F73880F35
:1029E000982B90934702662351F0609147027091B3
:1029F00048028091490290914A020E940A14609113
:102A0000470266956F7370E04BE050E081E091E023
:102A10000E948933892B19F010924D0209C081E080
:102A200080934D020E94242A909342028093410297
:102A300081E08093440280914702881F8827881F85
:102A400090914802392F330F97FB992790F920E096
:102A500040914A0260914902832B0C941C14089502
:102A600061E00C94E1148091470286958F73815048
:102A700009F482E261E00C94E114809147028695AA
:102A80008F738F5F833208F081E061E00C94E11472
:102A9000E7E4F2E083E08083109248028FEF8283C4
:102AA0008383148260817181828193810C940A14E2
:102AB000CF93DF9326E4829FC0011124FC0137E00D
:102AC000739FE00DF11D1124E60FF11DEE0FFF1FA6
:102AD000EA55FE4FC591D491CE01C238D10549F1D6
:102AE000B0F4C133D10509F464C048F4C932D1054A
:102AF00009F458C0CA32D10509F462C068C0C533B0
:102B0000D10509F448C0C933D10599F060C0C33E6E
:102B1000D10541F138F4C03ED10591F0C23ED10556
:102B2000B1F055C0C63ED10521F1C73ED10561F1D6
:102B30004EC020911C0220FD09C221FD07C208C21F
:102B400020911C0220FF04C289E390E001C2209181
:102B50001C0222FFFDC180911C0284FDA9C183EEED
:102B600090E0F6C180911C0282FFF5CF82EE90E0EA
:102B7000EFC120911C0223FFEBC180911C0284FD58
:102B800097C187EE90E0E4C180911C0283FFF5CFEE
:102B900086EE90E0DDC120911C0225FFD9C189E2BB
:102BA00090E0D6C120911C0225FFD2C185E390E0C0
:102BB000CFC120911C0226FFCBC18AE290E0C8C1A0
:102BC00020911C0226FFC4C181E390E0C1C1C11560
:102BD00040E5D40708F049C0C11520E4D20708F049
:102BE00030C1C83ED10520F5C03ED10508F0B0C1C6
:102BF000C83AD10570F4C53AD10508F0ADC0C1306E
:102C0000D10509F4A5C108F453C1249708F450C1B3
:102C10009FC1CF3BD10508F4AAC0C03CD10508F440
:102C200047C1CE01880F991FFC01E45EF74FFEC03B
:102C3000C11530E2D30760F4C11541E0D40708F0B4
:102C400087C1C03FD10508F433C1CE01906580C172
:102C5000C11580E3D80708F0ECC0CE019F70FC01DD
:102C6000EE0FFF1FE456F64FE1C0C11525E5D20770
:102C700008F045C0C11534E5D30708F0FAC0C11506
:102C800042E5D40718F5C11581E5D80708F0DDC085
:102C9000CE0174E0969587957A95E1F7282F2370F9
:102CA0003C2F337081E090E002C0880F991F3A9565
:102CB000E2F79C68922BEC2FEF70E695E69520E208
:102CC000E29FF00111248E2B9F2B42C1AE01437075
:102CD00055272C2F26952695C115D34508F0BAC047
:102CE00081E090E002C0880F991F4A95E2F740E228
:102CF000249F90011124822B932B9C6829C1C1151C
:102D000049E5D40798F4C11588E5D80708F0B6C09E
:102D1000C11526E5D20708F0CBC08C2F0E94F21017
:102D20008F7190E0982F8827906212C1C1153AE503
:102D3000D30708F4A8C0CE0190568115904208F040
:102D4000B7C08D2F8F710E94F210FE01FF27F06235
:102D50008F719F01382BAAC0C53AD10509F4ABC0C9
:102D6000C63AD10509F0AAC082E890E4F1C0C83A99
:102D7000D10509F4A6C0C93AD10509F4A5C0CA3ADB
:102D8000D10509F4A4C0CB3AD10509F4A3C0CC3ACB
:102D9000D10509F4A2C0CB3BD10509F4A1C0CC3BBD
:102DA000D10509F4A0C0CD3AD10509F49FC0C03BBC
:102DB000D10509F49EC0CE3AD10509F49DC0CF3AA1
:102DC000D10509F49CC0C13BD10509F49BC0C23BAD
:102DD000D10509F49AC0C33BD10509F499C0C43B9D
:102DE000D10509F498C0C53BD10509F497C0C63B8D
:102DF000D10509F496C0C73BD10509F495C0C83B7D
:102E0000D10509F494C0C93BD10509F493C0CD3B69
:102E1000D10509F492C0CE3BD10509F491C0CA3B5B
:102E2000D10509F490C080E094E492C0859194911A
:102E30008FC0CE019927D3FF02C0986C89C0906CD7
:102E400087C0CE019F70906A83C09C2F8827816FB6
:102E5000906A7EC081E090E002C0880F991F4A9579
:102E6000E2F740E2249F90011124822B932B9A6871
:102E70006FC09C2F8827846F906A6AC09C2F882718
:102E8000806F906A65C08C2F8F700E94F210FE01D7
:102E900094E0F695E7959A95E1F7EF70F0E0FE2F54
:102EA000EE27F06A8F70806E9F01282BC90150C0F9
:102EB00080E090E04DC081E890E44AC083E890E46F
:102EC00047C082EE94E444C089EE94E441C08AEEA7
:102ED00094E43EC085EB94E43BC086EB94E438C0B8
:102EE00083EB94E435C084EB94E432C087EB94E444
:102EF0002FC08CEC94E42CC08DEC94E429C083E8C2
:102F000095E426C08AE895E423C082E995E420C0D0
:102F100084E995E41DC081E296E41AC083E296E458
:102F200017C084E296E414C085E296E411C086E2FC
:102F300096E40EC087E296E40BC08FE694E408C0E6
:102F400080E794E405C08AE296E402C080EE90E057
:102F5000DF91CF910895FF920F931F93CF93DF934B
:102F60008C01F8012491222309F444C0C801019680
:102F7000213041F48C01FC01C4918C2F0E94F02E71
:102F80008C2F33C0223031F48C01FC0184910E94DB
:102F9000F02E2DC0233021F48C01FC01849125C03A
:102FA00030E0F901E45EF64FF490F901E456F74F92
:102FB000D491F901E45EF74FC491DD2319F081EE5D
:102FC0000E94F02ECC2319F086EE0E94F02E8F2D59
:102FD0000E94F02E8F2D0E94B12ECC2319F086EE88
:102FE0000E94B12EDD2319F081EE0E94B12E0F5FF9
:102FF0001F4FB7CFDF91CF911F910F91FF90089591
:10300000EF92FF920F931F93CF93DF93CDB7DEB76D
:103010002A970FB6F894DEBF0FBECDBF8C0164E1D6
:1030200078E00E94ED1F8091EA029091EB02A0915E
:10303000EC02B091ED0280319105A105B10509F4D2
:1030400051C000F582309105A105B10509F444C0D5
:1030500060F40097A105B105E1F10197A105B10563
:1030600009F052C064E078E04BC084309105A105BE
:10307000B105A9F10897A105B10509F045C061EFB7
:1030800077E03EC080389105A105B10589F168F46B
:1030900080329105A105B10541F180349105A1056A
:1030A000B10591F56DED77E02BC0811522E0920717
:1030B000A105B10501F1811524E09207A105B10533
:1030C000E9F081159140A105B105F1F46CEC77E0D0
:1030D00017C06CE078E014C06EEF77E011C067EFC6
:1030E00077E00EC06BEE77E00BC064EE77E008C0CF
:1030F00066ED77E005C064EC77E002C06DEB77E049
:10310000C8010E94ED1F28C066EB77E0C8010E944D
:10311000ED1F8091ED028F938091EC028F9380914F
:10312000EB028F938091EA028F9385E391E09F9366
:103130008F931F928AE08F93CE0101967C019F931B
:103140008F930E94BC33B701C8010E9401200FB6C3
:10315000F894DEBF0FBECDBF2A960FB6F894DEBF3F
:103160000FBECDBFDF91CF911F910F91FF90EF90D8
:103170000895089508952091B601211103C020916A
:10318000730202C0223011F02430F1F422E02093C7
:10319000E9002FEF3091E800215035FD06C035EDF4
:1031A0003A95F1F700002111F5CF2091E80025FFB5
:1031B0000BC040E050E066E070E00E940024809187
:1031C000E8008E778093E8000895CF93DF932091F5
:1031D000B601211103C02091730202C0223011F008
:1031E000243039F521E02093E9002FEF3091E800F9
:1031F000215035FD06C035ED3A95F1F7000021115B
:10320000F5CF2091E80025FF14C0EC0140E050E02C
:1032100068E070E00E9400248091E8008E7780933F
:10322000E80088E0FE01A9E6B2E001900D928A95DF
:10323000E1F7DF91CF9108952091E4003091E5000E
:1032400095E64091EC00842F817040FF23C080916F
:10325000E80080FD1DC080917302882399F08530BD
:1032600099F08091EB0085FD11C04091E4005091F0
:10327000E5002417350729F3915011F09A01E1CFA9
:1032800084E0089582E0089583E0089581E0089540
:1032900080E008954091E80042FFDDCF08958091DD
:1032A000750287FF11C08091E80082FD05C0809102
:1032B00073028111F8CF11C08091E8008B770BC0A9
:1032C00080917302882349F08091E80080FFF8CF55
:1032D0008091E8008E778093E8000895982F9730CA
:1032E00068F59093E900981739F07091EC002091FF
:1032F000ED005091F00003C0242F762F50E021FD07
:1033000002C09F5FECCF3091EB003E7F3093EB002B
:103310003091ED003D7F3093ED003091EB00316056
:103320003093EB007093EC002093ED005093F0008D
:103330002091EE0027FDE5CF80E008958F70809307
:10334000E90081E0089520917B0230917C022617EC
:10335000370748F06115710539F42091E8002E77A0
:103360002093E80001C0B901FC0120E0611571055E
:1033700079F1809173028823F1F18530F1F1809128
:10338000E80083FD3CC08091E80082FD2EC0809162
:10339000E80080FFEBCF2091F3008091F20090E0F5
:1033A000922B6115710551F08830910538F4219107
:1033B0002093F100615071090196F3CF21E0089745
:1033C00009F020E08091E8008E778093E800CECF6E
:1033D0002111CFCF0AC080917302882361F085301C
:1033E00061F08091E80083FD0AC08091E80082FFCF
:1033F000F2CF80E0089582E0089583E0089581E0AF
:103400000895CF93DF93CDB7DEB72A970FB6F89420
:10341000DEBF0FBECDBF84B7877F84BF0FB6F894E1
:10342000A895809160008861809360001092600090
:103430000FBE80E8809361001092610085B78068BC
:1034400085BF85B7806885BF0E94241F80930E01C9
:103450000E94241F882361F08FE091E09093B901CE
:103460008093B80183E08093B701529A5A9A11C0B1
:103470008FE091E09093B9018093B80183E080934D
:10348000B70152985A9AEA9A809169008F7C80938A
:10349000690078940E9447270E9466278091E20085
:1034A00084608093E2007894809173028823A1F075
:1034B0001091E9001F709091EC00892F817090FDB0
:1034C00080E8182B1092E9008091E80083FD0E94AB
:1034D0002C241F701093E90082E084BD93E095BD19
:1034E0009AEF97BD80936E0080913602836088606A
:1034F000809336020E94311FACE5B1E043E651E013
:1035000061E070E08D91E82FE295EF70F0E021A18D
:103510008F708B0102C0000F111F8A95E2F7C8015E
:10352000902F9095922391A392A1892B82A34A1761
:103530005B0741F7559A209A5D9A289AA2E1B2E07A
:103540008CE292E0E2E2F2E011921D928E179F0768
:10355000D9F70E94241F809311020E94892A8111A9
:1035600002C00E94942A0E94241F182F1092B900B2
:103570008CE08093B8008EEA0E943321882309F4FE
:10358000AFC060E885ED0E949D23882309F4A8C0A0
:103590006FE188EA0E949D23882309F4A1C060E0BE
:1035A00083ED0E949D23882309F49AC080E40E9441
:1035B0003321882309F494C064E18DE80E949D239F
:1035C000882309F48DC060E080E20E949D23882357
:1035D00009F486C0111114C080EA0E9433218823A7
:1035E00009F47EC080EC0E943321882309F478C05E
:1035F00062E08AED0E949D23882309F471C008C00F
:1036000081EA0E943321882309F46AC088ECEBCF59
:103610006FE881E80E949D23882309F461C061EF6F
:1036200089ED0E949D23882309F45AC060E48BED44
:103630000E949D23882309F453C084EA0E94332109
:10364000882309F44DC086EA0E943321882309F4B7
:1036500047C08EE20E943321882309F441C08FEADB
:103660000E9433218823E1F160E081E80E949D23DC
:103670008823B1F144E550E060E270E08AEB91E02C
:103680000E94B5338AEB91E090930F0280930E0273
:1036900081E08093100263E082E20E94CF238823BE
:1036A000D9F06FE781E20E94CF238823A9F00E941E
:1036B000AA23811111C080E40E94242181110CC031
:1036C00004E010E080E00E9424211F5F1038D1F751
:1036D0000150B9F7109210020E940F210E94492157
:1036E0000E94892A811102C00E94942A82E090E0FF
:1036F0000E94BE2F8093360284E090E00E94BE2F8D
:1037000090E090931D0280931C0283E090E00E9461
:10371000BE2F682F70E080E090E00E94262C809100
:103720001E02811139C08091360281608093360279
:103730000E94892A811104C00E94942A0E9448157F
:1037400088E090E00E94C62F609347027093480281
:103750008093490290934A026E7771F40E94481553
:1037600088E090E00E94C62F609347027093480261
:103770008093490290934A020E94D41310924D0202
:103780008091470280FF05C0869560E08F730E949C
:10379000E11481E080931E0287E291E09093200281
:1037A00080931F02EE24E394F12CE8E1CE2ED12C7D
:1037B00080917302853009F037C0809173028430A4
:1037C00011F11092210280E40FB6F894A895C092EE
:1037D00060000FBE8093600083B7817F846083BFE9
:1037E00083B7816083BF7894889583B78E7F83BFCA
:1037F0000FB6F894A895809160008861809360006E
:10380000109260000FBE80917202882309F4D0CF1D
:103810000E94C722E2E2F2E08191811175C112E0BB
:10382000EC32F107C9F7C4CF0E94C722E7E3F2E008
:10383000A2E2B2E000E010E0302F2D91419142274A
:10384000B1F180E090E050E0B82EBA01082E02C03D
:10385000759567950A94E2F760FF25C089833A83DE
:10386000C70102C0880F991FBA94E2F75C01822F4A
:1038700090E08A219B2121E0892B09F420E02B8311
:103880000E94242A8160782F9D838C8349815A81EC
:103890006B818D810E941511F801E95CFD4F8081DB
:1038A000A826A0821AC001968730910569F60F5F9D
:1038B0001F4F0A30110509F0BFCF8FEF8E838F8322
:1038C00018860E94242A8160782F9A8789874E81E2
:1038D0005F8168858A850E941511809133029091DD
:1038E00034020E94FA29AC0190913202911103C076
:1038F0002CE231E002C022E330E04217530708F423
:103900006BC080912E0210912F0281110BC01111FA
:1039100011C12091300221110DC1209131022111DC
:1039200009C15AC09F3F19F09F5F90933202181649
:1039300024F40E944C2980932E0280912E0287FF4E
:1039400005C00E944C29819580932E02111624F403
:103950000E944C2980932F0280912F0287FF05C07F
:103960000E944C29819580932F0230912E0233239F
:1039700079F020912F02222359F005EB3003C0018A
:10398000112490932E022003C001112490932F0242
:1039900080913002181624F40E942A298093300264
:1039A0008091300287FF05C00E942A29819580936B
:1039B000300280913102181624F40E942A29809343
:1039C00031028091310287FF05C00E942A2981952A
:1039D000809331020E94302A0E94DF1190913502BB
:1039E000891721F00E94DF118093350280914D02EA
:1039F000882309F4DDCE80914C02E0914702E695E0
:103A0000EF73E81BE0934302823059F4F0E0EE5488
:103A1000F54FE4910E2F10E06BE8A62E63E1B62E71
:103A200045C0863059F4F0E0E155F54FE4910E2F92
:103A300010E054E7A52E53E1B52E38C0893061F46B
:103A4000E695F0E0E455F54FE4910E2F10E044E0E8
:103A5000A42E43E1B42E2AC08F3061F4E695F0E045
:103A6000E755F54FE4910E2F10E037E9A32E32E130
:103A7000B32E1CC0853159F4F0E0EA55F54FE491BE
:103A80000E2F10E02EE3A22E22E1B22E0FC08831BD
:103A900039F408EE13E097E0A92E92E1B92E06C0A2
:103AA00000ED17E08DE7A82E80E1B82E809144024A
:103AB000882389F0109244020E94242A98012095BC
:103AC0003095820F931F909342028093410210928F
:103AD00046021092450280914102909142020E945A
:103AE000FA298017910708F463CEE0914102F09122
:103AF00042020E0F1F1F109342020093410281E405
:103B000092E0F501099554CE80E189BD82E189BD3D
:103B100009B400FEFDCF8091D8008F7D8093D8003E
:103B20008091E00082608093E0008091E00081FD60
:103B3000FCCF3ECE9F3F09F0F7CE08CF8EE14A9BE7
:103B400002C08150E1F74A9BFECF0895615091E099
:103B500001C0990F6A95EAF720E031E0992361F0FE
:103B6000492F482319F05A9A232701C05A9840E256
:103B70004A95F1F79695F2CF222311F05A9A01C097
:103B80005A9880E28A95F1F75A980895FC012AE044
:103B90002A95F1F790E020E080E031E0261779F0F7
:103BA00040E14A95F1F7880F4A9B02C08160932754
:103BB00000C0000040E14A95F1F72F5FEFCF20E110
:103BC0002A95F1F729B100C0000030E13A95F1F7EC
:103BD00022FB222720F992272081920F90830895BB
:103BE000EF92FF920F931F93CF93DF931F92CDB766
:103BF000DEB719828C017C01E60EF11C0E151F0543
:103C000059F00E949E1D68E0CE0101960E94C61DDB
:103C1000F80181938F01F2CF81E09981911180E0C9
:103C20000F90DF91CF911F910F91FF90EF9008952A
:103C30005A9880E28A95F1F75A9A0895FF920F9365
:103C40001F93CF93DF93EC018C01060F111DC0175A
:103C5000D10741F0F9900E94181E68E08F2D0E9454
:103C6000A61DF5CFDF91CF911F910F91FF90089581
:103C70000F931F93CF93DF932091B70130E0281764
:103C800039070CF471C09C0193E0220F331F9A9501
:103C9000E1F7C091B801D091B901C20FD31FF894D8
:103CA000529A5A9845E04A95F1F70000982F969558
:103CB00095708570890F982F937086958695890FDA
:103CC0008901082B0E94181E84E08A95F1F700C034
:103CD00067E0802F0E94A61D40E14A95F1F75298B7
:103CE0005A9A4A9902C000C0FCCF87E090E04A9BF4
:103CF0000EC0019751F4529A5A9AE881F98181E0F5
:103D00008083789481E090E031C000C0F0CF6D8175
:103D1000662381F08E819F810E94F01D81110AC06F
:103D2000529A5A9AE881F98182E08083789482E0FD
:103D300090E01CC00E949E1D80E28A95F1F75A987F
:103D4000529A40E14A95F1F76A81662321F08B810E
:103D50009C810E941E1E0E94181EE881F98110821B
:103D6000789480E090E002C084E090E0DF91CF9111
:103D70001F910F9108950F931F93CF93DF938C01A1
:103D80000C5A1F4FD801ED91FC91119760832D9132
:103D90003C9111972F5F3F4F2D933C93281B390B7C
:103DA00024353105B9F4EC01BC016B5E7F4F4FE364
:103DB00050E00E94A333CE01CF96F8019183808317
:103DC00045E150E060E270E0DF91CF911F910F91EB
:103DD0000C94B533DF91CF911F910F9108951F93EC
:103DE000CF93DF93FC01EA5AFF4F21E020836A3032
:103DF00099F4EC013297808191818C1B9D0B65E1D8
:103E000070E00E946F33182F153158F460E2CE0134
:103E10000E94BB1E1F5FF8CFDF91CF911F910C94C2
:103E2000BB1EDF91CF911F910895CF93DF93EC01DB
:103E3000682F83E090E00E94D22FBE0180E090E0E6
:103E4000DF91CF910C94262CE8EDF0E08081806129
:103E500080838AE18A95F1F700C08091D900817052
:103E60000895CF93DF93AEE7B1E043E851E061E01E
:103E700070E08D91E82FE295EF70F0E021A18F7056
:103E8000EB0102C0CC0FDD1F8A95E2F7CE019C2F1B
:103E90009095922391A392A1892B82A34A175B0745
:103EA00041F7DF91CF9108959F92AF92BF92CF9249
:103EB000DF92EF92FF920F931F93CF93DF93809146
:103EC0000E01811103C0C5E0D0E002C0C0E0D0E027
:103ED000AE014E5E5D4F7A018EE7C82E81E0D82E8E
:103EE0008A01AA24A394B12C25E0922EF3E8CF16E0
:103EF000F1E0DF0609F44AC0F60181916F01E82F75
:103F0000E295EF70F0E021A18F70A50102C0440F8F
:103F1000551F8A95E2F7CA01922F982B91A392A17F
:103F20008095892382A350EA5A95F1F7ECE5F1E0F8
:103F300020E040E050E03191A32FA295AF70B0E0B7
:103F400090968C9190E03F7002C0959587953A9538
:103F5000E2F780FD07C0C501042E01C0880F0A9456
:103F6000EAF702C080E090E0282B4F5F5F4F4730B8
:103F7000510509F7F8018081821719F0208390928A
:103F800031010E94311F0F5F1F4FB0CF809131016F
:103F90008823B1F0815080933101811103C0CE5D3F
:103FA000DD4F07C08FE99FE00197F1F700C00000E7
:103FB00007C0F70191917F0199938F5F8530C9F711
:103FC00081E0DF91CF911F910F91FF90EF90DF90F3
:103FD000CF90BF90AF909F9008950F931F93CF9372
:103FE000DF938C01EB01FE016491662329F0C80187
:103FF0000E94EF1E2196F7CFDF91CF911F910F9175
:104000000895EF92FF920F931F93CF93DF937C015C
:10401000EB01FB0101900020E9F78F01015011092C
:10402000C017D10728F46991C7010E94EF1EF8CF8D
:10403000DF91CF911F910F91FF90EF9008951F9204
:104040000F920FB60F9211240F931F932F933F934C
:104050004F935F936F937F938F939F93AF93BF9390
:10406000EF93FF93CF93DF931F92CDB7DEB7198203
:104070000E949E1D67E0CE0101960E94C61D382F4A
:10408000369536953695932F96959570232F2570F6
:10409000920F292F2370969596958770920F89130A
:1040A00048C08981811145C08091B701831708F408
:1040B00040C080E18A95F1F75A9A529AA2E0AA95F7
:1040C000F1F700C00091B8011091B901B8E03B9F31
:1040D000000D111D11245A98F8016581662321F005
:1040E000868197810E941E1E0E94181EF0E1FA959B
:1040F000F1F75A9852985A9A80E18A95F1F7D801C7
:1041000012966C911297662369F013968D919C918B
:1041100014970E94F01DD801ED91FC91811105C00A
:1041200082E004C0D801ED91FC9188E080830E9478
:104130009E1D0F90DF91CF91FF91EF91BF91AF91B5
:104140009F918F917F916F915F914F913F912F91AF
:104150001F910F910F900FBE0F901F9018951F92F7
:104160000F920FB60F9211248F939F93EF93FF93AB
:104170008091B900887F803869F038F48823C9F1CC
:104180008036C9F510925F0236C0883A09F1883B43
:10419000F9F031C080915F02811111C08091BB00A4
:1041A00080935E0280915E02803120F010925E0268
:1041B00080E001C081E091E090935F021DC0E0913A
:1041C0005E02F0E08091BB00E25BFD4F808308C09F
:1041D000E0915E02F0E0E25BFD4F80818093BB00E6
:1041E00080915E0290E001968F70992780935E0225
:1041F00002C01092BC0081E09091BC008295880FB3
:10420000880F807C9568892B8093BC00FF91EF918B
:104210009F918F910F900FBE0F901F90189584E97A
:104220008093BC0083E390E02091BC0024FD02C099
:104230000197D1F7089583E390E02091BC0027FD1A
:1042400002C00197D1F708958093BB0084E8809362
:10425000BC000E941B219091B900987F81E09832A8
:1042600009F480E00895CF93C82F0E94AA238111FA
:104270000AC080E00E942421811105C08C2F0E9479
:104280002421C1E08111C0E00E940F218C2FCF9129
:104290000895BF92CF92DF92EF92FF920F931F93F8
:1042A000CF93DF930E94242A90936102809360024F
:1042B0008FEA0E94332163E082E20E94CF238823A9
:1042C000D1F16DE781E20E94CF238823A1F10E9402
:1042D000AA23811130C080E40E94242181112BC0C7
:1042E0008AEBE82E81E0F82E94E0B92EC0E0D0E011
:1042F000F701EC0FFD1FC08086E0C89E600111240D
:1043000000E010E0F601E00FF11FEA54F54F849150
:104310000E9424210F5F1F4F0630110599F7219647
:10432000C531D10529F7BA9485E1E80EF11CB11029
:10433000DDCF10921002DF91CF911F910F91FF906E
:10434000EF90DF90CF90BF900C940F21EF92FF92EF
:104350000F931F93CF93DF93CDB7DEB7C557D10926
:104360000FB6F894DEBF0FBECDBF44E550E060E26B
:1043700070E08E010F5F1F4FC8010E94B533679632
:104380001FAF0EAF679781E068968FAF68978091F7
:104390001102882309F499C080911C0282FD0DC08E
:1043A00064E270E1C8010E94ED1F62E270E1C801A1
:1043B0000E94ED1F67E270E10CC06AE270E1C80183
:1043C0000E94ED1F60E270E1C8010E94ED1F6DE2E6
:1043D00070E1C8010E94ED1F6EE170E1C8010E940A
:1043E000ED1FC8010E9400186CE170E1C8010E9435
:1043F000ED1F0E94DF1180FD03C06CE070E102C080
:1044000064E170E1C8010E94ED1F0E94DF1181FD8F
:1044100003C062E070E102C067E070E1C8010E9481
:10442000ED1F0E94DF1182FD03C066EF7FE002C036
:104430006BEF7FE0C8010E94ED1F60E070E1C801F2
:104440000E94ED1F2091470220FF67C080914A0221
:1044500031E1632F0E944F331F928F938091490265
:104460000E944F331F928F93822F881F8827881FA7
:1044700090914802292F220F822B97FB992790F9C0
:104480006AE070E00E946F337F936F9380914702E0
:1044900086958F731F928F9383E691E09F938F93FE
:1044A0001F928EE18F937E0128E5E20EF11CFF92B0
:1044B000EF920E94BC33B701C8010E9401200FB6E1
:1044C000F894DEBF0FBECDBF28C060E370E1C80125
:1044D0000E94ED1F8091470280FF1CC086958F735C
:1044E0001F928F9387E791E09F938F931F928EE1A6
:1044F0008F937E0198E5E90EF11CFF92EF920E94E6
:10450000BC33B701C8010E9401200FB6F894DEBF8A
:104510000FBECDBFC8010E94001844E550E0B801AD
:104520008AEB91E00E949633892B59F084E5F801DB
:10453000AAEBB1E001900D928A95E1F781E08093BA
:10454000100280911002811104C080910001882323
:1045500021F00E9449211092000180916002909107
:1045600061020E94FA2981369A4E18F08EEA0E9462
:104570003321CB58DF4F0FB6F894DEBF0FBECDBF4F
:10458000DF91CF911F910F91FF90EF900895EF92DF
:10459000FF920F931F93CF93DF9380911102882393
:1045A00009F472C00E94541F80910E01811103C052
:1045B000C5E0D0E002C0C0E0D0E0CE5DDD4F45E018
:1045C00050E0BE018FEA91E00E9496337C0185E0C5
:1045D000FE01AFEAB1E001900D928A95E1F780917A
:1045E0000E01811103C0C0E0D0E002C0C5E0D0E000
:1045F0009091330180913201981761F082E090E050
:104600000E94381E8C01892B39F4809132018093ED
:10461000330102C000E010E0EF2849F4809162020B
:1046200090916302892B19F480E090E002C081E050
:1046300090E00E94381E892B49F48091B401809348
:104640003201109263021092620206C081E090E093
:1046500090936302809362020115110531F00230DC
:10466000110509F04FC028984DC0289ADE01AE5DB3
:10467000BD4F85E0E9EAF1E001900D928A95E1F7FE
:104680005D9A1092640234C00E94541F80910E0102
:10469000811103C0E5E0F0E002C0E0E0F0E0EE5D93
:1046A000FD4F80E020E030E0D901A755BE4F4C918E
:1046B0009191491381E09C932F5F3F4F2530310545
:1046C00099F79091B401890F8093B40180910E0104
:1046D000811103C0A0E0B0E002C0A5E0B0E0AE5D93
:1046E000BD4F85E0EFEAF1E001900D928A95E1F788
:1046F0000E94A62181E0DF91CF911F910F91FF9041
:10470000EF9008955D98809164028F5F80936402BA
:10471000863070F380910E01811103C0E0E0F0E07B
:1047200002C0E5E0F0E0EE5DFD4F80E090E0119228
:10473000019685309105D9F7DBCFCF93C62F0E9424
:104740003321882321F08C2FCF910C94332180E0EA
:10475000CF91089584EA8093BC000E941B21809130
:10476000B900887F883039F08091B900887F803126
:1047700011F081E0089588E78093BB0084E880937E
:10478000BC000E941B218091B900887F883129F0EC
:104790008091B900887F803461F780E00895CF93DD
:1047A000C62F0E943321882349F080E00E943321E4
:1047B000882321F08C2FCF910C94332180E0CF916E
:1047C00008952BB1277F3BB138604FB7F894FC01B7
:1047D000680F791FE617F70789F0819198E03BB9D8
:1047E000000000C087FF2BB9880F000000C000C088
:1047F00000C02BB900C09A9591F7ECCF4FBF089538
:10480000EF92FF920F931F93CF93DF937C018B0165
:104810000E941C19811119C0E70101151105A1F0B1
:104820008091E80085FD0AC08091E8008E77809332
:10483000E8000E941C19882381F307C089918093A6
:10484000F10001501109E9CF80E0DF91CF911F9174
:104850000F91FF90EF9008951F93CF93DF93CDB703
:10486000DEB7AA970FB6F894DEBF0FBECDBFE5E75F
:10487000F2E08091F100819322E0ED37F207C9F771
:1048800080917602833009F460C030F4813071F099
:10489000823009F49CC0B3C08A3009F488C08B30E0
:1048A00009F46BC0893009F0AAC020C0809175025C
:1048B000813A09F0A4C08091E800877F8093E800E6
:1048C0008091790290917A02892B21F468E089E63F
:1048D00092E003C060E080E090E070E00E94A319E5
:1048E0008091E8008B778093E80089C08091750201
:1048F000813209F084C08091790290917A02029706
:1049000008F07DC08091E800877F8093E800809167
:10491000E80082FD05C0809173028111F8CF6FC05D
:104920002091F3008091F20090E0922B029729F4FD
:104930008091F1008B7F813021F48091F100809390
:1049400068028091E8008B7756C080917502813AA9
:1049500009F055C08091790290917A02892B09F073
:104960004EC08091E800877F8093E8008091E80046
:1049700080FFFCCF8091340139C080917502813273
:10498000F1F58091790290917A02892BC1F580919D
:10499000E800877F8093E8000E944F19809177029A
:1049A00080933401109266020E94932E28C0809159
:1049B0007502813221F58091E800877F8093E800BD
:1049C0000E944F19809178028093670218C08091ED
:1049D0007502813AA1F48091E800877F8093E80016
:1049E0008091E80080FFFCCF809167028093F10006
:1049F0008091E8008E778093E8000E944F198091A3
:104A0000E80083FFD8C18091750290917602492F0A
:104A100050E04A30510508F0CEC1FA01E856FF4F88
:104A20000C948333803821F0823809F0C4C108C067
:104A30008091710290917202992389F082600FC077
:104A4000809179028F70873008F0B5C18093E900BA
:104A50008091EB0085FB882780F91092E900909106
:104A6000E800977F9093E8008093F1001092F100A6
:104A700071C1282F2D7F09F09EC1882319F0823043
:104A800061F099C180917702813009F094C193302F
:104A900009F080E0809372022EC08091770281112C
:104AA0002AC0809179028F702FEF280F263008F0EE
:104AB00082C18093E9002091EB0020FF1CC093305D
:104AC00021F48091EB00806214C09091EB00906122
:104AD0009093EB0021E030E0A90102C0440F551F84
:104AE0008A95E2F74093EA001092EA008091EB0089
:104AF00088608093EB001092E9008091E800877F46
:104B00002CC1811158C1109177021F778091E30069
:104B10008078812B8093E3008091E800877F8093E9
:104B2000E8000E944F198091E80080FFFCCF80913F
:104B3000E30080688093E300111102C082E001C0AD
:104B400083E08093730237C18058823008F033C10C
:104B500080917702909178028C3D53E0950779F52A
:104B600083E08A838AE289834FB7F894DE01139643
:104B700020E03EE051E2E32FF0E050935700E49153
:104B800020FF03C0E295EF703F5FEF708E2F90E043
:104B9000EA3010F0C79601C0C0968D939D932F5FA9
:104BA000243149F74FBF8091E800877F8093E80068
:104BB0006AE270E0CE0101960E94A319BAC040914A
:104BC000790250917A02292F332723303105B1F031
:104BD00068F42130310509F4FDC02230310509F0B7
:104BE000EAC08BE390E0EFEFF0E150C021323105F5
:104BF00081F12232310509F439C0DDC099278130B5
:104C00009105B9F070F082309105D9F0039709F061
:104C1000D2C0ECE4F1E1E4918E2F90E0ECE4F1E11C
:104C200032C0E0E8F1E1E4918E2F90E0E0E8F1E1BC
:104C30002AC0EAE6F1E1E4918E2F90E0EAE6F1E1A4
:104C400022C0E2E5F1E1E4918E2F90E0E2E5F1E1AE
:104C50001AC04115510509F4C2C04130510509F08F
:104C6000AAC089E090E0EAE2F1E110C041155105E7
:104C700009F4BAC04130510509F09DC08FE490E0BD
:104C8000E0E7F0E103C0009709F495C02091E80047
:104C9000277F2093E80020917B0230917C028217CD
:104CA000930708F49C0140E02115310589F18091BA
:104CB0007302882309F43DC08530D9F18091E80062
:104CC00083FD37C08091E80082FD2FC08091E8000D
:104CD00080FFEACF4091F3008091F20090E0942BA6
:104CE0002115310559F08830910540F444914093E5
:104CF000F1003196215031090196F2CF41E0089739
:104D000009F040E08091E8008E778093E800CCCFF6
:104D10004111CDCF0AC080917302882351F08530B4
:104D200041F08091E80083FD04C08091E80082FF9B
:104D3000F2CF8091E8008B778093E8003CC0803808
:104D4000D1F58091E800877F8093E800809174021C
:104D50008093F1008091E8008E778093E8000E94B4
:104D60004F1929C0811127C0809177029091780254
:104D70009927029704F58091E800877F8093E800E7
:104D800010917702109374020E944F19111106C0FE
:104D90008091E30087FD02C081E001C084E0809340
:104DA000730242E061EC81E00E946E1942E261EC24
:104DB00082E00E946E198091E80083FF1AC0809102
:104DC000E800877F8093E8008091EB008062809309
:104DD000EB000FC082E190E0EAE3F1E157CF89E018
:104DE00090E0E1E1F1E152CF80E490E0EFEBF0E11F
:104DF0004DCFAA960FB6F894DEBF0FBECDBFDF91A0
:104E0000CF911F9108951F920F920FB60F92112408
:104E10002F933F934F935F936F937F938F939F93C2
:104E2000AF93BF93CF93DF93EF93FF93C091E900CC
:104E3000CF708091EC00D82FD17080FDD0E8109217
:104E4000E9008091F000877F8093F00078940E94C1
:104E50002C241092E9008091F00088608093F0008B
:104E6000CD2BCF70C093E900FF91EF91DF91CF91EF
:104E7000BF91AF919F918F917F916F915F914F9172
:104E80003F912F910F900FBE0F901F901895E8ED56
:104E9000F0E080818E7F80831092E2001092DA0031
:104EA0001092E100A0EEB0E08C9181608C93808143
:104EB0008F77808319BCA7EDB0E08C918E7F8C93A7
:104EC00080818F7E8083109265020895CF92DF9259
:104ED000EF92FF920F931F93CF93DF93C8EDD0E033
:104EE00088818F7E8883E7EDF0E080818160808318
:104EF00084E082BF81E08093650288818E7F888311
:104F000002EE10E0F80110821092DA0081EEC82E55
:104F1000D12CF601108288818F7788838881806800
:104F2000888388818F7D888319BC109273021092C8
:104F30007402109272021092710290EEE92EF12C1E
:104F4000F70180818B7F808388818160888342E044
:104F500060E080E00E946E19F60180818E7F808380
:104F6000F801808181608083808188608083F7017F
:104F700080818E7F8083888180618883DF91CF915B
:104F80001F910F91FF90EF90DF90CF9008951F92A7
:104F90000F920FB60F9211242F933F934F935F936D
:104FA0006F937F938F939F93AF93BF93EF93FF93F1
:104FB0008091E10082FF09C08091E20082FF05C07C
:104FC0008091E1008B7F8093E1008091DA0080FF87
:104FD0002AC08091D80080FF26C08091DA008E7FA1
:104FE0008093DA008091D90080FF18C080E189BDEC
:104FF00082E189BD09B400FEFDCF81E08093730298
:105000008091650281110FC00E9447270E94662788
:105010008091E20084608093E20005C019BC109288
:105020007302109265028091E10080FF17C08091A9
:10503000E20080FF13C08091E2008E7F8093E20047
:105040008091E20080618093E2008091D8008062CC
:105050008093D80019BC85E0809373028091E100B1
:1050600084FF34C08091E20084FF30C080E189BDBC
:1050700082E189BD09B400FEFDCF8091D8008F7D0B
:105080008093D8008091E1008F7E8093E100809131
:10509000E2008F7E8093E2008091E2008160809345
:1050A000E20080917402882311F084E007C08091AF
:1050B000E30087FD02C081E001C083E080937302BA
:1050C000109266020E94932E0E94DF118091E100EF
:1050D00083FF27C08091E20083FF23C08091E1001D
:1050E000877F8093E10082E08093730210927402C4
:1050F0008091E1008E7F8093E1008091E2008E7FBD
:105100008093E2008091E20080618093E20042E0BF
:1051100060E080E00E946E198091F00088608093CA
:10512000F000FF91EF91BF91AF919F918F917F918F
:105130006F915F914F913F912F910F900FBE0F9004
:105140001F901895809168020895803F39F48091EE
:105150002F0287FF6CC010922F0269C0813F29F493
:1051600080912F021816BCF362C090912E02823FEC
:1051700029F497FF5CC010922E0259C0833F19F4A6
:105180001916CCF354C0893F41F4809130021816AF
:105190000CF04DC0109230024AC08A3F29F4809131
:1051A000300287FF44C0F6CF8B3F39F48091310243
:1051B00087FF3DC0109231023AC08C3F29F48091A4
:1051C00031021816BCF333C0843F21F480912D02C4
:1051D0008E7F17C0853F21F480912D028D7F11C0F5
:1051E000863F21F480912D028B7F0BC0873F21F4F5
:1051F00080912D02877F05C0883F31F480912D0278
:105200008F7E80932D0213C08D3F21F48091FA028E
:105210008E7F0BC08E3F21F48091FA028D7F05C0F6
:105220008F3F29F48091FA028B7F8093FA0280915C
:105230002E0281110EC080912F0281110AC080912F
:105240003002811106C080913102811102C010929A
:10525000320208958091FA0280FD16C081FD16C0C9
:1052600082FD18C080913202882391F0883290F438
:1052700028E0829FC001112468E270E00E946F3331
:10528000862F672B29F007C082E0089584E00895F7
:1052900081E0089588E008958091FA0280FD14C0AD
:1052A00081FD14C082FD16C080913202882381F0F6
:1052B000843180F422E3829FC001112464E170E014
:1052C0000E946F33862F08958CE0089589E1089538
:1052D00085E0089582E30895803F21F40E944C29DF
:1052E000819504C0813F29F40E944C2980932F02AC
:1052F0000895823F21F40E944C29819504C0833F88
:1053000029F40E944C2980932E020895893F19F4B4
:105310000E942A2905C08A3F31F40E942A298195DA
:105320008093300208958B3F21F40E942A298195B1
:1053300004C08C3F29F40E942A29809331020895E9
:10534000843F21F480912D02816017C0853F21F4B4
:1053500080912D02826011C0863F21F480912D0240
:1053600084600BC0873F21F480912D02886005C0C6
:10537000883F31F480912D02806180932D02089541
:105380008D3F21F48091FA0281600BC08E3F21F4A1
:105390008091FA02826005C08F3F29F48091FA0261
:1053A00084608093FA02089578941F920F920FB64A
:1053B0000F9211248F939F93AF93BF938091F60226
:1053C0009091F702A091F802B091F9020196A11D07
:1053D000B11D8093F6029093F702A093F802B09368
:1053E000F902BF91AF919F918F910F900FBE0F90D7
:1053F0001F901895CF92DF92EF92FF920F931F9319
:105400002FB7F8944091F6025091F7026091F8029C
:105410007091F9022FBF6A017B01EE24FF248C01F9
:1054200020E030E0C016D106E206F30610F4415049
:1054300051099A01281B390BC9011F910F91FF9047
:10544000EF90DF90CF9008952FB7F8948091F602F7
:105450009091F702A091F802B091F9022FBF089540
:10546000E0911F02F0912002309749F082E0809392
:105470002C020480F581E02D8CE292E009950E94D7
:10548000242A909334028093330208951F920F923E
:105490000FB60F9211248F939F93AF93BF93809178
:1054A0002102811113C08091F6029091F702A09120
:1054B000F802B091F9024196A11DB11D8093F60248
:1054C0009093F702A093F802B093F902BF91AF91C5
:1054D0009F918F910F900FBE0F901F9018959C0178
:1054E000FC0132969FEF80E04191461789F09F3F83
:1054F00019F4411101C0982F8F5F8630A9F79F3FA3
:1055000039F0F901E90FF11D97FDFA9562830895CD
:10551000089580E090E00E94CC2F21E08D3E9E4FC8
:1055200009F020E0822F08956DEE7EEF80E090E09C
:105530000E94F02F60E082E090E00E94D22F60E0B5
:1055400083E090E00E94D22F1092F2021092F302B8
:105550001092F4021092F50260E084E090E00E9464
:10556000D22F60E085E090E00E94D22F60E086E0DC
:1055700090E00E94D22F6FEF87E090E00E94D22F40
:1055800040E050E0BA0188E090E00E94E42F60E043
:105590008DE090E00E94D22F40E050E0BA0188E117
:1055A00090E00E94E42F60E087E190E00E94D22F1B
:1055B00040E050E0BA018FE090E00E94E42F40E02C
:1055C00050E0BA0183E190E00C94E42F8091F10265
:1055D00081111092F1020895909166028091F0027B
:1055E000892B2091EF02982F922B90937D0280912E
:1055F000F102882389F0892B80937D02EFE7F2E0A6
:1056000097E080E0915029F021912223D9F38F5F18
:10561000F9CF81110E94E62AE0911F02F091200249
:10562000309731F00280F381E02D8DE792E009940C
:105630000895BF92CF92DF92EF92FF920F931F9344
:10564000CF93DF938C01C090EA02D090EB02E09000
:10565000EC02F090ED028091F2029091F302A091A1
:10566000F402B091F502C82AD92AEA2AFB2ACFE12E
:10567000D0E0D701C6010C2E04C0B695A79597952A
:1056800087950A94D2F780FD04C0219790F7B12C3A
:1056900007C0BC2EB8018C2F0E9458150197A9F3A2
:1056A0008B2DDF91CF911F910F91FF90EF90DF90A5
:1056B000CF90BF900895CF93DF93EC010E94192BF8
:1056C000BE010E945815DF91CF91089527E0929F67
:1056D000800D1124682F669566956695982F9770B2
:1056E00085E0689FB001112440E050E080E0FB01BC
:1056F000E40FF51FE354FD4F208130E0092E02C076
:10570000369527950A94E2F721703327042E01C0BD
:10571000220F0A94EAF7822B4F5F5F4F4530510505
:1057200031F7089527E0929F800D1124E82FE69528
:10573000E695E695877051E001C0550F8A95EAF726
:1057400085E0E89FF0011124E354FD4F20E030E0B4
:1057500070E04081CB01022E02C0969587950A9495
:10576000E2F78170819584278523842781932F5FB9
:105770003F4F2530310569F708956093EA02709331
:10578000EB028093EC029093ED020C94802E0F9329
:105790001F9341E050E060E070E004C0440F551FEB
:1057A000661F771F8A95D2F7409550956095709542
:1057B0008091EA029091EB02A091EC02B091ED028F
:1057C0008A019B01082319232A233B23C901B8011D
:1057D0001F910F910C94BD2B2091EE028095822396
:1057E0008093EE02982F977079F430E0482F082EBE
:1057F000000C550B2417350739F08595859585954F
:105800000E94C72B1092EE0208950F931F9341E060
:1058100050E060E070E004C0440F551F661F771F22
:105820008A95D2F78091EA029091EB02A091EC0266
:10583000B091ED028A019B01082B192B2A2B3B2BDF
:10584000C901B8011F910F910C94BD2B6093F20216
:105850007093F3028093F4029093F5020C94802EDF
:105860008091BC0290918B02891719F08F5F87702D
:10587000FBCF0895CF9380918A0282958F7009F0B3
:105880005FC080918702882309F45AC08091BC02CE
:10589000B0918B0270918502A0918602409188029E
:1058A0005091890291E07F3F09F090E0692FC6E0B6
:1058B0008B1709F445C04115510521F0AF3F21F088
:1058C00020E003C021E001C0262F90E020FD35C07C
:1058D000C89FF001C99FF00D1124E457FD4F2181AD
:1058E0002A132BC02081271328C02281211125C013
:1058F000238134812417350710F421503109241BEA
:10590000350B24363105C8F420918A022F702061AE
:1059100020938A0226E0289FF001299FF00D112490
:10592000EF56FD4F80818F708061808385E892E023
:105930000E940B09CF910C94302C01968770B8CF40
:10594000CF9108950E945B2B292F2F70E92FE295AC
:10595000EF704E2F50E0FA013297EE30F105B8F4B7
:10596000EE55FF4F0C948333803F99F018F4803E3E
:1059700070F40FC0843F59F40CC0803E50F0813F5A
:1059800031F407C0822F869586958695089580E02C
:10599000089581E00895AF92BF92CF92DF92EF9287
:1059A000FF920F931F93CF93DF93CDB7DEB761972D
:1059B0000FB6F894DEBF0FBECDBF7C0185E0F701C6
:1059C000DE011D9601900D928A95E1F7D7013C9179
:1059D00011962C91119712960C915091850260911D
:1059E00086028091880290918902009731F06F3F82
:1059F00031F441E05F3F19F403C041E001C040E0F1
:105A0000B42FB170BB2E40FD28C1F701C380D480F4
:105A1000A0908702AA2009F4E3C040918A02C81628
:105A2000D90628F0D601A81BB90BCD0104C080957A
:105A300090958C0D9D1D11E08436910548F010E085
:105A4000407F09F093C085E892E00E940B09FDC0F9
:105A5000842F807F09F051C0621312C0531310C00D
:105A6000102F01110DC04F70406140938A0285E8EC
:105A700092E00E940B0980918A02F70185832EC172
:105A8000CD2831F02F3F31F481E03F3F19F403C0BE
:105A900081E001C080E080FD03C081E0802702C07A
:105AA00080E090E0182F117080FF1CC08091BC0234
:105AB00040918B0256E0841709F4EDC090E0589FA6
:105AC000F001599FF00D1124E457FD4F6181261319
:105AD00006C06081361303C06281061303C00196BD
