:100000000C943F070C9486070C9486070C943223BB
:100010000C9486070C9486070C9486070C9486072C
:100020000C9486070C9486070C9415200C94511F91
:100030000C9463280C9486070C9486070C9486070E
:100040000C9486070C9486070C9486070C948607FC
:100050000C9486070C94F1270C9486070C94860761
:100060000C9486070C9486070C9486070C948607DC
:100070000C9486070C9486070C9486070C948607CC
:100080000C9486070C9486070C9486070C948607BC
:100090000C94C2230C9486070C9486070C94860754
:1000A0000C9486070C9486070C948607430B450B2B
:1000B000500B470B490B4B0B4D0B4F0B520B540B7B
:1000C000560B610B580B5A0B5C0B5E0B600B630BF2
:1000D000A30CA30CDD0CDD0CF00E210DF00EF00EC8
:1000E000630DF00E500E500E5D0E5D0E5D0E5D0E3A
:1000F0005D0E5D0E5D0E5D0E5D0E5D0E5D0E5D0EA8
:100100005D0E5D0E5D0E5D0E6E0E980E9D0EA40EC4
:10011000BB0E601D871D291F871D291FCF1DF21DC6
:10012000291FED1E001FD12AD12AE42AE42ADA2A47
:10013000E42AE42AE42AD12AD12ADF2AE42AE42A7A
:10014000DF2A07634236B79BD8A71A39685618AE1C
:10015000BAAB558C1D3CB7CC5763BD6DEDFD753EFC
:10016000F6177231BF000000803F05A84CCDB2D415
:100170004EB93836A9020C50B9918688083CA6AA17
:10018000AA2ABE000000803F29001E001F00200098
:10019000210022000000E00014001A0007000900FE
:1001A0000A000000E10004001200080018000C0022
:1001B0000000E1411D001B0006001900050000427F
:1001C000E200005C0000E30091002C0000434C00C2
:1001D0002700260025002400230000002A00130029
:1001E0001500170016001C00000028002E000F004C
:1001F0000E000D000B000000E54137003100380013
:10020000100011000042065805520052E70090000D
:100210002C00004429001E001F00200021002200A5
:1002200000002B0014021A02070209020A02000051
:10023000E00004021202080218020C020000010091
:100240001D621B020602190205020000E200000006
:100250000000E3008B002C0000004C00270026006B
:1002600025002400230000002A00130215021702B3
:1002700016021C020000280033020F020E020D02BB
:100280000B02000001003600380087001002110246
:100290000000000005520052E7008A002C00000018
:1002A0003A003B003C003D003E003F000000005C87
:1002B00000000000D35CD45CD15C0000DE5C000078
:1002C000CD5CCE5CCF5CD05C0000135CC35CCB5CCF
:1002D000C95CC55CC75C01000A5CC45CCC5CCA5CE0
:1002E000C65CC85CC25C450044004300420041005B
:1002F000400000000000F900F500F600F4000000E6
:1003000000000000FA00F300F000F100F20000002D
:1003100000000000000000000000000001000000DC
:100320000552005200000000000000000000000024
:1003300000000000000000000000000000000000BD
:1003400000000000000000000000000000000000AD
:10035000000000000000000000000000000000009D
:10036000000000000000000000000000000000008D
:10037000010000000000000000000000000000007C
:1003800000004B004D004A004900460000000000FC
:100390004E004F00520051005000000000000000CD
:1003A00000000000000000000000000005520052A4
:1003B000000000000000000000001E001F002000E0
:1003C000210022000000000035022D02340234001A
:1003D00035000000E0002E022D0025022E00330221
:1003E0000000E1001E023802200221022202000069
:1003F000E20000000000E30091002C0000004C002F
:100400002700260025002400230000002A002402E3
:10041000360237022702260200002800310230008F
:100420002F0030022F020000280000000000000012
:1004300023021F020000000005520052E700900056
:100440002C00010035001E001F00200021002200AA
:1004500000002B0014001A0008001500170000000F
:10046000E00004001600070009000A000000E10097
:100470001D001B000600190005000000E20000003E
:100480000000E30091002C0000004C002700260033
:1004900025002400230000002A003500130012006C
:1004A00018001C00000028002E000F000E000D0098
:1004B0000B000000E50037003600100011000500B9
:1004C0000000010005520052000000000000000082
:1004D000000000000000000000000000000000001C
:1004E000000000000000000000000000000000000C
:1004F00000000000000000000000000000000000FC
:1005000000000000000000000000000000000000EB
:1005100000000000000000000000560055005400DC
:1005200053000000000000005700610060005F0001
:1005300000000000000058005E005D005C0000004C
:100540000000000058005B005A0059000000010044
:1005500000004C00000062006200000002E2600344
:10056000E20002E26003E2007F3F1F643214643263
:1005700014783C1E1E140A05000000000000000054
:10058000000000000000000000000000000000006B
:10059000000000000000000000000000000000005B
:1005A000000000000000000000000000000000004B
:1005B000000000000000000000000000000000003B
:1005C000000000000000000000000000000000002B
:1005D000000000000000000000000000000000001B
:1005E000000000000000000000000000000000000B
:1005F00000000000000000000000000000000000FB
:1006000000000000000000000000000000000000EA
:1006100000000000000000000001010101010100D4
:1006200001010101000000000000000000000000C6
:1006300000000100010001010101010101010101AE
:10064000010101010101010101010101010101019A
:100650000101010000000101000000000000000095
:10066000000000000000000000000000000000008A
:100670000000000101010100000000000000000076
:100680002A2B2800000000000000000000000000ED
:1006900000000029000000002C1E342021222434F8
:1006A0002627252E362D3738271E1F2021222324CA
:1006B00025263333362E37381F0405060708090A66
:1006C0000B0C0D0E0F101112131415161718191A02
:1006D0001B1C1D2F3130232D350405060708090A80
:1006E0000B0C0D0E0F101112131415161718191AE2
:1006F0001B1C1D2F3130354C000000000001010192
:1007000001010101010102020202020202020203CE
:10071000030303030303030404040404040505059D
:10072000050506060606060707070708080808095C
:1007300009090A0A0A0A0B0B0B0C0C0C0D0D0D0E05
:100740000E0F0F0F10101111111212131314141594
:100750001516161717181819191A1A1B1C1C1D1D07
:100760001E1F1F202021222223242525262727285B
:10077000292A2B2B2C2D2E2F2F3031323334353686
:10078000363738393A3B3C3D3E3F40414243444690
:100790004748494A4B4C4D4F505152535556575864
:1007A0005A5B5C5E5F606263646667696A6C6D6E0B
:1007B000707173747678797B7C7E8081838486887F
:1007C0008A8B8D8F91929496989A9B9D9FA1A3A5B9
:1007D000A7A9ABADAFB1B3B5B7B9BBBDBFC1C4C6B7
:1007E000C8CACCCFD1D3D6D8DADCDFE1E4E6E8EB77
:1007F000EDF0F2F5F7FAFCFF6801F000B4007800C4
:100800005A0005010902A10185020901A10005099B
:10081000190129051500250195057501810295012C
:10082000750381010501093009311581257F950284
:100830007508810609381581257F9501750881069F
:10084000050C0A38021581257F950175088106C0BF
:10085000C005010906A101050719E029E7150025D2
:100860000195087501810295017508810105081936
:100870000129059505750191029501750391010501
:1008800007190029FF150026FF009506750881004D
:10089000C009023B00020100A0C8090400000103D6
:1008A0000101000921110100012240000705810317
:1008B00008000A09040100010300000009211101D8
:1008C0000001224F000705820320000A12011001D7
:1008D00000000008EDFE6030010001020301040386
:1008E000300000001603480065006C0069007800C5
:1008F00020004200650074006100000014035900EC
:1009000075007300680061006B006F0062006F008B
:100910000000040309040000000000003E5B4F5B80
:100920003E003E6B4F6B3E001C3E7C3E1C00183C64
:100930007E3C18001C577D571C001C5E7F5E1C000F
:1009400000183C180000FFE7C3E7FF000018241858
:100950000000FFE7DBE7FF0030483A060E002629DB
:1009600079292600407F05050700407F05253F00C7
:100970005A3CE73C5A007F3E1C1C0800081C1C3EE9
:100980007F0014227F2214005F5F005F5F00060972
:100990007F017F00006689956A006060606060008A
:1009A00094A2FFA2940008047E04080010207E2078
:1009B000100008082A1C0800081C2A0808001E103D
:1009C000101010000C1E0C1E0C0030383E38300089
:1009D000060E3E0E060000000000000000005F0052
:1009E0000000000700070000147F147F1400242A71
:1009F0007F2A1200231308646200364956205000F3
:100A0000000807030000001C224100000041221CD6
:100A100000002A1C7F1C2A0008083E0808000080ED
:100A2000703000000808080808000000606000003E
:100A30002010080402003E5149453E0000427F401C
:100A400000007249494946002141494D33001814BC
:100A5000127F10002745454539003C4A494931007D
:100A600041211109070036494949360046494929BB
:100A70001E000000140000000040340000000008C8
:100A8000142241001414141414000041221408000C
:100A90000201590906003E415D594E007C121112B7
:100AA0007C007F49494936003E41414122007F4157
:100AB00041413E007F49494941007F090909010040
:100AC0003E41415173007F0808087F0000417F418B
:100AD00000002040413F01007F08142241007F4078
:100AE000404040007F021C027F007F0408107F000E
:100AF0003E4141413E007F09090906003E41512126
:100B00005E007F0919294600264949493200030140
:100B10007F0103003F4040403F001F2040201F0056
:100B20003F4038403F006314081463000304780416
:100B300003006159494D4300007F414141000204D7
:100B400008102000004141417F000402010204001E
:100B50004040404040000003070800002054547803
:100B600040007F2844443800384444442800384436
:100B700044287F0038545454180000087E090200AD
:100B800018A4A49C78007F080404780000447D40E9
:100B900000002040403D00007F102844000000413C
:100BA0007F4000007C04780478007C08040478000E
:100BB000384444443800FC1824241800182424180D
:100BC000FC007C0804040800485454542400040425
:100BD0003F4424003C4040207C001C2040201C005E
:100BE0003C4030403C004428102844004C909090F9
:100BF0007C004464544C440000083641000000006E
:100C000077000000004136080000020102040200E3
:100C10003C2623263C0003071F7FFFFFFEF8F0C0A1
:100C200020F8FEFFFE79271F7FFFFFFEF8F0C020AF
:100C3000F8FEFFFF7F3F3F7FFFFEF8F0C00000009F
:100C400000000000000000000000000000000000A4
:100C50000000000000000000000000000000000094
:100C60000000000000000000000000000000000084
:100C70000000000000000000000000000000000074
:100C80000000000000000000000000000000000064
:100C900000000000E0F0F0F0E0ECEEF7F370200070
:100CA0007C7C7C7E007E7E7E7F7F7F000080C0E03B
:100CB0007E5B4F5BFEC00000C000DCD7DEDEDED70F
:100CC000DC00C00000000000000000000000000088
:100CD00000000000000000000000C1F3CFBF7FFF54
:100CE000FFFCFBE7810000000080E3CF3FFFFFFF38
:100CF000FCFBE7810000000081E7FFFFFFFF3C00F5
:100D000000000000000000000000000000000000E3
:100D100000000000000000000000000000000000D3
:100D200000000000000000000000000000000000C3
:100D300000000000000000000000000000000000B3
:100D400000000000000000000000000000000000A3
:100D5000000000000F1F3F7F7F7F7F7F3F1E0C0042
:100D60001F1F1F3F003F3F3F7F7F7F00307B7F780B
:100D700030202030787F3B0003000F7F0F0F0F7F64
:100D80000F00030000000000000000000000000051
:100D900000000000000060707C7F7F7F7F1F0601E5
:100DA000030F3F7F7F7E7C7C7E7F7F7F1F06010756
:100DB0000F3F7F7F7E7C7C7E7F7F3F0F03000000A4
:100DC0000000000000000000000000000000000023
:100DD0000000000000000000000000000000000013
:100DE0000000000000000000000000000000000003
:100DF00000000000000000000000000000000000F3
:100E000000000000000000000000000000000000E2
:100E100000000000000000000000000000000000D2
:100E200000000000000000000000000000000000C2
:100E300000000000000000000000000000000000B2
:100E400000000000000000000000000000000000A2
:100E500000000000000041646A757374004C6F77F5
:100E600065720052616973650044656661756C74F2
:100E7000000A4C617965723A20000A000A001124C8
:100E80001FBECFEFDAE0DEBFCDBF04B603FE27C042
:100E900080915A0390915B03A0915C03B0915D0334
:100EA0008730904BA740B04BD1F410925A03109268
:100EB0005B0310925C0310925D0314BE84B7877FBE
:100EC00084BF0FB6F894A8958091600088618093E4
:100ED0006000109260000FBEE0E0F8E3099511E0B9
:100EE000A0E0B1E0E0EAF9E602C005900D92A43E70
:100EF000B107D9F723E0A4EEB1E001C01D92AA35F5
:100F0000B207E1F70E947D100C94CE340C940000DF
:100F10008F929F92AF92BF92CF92DF92EF92FF9209
:100F20000F931F93CF93DF9300D000D01F92CDB7C4
:100F3000DEB7FC010081D18083819481892B39F057
:100F40001FEFD11206C091E00F3F19F403C091E0EA
:100F500001C090E090FD77C77F0185E0DE0111962A
:100F600001900D928A95E1F7F701228189819A819A
:100F7000222349F00E943629182F682F89819A81EF
:100F80000E94AF2903C00E948329182F26E4129FD4
:100F9000F001112437E0D39EE00DF11D1124E00F84
:100FA000F11DEE0FFF1FE857FE4F0591149181E0F0
:100FB00080930001033F9CE5190709F44AC0A0F49F
:100FC000003FFCE51F0759F130F4033C3CE51307F3
:100FD00009F473C0C3C0013F8CE5180741F1023F1B
:100FE0009CE5190761F1BAC0073FECE51E0709F45B
:100FF00079C050F4043F2CE51207E9F1053F3CE5C8
:10100000130709F44EC0AAC0083F8CE5180709F47D
:1010100078C0093F9CE5190709F488C09FC0F70113
:101020008281882309F448C481E090E00FC0F70171
:101030008281882309F440C482E090E007C0F70170
:101040008281882309F438C484E090E00E94A31BC5
:1010500033C4F7019281992341F09091E4019111F9
:1010600002C08093E40183E011C01092E40183E0A8
:101070000E94E42913C0F7019281992351F09091C5
:10108000E401911102C08093E40184E00E94222ACD
:1010900005C084E00E94E4291092E4010E94381CFB
:1010A0000BC4F7018281882321F085E00E94222A67
:1010B00003C485E00E94E429FFC3F70182818823ED
:1010C00009F4FAC3809156020E94D3180E94E018D6
:1010D00080918E0286958F7390E090935702809353
:1010E0005602EAC3F7018281882349F080916302A6
:1010F00082FD02C081E90EC082E695E010C081E960
:1011000012C0F7018281882369F08091630282FD19
:1011100004C080E90E940D2DCFC38CE595E00E94AC
:101120004E1BCAC380E90E94CE2CC6C3F701828140
:101130008823A1F00E94EB1880918E028160809339
:101140008E0286958F730E94D31880918E028695A9
:101150008F7390E0909357028093560281E088232A
:1011600009F471C60C3CFCE51F0709F4CEC1E8F593
:10117000F7018281043CFCE51F0709F408C1F8F47B
:1011800005313CE5130778F402309CE5190708F0B7
:1011900058C20115ECE51E0709F467C001301C4573
:1011A00009F484C083C3023C2CE5120709F49DC0F6
:1011B00008F0D3C006311C4509F43EC377C3083C90
:1011C000ECE51E0709F462C140F4063C2CE5120769
:1011D00009F40AC108F4F5C029C10A3C9CE51907C5
:1011E00009F46FC108F45FC188C1043DFCE51F0725
:1011F00009F40DC2C0F4F7018281003DFCE51F0730
:1012000009F4DFC140F40E3C3CE5130709F4C3C107
:1012100008F4AAC1CBC1023DECE51E0709F4E7C101
:1012200008F4DAC1EFC1093D2CE5120709F4D9C26F
:1012300060F4073D8CE5180709F469C208F08AC21A
:10124000053D1C4509F4FFC531C3F70182810D3D01
:10125000FCE51F0709F4EEC10E3D2CE5120779F1FC
:101260000C3D1C4509F022C3DFC1882309F4EBC5FE
:101270001092AE020E94B02C8FEF94E3ECE081500C
:101280009040E040E1F700C0000087E797E79093C7
:101290000108809300089AE088E10FB6F894A895B9
:1012A000809360000FBE90936000FFCF882309F405
:1012B000CAC580917D02816080937D02C4C5882368
:1012C00009F4C1C50F900F900F900F900F90DF9110
:1012D000CF911F910F91FF90EF90DF90CF90BF9033
:1012E000AF909F908F900C94B128882309F4ABC5E0
:1012F00080918E0280FF2BC08E7F80938E02609142
:101300008E0270918F0280919002909191020E94C2
:10131000AD1710929402FFEF00E712E0F150004089
:101320001040E1F700C000000F900F900F900F9059
:101330000F90DF91CF911F910F91FF90EF90DF9071
:10134000CF90BF90AF909F908F900C948E1581603E
:1013500080938E0286958F730BC1882309F473C521
:101360008091AE028272D1F00F900F900F900F908B
:101370000F90DF91CF911F910F91FF90EF90DF9031
:10138000CF90BF90AF909F908F900C94D6188823E9
:1013900009F459C58091AE02827231F30F900F901B
:1013A0000F900F900F90DF91CF911F910F91FF90B1
:1013B000EF90DF90CF90BF90AF909F908F900C9464
:1013C000E018882309F43FC520918E02221F2227AE
:1013D000221F30918F02432F440F842F822B37FB23
:1013E000992790F90A9618C0882309F42CC52091F2
:1013F0008E02221F2227221F30918F02432F440F7B
:10140000842F822B37FB992790F98A3091051CF4A1
:10141000825A9E4F05C00A9768E671E00E948031AB
:1014200021E040919102609190021DC0882309F44F
:101430000AC560919002862F90E08F3E910514F4CA
:101440006F5E01C06FEF80918E02881F8827881F12
:1014500090918F02392F330F97FB992790F921E054
:1014600040919102832B0F900F900F900F900F904F
:10147000DF91CF911F910F91FF90EF90DF90CF9070
:10148000BF90AF909F908F900C94BF17882309F462
:10149000DAC460919002862F90E0419714F0615178
:1014A000D2CF60E0D0CF882309F4CDC4409191021F
:1014B000842F90E08F3E910514F44F5E0EC04FEFE5
:1014C0000CC0882309F4BFC440919102842F90E09E
:1014D000419714F0415101C040E080918E02881F75
:1014E0008827881F90918F02392F330F97FB9927F8
:1014F00090F921E060919002B5CF882309F4A3C44C
:101500008091920290E001960DC0F70182818823BC
:1015100009F499C48091920290E0019797FF02C06C
:1015200080E090E08430910514F083E090E08093B7
:10153000920260918E0270918F0280919002909140
:1015400091020F900F900F900F900F90DF91CF911D
:101550001F910F91FF90EF90DF90CF90BF90AF90D1
:101560009F908F900C94AD17882309F46CC481E090
:101570000F900F900F900F900F90DF91CF911F91D0
:101580000F91FF90EF90DF90CF90BF90AF909F9022
:101590008F900C94D318882309F455C40E946E17B9
:1015A0008250833008F4FACE82E0E2CF882309F437
:1015B0004AC40E946E178650823008F4EFCE86E04F
:1015C000D7CF882309F43FC40E946E178950853015
:1015D00008F4E4CE89E0CCCF882309F434C40E9417
:1015E0006E178F50853008F4D9CE8FE0C1CF882395
:1015F00009F429C40E946E178551823008F4CECEBA
:1016000085E1B6CF882309F41EC488E1B1CFF70184
:101610008281882309F417C40E946E17895189308A
:1016200008F4BCCE89E1A4CF882309F40CC410923D
:10163000FB0109C4882309F406C482E08093FB01FE
:1016400002C4882309F43AC10E94A628811102C06D
:101650000E94B12884E090E00E94DB2D90E09093FE
:10166000640280936302F801E350FC45E231F10526
:1016700030F4EA5AFF4F809163020C9494318091C8
:101680006302816027C0826025C0846023C08061BE
:1016900021C080621FC080641DC080681BC0846040
:1016A000886018C08E7F16C08D7F14C08B7F12C0DB
:1016B0008F7E10C08F7D0EC08F7B0CC08F770AC0CD
:1016C0008B7F877F07C087FB222720F991E0922735
:1016D00090FB87F9809363026091630284E090E05D
:1016E0000E94EF2D1092AE020F900F900F900F906E
:1016F0000F90DF91CF911F910F91FF90EF90DF90AE
:10170000CF90BF90AF909F908F900C94B02CF7012A
:101710008281882351F01092EA010E94412890931F
:10172000E7018093E60182E022C08091EA01811105
:101730000FC08091E6019091E7010E94172884363E
:10174000910530F486E20E940D2D86E20E94CE2C97
:1017500082E034C0F70182818823E1F01092EB012E
:101760000E9441289093E9018093E80180E20F9064
:101770000F900F900F900F90DF91CF911F910F91CD
:10178000FF90EF90DF90CF90BF90AF909F908F90A1
:101790000C94C42C8091EB0181110FC08091E80161
:1017A0009091E9010E9417288436910530F487E270
:1017B0000E940D2D87E20E94CE2C80E20F900F90A8
:1017C0000F900F900F90DF91CF911F910F91FF908D
:1017D000EF90DF90CF90BF90AF909F908F900C9440
:1017E000B92CF70182818111B9CF8091EB01811170
:1017F000E4CF8091E8019091E9010E941728843696
:101800009105D8F680E20E94B92C88E20E940D2D45
:1018100088E20F900F900F900F900F90DF91CF9173
:101820001F910F91FF90EF90DF90CF90BF90AF90FE
:101830009F908F900C94CE2C882391F08091AE02D3
:101840008A7A91E009F490E09093E501811102C059
:1018500069E201C065E380EE92E00E948C2813C02B
:101860008091E501811102C089E201C085E3E0EECB
:10187000F2E026EE32E09281891301C012823196A5
:101880002E173F07C1F70F900F900F900F900F90FA
:10189000DF91CF911F910F91FF90EF90DF90CF904C
:1018A000BF90AF909F908F900C94092981E0809316
:1018B000EA018093EB0102C080E051CCF701828104
:1018C00000811181882349F0C8010E943629D82E51
:1018D000682FC8010E94AF2904C0C8010E94832953
:1018E000D82EB8018D2D0E94FB188C01982EF7017F
:1018F000A580A2949FE0A922B280B11010924F035C
:1019000080914D03877079F0BB2069F080E2800FF1
:10191000883048F082E00E94092A80914D03877048
:10192000CC24C3948111C12CD12ED2948FE0D82223
:101930008D2D90E08C30910508F052C2FC01E859E1
:10194000FF4F0C949431812F807F1F70882311F0FA
:101950001295107FBB20B9F0112309F42CC280E24C
:10196000800F883010F0911006C08091AE02182BC5
:101970001093AE0205C080914F03182B10934F03B4
:101980000E94092918C2802F0E94CE2C112309F42D
:1019900027C2005E1095083010F0911006C08091AB
:1019A000AE0218231093AE0205C080914F03182396
:1019B00010934F030E94092913C2812F807F1F704B
:1019C000803211F01295107F992021F0F1E09F16DE
:1019D000E1F027C0BB2081F080915003AA2051F094
:1019E00001E0A01207C0182B181709F4F9C11093D1
:1019F0005003F6C1812B69C1AA2021F021E0A21673
:101A000009F4EEC10E9403291AC0BB2029F035E079
:101A10003A1508F4E5C10FC084E08A1508F4E0C166
:101A20000EC0BB2051F0AA2031F0F701858180FF64
:101A3000C2C18F708583812F48C1A110CEC1812F73
:101A40004AC1BB20F9F0053F51F0063F71F0043F59
:101A5000A9F48091EC019091ED0181600BC080911F
:101A6000EC019091ED01826005C08091EC019091B4
:101A7000ED0184609093ED018093EC01802F0E9432
:101A800089271EC0053F51F0063F71F0043FA9F4BD
:101A90008091EC019091ED018E7F0BC08091EC0163
:101AA0009091ED018D7F05C08091EC019091ED0149
:101AB0008B7F9093ED018093EC01802F0E94C226D2
:101AC0000E944D2898C1812F837009F071C0B11018
:101AD00090C1802F829586958770880F880F402F40
:101AE0004F7050E060E070E04A015B01082E04C0D6
:101AF000880C991CAA1CBB1C0A94D2F704FF10C0C6
:101B00004FE050E060E070E004C0440F551F661FD6
:101B1000771F8A95D2F7409550956095709503C0D0
:101B200040E050E0BA01812F869586958370009140
:101B3000510310915203209153033091540382308A
:101B400099F0E8F4813059F0482959296A297B290C
:101B5000CB01BA01602371238223932326C0802AFC
:101B6000912AA22AB32A1BC0482959296A297B290C
:101B7000CB01BA01602771278227932716C0CB01BA
:101B8000BA0160237123822393230E94432A409148
:101B90005103509152036091530370915403CB0150
:101BA000BA01682979298A299B290E94432A21C1DF
:101BB000BB2019F0812F817001C08695882309F41C
:101BC00018C1802F829586958770880F880F402FC7
:101BD0004F7050E060E070E04A015B01082E04C0E5
:101BE000880C991CAA1CBB1C0A94D2F704FF10C0D5
:101BF0004FE050E060E070E004C0440F551F661FE6
:101C0000771F8A95D2F7409550956095709503C0DF
:101C100040E050E0BA01812F86958695837000914F
:101C2000C5021091C6022091C7023091C8028230CD
:101C300099F0E8F4813059F0482959296A297B291B
:101C4000CB01BA01602371238223932326C0802A0B
:101C5000912AA22AB32A1BC0482959296A297B291B
:101C6000CB01BA01602771278227932716C0CB01C9
:101C7000BA0160237123822393230E94DA294091C1
:101C8000C5025091C6026091C7027091C802CB0193
:101C9000BA01682979298A299B290E94DA29A9C0D1
:101CA000802F90E0FC01E05EF109E531F10508F0DC
:101CB0007DC0EC58FF4F0C9494310F70812F8F71C1
:101CC000BB2031F00E94222A802F0E94C42C88C0A1
:101CD0000E94E429802F0E94B92C82C0BB2019F1F8
:101CE000F4E0FA1508F47CC01F7181E090E0A0E0F8
:101CF000B0E0AC01BD0104C0440F551F661F771F43
:101D00001A95D2F78091C5029091C602A091C702A0
:101D1000B091C8028A019B01082719272A273B276F
:101D2000C901B80121C025E02A1508F459C0DCCF4B
:101D3000BB2029F0812F8F712CC0BB20D9F3812FBC
:101D40008F710E94E4294CC0BB2089F01F7181E093
:101D500090E0A0E0B0E0BC01CD0104C0660F771FA9
:101D6000881F991F1A95D2F70E94DA2939C060E0BE
:101D700070E0CB01F9CFBB2079F01F71812F0E9459
:101D8000222A38E0139FC0011124836080934D0301
:101D9000812F0E94222A24C081E00E94092A81E02A
:101DA0008A15F0F482E00E94092A1AC0BB2039F09B
:101DB000AA2009F4BFCF802F0E940D2D11C0AA20A8
:101DC00009F4BDCF093349F49FEFE7EEF3E09150FA
:101DD000E040F040E1F700C00000802F0E94CE2CD0
:101DE00008E0D01631F0D01630F086EF8D0D82303D
:101DF00010F40E948215CC2031F180914D0380FDBA
:101E000022C0F70112828595859585950E94222A28
:101E1000C7010E94880780914D038595859585951A
:101E20000F900F900F900F900F90DF91CF911F9117
:101E30000F91FF90EF90DF90CF90BF90AF909F9069
:101E40008F900C94E4290F900F900F900F900F90AB
:101E5000DF91CF911F910F91FF90EF90DF90CF9086
:101E6000BF90AF909F908F9008950895089520910E
:101E7000FB01211103C02091BB0202C0223011F0EE
:101E80002430F1F422E02093E9002FEF3091E800B4
:101E9000215035FD06C035ED3A95F1F700002111CE
:101EA000F5CF2091E80025FF0BC040E050E066E050
:101EB00070E00E944E1C8091E8008E778093E800CD
:101EC0000895CF93DF932091FB01211103C020914E
:101ED000BB0202C0223011F0243039F521E02093FA
:101EE000E9002FEF3091E800215035FD06C035EDB7
:101EF0003A95F1F700002111F5CF2091E80025FF78
:101F000014C0EC0140E050E068E070E00E944E1C1C
:101F10008091E8008E778093E80088E0FE01A1EBD5
:101F2000B2E001900D928A95E1F7DF91CF9108958B
:101F30002091E4003091E50095E64091EC00842F7B
:101F4000817040FF23C08091E80080FD1DC080911A
:101F5000BB02882399F0853099F08091EB0085FDD4
:101F600011C04091E4005091E5002417350729F392
:101F7000915011F09A01E1CF84E0089582E0089534
:101F800083E0089581E0089580E008954091E8009D
:101F900042FFDDCF08958091BD0287FF11C080917F
:101FA000E80082FD05C08091BB028111F8CF11C00D
:101FB0008091E8008B770BC08091BB02882349F0A9
:101FC0008091E80080FFF8CF8091E8008E778093C1
:101FD000E8000895982F973068F59093E9009817D6
:101FE00039F07091EC002091ED005091F00003C0A9
:101FF000242F762F50E021FD02C09F5FECCF30915F
:10200000EB003E7F3093EB003091ED003D7F30934D
:10201000ED003091EB0031603093EB007093EC00F9
:102020002093ED005093F0002091EE0027FDE5CFC6
:1020300080E008958F708093E90081E008952091F9
:10204000C3023091C4022617370748F061157105A5
:1020500039F42091E8002E772093E80001C0B901FF
:10206000FC0120E06115710579F18091BB028823A4
:10207000F1F18530F1F18091E80083FD3CC0809161
:10208000E80082FD2EC08091E80080FFEBCF209118
:10209000F3008091F20090E0922B6115710551F0F0
:1020A0008830910538F421912093F1006150710935
:1020B0000196F3CF21E0089709F020E08091E80035
:1020C0008E778093E800CECF2111CFCF0AC08091C8
:1020D000BB02882361F0853061F08091E80083FDC8
:1020E0000AC08091E80082FFF2CF80E0089582E08C
:1020F000089583E0089581E00895CF93DF93CDB7ED
:10210000DEB72A970FB6F894DEBF0FBECDBF84B7F7
:10211000877F84BF0FB6F894A8958091600088618E
:1021200080936000109260000FBE80E88093610091
:102130001092610085B7806885BF85B7806885BFCC
:102140000E94B21B809301010E94B21B882361F0A0
:1021500082E091E09093FE018093FD0183E0809303
:10216000FC01529A5A9A11C082E091E09093FE01CC
:102170008093FD0183E08093FC0152985A9AEA9A79
:10218000809169008F7C8093690078940E94951FEC
:102190000E94B41F8091E20084608093E2007894F2
:1021A0008091BB028823A1F01091E9001F709091EB
:1021B000EC00892F817090FD80E8182B1092E900C7
:1021C0008091E80083FD0E947A1C1F701093E90043
:1021D00082E084BD93E095BD9AEF97BD80936E0039
:1021E00080917D028360886080937D020E94BF1B86
:1021F000A1E8B1E041E050E08D91E82FE295EF7069
:10220000F0E021A18F70BA0102C0660F771F8A9596
:10221000E2F7CB01962F9095922391A392A1892B5F
:1022200082A371E0A838B70739F7559A209A5D9ACA
:10223000289AA9E5B2E0E9E6F2E011921D9282E067
:10224000E337F807D1F70E94B21B809358020E942F
:10225000A628811102C00E94B12880918E02869525
:102260008F7390E090935702809356020E94B21BA6
:10227000182F1092B9008CE08093B8008EEA0E946B
:102280004624882309F4AFC060E885ED0E94B22699
:10229000882309F4A8C06FE188EA0E94B226882347
:1022A00009F4A1C060E083ED0E94B226882309F4FE
:1022B0009AC080E40E944624882309F494C064E113
:1022C0008DE80E94B226882309F48DC060E080E288
:1022D0000E94B226882309F486C0111114C080EA36
:1022E0000E944624882309F47EC080EC0E94462484
:1022F000882309F478C062E08AED0E94B226882320
:1023000009F471C008C081EA0E944624882309F4B8
:102310006AC088ECEBCF6FE881E80E94B226882380
:1023200009F461C061EF89ED0E94B226882309F4A7
:102330005AC060E48BED0E94B226882309F453C092
:1023400084EA0E944624882309F44DC086EA0E944C
:102350004624882309F447C08EE20E94462488233D
:1023600009F441C08FEA0E9446248823E1F160E02D
:1023700081E80E94B2268823B1F144E550E060E292
:1023800070E08FEF91E00E94C6318FEF91E0909363
:1023900054028093530281E08093550263E082E20D
:1023A0000E94071C8823D9F06FE781E20E94071C76
:1023B0008823A9F00E94E21B811111C080E40E94D1
:1023C000372481110CC004E010E080E00E94372423
:1023D0001F5F1038D1F70150B9F7109255020E94D3
:1023E00022240E945C240E94A628811102C00E941F
:1023F000B12882E090E00E94DB2D80937D0284E092
:1024000090E00E94DB2D90E0909364028093630241
:1024100083E090E00E94DB2D682F70E080E090E088
:102420000E94432A80916502811139C080917D020A
:10243000816080937D020E94A628811104C00E94C1
:10244000B1280E94EB1888E090E00E94E32D609391
:102450008E0270938F0280939002909391026E7718
:1024600071F40E94EB1888E090E00E94E32D6093E5
:102470008E0270938F0280939002909391020E943B
:1024800077171092940280918E0280FF05C0869586
:1024900060E08F730E94841881E0809365028AE176
:1024A00091E09093670280936602EE24E394F12C0E
:1024B000E8E1CE2ED12C8091BB02853009F037C0E7
:1024C0008091BB02843011F11092680280E40FB653
:1024D000F894A895C09260000FBE8093600083B707
:1024E000817F846083BF83B7816083BF7894889540
:1024F00083B78E7F83BF0FB6F894A8958091600054
:10250000886180936000109260000FBE8091BA02D3
:10251000882309F4D0CF0E94DC25E9E6F2E081911E
:10252000811174C192E0E337F907C9F7C4CF0E9463
:10253000DC25EEE7F2E0A9E6B2E000E010E0302FA3
:102540002D9141914227A9F180E090E050E0BA013D
:10255000082E02C0759567950A94E2F760FF25C0C2
:1025600089833A83F70102C0EE0FFF1F8A95E2F7D5
:102570005F01822F90E08E239F2321E0892B09F4B5
:1025800020E02B830E9441288160782F9D838C83DB
:1025900049815A816B818D810E94B814F801E258FB
:1025A000FD4F8081A826A0821AC001968730910530
:1025B00071F60F5F1F4F0A30110509F0C0CF8FEF82
:1025C0008E838F8318860E9441288160782F9A8796
:1025D00089874E815F8168858A850E94B8148091C1
:1025E0007A0290917B020E941728AC0190917902A7
:1025F000911103C02CE231E002C022E330E0421727
:10260000530708F46BC08091750210917602811116
:102610000BC0111111C12091770221110DC1209120
:102620007802211109C15AC09F3F19F09F5F909312
:102630007902181624F40E9469278093750280910C
:10264000750287FF05C00E946927819580937502F6
:10265000111624F40E9469278093760280917602F5
:1026600087FF05C00E94692781958093760230918B
:102670007502332379F020917602222359F045EB3D
:102680003403C0011124909375022403C001112466
:102690009093760280917702181624F40E944727BF
:1026A000809377028091770287FF05C00E944727B9
:1026B00081958093770280917802181624F40E9405
:1026C0004727809378028091780287FF05C00E9497
:1026D00047278195809378020E944D280E94821599
:1026E00090917C02891721F00E94821580937C02D0
:1026F00080919402882309F4DECE80919302E091C8
:102700008E02E695EF73E81BE0938A02823059F45B
:10271000F0E0EC58FA4FE4910E2F10E06EE2A62E96
:1027200067E1B62E45C0863059F4F0E0EF58FA4F15
:10273000E4910E2F10E057E1A52E57E1B52E38C0D9
:10274000893061F4E695F0E0E259FA4FE4910E2FFA
:1027500010E047EAA42E46E1B42E2AC08F3061F47F
:10276000E695F0E0E559FA4FE4910E2F10E03AE3D8
:10277000A32E36E1B32E1CC0853159F4F0E0E859A0
:10278000FA4FE4910E2F10E021EEA22E25E1B22E99
:102790000FC0883139F408EE13E09AEAA92E95E1CA
:1027A000B92E06C000ED17E080E2A82E84E1B82E15
:1027B00080918B02882389F010928B020E9441281D
:1027C000980120953095820F931F909389028093F2
:1027D000880210928D0210928C0280918802909152
:1027E00089020E9417288017910708F464CEE091AF
:1027F0008802F09189020E0F1F1F10938902009327
:10280000880288E892E0F501099555CE80E189BDFE
:1028100082E189BD09B400FEFDCF8091D8008F7D93
:102820008093D8008091E00082608093E0008091E6
:10283000E00081FDFCCF3FCE9F3F09F0F7CE08CFEF
:102840000895EF92FF920F931F93CF93DF93E901C7
:10285000662309F44BC0242F30E0EFEFF0E0E61BD5
:10286000F109B901E69F9001E79F300DF69F300D09
:102870001124232F8B01031B11095CE3E52EF12C9E
:10288000B7010E946C31FB01BC01069FC001079F8C
:10289000900D169F900D1124B7010E946C31E2300B
:1028A000F105B1F040F4309779F0319711F5832FAD
:1028B000242F461B21C0E430F105A1F068F03597C4
:1028C000C1F4842F861B18C0832F262F230F14C01A
:1028D000862F830FE42F03C0E42FE61B842F432FA2
:1028E0002E2F0AC0842F462F430F06C0842F242F7B
:1028F00003C080E020E040E0E42FF0E0E850F94F32
:102900004491E22FF0E0E850F94F9491E82FF0E085
:10291000E850F94FE49149839883EA83DF91CF919E
:102920001F910F91FF90EF9008959091630292FF95
:102930000DC0282F2871283019F4877F846006C0C5
:10294000282F2471243011F48B7F886093FF0DC0F1
:10295000282F2871283119F4877E846106C0282F1A
:102960002471243111F48B7E886194FD877E089553
:102970001F93CF93DF93CDB7DEB767970FB6F89469
:10298000DEBF0FBECDBF4B8B5C8B6D8B7E8B8F8B79
:1029900086E09E01235F3F4FD901E82F1D92EA9503
:1029A000E9F795E0FE017396D90101900D929A9591
:1029B000E1F7F901DE01179601900D928A95E1F792
:1029C000CE0107960E94E82A81113EC086E0FE01F2
:1029D0003796DE01119601900D928A95E1F7FF81FD
:1029E000E8856A857B856115710531F0EF3F31F42B
:1029F00081E0FF3F19F403C081E001C080E080FD69
:102A000023C02091EE0230E0C9010196877099271A
:102A100040911F0350E08417950779F1F983EA8309
:102A20007D836C8396E0929FD001939FB00D11241B
:102A3000A151BD4FFE01319601900D929A95E1F79B
:102A40008093EE020E944D2A16E080911F03909120
:102A5000EE02891709F1189FC001112481519D4F81
:102A60000E94E82A8823C1F080911F0390E001961C
:102A70008770992780931F03E8CF1092AE020E94BF
:102A8000B02C1092EE0210921F03E8EEF2E086E006
:102A9000DF011D928A95E9F767960FB6F894DEBFBD
:102AA0000FBECDBFDF91CF911F9108952091AB0252
:102AB0003091AC022817390771F09093AC028093E3
:102AC000AB02E0916602F0916702309721F000843A
:102AD000F185E02D099408952091A9023091AA0270
:102AE0002817390771F09093AA028093A902E09108
:102AF0006602F0916702309721F00680F781E02DA1
:102B000009940895E0916602F0916702309721F0F0
:102B10000190F081E02D099480E0089580918E026B
:102B200080FD0AC0E7E9F2E011821082128233963A
:102B300092E0E93AF907C1F7539A62E170E087E958
:102B400092E00E94191C87EC90E00197F1F700C019
:102B500000000895EF92FF920F931F93CF93DF939E
:102B6000EC018C819D810196817099279D838C83D6
:102B700087E9E82E82E0F82E10E008E7212F26955D
:102B80008C819D81820F911D8170992797014091C1
:102B9000910260919002FC010E9FC0010F9F900D69
:102BA00011240E9421141F5FF3E0EF0EF11C163078
:102BB00029F7DF91CF911F910F91FF90EF900C9427
:102BC0008E150F931F93CF93DF93C7E9D2E0FE01D9
:102BD000118210821282339682E0E93AF807C1F737
:102BE00000E010E080919602082E000C990B081767
:102BF0001907ECF080913001082E000C990B80171A
:102C00009107ACF080918E02881F8827881F9091D1
:102C10008F02592F550F97FB992790F99E014091EC
:102C2000910260919002852B0E94211403C01982A9
:102C300018821A820F5F1F4F23960630110591F6F6
:102C40000E948E1580912F0190919602980F90937B
:102C5000960220913001280F20933001121614F4AF
:102C600095301CF0819580932F01DF91CF911F91BA
:102C70000F910895CF92DF92EF92FF920F931F93DF
:102C8000CF93DF93FC01828180FF03C0DD24DA94BF
:102C900002C0DD24D39407E912E0C0E0D0E0F801DF
:102CA00011821082128294E0E92EF12CC12C8091C5
:102CB00095028C0D87FD8A5F082E000C990BC817B2
:102CC000D907E9F4809191028E9DA0018F9D500D4E
:102CD0001124559547955595479580918E02881FEB
:102CE0008827881F90918F02592F550F97FB99279E
:102CF00090F9980160919002852B0E942114CD0CCF
:102D0000F1E0EF1AF10899F621960D5F1F4FC630DA
:102D1000D10529F60E948E158091950291E0D91275
:102D200006C0811102C085E007C0815005C090E057
:102D30000196BE010E94803180939502DF91CF9170
:102D40001F910F91FF90EF90DF90CF900895CF9259
:102D5000DF92EF92FF920F931F93CF93DF93EC01DB
:102D600087E9E82E82E0F82E00E010E098E6C92E10
:102D7000DD24D3948C819D81800F911FB6010E9428
:102D80008031970140919102609190020E9421143C
:102D9000045C1F4F83E0E80EF11C083681E0180741
:102DA00049F70E948E152A818C819D8120FF05C0E4
:102DB0000196B8010E94803107C0181619061CF050
:102DC00087E691E001C001979D838C83DF91CF91CD
:102DD0001F910F91FF90EF90DF90CF900895CF93C8
:102DE000DF9300D01F92CDB7DEB720918E0220FF77
:102DF00018C09E012F5F3F4F0E94211480918E02C8
:102E000080FF0FC08B8199812A81E7E9F2E021835D
:102E100090838283339632E0E93AF307C1F70E9448
:102E20008E150F900F900F90DF91CF910895CF9353
:102E3000DF93EC01EEE8F2E0438162818C819D81B9
:102E40000E94EF168C819D81019668E671E00E94D8
:102E500080319D838C83DF91CF910895CF93DF9351
:102E6000EC016C8170E080E090E00E946D2F20E02A
:102E700030E04FE753E40E94902E2BED3FE049E411
:102E800050E40E9496300E9403310E940A2F2BE4E6
:102E90003AE34EE25FE30E94232E20EF3BEF48ED42
:102EA00052E40E9496300E943C2F462FEEE8F2E05A
:102EB0008081881F8827881F90918F02292F220FD9
:102EC00097FB992790F96281822B0E94EF168C81E3
:102ED00090E001968C83DF91CF91089580918E02CE
:102EE00080FF03C086958F73089580E008958091D8
:102EF0008E02282F26952F7330E02115310519F405
:102F00008178826005C02332310524F081788464A1
:102F100080938E0230918E02432F441F4427441F1A
:102F200020918F02522F550F852F842B27FB992735
:102F300090F9893641E094077CF068E671E00E94E0
:102F4000803180FB37F930938E0286952078822B72
:102F500090FB87F980938F020895CF92DF92EF92D2
:102F6000FF926B017C010E947717B701A60188E0F0
:102F700090E0FF90EF90DF90CF900C94012E5F9245
:102F80006F927F928F929F92AF92BF92CF92DF9279
:102F9000EF92FF920F931F93CF93DF9300D01F9276
:102FA000CDB7DEB78C01E62EF42E522E80918E0224
:102FB00080FF97C0E82FE695EF73AE2FB0E0AE56D6
:102FC000BE4F9C9190939302282F2E772230C1F40C
:102FD0009E012F5F3F4FC8010E94211480918E02F5
:102FE00080FF5FC08B8199812A81E7E9F2E021832C
:102FF00090838283339632E0E93AF307C1F74FC0FA
:10300000923019F4F09091024CC0963069F4881F08
:103010008827881F90918F02292F220F022F082BBB
:1030200097FB112710F93DC0993089F39931C9F503
:10303000E951E0FD02C021E001C02FEFE695F0E08C
:10304000EE0FFF1FE850F84F8591949166E070E015
:103050000E946C3126034001279F900C11245801D7
:1030600088E9A81A8EEFB80A97E9C92E92E0D92EFE
:1030700028E6622E77247394C501B3010E946C3157
:1030800096014F2D6E2D0E942114A80CB91C33E01F
:10309000C30ED11C89EAC81682E0D80669F70E94DF
:1030A0008E1580918E0200FB87F980938E02902FFF
:1030B000969580918F028078892B10FB87F98093F9
:1030C0008F02E0929002F0929102552051F06091AF
:1030D0008E0270918F0280919002909191020E94D5
:1030E000AD170F900F900F90DF91CF911F910F911F
:1030F000FF90EF90DF90CF90BF90AF909F908F9018
:103100007F906F905F90089590918E0290FF4AC0DB
:103110009178811102C0926007C0833210F09464EC
:1031200003C08F73880F982B90938E02662351F003
:1031300060918E0270918F02809190029091910225
:103140000E94AD1760918E0266956F7370E04BE040
:1031500050E084E291E00E949A31892B19F010929C
:10316000940209C081E0809394020E9441289093C8
:1031700089028093880281E080938B0280918E0285
:10318000881F8827881F90918F02392F330F97FB54
:10319000992790F920E04091910260919002832B51
:1031A0000C94BF17089561E00C94841880918E02EE
:1031B00086958F73815009F482E261E00C94841843
:1031C00080918E0286958F738F5F833208F081E045
:1031D00061E00C948418EEE8F2E083E080831092C2
:1031E0008F028FEF82838383148260817181828159
:1031F00093810C94AD17CF93DF9326E4829FC00197
:103200001124FC0137E0739FE00DF11D1124E60F3E
:10321000F11DEE0FFF1FE857FE4FC591D491CE016F
:10322000C238D10549F1B0F4C133D10509F464C005
:1032300048F4C932D10509F458C0CA32D10509F49D
:1032400062C068C0C533D10509F448C0C933D1058F
:1032500099F060C0C33ED10541F138F4C03ED105BC
:1032600091F0C23ED105B1F055C0C63ED10521F165
:10327000C73ED10561F14EC02091630220FD09C215
:1032800021FD07C208C22091630220FF04C289E326
:1032900090E001C22091630222FFFDC18091630290
:1032A00084FDA9C183EE90E0F6C18091630282FFA4
:1032B000F5CF82EE90E0EFC12091630223FFEBC1D6
:1032C0008091630284FD97C187EE90E0E4C1809114
:1032D000630283FFF5CF86EE90E0DDC120916302AB
:1032E00025FFD9C189E290E0D6C12091630225FF74
:1032F000D2C185E390E0CFC12091630226FFCBC10C
:103300008AE290E0C8C12091630226FFC4C181E334
:1033100090E0C1C1C11540E5D40708F049C0C1150E
:1033200020E4D20708F030C1C83ED10520F5C03EE8
:10333000D10508F0B0C1C83AD10570F4C53AD1053D
:1033400008F0ADC0C130D10509F4A5C108F453C1DE
:10335000249708F450C19FC1CF3BD10508F4AAC0FF
:10336000C03CD10508F447C1CE01880F991FFC016C
:10337000E858FA4FFEC0C11530E2D30760F4C1151A
:1033800041E0D40708F087C1C03FD10508F433C13C
:10339000CE01906580C1C11580E3D80708F0ECC06C
:1033A000CE019F70FC01EE0FFF1FE850F94FE1C006
:1033B000C11525E5D20708F045C0C11534E5D3078E
:1033C00008F0FAC0C11542E5D40718F5C11581E52A
:1033D000D80708F0DDC0CE0174E0969587957A9500
:1033E000E1F7282F23703C2F337081E090E002C07A
:1033F000880F991F3A95E2F79C68922BEC2FEF709B
:10340000E695E69520E2E29FF00111248E2B9F2B9A
:1034100042C1AE01437055272C2F26952695C11524
:10342000D34508F0BAC081E090E002C0880F991F30
:103430004A95E2F740E2249F90011124822B932BBE
:103440009C6829C1C11549E5D40798F4C11588E5E0
:10345000D80708F0B6C0C11526E5D20708F0CBC0E2
:103460008C2F0E9495148F7190E0982F882790627E
:1034700012C1C1153AE5D30708F4A8C0CE01905691
:103480008115904208F0B7C08D2F8F710E9495145E
:10349000FE01FF27F0628F719F01382BAAC0C53A49
:1034A000D10509F4ABC0C63AD10509F0AAC082E83B
:1034B00090E4F1C0C83AD10509F4A6C0C93AD105D3
:1034C00009F4A5C0CA3AD10509F4A4C0CB3AD10584
:1034D00009F4A3C0CC3AD10509F4A2C0CB3BD10575
:1034E00009F4A1C0CC3BD10509F4A0C0CD3AD10567
:1034F00009F49FC0C03BD10509F49EC0CE3AD10566
:1035000009F49DC0CF3AD10509F49CC0C13BD10557
:1035100009F49BC0C23BD10509F49AC0C33BD10555
:1035200009F499C0C43BD10509F498C0C53BD10545
:1035300009F497C0C63BD10509F496C0C73BD10535
:1035400009F495C0C83BD10509F494C0C93BD10525
:1035500009F493C0CD3BD10509F492C0CE3BD1050F
:1035600009F491C0CA3BD10509F490C080E094E40D
:1035700092C0859194918FC0CE019927D3FF02C04C
:10358000986C89C0906C87C0CE019F70906A83C090
:103590009C2F8827816F906A7EC081E090E002C0F6
:1035A000880F991F4A95E2F740E2249F9001112469
:1035B000822B932B9A686FC09C2F8827846F906A08
:1035C0006AC09C2F8827806F906A65C08C2F8F708F
:1035D0000E949514FE0194E0F695E7959A95E1F71F
:1035E000EF70F0E0FE2FEE27F06A8F70806E9F0183
:1035F000282BC90150C080E090E04DC081E890E4E4
:103600004AC083E890E447C082EE94E444C089EE67
:1036100094E441C08AEE94E43EC085EB94E43BC060
:1036200086EB94E438C083EB94E435C084EB94E4F7
:1036300032C087EB94E42FC08CEC94E42CC08DEC6A
:1036400094E429C083E895E426C08AE895E423C081
:1036500082E995E420C084E995E41DC081E296E406
:103660001AC083E296E417C084E296E414C085E2AF
:1036700096E411C086E296E40EC087E296E40BC0A1
:103680008FE694E408C080E794E405C08AE296E4FB
:1036900002C080EE90E0DF91CF910895FF920F93EA
:1036A0001F93CF93DF938C01F8012491222309F417
:1036B00044C0C8010196213041F48C01FC01C49141
:1036C0008C2F0E940D2D8C2F33C0223031F48C01B1
:1036D000FC0184910E940D2D2DC0233021F48C011A
:1036E000FC01849125C030E0F901E858F94FF490CD
:1036F000F901E850FA4FD491F901E858FA4FC49112
:10370000DD2319F081EE0E940D2DCC2319F086EEF9
:103710000E940D2D8F2D0E940D2D8F2D0E94CE2CDD
:10372000CC2319F086EE0E94CE2CDD2319F081EE19
:103730000E94CE2C0F5F1F4FB7CFDF91CF911F910B
:103740000F91FF900895CF93DF93EC01682F83E0F2
:1037500090E00E94EF2DBE0180E090E0DF91CF91DC
:103760000C94432AE8EDF0E08081806180838AE157
:103770008A95F1F700C08091D90081700895CF93A8
:10378000DF93A8E8B1E04DE851E061E070E08D9191
:10379000E82FE295EF70F0E021A18F70EB0102C0FD
:1037A000CC0FDD1F8A95E2F7CE019C2F90959223D6
:1037B00091A392A1892B82A34A175B0741F7DF915E
:1037C000CF91089584EA8093BC000E942E248091BA
:1037D000B900887F883039F08091B900887F8031C6
:1037E00011F081E0089588E78093BB0084E880931E
:1037F000BC000E942E248091B900887F883129F076
:103800008091B900887F803461F780E00895CF937C
:10381000C62F0E944624882349F080E00E94462457
:10382000882321F08C2FCF910C94462480E0CF91F7
:1038300008952BB1277F3BB138604FB7F894FC0156
:10384000680F791FE617F70789F0819198E03BB977
:10385000000000C087FF2BB9880F000000C000C027
:1038600000C02BB900C09A9591F7ECCF4FBF0895D7
:103870008091C5029091C602A091C702B091C80282
:1038800088719927AA27BB274897A105B10519F484
:1038900085E00C94222A85E00C94E429EF92FF92B3
:1038A0000F931F93CF93DF937C018B010E94980F9E
:1038B000811119C0E70101151105A1F08091E800FF
:1038C00085FD0AC08091E8008E778093E8000E9411
:1038D000980F882381F307C089918093F1000150EC
:1038E0001109E9CF80E0DF91CF911F910F91FF90F7
:1038F000EF9008951F93CF93DF93CDB7DEB7AA97CC
:103900000FB6F894DEBF0FBECDBFEDEBF2E08091B5
:10391000F100819322E0E53CF207C9F78091BE02F5
:10392000833009F460C030F4813071F0823009F4E2
:103930009CC0B3C08A3009F488C08B3009F46BC0D6
:10394000893009F0AAC020C08091BD02813A09F0F7
:10395000A4C08091E800877F8093E8008091C10235
:103960009091C202892B21F468E081EB92E003C0C0
:1039700060E080E090E070E00E941F108091E8001D
:103980008B778093E80089C08091BD02813209F075
:1039900084C08091C1029091C202029708F07DC05C
:1039A0008091E800877F8093E8008091E80082FDA5
:1039B00005C08091BB028111F8CF6FC02091F30048
:1039C0008091F20090E0922B029729F48091F1000F
:1039D0008B7F813021F48091F1008093B00280913F
:1039E000E8008B7756C08091BD02813A09F055C03E
:1039F0008091C1029091C202892B09F04EC0809142
:103A0000E800877F8093E8008091E80080FFFCCF8A
:103A10008091310139C08091BD028132F1F58091F0
:103A2000C1029091C202892BC1F58091E800877F85
:103A30008093E8000E94CB0F8091BF0280933101F8
:103A40001092AE020E94B02C28C08091BD0281323B
:103A500021F58091E800877F8093E8000E94CB0FDA
:103A60008091C0028093AF0218C08091BD02813A5C
:103A7000A1F48091E800877F8093E8008091E800BE
:103A800080FFFCCF8091AF028093F1008091E8002D
:103A90008E778093E8000E94CB0F8091E80083FF2F
:103AA000D8C18091BD029091BE02492F50E04A30AA
:103AB000510508F0CEC1FA01E757FF4F0C9494313D
:103AC000803821F0823809F0C4C108C08091B90261
:103AD0009091BA02992389F082600FC08091C1024F
:103AE0008F70873008F0B5C18093E9008091EB00BA
:103AF00085FB882780F91092E9009091E800977F74
:103B00009093E8008093F1001092F10071C1282F8A
:103B10002D7F09F09EC1882319F0823061F099C190
:103B20008091BF02813009F094C1933009F080E0A8
:103B30008093BA022EC08091BF0281112AC0809169
:103B4000C1028F702FEF280F263008F082C18093BA
:103B5000E9002091EB0020FF1CC0933021F48091FC
:103B6000EB00806214C09091EB0090619093EB00A9
:103B700021E030E0A90102C0440F551F8A95E2F709
:103B80004093EA001092EA008091EB0088608093F5
:103B9000EB001092E9008091E800877F2CC1811131
:103BA00058C11091BF021F778091E3008078812B6C
:103BB0008093E3008091E800877F8093E8000E9473
:103BC000CB0F8091E80080FFFCCF8091E3008068FC
:103BD0008093E300111102C082E001C083E0809372
:103BE000BB0237C18058823008F033C18091BF02D8
:103BF0009091C0028C3D53E0950779F583E08A836C
:103C00008AE289834FB7F894DE01139620E03EE004
:103C100051E2E32FF0E050935700E49120FF03C0FE
:103C2000E295EF703F5FEF708E2F90E0EA3010F07A
:103C3000C79601C0C0968D939D932F5F243149F79D
:103C40004FBF8091E800877F8093E8006AE270E0D0
:103C5000CE0101960E941F10BAC04091C10250913E
:103C6000C202292F332723303105B1F068F4213007
:103C7000310509F4FDC02230310509F0EAC08BE3BB
:103C800090E0E1E9F8E050C02132310581F12232C3
:103C9000310509F439C0DDC0992781309105B9F0AB
:103CA00070F082309105D9F0039709F0D2C0EEEDA3
:103CB000F8E0E4918E2F90E0EEEDF8E032C0E2E122
:103CC000F9E0E4918E2F90E0E2E1F9E02AC0ECEF18
:103CD000F8E0E4918E2F90E0ECEFF8E022C0E4EE03
:103CE000F8E0E4918E2F90E0E4EEF8E01AC0411580
:103CF000510509F4C2C04130510509F0AAC089E05C
:103D000090E0ECEBF8E010C04115510509F4BAC0A1
:103D10004130510509F09DC08FE490E0E2E0F8E009
:103D200003C0009709F495C02091E800277F2093F5
:103D3000E8002091C3023091C4028217930708F46F
:103D40009C0140E02115310589F18091BB02882357
:103D500009F43DC08530D9F18091E80083FD37C07A
:103D60008091E80082FD2FC08091E80080FFEACFBB
:103D70004091F3008091F20090E0942B21153105E1
:103D800059F08830910540F444914093F100319608
:103D9000215031090196F2CF41E0089709F040E047
:103DA0008091E8008E778093E800CCCF4111CDCF91
:103DB0000AC08091BB02882351F0853041F0809188
:103DC000E80083FD04C08091E80082FFF2CF80917B
:103DD000E8008B778093E8003CC08038D1F5809173
:103DE000E800877F8093E8008091BC028093F10017
:103DF0008091E8008E778093E8000E94CB0F29C065
:103E0000811127C08091BF029091C002992702972B
:103E100004F58091E800877F8093E8001091BF024D
:103E20001093BC020E94CB0F111106C08091E300D9
:103E300087FD02C081E001C084E08093BB0242E0C4
:103E400061EC81E00E94EA0F42E261EC82E00E94B4
:103E5000EA0F8091E80083FF1AC08091E800877F15
:103E60008093E8008091EB0080628093EB000FC0AC
:103E700082E190E0ECECF8E057CF89E090E0E3EAF3
:103E8000F8E052CF80E490E0E1E5F8E04DCFAA966B
:103E90000FB6F894DEBF0FBECDBFDF91CF911F915B
:103EA00008951F920F920FB60F9211242F933F93F4
:103EB0004F935F936F937F938F939F93AF93BF9332
:103EC000CF93DF93EF93FF93C091E900CF70809180
:103ED000EC00D82FD17080FDD0E81092E9008091DD
:103EE000F000877F8093F00078940E947A1C1092F3
:103EF000E9008091F00088608093F000CD2BCF70B6
:103F0000C093E900FF91EF91DF91CF91BF91AF9105
:103F10009F918F917F916F915F914F913F912F91E1
:103F20000F900FBE0F901F901895E8EDF0E0808184
:103F30008E7F80831092E2001092DA001092E100EE
:103F4000A0EEB0E08C9181608C9380818F7780832C
:103F500019BCA7EDB0E08C918E7F8C9380818F7E11
:103F600080831092AD020895CF92DF92EF92FF927C
:103F70000F931F93CF93DF93C8EDD0E088818F7E9E
:103F80008883E7EDF0E080818160808384E082BFF8
:103F900081E08093AD0288818E7F888302EE10E0FD
:103FA000F80110821092DA0081EEC82ED12CF601B1
:103FB000108288818F778883888180688883888150
:103FC0008F7D888319BC1092BB021092BC021092A4
:103FD000BA021092B90290EEE92EF12CF70180811D
:103FE0008B7F808388818160888342E060E080E00D
:103FF0000E94EA0FF60180818E7F8083F801808124
:1040000081608083808188608083F70180818E7FDA
:104010008083888180618883DF91CF911F910F9188
:10402000FF90EF90DF90CF9008951F920F920FB600
:104030000F9211242F933F934F935F936F937F932E
:104040008F939F93AF93BF93EF93FF938091E10082
:1040500082FF09C08091E20082FF05C08091E100EB
:104060008B7F8093E1008091DA0080FF2AC08091ED
:10407000D80080FF26C08091DA008E7F8093DA001E
:104080008091D90080FF18C080E189BD82E189BD9F
:1040900009B400FEFDCF81E08093BB028091AD02A8
:1040A00081110FC00E94951F0E94B41F8091E200F1
:1040B00084608093E20005C019BC1092BB0210928C
:1040C000AD028091E10080FF17C08091E20080FF87
:1040D00013C08091E2008E7F8093E2008091E20025
:1040E00080618093E2008091D80080628093D80044
:1040F00019BC85E08093BB028091E10084FF34C04D
:104100008091E20084FF30C080E189BD82E189BDF9
:1041100009B400FEFDCF8091D8008F7D8093D80038
:104120008091E1008F7E8093E1008091E2008F7E9C
:104130008093E2008091E20081608093E2008091B0
:10414000BC02882311F084E007C08091E30087FD62
:1041500002C081E001C083E08093BB021092AE02F6
:104160000E94B02C0E9482158091E10083FF27C03D
:104170008091E20083FF23C08091E100877F8093DC
:10418000E10082E08093BB021092BC028091E100CA
:104190008E7F8093E1008091E2008E7F8093E20029
:1041A0008091E20080618093E20042E060E080E084
:1041B0000E94EA0F8091F00088608093F000FF91E8
:1041C000EF91BF91AF919F918F917F916F915F918F
:1041D0004F913F912F910F900FBE0F901F90189508
:1041E0008EE14A9B02C08150E1F74A9BFECF0895C1
:1041F000615091E001C0990F6A95EAF720E031E043
:10420000992361F0492F482319F05A9A232701C0B6
:104210005A9840E24A95F1F79695F2CF222311F091
:104220005A9A01C05A9880E28A95F1F75A980895EF
:10423000FC012AE02A95F1F790E020E080E031E0EF
:10424000261779F040E14A95F1F7880F4A9B02C0A2
:104250008160932700C0000040E14A95F1F72F5F8D
:10426000EFCF20E12A95F1F729B100C0000030E13D
:104270003A95F1F722FB222720F992272081920F0D
:1042800090830895EF92FF920F931F93CF93DF9344
:104290001F92CDB7DEB719828C017C01E60EF11CAE
:1042A0000E151F0559F00E94F02068E0CE0101961E
:1042B0000E941821F80181938F01F2CF81E099814A
:1042C000911180E00F90DF91CF911F910F91FF909E
:1042D000EF9008955A9880E28A95F1F75A9A0895D6
:1042E000FF920F931F93CF93DF93EC018C01060F86
:1042F000111DC017D10741F0F9900E946A2168E0B2
:104300008F2D0E94F820F5CFDF91CF911F910F9153
:10431000FF9008950F931F93CF93DF932091FC019B
:1043200030E0281739070CF471C09C0193E0220F8C
:10433000331F9A95E1F7C091FD01D091FE01C20FA4
:10434000D31FF894529A5A9845E04A95F1F7000025
:10435000982F969595708570890F982F93708695F4
:104360008695890F8901082B0E946A2184E08A952D
:10437000F1F700C067E0802F0E94F82040E14A95E5
:10438000F1F752985A9A4A9902C000C0FCCF87E0D0
:1043900090E04A9B0EC0019751F4529A5A9AE881D4
:1043A000F98181E08083789481E090E031C000C0A1
:1043B000F0CF6D81662381F08E819F810E94422122
:1043C00081110AC0529A5A9AE881F98182E0808369
:1043D000789482E090E01CC00E94F02080E28A95F0
:1043E000F1F75A98529A40E14A95F1F76A816623AB
:1043F00021F08B819C810E9470210E946A21E881BA
:10440000F9811082789480E090E002C084E090E02E
:10441000DF91CF911F910F9108959F92AF92BF921C
:10442000CF92DF92EF92FF920F931F93CF93DF9380
:1044300080910101811103C0C5E0D0E002C0C0E05D
:10444000D0E0AE01475A5D4F7A0188E8C82E81E07E
:10445000D82E8A01AA24A394B12C25E0922EFDE83F
:10446000CF16F1E0DF0609F44AC0F60181916F0131
:10447000E82FE295EF70F0E021A18F70A50102C056
:10448000440F551F8A95E2F7CA01922F982B91A3EA
:1044900092A18095892382A350EA5A95F1F7E1E829
:1044A000F1E020E040E050E03191A32FA295AF7001
:1044B000B0E090968C9190E03F7002C09595879502
:1044C0003A95E2F780FD07C0C501042E01C0880FB0
:1044D0000A94EAF702C080E090E0282B4F5F5F4F1C
:1044E0004730510509F7F8018081821719F02083C0
:1044F00090927E010E94BF1B0F5F1F4FB0CF809133
:104500007E018823B1F0815080937E01811103C028
:10451000C759DD4F07C08FE99FE00197F1F700C051
:10452000000007C0F70191917F0199938F5F85305B
:10453000C9F781E0DF91CF911F910F91FF90EF902C
:10454000DF90CF90BF90AF909F9008950F931F93EF
:10455000CF93DF938C010C5A1F4FD801ED91FC9142
:10456000119760832D913C9111972F5F3F4F2D93B1
:104570003C93281B390B24353105B9F4EC01BC01FF
:104580006B5E7F4F4FE350E00E94B431CE01CF9677
:10459000F8019183808345E150E060E270E0DF91B3
:1045A000CF911F910F910C94C631DF91CF911F9144
:1045B0000F9108951F93CF93DF93FC01EA5AFF4FA9
:1045C00021E020836A3099F4EC0132978081918157
:1045D0008C1B9D0B65E170E00E948031182F153116
:1045E00058F460E2CE010E94A6221F5FF8CFDF914F
:1045F000CF911F910C94A622DF91CF911F91089526
:104600000F931F93CF93DF938C01EB01FE01649115
:10461000662329F0C8010E94DA222196F7CFDF91A4
:10462000CF911F910F910895EF92FF920F931F93D7
:10463000CF93DF937C01EB01FB0101900020E9F7B0
:104640008F0101501109C017D10728F46991C701E2
:104650000E94DA22F8CFDF91CF911F910F91FF9046
:10466000EF9008951F920F920FB60F9211240F939F
:104670001F932F933F934F935F936F937F938F93EA
:104680009F93AF93BF93EF93FF93CF93DF931F92CB
:10469000CDB7DEB719820E94F02067E0CE01019607
:1046A0000E941821382F369536953695932F96957A
:1046B0009570232F2570920F292F2370969596952C
:1046C0008770920F891348C08981811145C08091FC
:1046D000FC01831708F440C080E18A95F1F75A9AEB
:1046E000529AA2E0AA95F1F700C00091FD01109145
:1046F000FE01B8E03B9F000D111D11245A98F801EE
:104700006581662321F0868197810E9470210E9435
:104710006A21F0E1FA95F1F75A9852985A9A80E195
:104720008A95F1F7D80112966C911297662369F079
:1047300013968D919C9114970E944221D801ED917E
:10474000FC91811105C082E004C0D801ED91FC917B
:1047500088E080830E94F0200F90DF91CF91FF913D
:10476000EF91BF91AF919F918F917F916F915F91E9
:104770004F913F912F911F910F910F900FBE0F906E
:104780001F9018951F920F920FB60F9211248F93BE
:104790009F93EF93FF938091B900887F803869F0F1
:1047A00038F48823C9F18036C9F51092DA0236C090
:1047B000883A09F1883BF9F031C08091DA02811121
:1047C00011C08091BB008093D9028091D9028031C1
:1047D00020F01092D90280E001C081E091E0909336
:1047E000DA021DC0E091D902F0E08091BB00E753EE
:1047F000FD4F808308C0E091D902F0E0E753FD4F00
:1048000080818093BB008091D90290E001968F70E7
:1048100099278093D90202C01092BC0081E0909148
:10482000BC008295880F880F807C9568892B8093C7
:10483000BC00FF91EF919F918F910F900FBE0F9051
:104840001F90189584E98093BC0083E390E0209149
:10485000BC0024FD02C00197D1F7089583E390E0E6
:104860002091BC0027FD02C00197D1F708958093E5
:10487000BB0084E88093BC000E942E249091B90074
:10488000987F81E0983209F480E00895CF93C82F93
:104890000E94E21B81110AC080E00E94372481112E
:1048A00005C08C2F0E943724C1E08111C0E00E9416
:1048B00022248C2FCF910895BF92CF92DF92EF9256
:1048C000FF920F931F93CF93DF930E944128909301
:1048D000DC028093DB028FEA0E94462463E082E2DE
:1048E0000E94071C8823D1F16DE781E20E94071C1A
:1048F0008823A1F10E94E21B811130C080E40E9454
:10490000372481112BC08FEFE82E81E0F82E94E040
:10491000B92EC0E0D0E0F701EC0FFD1FC08086E0AB
:10492000C89E6001112400E010E0F601E00FF11FC5
:10493000EA5EF64F84910E9437240F5F1F4F0630C6
:10494000110599F72196C531D10529F7BA9485E16A
:10495000E80EF11CB110DDCF10925502DF91CF911E
:104960001F910F91FF90EF90DF90CF90BF900C942C
:104970002224CF92DF92EF92FF920F931F93CF9357
:10498000DF93CDB7DEB7C75AD1090FB6F894DEBFB3
:104990000FBECDBF44E550E060E270E08E010F5FD6
:1049A0001F4FC8010E94C63167961FAF0EAF6797B1
:1049B00081E068968FAF689780915802882309F448
:1049C000BAC08091630282FD0DC062E371E0C8014C
:1049D0000E9414236CE77EE0C8010E94002365E377
:1049E00071E00CC068E371E0C8010E9414236AE71B
:1049F0007EE0C8010E9400236BE371E0C8010E94C1
:104A000014238091C8028F938091C7028F93809165
:104A1000C6028F938091C5028F938FEC91E09F9394
:104A20008F931F9288E28F937E0120E8E20EF11CA3
:104A3000FF92EF920E94CD3161E77EE0C8010E94B3
:104A400000230FB6F894DEBF0FBECDBF8091C50224
:104A50009091C602A091C702B091C8028031910521
:104A6000A105B105C9F058F40097A105B10589F079
:104A70000897A105B105C9F46DE57EE00FC080324D
:104A80009105A105B10571F0C897A105B10551F0D7
:104A90000CC069E67EE002C063E67EE0C8010E94C9
:104AA000002307C066E57EE0F9CFB701C8010E9488
:104AB00014230E94821582FD05C03AEBC32E31E01B
:104AC000D32E04C025EBC22E21E0D22E0E948215E7
:104AD00081FD05C09AEBE92E91E0F92E04C08DEB23
:104AE000E82E81E0F82E0E94821580FD03C08AEC3A
:104AF00091E002C082EC91E0DF92CF92FF92EF92C0
:104B00009F938F9389ED91E09F938F931F9288E2FB
:104B10008F937E0198E5E90EF11CFF92EF920E94BF
:104B2000CD31B701C8010E9414230FB6F894DEBF3F
:104B30000FBECDBF05C06EE371E0C8010E94142313
:104B400044E550E0B8018FEF91E00E94A731892B36
:104B500059F084E5F801AFEFB1E001900D928A952C
:104B6000E1F781E08093550280915502811104C0E4
:104B700080910001882321F00E945C2410920001A2
:104B80008091DB029091DC020E94172881369A4EB8
:104B900018F08EEA0E944624C955DF4F0FB6F894EC
:104BA000DEBF0FBECDBFDF91CF911F910F91FF9060
:104BB000EF90DF90CF900895EF92FF920F931F93A5
:104BC000CF93DF9380915802882309F472C00E942A
:104BD0000D2280910101811103C0C5E0D0E002C027
:104BE000C0E0D0E0C759DD4F45E050E0BE0184EFA2
:104BF00091E00E94A7317C0185E0FE01A4EFB1E0C5
:104C000001900D928A95E1F780910101811103C015
:104C1000C0E0D0E002C0C5E0D0E09091800180917A
:104C20007F01981761F082E090E00E948A218C0158
:104C3000892B39F480917F018093800102C000E0CC
:104C400010E0EF2849F48091DD029091DE02892B7B
:104C500019F480E090E002C081E090E00E948A2197
:104C6000892B49F48091F90180937F011092DE0233
:104C70001092DD0206C081E090E09093DE02809306
:104C8000DD020115110531F00230110509F04FC0A8
:104C900028984DC0289ADE01A759BD4F85E0EEEE59
:104CA000F1E001900D928A95E1F75D9A1092DF0292
:104CB00034C00E940D2280910101811103C0E5E002
:104CC000F0E002C0E0E0F0E0E759FD4F80E020E0D6
:104CD00030E0D901A251BE4F4C919191491381E02E
:104CE0009C932F5F3F4F2530310599F79091F90143
:104CF000890F8093F90180910101811103C0A0E027
:104D0000B0E002C0A5E0B0E0A759BD4F85E0E4EFF8
:104D1000F1E001900D928A95E1F70E94B92481E0BB
:104D2000DF91CF911F910F91FF90EF9008955D98C3
:104D30008091DF028F5F8093DF02863070F3809175
:104D40000101811103C0E0E0F0E002C0E5E0F0E025
:104D5000E759FD4F80E090E0119201968530910572
:104D6000D9F7DBCFCF93C62F0E944624882321F0AA
:104D70008C2FCF910C94462480E0CF9108958091A0
:104D8000B0020895803F39F48091760287FF6CC0AD
:104D90001092760269C0813F29F48091760218163C
:104DA000BCF362C090917502823F29F497FF5CC00A
:104DB0001092750259C0833F19F41916CCF354C0F0
:104DC000893F41F48091770218160CF04DC0109283
:104DD00077024AC08A3F29F48091770287FF44C056
:104DE000F6CF8B3F39F48091780287FF3DC0109257
:104DF00078023AC08C3F29F4809178021816BCF3EF
:104E000033C0843F21F4809174028E7F17C0853FA8
:104E100021F4809174028D7F11C0863F21F480912E
:104E200074028B7F0BC0873F21F480917402877FCF
:104E300005C0883F31F4809174028F7E80937402A4
:104E400013C08D3F21F4809159038E7F0BC08E3F9C
:104E500021F4809159038D7F05C08F3F29F4809103
:104E600059038B7F809359038091750281110EC085
:104E70008091760281110AC080917702811106C06B
:104E800080917802811102C0109279020895809178
:104E9000590380FD16C081FD16C082FD18C08091A7
:104EA0007902882391F0883290F428E0829FC00133
:104EB000112468E270E00E948031862F672B29F070
:104EC00007C082E0089584E0089581E0089588E0B5
:104ED00008958091590380FD14C081FD14C082FDA6
:104EE00016C080917902882381F0843180F422E316
:104EF000829FC001112464E170E00E948031862FFE
:104F000008958CE0089589E1089585E0089582E38D
:104F10000895803F21F40E946927819504C0813F54
:104F200029F40E946927809376020895823F21F434
:104F30000E946927819504C0833F29F40E94692754
:104F4000809375020895893F19F40E94472705C090
:104F50008A3F31F40E944727819580937702089514
:104F60008B3F21F40E944727819504C08C3F29F490
:104F70000E944727809378020895843F21F480910E
:104F80007402816017C0853F21F4809174028260B1
:104F900011C0863F21F48091740284600BC0873F6A
:104FA00021F480917402886005C0883F31F48091BB
:104FB000740280618093740208958D3F21F4809182
:104FC000590381600BC08E3F21F4809159038260A8
:104FD00005C08F3F29F48091590384608093590361
:104FE000089578941F920F920FB60F9211248F9309
:104FF0009F93AF93BF938091550390915603A091D7
:105000005703B09158030196A11DB11D809355031C
:1050100090935603A0935703B0935803BF91AF9159
:105020009F918F910F900FBE0F901F901895CF9268
:10503000DF92EF92FF920F931F932FB7F894409156
:1050400055035091560360915703709158032FBF39
:105050006A017B01EE24FF248C0120E030E0C016C1
:10506000D106E206F30610F4415051099A01281BBB
:10507000390BC9011F910F91FF90EF90DF90CF90F6
:1050800008952FB7F8948091550390915603A091FD
:105090005703B09158032FBF0895E0916602F09135
:1050A0006702309749F082E0809373020480F581B3
:1050B000E02D83E792E009950E94412890937B02BE
:1050C00080937A0208951F920F920FB60F921124C7
:1050D0008F939F93AF93BF9380916802811113C008
:1050E0008091550390915603A0915703B0915803B6
:1050F0004196A11DB11D8093550390935603A09333
:105100005703B0935803BF91AF919F918F910F9028
:105110000FBE0F901F9018959C01FC0132969FEFD7
:1051200080E04191461789F09F3F19F4411101C079
:10513000982F8F5F8630A9F79F3F39F0F901E90F6B
:10514000F11D97FDFA9562830895089580E090E03F
:105150000E94E92D21E08D3E9E4F09F020E0822F34
:1051600008956DEE7EEF80E090E00E940D2E60E0ED
:1051700082E090E00E94EF2D60E083E090E00E94EA
:10518000EF2D10925103109252031092530310927C
:10519000540360E084E090E00E94EF2D60E085E041
:1051A00090E00E94EF2D60E086E090E00E94EF2DFD
:1051B0006FEF87E090E00E94EF2D40E050E0BA01F1
:1051C00088E090E00E94012E60E08DE090E00E9477
:1051D000EF2D40E050E0BA0188E190E00E94012EFE
:1051E00060E087E190E00E94EF2D40E050E0BA01DE
:1051F0008FE090E00E94012E40E050E0BA0183E190
:1052000090E00C94012E8091500381111092500374
:1052100008959091AE0280914F03892B20914E0307
:10522000982F922B9093E00280915003882389F06D
:10523000892B8093E002E2EEF2E097E080E091506B
:1052400029F021912223D9F38F5FF9CF81110E9498
:105250000329E0916602F0916702309731F00280F5
:10526000F381E02D80EE92E009940895BF92CF92F1
:10527000DF92EF92FF920F931F93CF93DF938C01F6
:10528000C090C502D090C602E090C702F090C8025C
:105290008091510390915203A0915303B091540314
:1052A000C82AD92AEA2AFB2ACFE1D0E0D701C601D1
:1052B0000C2E04C0B695A795979587950A94D2F7BA
:1052C00080FD04C0219790F7B12C07C0BC2EB80117
:1052D0008C2F0E94FB180197A9F38B2DDF91CF91A2
:1052E0001F910F91FF90EF90DF90CF90BF900895A6
:1052F000CF93DF93EC010E943629BE010E94FB1878
:10530000DF91CF91089527E0929F800D1124682F9F
:10531000669566956695982F977085E0689FB001B1
:10532000112440E050E080E0FB01E40FF51FE05E57
:10533000FC4F208130E0092E02C0369527950A9453
:10534000E2F721703327042E01C0220F0A94EAF7F6
:10535000822B4F5F5F4F4530510531F7089527E0AD
:10536000929F800D1124E82FE695E695E6958770CB
:1053700051E001C0550F8A95EAF785E0E89FF001FA
:105380001124E05EFC4F20E030E070E04081CB0172
:10539000022E02C0969587950A94E2F78170819556
:1053A00084278523842781932F5F3F4F2530310544
:1053B00069F708956093C5027093C6028093C7028F
:1053C0009093C8020C949D2C0F931F9341E050E0E2
:1053D00060E070E004C0440F551F661F771F8A9578
:1053E000D2F740955095609570958091C502909147
:1053F000C602A091C702B091C8028A019B0108238E
:1054000019232A233B23C901B8011F910F910C9442
:10541000DA2920914D038095822380934D03982FA4
:10542000977079F430E0482F082E000C550B2417A4
:10543000350739F08595859585950E94E429109268
:105440004D0308950F931F9341E050E060E070E03A
:1054500004C0440F551F661F771F8A95D2F78091AD
:10546000C5029091C602A091C702B091C8028A01FC
:105470009B01082B192B2A2B3B2BC901B8011F912B
:105480000F910C94DA296093510370935203809327
:105490005303909354030C949D2C80911F0390917F
:1054A000EE02891719F08F5F8770FBCF0895CF93B5
:1054B0008091ED0282958F7009F05FC08091EA02C1
:1054C000882309F45AC080911F03B091EE027091B5
:1054D000E802A091E9024091EB025091EC0291E0C8
:1054E0007F3F09F090E0692FC6E08B1709F445C0B3
:1054F0004115510521F0AF3F21F020E003C021E02C
:1055000001C0262F90E020FD35C0C89FF001C99F43
:10551000F00D1124E151FD4F21812A132BC0208170
:10552000271328C02281211125C02381348124170B
:10553000350710F421503109241B350B2436310571
:10554000C8F42091ED022F7020612093ED0226E037
:10555000289FF001299FF00D1124EC50FD4F808110
:105560008F708061808388EE92E00E948807CF91DF
:105570000C944D2A01968770B8CFCF9108950E9460
:105580007829292F2F70E92FE295EF704E2F50E0E8
:10559000FA013297EE30F105B8F4ED56FF4F0C9456
:1055A0009431803F99F018F4803E70F40FC0843F2E
:1055B00059F40CC0803E50F0813F31F407C0822F77
:1055C000869586958695089580E0089581E00895F2
:1055D000AF92BF92CF92DF92EF92FF920F931F9301
:1055E000CF93DF93CDB7DEB761970FB6F894DEBFE8
:1055F0000FBECDBF7C0185E0F701DE011D96019055
:105600000D928A95E1F7D7013C9111962C91119753
:1056100012960C915091E8026091E9028091EB02A0
:105620009091EC02009731F06F3F31F441E05F3F21
:1056300019F403C041E001C040E0B42FB170BB2EAB
:1056400040FD28C1F701C380D480A090EA02AA20BF
:1056500009F4E3C04091ED02C816D90628F0D6013E
:10566000A81BB90BCD0104C0809590958C0D9D1D94
:1056700011E08436910548F010E0407F09F093C0B6
:1056800088EE92E00E948807FDC0842F807F09F099
:1056900051C0621312C0531310C0102F01110DC05E
:1056A0004F7040614093ED0288EE92E00E948807BF
:1056B0008091ED02F70185832EC1CD2831F02F3F77
:1056C00031F481E03F3F19F403C081E001C080E084
:1056D00080FD03C081E0802702C080E090E0182FA9
:1056E000117080FF1CC080911F034091EE0256E0B4
:1056F000841709F4EDC090E0589FF001599FF00D18
:105700001124E151FD4F6181261306C060813613DB
:1057100003C06281061303C001968770E9CF102F82
:10572000002309F4F8C08091ED0281608093ED02BE
:1057300010E0F1C062130CC053130AC0011108C07D
:105740008091ED02F7018583C7010E94880780C020
:105750003D872E878D859E850E94BF2A882369F10B
:10576000002359F12091ED02822F82958F7090E0F5
:10577000029774F08091E8029091E90298878F83F4
:105780001986DB86CA862C87CE0107960E94880779
:1057900086E0F701A8EEB2E001900D928A95E1F75C
:1057A0000E94572A0DC0621769F03D872E878D85AC
:1057B0009E850E94BF2A811119C0C7010E948807D7
:1057C00011E0A9C05313F1CF0111EFCF8091ED0289
:1057D000F7018583C7010E94880786E0E8EEF2E0C2
:1057E000DF011D928A95E9F71A2D95C0002329F350
:1057F0002091ED02822F82958F7090E0029744F203
:105800008091E8029091E9029A8389831B82DD826C
:10581000CC822E83CE010196B9CFC816D90638F0B6
:10582000C81AD90AB4E6CB16D10450F007C0809547
:1058300090958C0D9D1D8436910510F010E022C0CE
:10584000102F002309F4B9CF62130BC0531309C002
:1058500086E0F701A8EEB2E001900D928A95E1F79B
:105860005AC03D872E878D859E850E94BF2A811153
:105870008FCF8091ED0281608093ED02C7010E947D
:10588000880749C0E8EEF2E086E0DF011D928A95C4
:10589000E9F741C0002309F490CF3D872E878D851D
:1058A0009E850E94BF2A182F882309F486CF86E0A0
:1058B000F701A8EEB2E001900D928A95E1F7809190
:1058C000E8029091E9020E9478290E94572A23C099
:1058D0003D872E878D859E850E947829292F2295C8
:1058E0002F70223028F49F7039F0811105C00BC051
:1058F000243028F49F7049F4805E883020F0C7017E
:105900000E948807B12E1B2D06C0D70115969C91C9
:10591000907F91F7F8CF812F61960FB6F894DEBF94
:105920000FBECDBFDF91CF911F910F91FF90EF90F0
:10593000DF90CF90BF90AF90089510924F031092D8
:105940004E030E940929E3E7F2E086E0DF011D92A1
:105950008A95E9F710927902109259030C944D2818
:1059600086E0E2EEF2E0DF011D928A95E9F70C9401
:105970009D2C882341F080959091AE0289238093DD
:10598000AE020C9409290895882339F09091AE0253
:10599000892B8093AE020C94092908958823E1F1A4
:1059A0009CEF980F913A60F4E0EEF2E09281891357
:1059B00001C01282319642E0E63EF407B9F714C006
:1059C00090E2980F983090F4877021E030E0A901C0
:1059D00002C0440F551F8A95E2F7CA018095909145
:1059E000AE0289238093AE020C9409299BE5980F9F
:1059F000933020F480E090E00C946C1598E5980FBB
:105A0000973120F480E090E00C945615803F20F010
:105A10000E94C2260C944D280895882309F4CAC018
:105A20009CEF980F913A30F4682F80EE92E00E943C
:105A30008C2813C090E2980F983088F4877021E08A
:105A400030E0A90102C0440F551F8A95E2F7CA0150
:105A50009091AE02892B8093AE020C9409299BE5AC
:105A6000980F933070F4853A29F0863A31F083E844
:105A700090E005C081E890E002C082E890E00C94DC
:105A80006C1598E5980F973108F08EC0883A09F4A4
:105A900045C0893A09F445C08A3A09F445C08B3AB1
:105AA00009F445C08C3A09F445C08B3B09F445C064
:105AB0008C3B09F445C08D3A09F445C0803B09F49C
:105AC00045C08E3A09F445C08F3A09F445C0813B80
:105AD00009F445C0823B09F445C0833B09F445C045
