:100000000C94D3090C941A0A0C941A0A0C94B82074
:100010000C941A0A0C941A0A0C941A0A0C941A0AD0
:100020000C941A0A0C941A0A0C94CF280C940B28DE
:100030000C94512B0C941A0A0C941A0A0C941A0A58
:100040000C941A0A0C941A0A0C941A0A0C941A0AA0
:100050000C941A0A0C94DF2A0C941A0A0C941A0AAB
:100060000C941A0A0C941A0A0C941A0A0C941A0A80
:100070000C941A0A0C941A0A0C941A0A0C941A0A70
:100080000C941A0A0C941A0A0C941A0A0C941A0A60
:100090000C9448210C941A0A0C941A0A0C941A0A0B
:1000A0000C941A0A0C941A0A0C941A0AE10DE30D26
:1000B000EE0DE50DE70DE90DEB0DED0DF00DF20D7B
:1000C000F40DFF0DF60DF80DFA0DFC0DFE0D010EF1
:1000D000410F410F7B0F7B0F8E11BF0F8E118E11C1
:1000E00001108E11EE10EE10FB10FB10FB10FB1038
:1000F000FB10FB10FB10FB10FB10FB10FB10FB10A8
:10010000FB10FB10FB10FB100C1136113B114211C0
:1001100059111A264126E3274126E3278926AC26D2
:10012000E327A727BA27BF2DBF2DD22DD22DC82D4B
:10013000D22DD22DD22DBF2DBF2DCD2DD22DD22DF2
:10014000CD2D07634236B79BD8A71A39685618AE2B
:10015000BAAB558C1D3CB7CC5763BD6DEDFD753EFC
:10016000F6177231BF000000803F05A84CCDB2D415
:100170004EB93836A9020C50B9918688083CA6AA17
:10018000AA2ABE000000803F29001E001F00200098
:100190002100220000002B0014001A0008001500A6
:1001A00017000000E00004001600070009000A0024
:1001B000000018501D001B00060019000500035325
:1001C000E200005C1F50E30091002C0004534C003F
:1001D0002700260025002400230000002A00130029
:1001E00012000C0018001C00000028002E000F0058
:1001F0000E000D000B0000001850380037003600CC
:10020000100011000353005201520253E700900006
:100210002C00055329001E001F0020002100220091
:1002200000002B0014001A00070009000A0000005B
:10023000E00004001200080018000C000000195033
:100240001D001B000600190005000353E200005CBE
:100250001F50E30091002C0004534C00270026009F
:1002600025002400230000002A00130015001700B9
:1002700016001C00000028002E000F000E000D00CC
:100280000B00000019503800370036001000110034
:100290000353005201520253E70090002C00055313
:1002A000000000000000000000000000000000004E
:1002B000000000000000000000000000000000003E
:1002C000000000000000000000000000000000002E
:1002D000000000000000000000000000000000001E
:1002E000000000000000000000005600550054000F
:1002F00053000000000000005700610060005F0034
:1003000000000000000058005E005D005C0000007E
:100310000000000058005B005A0059000000005225
:100320000152010063006200620000003A003B00DD
:100330003C003D003E003F0000000000CD5CD35C6F
:10034000D45CC85CC75C00000000D15CCE5CCF5CB4
:10035000C65CC55C0000135CD05CC45CC35CCA5C5A
:10036000C95C01000A5C000000000000CC5CCB5CB2
:10037000C25C4500440043004200410040000000D0
:100380000000F900F500F600F40000000000000095
:10039000FA00F300F000F100F2000000000000009D
:1003A00000000000000000000100005201520000A7
:1003B00000000000DE5C005C000059005A005B0099
:1003C0005C005D00000000000000520000004A00D8
:1003D0004B0000000000500051004F004D004E0047
:1003E000000000000000000000004600490001007D
:1003F0000000000000000000DE5C005C01004C001A
:100400006200610060005F005E0000002A002402BC
:10041000370236022702260200002800310230008F
:100420002F0030022F02000000000000000000003A
:1004300023021F02010000520152000000000000D0
:100440000000000000001E001F002000210022000C
:100450000000000035022D02340234003500000097
:10046000E0002E022D0025022E0033020000E100E4
:100470001E0238022002210222020000E2000000D7
:100480000000E30091002C0001004C002700260032
:1004900025002400230000002A002402360237022F
:1004A0002702260200002800310230002F0030020F
:1004B0002F020000E10000000000000023021F02E4
:1004C0000000005201520000E70090002C000100E3
:1004D000000000000000000000000000000000001C
:1004E000000000000000000000000000000000000C
:1004F00000000000000000000000000000000000FC
:1005000000000000000000000000000000000000EB
:1005100000000000000000000000000000000000DB
:1005200000000000000000000000000000000000CB
:1005300000000000000000000000000000000000BB
:100540000000000000000000000000000000005259
:100550000152000000000000000000000000000048
:10056000000000000000000000000000000000008B
:10057000000000000000000000000000000000007B
:10058000000000000000000000000000000000006B
:10059000000000000000000000000000000000005B
:1005A000000000000000000000000000000000004B
:1005B000000000000000000000000000000000003B
:1005C000000000000000000000000000000000002B
:1005D0000000000000000000000000520152000076
:1005E000000000000000000029001E001F00200085
:1005F0002100220000002B0014021A02080215023A
:1006000017020000E00004021602070209020A02B3
:10061000000001001D621B02060219020502000013
:10062000E20000000000E30291002C0200004C00F8
:100630002700010001002400230000002A0013020B
:1006400012020C0218021C02000028002E020F02E7
:100650000E020D020B0200000100380237023602C2
:10066000100211020000005201520000E702900047
:100670002C02000029001E001F0020002100220083
:1006800000002B0014021A02070209020A020000ED
:10069000E00004021202080218020C02000001002D
:1006A0001D021B020602190205020000E200000002
:1006B0000000E30291002C0200004C000100260023
:1006C00025002400230000002A001302150217024F
:1006D00016021C02000028002E020F020E020D025C
:1006E0000B0200000100380237023602100211022C
:1006F0000000005201520000E70290002C020000AE
:1007000000000000000000000000000000000000E9
:1007100000000000000000000000000000000000D9
:1007200000000000000000000000000000000000C9
:1007300000000000000000000000000000000000B9
:1007400000000000000000000000000000000000A9
:100750000000000000000000000000000000000099
:100760000000000000000000000000000000000089
:100770000000000000000000000000000000005227
:100780000152000000000000000000000000000016
:100790000000000000000000000000000000000059
:1007A0000000000000000000000000000000000049
:1007B0000000000000000000000000000000000039
:1007C0000000000000000000000000000000000029
:1007D0000000000000000000000000000000000019
:1007E0000000000000000000000000000000000009
:1007F00000000000000000000000000000000000F9
:100800000000000000000000000000520152000043
:1008100000000000000000000000000000000000D8
:1008200000000000000000000000000000000000C8
:1008300000000000000000000000000000000000B8
:1008400000000000000000000000000000000000A8
:100850000000000000000000000000000000000098
:100860000000000000000000000000000000000088
:100870000000000000000000000000000000000078
:100880000000000000000000000000000000000068
:1008900000000000000000520152000000000000B3
:1008A0000000000000000000000000000000000048
:1008B0000000000000000000000000000000000038
:1008C0000000000000000000000000000000000028
:1008D0000000000000000000000000000000000018
:1008E0000000000000000000000000000000000008
:1008F00000000000000000000000000000000000F8
:1009000000000000000000000000000000000000E7
:1009100000000000000000000000000000000000D7
:100920000000005201520000000000000000000022
:1009300000000000000000000000000000000000B7
:1009400000000000000000000000000000000000A7
:100950000000000000000000000000000000000097
:100960000000000000000000000000000000000087
:100970000000000000000000000000000000000077
:100980000000000000000000000000000000000067
:100990000000000000000000000000000000000057
:1009A00000000000000000000000000000000052F5
:1009B0000152000000000000000000000000005292
:1009C0000152025203520452000000000052005231
:1009D0000052005200520000000000000000000021
:1009E0000000000000000000000000000000000007
:1009F00000000000000000000100000000000000F6
:100A00000000000009520852075206520552000029
:100A10000000000000000000000000520000000084
:100A200000000000000000000000000000000000C6
:100A30000000000000000000000000520152000011
:100A4000000000000000000002E26003E20002E299
:100A50006003E2007F3F1F643214643214783C1E4E
:100A60001E140A0500000000000000000000000045
:100A70000000000000000000000000000000000076
:100A80000000000000000000000000000000000066
:100A90000000000000000000000000000000000056
:100AA0000000000000000000000000000000000046
:100AB0000000000000000000000000000000000036
:100AC0000000000000000000000000000000000026
:100AD0000000000000000000000000000000000016
:100AE0000000000000000000000000000000000006
:100AF00000000000000000000000000000000000F6
:100B000000000000000101010101010001010101DB
:100B100000000000000000000000000000000100D4
:100B200001000101010101010101010101010101B6
:100B300001010101010101010101010101010100A6
:100B400000000101000000000000000000000000A3
:100B50000000000000000000000000000000000194
:100B60000101010000000000000000002A2B280005
:100B7000000000000000000000000000000000294C
:100B8000000000002C1E3420212224342627252E8C
:100B9000362D3738271E1F202122232425263333C4
:100BA000362E37381F0405060708090A0B0C0D0EF0
:100BB0000F101112131415161718191A1B1C1D2FBC
:100BC0003130232D350405060708090A0B0C0D0EDC
:100BD0000F101112131415161718191A1B1C1D2F9C
:100BE0003130354C0000000000010101010101011C
:100BF00001010202020202020202020303030303D2
:100C0000030303040404040404050505050506069E
:100C100006060607070707080808080909090A0A57
:100C20000A0A0B0B0B0C0C0C0D0D0D0E0E0F0F0FFB
:100C30001010111111121213131414151516161782
:100C400017181819191A1A1B1C1C1D1D1E1F1F20EE
:100C5000202122222324252526272728292A2B2B39
:100C60002C2D2E2F2F30313233343536363738395C
:100C70003A3B3C3D3E3F4041424344464748494A57
:100C80004B4C4D4F50515253555657585A5B5C5E22
:100C90005F606263646667696A6C6D6E70717374BD
:100CA0007678797B7C7E8081838486888A8B8D8F21
:100CB00091929496989A9B9D9FA1A3A5A7A9ABAD4D
:100CC000AFB1B3B5B7B9BBBDBFC1C4C6C8CACCCF3D
:100CD000D1D3D6D8DADCDFE1E4E6E8EBEDF0F2F5EB
:100CE000F7FAFCFF6801F000B40078005A00000039
:100CF000000000003E5B4F5B3E003E6B4F6B3E00D2
:100D00001C3E7C3E1C00183C7E3C18001C577D5746
:100D10001C001C5E7F5E1C0000183C180000FFE7F2
:100D2000C3E7FF00001824180000FFE7DBE7FF001F
:100D300030483A060E00262979292600407F05050D
:100D40000700407F05253F005A3CE73C5A007F3EA4
:100D50001C1C0800081C1C3E7F0014227F2214006B
:100D60005F5F005F5F0006097F017F000066899575
:100D70006A0060606060600094A2FFA294000804B2
:100D80007E04080010207E20100008082A1C08009D
:100D9000081C2A0808001E10101010000C1E0C1E43
:100DA0000C0030383E383000060E3E0E06000000C3
:100DB0000000000000005F000000000700070000C6
:100DC000147F147F1400242A7F2A1200231308643E
:100DD0006200364956205000000807030000001C3E
:100DE000224100000041221C00002A1C7F1C2A0016
:100DF00008083E0808000080703000000808080855
:100E000008000000606000002010080402003E514D
:100E100049453E0000427F40000072494949460072
:100E20002141494D33001814127F100027454545D4
:100E300039003C4A4949310041211109070036492E
:100E400049493600464949291E00000014000000A7
:100E5000004034000000000814224100141414144F
:100E600014000041221408000201590906003E4105
:100E70005D594E007C1211127C007F4949493600B1
:100E80003E41414122007F4141413E007F49494965
:100E900041007F09090901003E41415173007F086B
:100EA00008087F0000417F4100002040413F0100D1
:100EB0007F08142241007F40404040007F021C0216
:100EC0007F007F0408107F003E4141413E007F09C2
:100ED000090906003E4151215E007F09192946009B
:100EE00026494949320003017F0103003F40404049
:100EF0003F001F2040201F003F4038403F00631448
:100F0000081463000304780403006159494D430049
:100F1000007F41414100020408102000004141418E
:100F20007F000402010204004040404040000003F2
:100F3000070800002054547840007F2844443800BB
:100F4000384444442800384444287F0038545454DA
:100F5000180000087E09020018A4A49C78007F08ED
:100F60000404780000447D4000002040403D000023
:100F70007F102844000000417F4000007C0478047A
:100F800078007C0804047800384444443800FC1895
:100F90002424180018242418FC007C0804040800E9
:100FA00048545454240004043F4424003C4040204E
:100FB0007C001C2040201C003C4030403C00442869
:100FC000102844004C9090907C004464544C4400A1
:100FD000000836410000000077000000004136089C
:100FE00000000201020402003C2623263C00030705
:100FF0001F7FFFFFFEF8F0C020F8FEFFFE79271FDD
:101000007FFFFFFEF8F0C020F8FEFFFF7F3F3F7F2D
:10101000FFFEF8F0C000000000000000000000002B
:1010200000000000000000000000000000000000C0
:1010300000000000000000000000000000000000B0
:1010400000000000000000000000000000000000A0
:101050000000000000000000000000000000000090
:10106000000000000000000000000000E0F0F0F0D0
:10107000E0ECEEF7F37020007C7C7C7E007E7E7ED0
:101080007F7F7F000080C0E07E5B4F5BFEC0000082
:10109000C000DCD7DEDEDED7DC00C00000000000D0
:1010A0000000000000000000000000000000000040
:1010B0000000C1F3CFBF7FFFFFFCFBE78100000012
:1010C0000080E3CF3FFFFFFFFCFBE7810000000053
:1010D00081E7FFFFFFFF3C00000000000000000070
:1010E0000000000000000000000000000000000000
:1010F00000000000000000000000000000000000F0
:1011000000000000000000000000000000000000DF
:1011100000000000000000000000000000000000CF
:101120000000000000000000000000000F1F3F7FD3
:101130007F7F7F7F3F1E0C001F1F1F3F003F3F3FF1
:101140007F7F7F00307B7F7830202030787F3B00AE
:1011500003000F7F0F0F0F7F0F0003000000000040
:1011600000000000000000000000000000006070AF
:101170007C7F7F7F7F1F0601030F3F7F7F7E7C7C0C
:101180007E7F7F7F1F0601070F3F7F7F7E7C7C7EF7
:101190007F7F3F0F03000000000000000000000000
:1011A000000000000000000000000000000000003F
:1011B000000000000000000000000000000000002F
:1011C000000000000000000000000000000000001F
:1011D000000000000000000000000000000000000F
:1011E00000000000000000000000000000000000FF
:1011F00000000000000000000000000000000000EF
:1012000000000000000000000000000000000000DE
:1012100000000000000000000000000000000000CE
:101220000000000000000000000000000000445624
:101230004F52414B00436F6C656D616B0051776598
:10124000727479004D6F757365004C4546540052B9
:1012500049474854005348494654005973747270C2
:101260000044656661756C740044564F52414B00F2
:10127000436F6C656D616B005177657274790059CD
:1012800073747270000A4C617965723A20000A002A
:101290000A0005010902A10185020901A100050951
:1012A0001901290515002501950575018102950192
:1012B000750381010501093009311581257F9502EA
:1012C0007508810609381581257F95017508810605
:1012D000050C0A38021581257F950175088106C025
:1012E000C005010906A101050719E029E715002538
:1012F000019508750181029501750881010508199C
:101300000129059505750191029501750391010566
:1013100007190029FF150026FF00950675088100B2
:10132000C009023B00020100A0C80904000001033B
:10133000010100092111010001224000070581037C
:1013400008000A090401000103000000092111013D
:101350000001224F000705820320000A120110013C
:1013600000000008EDFE60300100010203010403EB
:10137000300000001603480065006C00690078002A
:101380002000420065007400610000001403590051
:1013900075007300680061006B006F0062006F00F1
:1013A00000000403090411241FBECFEFDAE0DEBF02
:1013B000CDBF04B603FE27C080915E0390915F030A
:1013C000A0916003B09161038730904BA740B04B70
:1013D000D1F410925E0310925F031092600310929A
:1013E000610314BE84B7877F84BF0FB6F894A895B5
:1013F00080916000886180936000109260000FBE51
:10140000E0E0F8E3099511E0A0E0B1E0ECE7FFE6E9
:1014100002C005900D92A63EB107D9F723E0A6EED3
:10142000B1E001C01D92AE35B207E1F70E941B1377
:101430000C94BC370C9400008F929F92AF92BF9295
:10144000CF92DF92EF92FF920F931F93CF93DF9390
:1014500000D000D01F92CDB7DEB7FC010081D18053
:1014600083819481892B39F01FEFD11206C091E05E
:101470000F3F19F403C091E001C090E090FD81C7D7
:101480007F0185E0DE01119601900D928A95E1F7CA
:10149000F701228189819A81222349F00E94242C1C
:1014A000182F682F89819A810E949D2C03C00E9469
:1014B000712C182F26E4129FF001112437E0D39EDF
:1014C000E00DF11D1124E00FF11DEE0FFF1FE85795
:1014D000FE4F0591149181E080930001063F9CE549
:1014E000190709F4BFC0B8F4003FFCE51F0709F471
:1014F00076C030F4033C3CE5130709F47AC07AC4A3
:10150000043F8CE5180709F489C0053F9CE51907DD
:1015100009F493C06FC4093FECE51E0709F44BC002
:1015200048F4073F2CE5120771F0083F3CE513072C
:1015300091F060C40A3F9CE5190779F10B3FECE597
:101540001E07C9F057C4F7018281882309F4A4C09B
:1015500081E090E04BC0F7018281882331F082E086
:1015600090E00E94371E81E031C081E090E00E944F
:10157000371E81E00FC0F7018281882331F084E0BB
:1015800090E00E94371E82E021C081E090E00E943E
:10159000371E82E00E94D22C7FC0F70192819923EE
:1015A00041F09091E601911102C08093E60184E040
:1015B0000DC084E00FC0F7019281992351F0909102
:1015C000E601911102C08093E60183E00E94102D94
:1015D00063C083E00E94D22C1092E6015DC0F70147
:1015E0008281882309F458C080E290E00E94371E6F
:1015F00053C0F7018281882309F44EC080915802BC
:101600000E94671B0E94741B8091900286958F73C5
:1016100090E090935902809358023EC0F701828176
:10162000882349F08091650282FD02C081E90EC0E5
:101630008EE49AE010C081E912C0F701828188230C
:1016400069F08091650282FD04C080E90E94FB2F51
:1016500023C088E49AE00E94E21D1EC080E90E9437
:10166000BC2F1AC0F7018281882309F4C3C30E94EA
:101670007F1B8091900281608093900286958F738A
:101680000E94671B8091900286958F7390E09093E3
:10169000590280935802AEC380E0882309F471C6D2
:1016A0000C3CFCE51F0709F4CEC1E8F5F701828187
:1016B000043CFCE51F0709F408C1F8F405313CE5DA
:1016C000130778F402309CE5190708F058C2011599
:1016D000ECE51E0709F467C001301C4509F484C01D
:1016E00083C3023C2CE5120709F49DC008F0D3C067
:1016F00006311C4509F43EC377C3083CECE51E07E0
:1017000009F462C140F4063C2CE5120709F40AC151
:1017100008F4F5C029C10A3C9CE5190709F46FC11A
:1017200008F45FC188C1043DFCE51F0709F40DC240
:10173000C0F4F7018281003DFCE51F0709F4DFC119
:1017400040F40E3C3CE5130709F4C3C108F4AAC1F8
:10175000CBC1023DECE51E0709F4E7C108F4DAC18C
:10176000EFC1093D2CE5120709F4D9C260F4073D29
:101770008CE5180709F469C208F08AC2053D1C45CA
:1017800009F4FFC531C3F70182810D3DFCE51F0758
:1017900009F4EEC10E3D2CE5120779F10C3D1C4514
:1017A00009F022C3DFC1882309F4EBC51092C902F6
:1017B0000E949E2F8FEF94E3ECE081509040E04038
:1017C000E1F700C0000087E797E790930108809356
:1017D00000089AE088E10FB6F894A895809360001D
:1017E0000FBE90936000FFCF882309F4CAC5809193
:1017F0007F02816080937F02C4C5882309F4C1C53C
:101800000F900F900F900F900F90DF91CF911F913D
:101810000F91FF90EF90DF90CF90BF90AF909F908F
:101820008F900C949F2B882309F4ABC58091900274
:1018300080FF2BC08E7F8093900260919002709108
:10184000910280919202909193020E94411A10920B
:101850009602FFEF00E712E0F15000401040E1F780
:1018600000C000000F900F900F900F900F90DF912D
:10187000CF911F910F91FF90EF90DF90CF90BF908D
:10188000AF909F908F900C9422188160809390026B
:1018900086958F730BC1882309F473C58091C902A3
:1018A0008272D1F00F900F900F900F900F90DF91F8
:1018B000CF911F910F91FF90EF90DF90CF90BF904D
:1018C000AF909F908F900C946A1B882309F459C5A0
:1018D0008091C902827231F30F900F900F900F9098
:1018E0000F90DF91CF911F910F91FF90EF90DF90BC
:1018F000CF90BF90AF909F908F900C94741B8823D3
:1019000009F43FC520919002221F2227221F309107
:101910009102432F440F842F822B37FB992790F994
:101920000A9618C0882309F42CC520919002221F22
:101930002227221F30919102432F440F842F822BA4
:1019400037FB992790F98A3091051CF4825A9E4FF3
:1019500005C00A9768E671E00E946E3421E040916C
:101960009302609192021DC0882309F40AC5609118
:101970009202862F90E08F3E910514F46F5E01C0B5
:101980006FEF80919002881F8827881F90919102A5
:10199000392F330F97FB992790F921E0409193025B
:1019A000832B0F900F900F900F900F90DF91CF919E
:1019B0001F910F91FF90EF90DF90CF90BF90AF906D
:1019C0009F908F900C94531A882309F4DAC4609185
:1019D0009202862F90E0419714F06151D2CF60E0DF
:1019E000D0CF882309F4CDC440919302842F90E096
:1019F0008F3E910514F44F5E0EC04FEF0CC088234C
:101A000009F4BFC440919302842F90E0419714F0F1
:101A1000415101C040E080919002881F8827881FB3
:101A200090919102392F330F97FB992790F921E07C
:101A300060919202B5CF882309F4A3C480919402E7
:101A400090E001960DC0F7018281882309F499C4C2
:101A50008091940290E0019797FF02C080E090E0AF
:101A60008430910514F083E090E0809394026091BB
:101A700090027091910280919202909193020F9046
:101A80000F900F900F900F90DF91CF911F910F91BA
:101A9000FF90EF90DF90CF90BF90AF909F908F908E
:101AA0000C94411A882309F46CC481E00F900F90C4
:101AB0000F900F900F90DF91CF911F910F91FF909A
:101AC000EF90DF90CF90BF90AF909F908F900C944D
:101AD000671B882309F455C40E94021A8250833080
:101AE00008F4FACE82E0E2CF882309F44AC40E94C7
:101AF000021A8650823008F4EFCE86E0D7CF8823D2
:101B000009F43FC40E94021A8950853008F4E4CEDB
:101B100089E0CCCF882309F434C40E94021A8F5084
:101B2000853008F4D9CE8FE0C1CF882309F429C4C9
:101B30000E94021A8551823008F4CECE85E1B6CFDC
:101B4000882309F41EC488E1B1CFF701828188237C
:101B500009F417C40E94021A8951893008F4BCCED6
:101B600089E1A4CF882309F40CC41092FD0109C4B3
:101B7000882309F406C482E08093FD0102C488230F
:101B800009F43AC10E94942B811102C00E949F2B3C
:101B900084E090E00E94C93090E0909366028093C8
:101BA0006502F801E350FC45E231F10530F4EA5AF0
:101BB000FF4F809165020C948234809165028160B0
:101BC00027C0826025C0846023C0806121C08062FC
:101BD0001FC080641DC080681BC08460886018C0FE
:101BE0008E7F16C08D7F14C08B7F12C08F7E10C079
:101BF0008F7D0EC08F7B0CC08F770AC08B7F877F55
:101C000007C087FB222720F991E0922790FB87F9F4
:101C1000809365026091650284E090E00E94DD306F
:101C20001092C9020F900F900F900F900F90DF91BC
:101C3000CF911F910F91FF90EF90DF90CF90BF90C9
:101C4000AF909F908F900C949E2FF70182818823F4
:101C500051F01092EC010E942F2B9093E901809398
:101C6000E80182E022C08091EC0181110FC08091D7
:101C7000E8019091E9010E94052B8436910530F42A
:101C800086E20E94FB2F86E20E94BC2F82E034C0D5
:101C9000F70182818823E1F01092ED010E942F2B41
:101CA0009093EB018093EA0180E20F900F900F90E8
:101CB0000F900F90DF91CF911F910F91FF90EF90B8
:101CC000DF90CF90BF90AF909F908F900C94B22FE9
:101CD0008091ED0181110FC08091EA019091EB019B
:101CE0000E94052B8436910530F487E20E94FB2F79
:101CF00087E20E94BC2F80E20F900F900F900F9010
:101D00000F90DF91CF911F910F91FF90EF90DF9097
:101D1000CF90BF90AF909F908F900C94A72FF7011A
:101D200082818111B9CF8091ED018111E4CF809141
:101D3000EA019091EB010E94052B84369105D8F6BB
:101D400080E20E94A72F88E20E94FB2F88E20F907A
:101D50000F900F900F900F90DF91CF911F910F91E7
:101D6000FF90EF90DF90CF90BF90AF909F908F90BB
:101D70000C94BC2F882391F08091C9028A7A91E05B
:101D800009F490E09093E701811102C069E201C07B
:101D900065E380EE92E00E947A2B13C08091E70108
:101DA000811102C089E201C085E3E0EEF2E026EE97
:101DB00032E09281891301C0128231962E173F07BB
:101DC000C1F70F900F900F900F900F90DF91CF9170
:101DD0001F910F91FF90EF90DF90CF90BF90AF9049
:101DE0009F908F900C94F72B81E08093EC0180936F
:101DF000ED0102C081E051CCF701828100811181A7
:101E0000882349F0C8010E94242CD82E682FC801CD
:101E10000E949D2C04C0C8010E94712CD82EB801CC
:101E20008D2D0E948F1B8C01982EF701A580A29406
:101E30009FE0A922B280B110109253038091510308
:101E4000877079F0BB2069F080E2800F883048F01D
:101E500082E00E94F72C809151038770CC24C394B8
:101E60008111C12CD12ED2948FE0D8228D2D90E0FB
:101E70008C30910508F052C2FC01E859FF4F0C94D8
:101E80008234812F807F1F70882311F01295107F7C
:101E9000BB20B9F0112309F42CC280E2800F8830F6
:101EA00010F0911006C08091C902182B1093C9023E
:101EB00005C080915303182B109353030E94F72BF6
:101EC00018C2802F0E94BC2F112309F427C2005E84
:101ED0001095083010F0911006C08091C9021823A7
:101EE0001093C90205C08091530318231093530324
:101EF0000E94F72B13C2812F807F1F70803211F058
:101F00001295107F992021F0F1E09F16E1F027C093
:101F1000BB2081F080915403AA2051F001E0A0126F
:101F200007C0182B181709F4F9C110935403F6C110
:101F3000812B69C1AA2021F021E0A21609F4EEC18B
:101F40000E94F12B1AC0BB2029F035E03A1508F4A5
:101F5000E5C10FC084E08A1508F4E0C10EC0BB20C3
:101F600051F0AA2031F0F701858180FFC2C18F7046
:101F70008583812F48C1A110CEC1812F4AC1BB20CA
:101F8000F9F0053F51F0063F71F0043FA9F480914C
:101F9000EE019091EF0181600BC08091EE01909174
:101FA000EF01826005C08091EE019091EF018460A5
:101FB0009093EF018093EE01802F0E94772A1EC03C
:101FC000053F51F0063F71F0043FA9F48091EE0106
:101FD0009091EF018E7F0BC08091EE019091EF0107
:101FE0008D7F05C08091EE019091EF018B7F9093E2
:101FF000EF018093EE01802F0E94AD290E943B2BC0
:1020000098C1812F837009F071C0B11090C1802FE9
:10201000829586958770880F880F402F4F7050E00B
:1020200060E070E04A015B01082E04C0880C991C36
:10203000AA1CBB1C0A94D2F704FF10C04FE050E06A
:1020400060E070E004C0440F551F661F771F8A953B
:10205000D2F7409550956095709503C040E050E0F0
:10206000BA01812F86958695837000915503109152
:1020700056032091570330915803823099F0E8F4C9
:10208000813059F0482959296A297B29CB01BA01A5
:10209000602371238223932326C0802A912AA22AB7
:1020A000B32A1BC0482959296A297B29CB01BA01C7
:1020B000602771278227932716C0CB01BA016023BE
:1020C0007123822393230E94312D40915503509117
:1020D00056036091570370915803CB01BA016829E8
:1020E00079298A299B290E94312D21C1BB2019F011
:1020F000812F817001C08695882309F418C1802F33
:10210000829586958770880F880F402F4F7050E01A
:1021100060E070E04A015B01082E04C0880C991C45
:10212000AA1CBB1C0A94D2F704FF10C04FE050E079
:1021300060E070E004C0440F551F661F771F8A954A
:10214000D2F7409550956095709503C040E050E0FF
:10215000BA01812F86958695837000914D03109169
:102160004E0320914F0330915003823099F0E8F4F0
:10217000813059F0482959296A297B29CB01BA01B4
:10218000602371238223932326C0802A912AA22AC6
:10219000B32A1BC0482959296A297B29CB01BA01D6
:1021A000602771278227932716C0CB01BA016023CD
:1021B0007123822393230E94C82C40914D03509198
:1021C0004E0360914F0370915003CB01BA0168290F
:1021D00079298A299B290E94C82CA9C0802F90E0C8
:1021E000FC01E05EF109E531F10508F07DC0EC5835
:1021F000FF4F0C9482340F70812F8F71BB2031F010
:102200000E94102D802F0E94B22F88C00E94D22CD5
:10221000802F0E94A72F82C0BB2019F1F4E0FA158D
:1022200008F47CC01F7181E090E0A0E0B0E0AC0158
:10223000BD0104C0440F551F661F771F1A95D2F7C2
:1022400080914D0390914E03A0914F03B0915003A4
:102250008A019B01082719272A273B27C901B801B2
:1022600021C025E02A1508F459C0DCCFBB2029F095
:10227000812F8F712CC0BB20D9F3812F8F710E94C9
:10228000D22C4CC0BB2089F01F7181E090E0A0E00F
:10229000B0E0BC01CD0104C0660F771F881F991FF5
:1022A0001A95D2F70E94C82C39C060E070E0CB01CB
:1022B000F9CFBB2079F01F71812F0E94102D38E0DB
:1022C000139FC0011124836080935103812F0E94CA
:1022D000102D24C081E00E94F72C81E08A15F0F4D3
:1022E00082E00E94F72C1AC0BB2039F0AA2009F422
:1022F000BFCF802F0E94FB2F11C0AA2009F4BDCFB1
:10230000093349F49FEFE7EEF3E09150E040F040ED
:10231000E1F700C00000802F0E94BC2F08E0D0161B
:1023200031F0D01630F086EF8D0D823010F40E941F
:102330001618CC2031F18091510380FD22C0F701A5
:1023400012828595859585950E94102DC7010E9462
:102350001C0A809151038595859585950F900F9066
:102360000F900F900F90DF91CF911F910F91FF90E1
:10237000EF90DF90CF90BF90AF909F908F900C9494
:10238000D22C0F900F900F900F900F90DF91CF9164
:102390001F910F91FF90EF90DF90CF90BF90AF9083
:1023A0009F908F900895089508952091FD01211127
:1023B00003C02091D60202C0223011F02430F1F483
:1023C00022E02093E9002FEF3091E800215035FD05
:1023D00006C035ED3A95F1F700002111F5CF2091B7
:1023E000E80025FF0BC040E050E066E070E00E948E
:1023F00008258091E8008E778093E8000895CF93B8
:10240000DF932091FD01211103C02091D60202C06B
:10241000223011F0243039F521E02093E9002FEF2C
:102420003091E800215035FD06C035ED3A95F1F7C1
:1024300000002111F5CF2091E80025FF14C0EC0128
:1024400040E050E068E070E00E9408258091E800DC
:102450008E778093E80088E0FE01ACECB2E001905A
:102460000D928A95E1F7DF91CF9108952091E400D4
:102470003091E50095E64091EC00842F817040FF9B
:1024800023C08091E80080FD1DC08091D602882382
:1024900099F0853099F08091EB0085FD11C0409155
:1024A000E4005091E5002417350729F3915011F00D
:1024B0009A01E1CF84E0089582E0089583E00895D1
:1024C00081E0089580E008954091E80042FFDDCF6B
:1024D00008958091D80287FF11C08091E80082FDA5
:1024E00005C08091D6028111F8CF11C08091E8001B
:1024F0008B770BC08091D602882349F08091E80049
:1025000080FFF8CF8091E8008E778093E8000895EF
:10251000982F973068F59093E900981739F07091EB
:10252000EC002091ED005091F00003C0242F762F95
:1025300050E021FD02C09F5FECCF3091EB003E7F69
:102540003093EB003091ED003D7F3093ED00309102
:10255000EB0031603093EB007093EC002093ED00C2
:102560005093F0002091EE0027FDE5CF80E0089524
:102570008F708093E90081E008952091DE02309110
:10258000DF022617370748F06115710539F42091ED
:10259000E8002E772093E80001C0B901FC0120E09B
:1025A0006115710579F18091D6028823F1F18530AA
:1025B000F1F18091E80083FD3CC08091E80082FD4C
:1025C0002EC08091E80080FFEBCF2091F300809136
:1025D000F20090E0922B6115710551F08830910561
:1025E00038F421912093F100615071090196F3CFE5
:1025F00021E0089709F020E08091E8008E77809331
:10260000E800CECF2111CFCF0AC08091D602882317
:1026100061F0853061F08091E80083FD0AC080910F
:10262000E80082FFF2CF80E0089582E0089583E021
:10263000089581E00895CF93DF93CDB7DEB72A9751
:102640000FB6F894DEBF0FBECDBF84B7877F84BFBF
:102650000FB6F894A895809160008861809360001F
:10266000109260000FBE80E88093610010926100BC
:1026700085B7806885BF85B7806885BF0E94461E84
:10268000809301010E94461E882361F082E091E060
:10269000909300028093FF0183E08093FE01529AA1
:1026A0005A9A11C082E091E0909300028093FF015A
:1026B00083E08093FE0152985A9AEA9A80916900C9
:1026C0008F7C8093690078940E944F280E946E2826
:1026D0008091E20084608093E20078948091D60239
:1026E0008823A1F01091E9001F709091EC00892FD0
:1026F000817090FD80E8182B1092E9008091E8002D
:1027000083FD0E9434251F701093E90082E084BD90
:1027100093E095BD9AEF97BD80936E0080917F0204
:102720008360886080937F020E94531EA1E8B1E01D
:1027300041E050E08D91E82FE295EF70F0E021A1AB
:102740008F70BA0102C0660F771F8A95E2F7CB013E
:10275000962F9095922391A392A1892B82A371E049
:10276000A838B70739F7559A209A5D9A289AABE5A9
:10277000B2E085E792E0EBE6F2E011921D928E174F
:102780009F07D9F70E94461E80935A020E94942BFD
:10279000811102C00E949F2B8091900286958F73B9
:1027A00090E090935902809358020E94461E182F81
:1027B0001092B9008CE08093B8008EEA0E94CC2180
:1027C000882309F4AFC060E885ED0E94A524882322
:1027D00009F4A8C06FE188EA0E94A524882309F4BF
:1027E000A1C060E083ED0E94A524882309F49AC06B
:1027F00080E40E94CC21882309F494C064E18DE830
:102800000E94A524882309F48DC060E080E20E9424
:10281000A524882309F486C0111114C080EA0E94FF
:10282000CC21882309F47EC080EC0E94CC2188232F
:1028300009F478C062E08AED0E94A524882309F497
:1028400071C008C081EA0E94CC21882309F46AC0C3
:1028500088ECEBCF6FE881E80E94A524882309F477
:1028600061C061EF89ED0E94A524882309F45AC054
:1028700060E48BED0E94A524882309F453C084EA08
:102880000E94CC21882309F44DC086EA0E94CC2105
:10289000882309F447C08EE20E94CC21882309F4E2
:1028A00041C08FEA0E94CC218823E1F160E081E8F9
:1028B0000E94A5248823B1F144E550E060E270E075
:1028C00081E092E00E94B43481E092E0909356025D
:1028D0008093550281E08093570263E082E20E9478
:1028E000D7248823D9F06FE781E20E94D724882378
:1028F000A9F00E94B224811111C080E40E94BD2180
:1029000081110CC004E010E080E00E94BD211F5F37
:102910001038D1F70150B9F7109257020E94A82140
:102920000E94E2210E94942B811102C00E949F2BE1
:1029300082E090E00E94C93080937F0284E090E0C2
:102940000E94C93090E0909366028093650283E014
:1029500090E00E94C930682F70E080E090E00E9413
:10296000312D80916702811139C080917F02816091
:1029700080937F020E94942B811104C00E949F2BA0
:102980000E947F1B88E090E00E94D130609390020B
:102990007093910280939202909393026E7771F4F8
:1029A0000E947F1B88E090E00E94D13060939002EB
:1029B0007093910280939202909393020E940B1A5B
:1029C000109296028091900280FF05C0869560E08B
:1029D0008F730E94181B81E0809367028AE191E067
:1029E0009093690280936802BB24BA94EE24E39426
:1029F000F12CE8E1CE2ED12C8091D602853009F061
:102A000037C08091D602843011F110926A0280E4BE
:102A10000FB6F894A895C09260000FBE8093600036
:102A200083B7817F846083BF83B7816083BF7894DD
:102A3000889583B78E7F83BF0FB6F894A895809151
:102A40006000886180936000109260000FBE8091EA
:102A5000D502882309F4D0CF0E94CF23EBE6F2E021
:102A60008191811167C182E0E537F807C9F7C4CFCA
:102A70000E94CF23E0E8F2E0ABE6B2E000E010E035
:102A8000702F6D9121912627A9F180E090E030E030
:102A9000A901082E02C0559547950A94E2F740FF18
:102AA00025C089837A83F70102C0EE0FFF1F8A9544
:102AB000E2F74F01862F90E08E239F2321E0892BA0
:102AC00009F420E02B830E942F2B8160782F9D83B7
:102AD0008C8349815A816B818D810E944C17F8014A
:102AE000E058FD4F80818826808219C0019687308A
:102AF000910571F60F5F1F4F0A30110509F0C0CF25
:102B0000BE82BF8218860E942F2B8160782F9A8701
:102B100089874E815F8168858A850E944C178091E4
:102B20007C0290917D020E94052B80917B02909106
:102B300077021091780291110BC0111111C12091EF
:102B4000790221110DC120917A02211109C15AC0C7
:102B50008F3F19F08F5F80937B02191624F40E9437
:102B6000542A809377028091770287FF05C00E94E4
:102B7000542A819580937702111624F40E94542AD6
:102B8000809378028091780287FF05C00E94542AC2
:102B900081958093780230917702332379F02091E8
:102BA0007802222359F045EB3403C001112490939D
:102BB00077022403C0011124909378028091790256
:102BC000181624F40E94322A8093790280917902A7
:102BD00087FF05C00E94322A8195809379028091F7
:102BE0007A02181624F40E94322A80937A02809185
:102BF0007A0287FF05C00E94322A819580937A026B
:102C00000E943B2B0E94161890917E02891721F09A
:102C10000E94161880937E0280919602882309F400
:102C2000EBCE80919502E0919002E695EF73E81B60
:102C3000E0938C02823059F4F0E0E05AF54FE491D1
:102C40000E2F10E062EC862E69E1962E45C086308C
:102C500059F4F0E0E35AF54FE4910E2F10E05BEAEF
:102C6000852E59E1952E38C0893061F4E695F0E063
:102C7000E65AF54FE4910E2F10E04BE3842E49E124
:102C8000942E2AC08F3061F4E695F0E0E95AF54FB2
:102C9000E4910E2F10E03EEC832E38E1932E1CC001
:102CA000853159F4F0E0EC5AF54FE4910E2F10E025
:102CB00025E7822E28E1922E0FC0883139F408EEE4
:102CC00013E09EE3892E98E1992E06C000ED17E0EF
:102CD00084EB882E86E1982E80918D02882389F0DE
:102CE00010928D020E942F2B980120953095820F13
:102CF000931F90938B0280938A0210928F021092FE
:102D00008E0280918A0290918B020E94052B80177F
:102D1000910708F471CEE0918A02F0918B020E0FB8
:102D20001F1F10938B0200938A028AE892E0F4013D
:102D3000099562CE80E189BD82E189BD09B400FEBA
:102D4000FDCF8091D8008F7D8093D8008091E000E6
:102D500082608093E0008091E00081FDFCCF4CCE4A
:102D60008F3F09F0F7CE08CF0895EF92FF920F93AF
:102D70001F93CF93DF93E901662309F44BC0242FFF
:102D800030E0EFEFF0E0E61BF109B901E69F9001BA
:102D9000E79F300DF69F300D1124232F8B01031B6D
:102DA00011095CE3E52EF12CB7010E945A34FB01B6
:102DB000BC01069FC001079F900D169F900D112426
:102DC000B7010E945A34E230F105B1F040F4309777
:102DD00079F0319711F5832F242F461B21C0E43061
:102DE000F105A1F068F03597C1F4842F861B18C057
:102DF000832F262F230F14C0862F830FE42F03C0A9
:102E0000E42FE61B842F432F2E2F0AC0842F462F3A
:102E1000430F06C0842F242F03C080E020E040E051
:102E2000E42FF0E0EC51F44F4491E22FF0E0EC514C
:102E3000F44F9491E82FF0E0EC51F44FE491498382
:102E40009883EA83DF91CF911F910F91FF90EF90CC
:102E500008959091650292FF0DC0282F28712830A7
:102E600019F4877F846006C0282F2471243011F460
:102E70008B7F886093FF0DC0282F2871283119F4AB
:102E8000877E846106C0282F2471243111F48B7E43
:102E9000886194FD877E08951F93CF93DF93CDB70C
:102EA000DEB767970FB6F894DEBF0FBECDBF4B8B72
:102EB0005C8B6D8B7E8B8F8B86E09E01235F3F4FFB
:102EC000D901E82F1D92EA95E9F795E0FE01739686
:102ED000D90101900D929A95E1F7F901DE0117965B
:102EE00001900D928A95E1F7CE0107960E94D62DAA
:102EF00081113EC086E0FE013796DE0111960190F9
:102F00000D928A95E1F7FF81E8856A857B856115D9
:102F1000710531F0EF3F31F481E0FF3F19F403C058
:102F200081E001C080E080FD23C02091EE0230E00E
:102F3000C90101968770992740911F0350E08417BB
:102F4000950779F1F983EA837D836C8396E0929FFC
:102F5000D001939FB00D1124A151BD4FFE013196B8
:102F600001900D929A95E1F78093EE020E943B2D1D
:102F700016E080911F039091EE02891709F1189FC6
:102F8000C001112481519D4F0E94D62D8823C1F08C
:102F900080911F0390E001968770992780931F030B
:102FA000E8CF1092C9020E949E2F1092EE0210925A
:102FB0001F03E8EEF2E086E0DF011D928A95E9F753
:102FC00067960FB6F894DEBF0FBECDBFDF91CF91ED
:102FD0001F9108952091AD023091AE022817390754
:102FE00071F09093AE028093AD02E0916802F0918F
:102FF0006902309721F00084F185E02D099408954D
:103000002091AB023091AC022817390771F09093F0
:10301000AC028093AB02E0916802F09169023097B4
:1030200021F00680F781E02D09940895E09168026F
:10303000F0916902309721F00190F081E02D099420
:1030400080E008958091900280FD0AC0E9E9F2E0F5
:10305000118210821282339692E0EB3AF907C1F79F
:10306000539A62E170E089E992E00E94E92487ECDA
:1030700090E00197F1F700C000000895EF92FF92F1
:103080000F931F93CF93DF93EC018C819D81019669
:10309000817099279D838C8389E9E82E82E0F82E40
:1030A00010E008E7212F26958C819D81820F911DCC
:1030B0008170992797014091930260919202FC01DF
:1030C0000E9FC0010F9F900D11240E94B5161F5F27
:1030D000F3E0EF0EF11C163029F7DF91CF911F912D
:1030E0000F91FF90EF900C9422180F931F93CF93A2
:1030F000DF93C9E9D2E0FE01118210821282339679
:1031000082E0EB3AF807C1F700E010E08091980206
:10311000082E000C990B08171907ECF0809130016C
:10312000082E000C990B80179107ACF0809190024B
:10313000881F8827881F90919102592F550F97FB60
:10314000992790F99E014091930260919202852BFC
:103150000E94B51603C0198218821A820F5F1F4F92
:1031600023960630110591F60E94221880912F01B6
:1031700090919802980F9093980220913001280F17
:1031800020933001121614F495301CF08195809331
:103190002F01DF91CF911F910F910895CF92DF9270
:1031A000EF92FF920F931F93CF93DF93FC018281E5
:1031B00080FF03C0DD24DA9402C0DD24D39409E942
:1031C00012E0C0E0D0E0F80111821082128294E097
:1031D000E92EF12CC12C809197028C0D87FD8A5F1E
:1031E000082E000C990BC817D907E9F480919302B7
:1031F0008E9DA0018F9D500D112455954795559595
:10320000479580919002881F8827881F909191028E
:10321000592F550F97FB992790F9980160919202C9
:10322000852B0E94B516CD0CF1E0EF1AF10899F646
:1032300021960D5F1F4FC630D10529F60E94221836
:103240008091970291E0D91206C0811102C085E0F9
:1032500007C0815005C090E00196BE010E946E3407
:1032600080939702DF91CF911F910F91FF90EF9084
:10327000DF90CF900895CF92DF92EF92FF920F935D
:103280001F93CF93DF93EC0189E9E82E82E0F82EBB
:1032900000E010E098E6C92EDD24D3948C819D8156
:1032A000800F911FB6010E946E34970140919302E6
:1032B000609192020E94B516045C1F4F83E0E80EF5
:1032C000F11C083681E0180749F70E9422182A816C
:1032D0008C819D8120FF05C00196B8010E946E344B
:1032E00007C0181619061CF087E691E001C0019787
:1032F0009D838C83DF91CF911F910F91FF90EF9071
:10330000DF90CF900895CF93DF9300D01F92CDB779
:10331000DEB72091900220FF18C09E012F5F3F4F23
:103320000E94B5168091900280FF0FC08B81998119
:103330002A81E9E9F2E0218390838283339632E0A7
:10334000EB3AF307C1F70E9422180F900F900F90ED
:10335000DF91CF910895CF93DF93EC01E0E9F2E0A4
:10336000438162818C819D810E9483198C819D8122
:10337000019668E671E00E946E349D838C83DF9134
:10338000CF910895CF93DF93EC016C8170E080E0E2
:1033900090E00E945B3220E030E04FE753E40E946F
:1033A0007E312BED3FE049E450E40E9484330E94DB
:1033B000F1330E94F8312BE43AE34EE25FE30E94DE
:1033C000113120EF3BEF48ED52E40E9484330E941C
:1033D0002A32462FE0E9F2E08081881F8827881F83
:1033E00090919102292F220F97FB992790F96281E2
:1033F000822B0E9483198C8190E001968C83DF914F
:10340000CF9108958091900280FF03C086958F73BD
:10341000089580E0089580919002282F26952F73BB
:1034200030E02115310519F48178826005C023321E
:10343000310524F081788464809390023091900269
:10344000432F441F4427441F20919102522F550FB0
:10345000852F842B27FB992790F9893641E0940723
:103460007CF068E671E00E946E3480FB37F930939F
:10347000900286952078822B90FB87F980939102A9
:103480000895CF92DF92EF92FF926B017C010E9430
:103490000B1AB701A60188E090E0FF90EF90DF9053
:1034A000CF900C94EF305F926F927F928F929F92A9
:1034B000AF92BF92CF92DF92EF92FF920F931F9342
:1034C000CF93DF9300D01F92CDB7DEB78C01E62EED
:1034D000F42E522E8091900280FF97C0E82FE6953F
:1034E000EF73AE2FB0E0AE56BE4F9C919093950215
:1034F000282F2E772230C1F49E012F5F3F4FC80145
:103500000E94B5168091900280FF5FC08B819981E7
:103510002A81E9E9F2E0218390838283339632E0C5
:10352000EB3AF307C1F74FC0923019F4F0909302D1
:103530004CC0963069F4881F8827881F90919102AB
:10354000292F220F022F082B97FB112710F93DC0BE
:10355000993089F39931C9F5E951E0FD02C021E0C4
:1035600001C02FEFE695F0E0EE0FFF1FEC51F34F97
:103570008591949166E070E00E945A3426034001E0
:10358000279F900C1124580188E9A81A8EEFB80AD9
:1035900099E9C92E92E0D92E28E6622E77247394F9
:1035A000C501B3010E945A3496014F2D6E2D0E9421
:1035B000B516A80CB91C33E0C30ED11C8BEAC81693
:1035C00082E0D80669F70E9422188091900200FBE1
:1035D00087F980939002902F969580919102807840
:1035E000892B10FB87F980939102E0929202F0926E
:1035F0009302552051F06091900270919102809158
:103600009202909193020E94411A0F900F900F9096
:10361000DF91CF911F910F91FF90EF90DF90CF90AE
:10362000BF90AF909F908F907F906F905F90089524
:103630009091900290FF4AC09178811102C09260EF
:1036400007C0833210F0946403C08F73880F982BE7
:1036500090939002662351F06091900270919102D4
:1036600080919202909193020E94411A609190027F
:1036700066956F7370E04BE050E084E291E00E9449
:103680008834892B19F01092960209C081E080934A
:1036900096020E942F2B90938B0280938A0281E0E6
:1036A00080938D0280919002881F8827881F9091B7
:1036B0009102392F330F97FB992790F920E0409121
:1036C000930260919202832B0C94531A089561E047
:1036D0000C94181B8091900286958F73815009F489
:1036E00082E261E00C94181B8091900286958F73A2
:1036F0008F5F833208F081E061E00C94181BE0E9F1
:10370000F2E083E08083109291028FEF82838383C3
:10371000148260817181828193810C94411ACF93CC
:10372000DF9326E4829FC0011124FC0137E0739FE0
:10373000E00DF11D1124E60FF11DEE0FFF1FE857FC
:10374000FE4FC591D491CE01C238D10549F1B0F4F4
:10375000C133D10509F464C048F4C932D10509F474
:1037600058C0CA32D10509F462C068C0C533D1055A
:1037700009F448C0C933D10599F060C0C33ED105F2
:1037800041F138F4C03ED10591F0C23ED105B1F00F
:1037900055C0C63ED10521F1C73ED10561F14EC0ED
:1037A0002091650220FD09C221FD07C208C22091B7
:1037B000650220FF04C289E390E001C22091650206
:1037C00022FFFDC18091650284FDA9C183EE90E0D6
:1037D000F6C18091650282FFF5CF82EE90E0EFC1E5
:1037E0002091650223FFEBC18091650284FD97C1A2
:1037F00087EE90E0E4C18091650283FFF5CF86EE0D
:1038000090E0DDC12091650225FFD9C189E290E0F9
:10381000D6C12091650225FFD2C185E390E0CFC1DA
:103820002091650226FFCBC18AE290E0C8C12091B9
:10383000650226FFC4C181E390E0C1C1C11540E526
:10384000D40708F049C0C11520E4D20708F030C100
:10385000C83ED10520F5C03ED10508F0B0C1C83A38
:10386000D10570F4C53AD10508F0ADC0C130D1051D
:1038700009F4A5C108F453C1249708F450C19FC1AD
:10388000CF3BD10508F4AAC0C03CD10508F447C11C
:10389000CE01880F991FFC01EC59F54FFEC0C115F0
:1038A00030E2D30760F4C11541E0D40708F087C1C6
:1038B000C03FD10508F433C1CE01906580C1C11568
:1038C00080E3D80708F0ECC0CE019F70FC01EE0F3A
:1038D000FF1FEC51F44FE1C0C11525E5D20708F0F8
:1038E00045C0C11534E5D30708F0FAC0C11542E55B
:1038F000D40718F5C11581E5D80708F0DDC0CE0161
:1039000074E0969587957A95E1F7282F23703C2FE0
:10391000337081E090E002C0880F991F3A95E2F77A
:103920009C68922BEC2FEF70E695E69520E2E29FE3
:10393000F00111248E2B9F2B42C1AE0143705527FD
:103940002C2F26952695C115D34508F0BAC081E0E5
:1039500090E002C0880F991F4A95E2F740E2249F49
:1039600090011124822B932B9C6829C1C11549E534
:10397000D40798F4C11588E5D80708F0B6C0C1157A
:1039800026E5D20708F0CBC08C2F0E9429178F7133
:1039900090E0982F8827906212C1C1153AE5D307AD
:1039A00008F4A8C0CE0190568115904208F0B7C027
:1039B0008D2F8F710E942917FE01FF27F0628F71F2
:1039C0009F01382BAAC0C53AD10509F4ABC0C63A4D
:1039D000D10509F0AAC082E890E4F1C0C83AD10547
:1039E00009F4A6C0C93AD10509F4A5C0CA3AD1055F
:1039F00009F4A4C0CB3AD10509F4A3C0CC3AD1054F
:103A000009F4A2C0CB3BD10509F4A1C0CC3BD10540
:103A100009F4A0C0CD3AD10509F49FC0C03BD1053F
:103A200009F49EC0CE3AD10509F49DC0CF3AD10524
:103A300009F49CC0C13BD10509F49BC0C23BD10530
:103A400009F49AC0C33BD10509F499C0C43BD10520
:103A500009F498C0C53BD10509F497C0C63BD10510
:103A600009F496C0C73BD10509F495C0C83BD10500
:103A700009F494C0C93BD10509F493C0CD3BD105ED
:103A800009F492C0CE3BD10509F491C0CA3BD105DF
:103A900009F490C080E094E492C0859194918FC025
:103AA000CE019927D3FF02C0986C89C0906C87C063
:103AB000CE019F70906A83C09C2F8827816F906A87
:103AC0007EC081E090E002C0880F991F4A95E2F71E
:103AD00040E2249F90011124822B932B9A686FC09F
:103AE0009C2F8827846F906A6AC09C2F8827806FDC
:103AF000906A65C08C2F8F700E942917FE0194E098
:103B0000F695E7959A95E1F7EF70F0E0FE2FEE2736
:103B1000F06A8F70806E9F01282BC90150C080E031
:103B200090E04DC081E890E44AC083E890E447C04B
:103B300082EE94E444C089EE94E441C08AEE94E4B9
:103B40003EC085EB94E43BC086EB94E438C083EB45
:103B500094E435C084EB94E432C087EB94E42FC046
:103B60008CEC94E42CC08DEC94E429C083E895E4BB
:103B700026C08AE895E423C082E995E420C084E960
:103B800095E41DC081E296E41AC083E296E417C072
:103B900084E296E414C085E296E411C086E296E4DD
:103BA0000EC087E296E40BC08FE694E408C080E77D
:103BB00094E405C08AE296E402C080EE90E0DF91D2
:103BC000CF910895FF920F931F93CF93DF938C01B2
:103BD000F8012491222309F444C0C8010196213040
:103BE00041F48C01FC01C4918C2F0E94FB2F8C2F7F
:103BF00033C0223031F48C01FC0184910E94FB2FF0
:103C00002DC0233021F48C01FC01849125C030E0CB
:103C1000F901EC59F44FF490F901EC51F54FD491BE
:103C2000F901EC59F54FC491DD2319F081EE0E94A2
:103C3000FB2FCC2319F086EE0E94FB2F8F2D0E94C4
:103C4000FB2F8F2D0E94BC2FCC2319F086EE0E94F3
:103C5000BC2FDD2319F081EE0E94BC2F0F5F1F4F98
:103C6000B7CFDF91CF911F910F91FF900895CF9320
:103C7000DF93EC01682F83E090E00E94DD30BE010D
:103C800080E090E0DF91CF910C94312DE8EDF0E0F1
:103C90008081806180838AE18A95F1F700C08091FC
:103CA000D90081700895CF93DF93A8E8B1E04DE883
:103CB00051E061E070E08D91E82FE295EF70F0E067
:103CC00021A18F70EB0102C0CC0FDD1F8A95E2F7B6
:103CD000CE019C2F9095922391A392A1892B82A330
:103CE0004A175B0741F7DF91CF9108958EE14A9B18
:103CF00002C08150E1F74A9BFECF0895615091E0E8
:103D000001C0990F6A95EAF720E031E0992361F04C
:103D1000492F482319F05A9A232701C05A9840E2A4
:103D20004A95F1F79695F2CF222311F05A9A01C0E5
:103D30005A9880E28A95F1F75A980895FC012AE092
:103D40002A95F1F790E020E080E031E0261779F045
:103D500040E14A95F1F7880F4A9B02C081609327A2
:103D600000C0000040E14A95F1F72F5FEFCF20E15E
:103D70002A95F1F729B100C0000030E13A95F1F73A
:103D800022FB222720F992272081920F9083089509
:103D9000EF92FF920F931F93CF93DF931F92CDB7B4
:103DA000DEB719828C017C01E60EF11C0E151F0591
:103DB00059F00E94761E68E0CE0101960E949E1E78
:103DC000F80181938F01F2CF81E09981911180E018
:103DD0000F90DF91CF911F910F91FF90EF90089579
:103DE0005A9880E28A95F1F75A9A0895FF920F93B4
:103DF0001F93CF93DF93EC018C01060F111DC017A9
:103E0000D10741F0F9900E94F01E68E08F2D0E94CA
:103E10007E1EF5CFDF91CF911F910F91FF900895F6
:103E20000F931F93CF93DF932091FE0130E028176B
:103E300039070CF471C09C0193E0220F331F9A954F
:103E4000E1F7C091FF01D0910002C20FD31FF89497
:103E5000529A5A9845E04A95F1F70000982F9695A6
:103E600095708570890F982F937086958695890F28
:103E70008901082B0E94F01E84E08A95F1F700C0AA
:103E800067E0802F0E947E1E40E14A95F1F752982C
:103E90005A9A4A9902C000C0FCCF87E090E04A9B42
:103EA0000EC0019751F4529A5A9AE881F98181E043
:103EB0008083789481E090E031C000C0F0CF6D81C4
:103EC000662381F08E819F810E94C81E81110AC0E5
:103ED000529A5A9AE881F98182E08083789482E04C
:103EE00090E01CC00E94761E80E28A95F1F75A98F5
:103EF000529A40E14A95F1F76A81662321F08B815D
:103F00009C810E94F61E0E94F01EE881F9811082B9
:103F1000789480E090E002C084E090E0DF91CF915F
:103F20001F910F9108959F92AF92BF92CF92DF920F
:103F3000EF92FF920F931F93CF93DF938091010134
:103F4000811103C0C5E0D0E002C0C0E0D0E0AE0106
:103F5000455A5D4F7A0188E8C82E81E0D82E8A0143
:103F6000AA24A394B12C25E0922EFDE8CF16F1E00F
:103F7000DF0609F44AC0F60181916F01E82FE2954E
:103F8000EF70F0E021A18F70A50102C0440F551F12
:103F90008A95E2F7CA01922F982B91A392A180955E
:103FA000892382A350EA5A95F1F7E1E8F1E020E095
:103FB00040E050E03191A32FA295AF70B0E0909611
:103FC0008C9190E03F7002C0959587953A95E2F705
:103FD00080FD07C0C501042E01C0880F0A94EAF7CE
:103FE00002C080E090E0282B4F5F5F4F47305105C3
:103FF00009F7F8018081821719F0208390927D01E2
:104000000E94531E0F5F1F4FB0CF80917D01882308
:10401000B1F0815080937D01811103C0C559DD4FFE
:1040200007C08FE99FE00197F1F700C0000007C0CB
:10403000F70191917F0199938F5F8530C9F781E0F6
:10404000DF91CF911F910F91FF90EF90DF90CF9074
:10405000BF90AF909F9008950F931F93CF93DF93DE
:104060008C010C5A1F4FD801ED91FC911197608380
:104070002D913C9111972F5F3F4F2D933C93281B1F
:10408000390B24353105B9F4EC01BC016B5E7F4F6F
:104090004FE350E00E94A234CE01CF96F801918305
:1040A000808345E150E060E270E0DF91CF911F91A5
:1040B0000F910C94B434DF91CF911F910F9108951B
:1040C0001F93CF93DF93FC01EA5AFF4F21E0208337
:1040D0006A3099F4EC013297808191818C1B9D0BA1
:1040E00065E170E00E946E34182F153158F460E2DB
:1040F000CE010E942C201F5FF8CFDF91CF911F913E
:104100000C942C20DF91CF911F9108950F931F9352
:10411000CF93DF938C01EB01FE016491662329F0BC
:10412000C8010E9460202196F7CFDF91CF911F91A7
:104130000F910895EF92FF920F931F93CF93DF9308
:104140007C01EB01FB0101900020E9F78F01015098
:104150001109C017D10728F46991C7010E94602096
:10416000F8CFDF91CF911F910F91FF90EF900895BD
:104170001F920F920FB60F9211240F931F932F933C
:104180003F934F935F936F937F938F939F93AF93DF
:10419000BF93EF93FF93CF93DF931F92CDB7DEB71B
:1041A00019820E94761E67E0CE0101960E949E1E33
:1041B000382F369536953695932F96959570232FF3
:1041C0002570920F292F2370969596958770920FE0
:1041D000891348C08981811145C08091FE018317F0
:1041E00008F440C080E18A95F1F75A9A529AA2E009
:1041F000AA95F1F700C00091FF0110910002B8E00C
:104200003B9F000D111D11245A98F801658166230A
:1042100021F0868197810E94F61E0E94F01EF0E137
:10422000FA95F1F75A9852985A9A80E18A95F1F7DF
:10423000D80112966C911297662369F013968D91AE
:104240009C9114970E94C81ED801ED91FC91811198
:1042500005C082E004C0D801ED91FC9188E0808324
:104260000E94761E0F90DF91CF91FF91EF91BF9149
:10427000AF919F918F917F916F915F914F913F91FE
:104280002F911F910F910F900FBE0F901F901895B7
:104290001F920F920FB60F9211248F939F93EF935B
:1042A000FF938091B900887F803869F038F48823C3
:1042B000C9F18036C9F51092C00236C0883A09F1BA
:1042C000883BF9F031C08091C002811111C080910A
:1042D000BB008093BF028091BF02803120F010921A
:1042E000BF0280E001C081E091E09093C0021DC058
:1042F000E091BF02F0E08091BB00E155FD4F80836B
:1043000008C0E091BF02F0E0E155FD4F808180934D
:10431000BB008091BF0290E001968F709927809337
:10432000BF0202C01092BC0081E09091BC00829557
:10433000880F880F807C9568892B8093BC00FF9143
:10434000EF919F918F910F900FBE0F901F90189536
:1043500084E98093BC0083E390E02091BC0024FDBD
:1043600002C00197D1F7089583E390E02091BC004B
:1043700027FD02C00197D1F708958093BB0084E820
:104380008093BC000E94B4219091B900987F81E095
:10439000983209F480E00895CF93C82F0E94B22488
:1043A00081110AC080E00E94BD21811105C08C2FBF
:1043B0000E94BD21C1E08111C0E00E94A8218C2F84
:1043C000CF910895BF92CF92DF92EF92FF920F9319
:1043D0001F93CF93DF930E942F2B9093C40280935F
:1043E000C3028FEA0E94CC2163E082E20E94D724BC
:1043F0008823D1F16DE781E20E94D7248823A1F1BF
:104400000E94B224811130C080E40E94BD2181113C
:104410002BC081E0E82E82E0F82E94E0B92EC0E0B7
:10442000D0E0F701EC0FFD1FC08086E0C89E600160
:10443000112400E010E0F601E00FF11FE251F34F0C
:1044400084910E94BD210F5F1F4F0630110599F71F
:104450002196C531D10529F7BA9485E1E80EF11C02
:10446000B110DDCF10925702DF91CF911F910F91C4
:10447000FF90EF90DF90CF90BF900C94A821CF9247
:10448000DF92EF92FF920F931F93CF93DF93CDB7FD
:10449000DEB7C75AD1090FB6F894DEBF0FBECDBF45
:1044A00044E550E060E270E08E010F5F1F4FC801ED
:1044B0000E94B43467961FAF0EAF679781E068968D
:1044C0008FAF689780915A02882309F427C18091A1
:1044D000650282FD0DC061E371E0C8010E949A206F
:1044E00060E972E1C8010E94862064E371E00CC0BB
:1044F00067E371E0C8010E949A206EE872E1C8018A
:104500000E9486206AE371E0C8010E949A2080918F
:1045100050038F9380914F038F9380914E038F931D
:1045200080914D038F938FEC91E09F938F931F9217
:1045300088E28F93CE0180589F4F9F938F930E9464
:10454000BB3465E872E1C8010E94862080914D036A
:1045500090914E03A0914F03B09150030FB6F89481
:10456000DEBF0FBECDBF80329105A105B105F1F0D0
:1045700060F481309105A105B10531F581E090E04D
:104580009093C2028093C10273C080349105A1054B
:10459000B10599F080389105A105B105A9F480E82D
:1045A00090E09093C2028093C10271C080E290E0DB
:1045B0009093C2028093C10264C080E490E0909323
:1045C000C2028093C10260C088309105A105B10587
:1045D00009F454C0A8F481309105A105B10509F48E
:1045E00047C038F182309105A105B10509F443C0F7
:1045F0000497A105B10509F04FC064E472E149C018
:1046000080329105A105B105E1F140F44097A10583
:10461000B10509F041C06AE472E13BC08034910504
:10462000A105B10589F180389105A105B105A1F574
:104630002EC08091C1029091C2028130910519F47F
:104640006FE772E126C08032910519F468E772E1E4
:1046500020C08034910519F460E772E11AC08038F7
:10466000910519F469E672E114C061E672E111C0C6
:104670006BE572E10EC065E572E10BC06FE472E1BB
:1046800008C06DE372E105C065E372E102C06EE24D
:1046900072E1C8010E9486200E94161882FD05C0A2
:1046A0003AECC32E31E0D32E04C025EBC22E21E01C
:1046B000D22E0E94161881FD05C09AECE92E91E0D9
:1046C000F92E04C08AEBE82E81E0F82E0E9416181D
:1046D00080FD03C087EC91E002C08FEB91E0DF9298
:1046E000CF92FF92EF929F938F9389ED91E09F93EA
:1046F0008F931F9288E28F937E0138E5E30EF11CC1
:10470000FF92EF920E94BB34B701C8010E949A2029
:104710000FB6F894DEBF0FBECDBF05C06DE371E0EC
:10472000C8010E949A2044E550E0B80181E092E07F
:104730000E949534892B59F084E5F801A1E0B2E09C
:1047400001900D928A95E1F781E080935702809164
:104750005702811104C080910001882321F00E943A
:10476000E221109200018091C3029091C4020E9444
:10477000052B81369A4E18F08EEA0E94CC21C9553D
:10478000DF4F0FB6F894DEBF0FBECDBFDF91CF91E4
:104790001F910F91FF90EF90DF90CF900895EF92CF
:1047A000FF920F931F93CF93DF9380915A02882338
:1047B00009F472C00E94931F80910101811103C00E
:1047C000C5E0D0E002C0C0E0D0E0C559DD4F45E013
:1047D00050E0BE0186EF91E00E9495347C0185E0B7
:1047E000FE01A6EFB1E001900D928A95E1F780916C
:1047F0000101811103C0C0E0D0E002C0C5E0D0E0FB
:1048000090917F0180917E01981761F082E090E0A5
:104810000E94101F8C01892B39F480917E018093B6
:104820007F0102C000E010E0EF2849F48091C5024A
:104830009091C602892B19F480E090E002C081E0DB
:1048400090E00E94101F892B49F48091FB01809316
:104850007E011092C6021092C50206C081E090E06F
:104860009093C6028093C5020115110531F0023004
:10487000110509F04FC028984DC0289ADE01A559AE
:10488000BD4F85E0E0EFF1E001900D928A95E1F7F0
:104890005D9A1092C70234C00E94931F809101015B
:1048A000811103C0E5E0F0E002C0E0E0F0E0E5598E
:1048B000FD4F80E020E030E0D901A051BE4F4C9187
:1048C0009191491381E09C932F5F3F4F2530310533
:1048D00099F79091FB01890F8093FB018091010171
:1048E000811103C0A0E0B0E002C0A5E0B0E0A5598E
:1048F000BD4F85E0E6EFF1E001900D928A95E1F77A
:104900000E943F2281E0DF91CF911F910F91FF9094
:10491000EF9008955D988091C7028F5F8093C702E2
:10492000863070F380910101811103C0E0E0F0E076
:1049300002C0E5E0F0E0E559FD4F80E090E0119223
:10494000019685309105D9F7DBCFCF93C62F0E9412
:10495000CC21882321F08C2FCF910C94CC2180E0A6
:10496000CF91089584EA8093BC000E94B421809185
:10497000B900887F883039F08091B900887F803114
:1049800011F081E0089588E78093BB0084E880936C
:10499000BC000E94B4218091B900887F883129F041
:1049A0008091B900887F803461F780E00895CF93CB
:1049B000C62F0E94CC21882349F080E00E94CC21A0
:1049C000882321F08C2FCF910C94CC2180E0CF91C3
:1049D00008952BB1277F3BB138604FB7F894FC01A5
:1049E000680F791FE617F70789F0819198E03BB9C6
:1049F000000000C087FF2BB9880F000000C000C076
:104A000000C02BB900C09A9591F7ECCF4FBF089525
:104A1000EF92FF920F931F93CF93DF937C018B0153
:104A20000E943612811119C0E70101151105A1F08C
:104A30008091E80085FD0AC08091E8008E77809320
:104A4000E8000E943612882381F307C08991809381
:104A5000F10001501109E9CF80E0DF91CF911F9162
:104A60000F91FF90EF9008951F93CF93DF93CDB7F1
:104A7000DEB7AA970FB6F894DEBF0FBECDBFE8ED44
:104A8000F2E08091F100819322E0E03EF207C9F765
:104A90008091D902833009F460C030F4813071F024
:104AA000823009F49CC0B3C08A3009F488C08B30CE
:104AB00009F46BC0893009F0AAC020C08091D802E7
:104AC000813A09F0A4C08091E800877F8093E800D4
:104AD0008091DC029091DD02892B21F468E08CEC5E
:104AE00092E003C060E080E090E070E00E94BD12C0
:104AF0008091E8008B778093E80089C08091D8028C
:104B0000813209F084C08091DC029091DD0202972D
:104B100008F07DC08091E800877F8093E800809155
:104B2000E80082FD05C08091D6028111F8CF6FC0E8
:104B30002091F3008091F20090E0922B029729F4EB
:104B40008091F1008B7F813021F48091F10080937E
:104B5000CB028091E8008B7756C08091D802813AD1
:104B600009F055C08091DC029091DD02892B09F09B
:104B70004EC08091E800877F8093E8008091E80034
:104B800080FFFCCF8091800139C08091D8028132B2
:104B9000F1F58091DC029091DD02892BC1F58091C5
:104BA000E800877F8093E8000E9469128091DA0212
:104BB000809380011092C9020E949E2F28C080918C
:104BC000D802813221F58091E800877F8093E80048
:104BD0000E9469128091DB028093CA0218C0809102
:104BE000D802813AA1F48091E800877F8093E800A1
:104BF0008091E80080FFFCCF8091CA028093F10091
:104C00008091E8008E778093E8000E94691280917D
:104C1000E80083FFD8C18091D8029091D902492F32
:104C200050E04A30510508F0CEC1FA01E757FF4F76
:104C30000C948234803821F0823809F0C4C108C055
:104C40008091D4029091D502992389F082600FC09F
:104C50008091DC028F70873008F0B5C18093E90045
:104C60008091EB0085FB882780F91092E9009091F4
:104C7000E800977F9093E8008093F1001092F10094
:104C800071C1282F2D7F09F09EC1882319F0823031
:104C900061F099C18091DA02813009F094C19330BA
:104CA00009F080E08093D5022EC08091DA02811154
:104CB0002AC08091DC028F702FEF280F263008F079
:104CC00082C18093E9002091EB0020FF1CC093304B
:104CD00021F48091EB00806214C09091EB00906110
:104CE0009093EB0021E030E0A90102C0440F551F72
:104CF0008A95E2F74093EA001092EA008091EB0077
:104D000088608093EB001092E9008091E800877F33
:104D10002CC1811158C11091DA021F778091E300F4
:104D20008078812B8093E3008091E800877F8093D7
:104D3000E8000E9469128091E80080FFFCCF80911A
:104D4000E30080688093E300111102C082E001C09B
:104D500083E08093D60237C18058823008F033C197
:104D60008091DA029091DB028C3D53E0950779F552
:104D700083E08A838AE289834FB7F894DE01139631
:104D800020E03EE051E2E32FF0E050935700E49141
:104D900020FF03C0E295EF703F5FEF708E2F90E031
:104DA000EA3010F0C79601C0C0968D939D932F5F97
:104DB000243149F74FBF8091E800877F8093E80056
:104DC0006AE270E0CE0101960E94BD12BAC0409125
:104DD000DC025091DD02292F332723303105B1F059
:104DE00068F42130310509F4FDC02230310509F0A5
:104DF000EAC08BE390E0E1E2F3E150C021323105FB
:104E000081F12232310509F439C0DDC099278130A2
:104E10009105B9F070F082309105D9F0039709F04F
:104E2000D2C0EEE6F3E1E4918E2F90E0EEE6F3E1FE
:104E300032C0E2EAF3E1E4918E2F90E0E2EAF3E19E
:104E40002AC0ECE8F3E1E4918E2F90E0ECE8F3E186
:104E500022C0E4E7F3E1E4918E2F90E0E4E7F3E190
:104E60001AC04115510509F4C2C04130510509F07D
:104E7000AAC089E090E0ECE4F3E110C041155105CF
:104E800009F4BAC04130510509F09DC08FE490E0AB
:104E9000E2E9F2E103C0009709F495C02091E8002F
:104EA000277F2093E8002091DE023091DF028217F5
:104EB000930708F49C0140E02115310589F18091A8
:104EC000D602882309F43DC08530D9F18091E800ED
:104ED00083FD37C08091E80082FD2FC08091E800FB
:104EE00080FFEACF4091F3008091F20090E0942B94
:104EF0002115310559F08830910540F444914093D3
:104F0000F1003196215031090196F2CF41E0089726
:104F100009F040E08091E8008E778093E800CCCFE4
:104F20004111CDCF0AC08091D602882351F085303F
:104F300041F08091E80083FD04C08091E80082FF89
:104F4000F2CF8091E8008B778093E8003CC08038F6
:104F5000D1F58091E800877F8093E8008091D702A7
:104F60008093F1008091E8008E778093E8000E94A2
:104F7000691229C0811127C08091DA029091DB0269
:104F80009927029704F58091E800877F8093E800D5
:104F90001091DA021093D7020E946912111106C013
:104FA0008091E30087FD02C081E001C084E080932E
:104FB000D60242E061EC81E00E94881242E261EC9C
:104FC00082E00E9488128091E80083FF1AC08091DD
:104FD000E800877F8093E8008091EB0080628093F7
:104FE000EB000FC082E190E0ECE5F3E157CF89E000
:104FF00090E0E3E3F3E152CF80E490E0E1EEF2E110
:105000004DCFAA960FB6F894DEBF0FBECDBFDF918D
:10501000CF911F9108951F920F920FB60F921124F6
:105020002F933F934F935F936F937F938F939F93B0
:10503000AF93BF93CF93DF93EF93FF93C091E900BA
:10504000CF708091EC00D82FD17080FDD0E8109205
:10505000E9008091F000877F8093F00078940E94AF
:1050600034251092E9008091F00088608093F00070
:10507000CD2BCF70C093E900FF91EF91DF91CF91DD
:10508000BF91AF919F918F917F916F915F914F9160
:105090003F912F910F900FBE0F901F901895E8ED44
:1050A000F0E080818E7F80831092E2001092DA001F
:1050B0001092E100A0EEB0E08C9181608C93808131
:1050C0008F77808319BCA7EDB0E08C918E7F8C9395
:1050D00080818F7E80831092C8020895CF92DF92E4
:1050E000EF92FF920F931F93CF93DF93C8EDD0E021
:1050F00088818F7E8883E7EDF0E080818160808306
:1051000084E082BF81E08093C80288818E7F88839B
:1051100002EE10E0F80110821092DA0081EEC82E43
:10512000D12CF601108288818F77888388818068EE
:10513000888388818F7D888319BC1092D602109253
:10514000D7021092D5021092D40290EEE92EF12CE3
:10515000F70180818B7F808388818160888342E032
:1051600060E080E00E948812F60180818E7F80835B
:10517000F801808181608083808188608083F7016D
:1051800080818E7F8083888180618883DF91CF9149
:105190001F910F91FF90EF90DF90CF9008951F9295
:1051A0000F920FB60F9211242F933F934F935F935B
:1051B0006F937F938F939F93AF93BF93EF93FF93DF
:1051C0008091E10082FF09C08091E20082FF05C06A
:1051D0008091E1008B7F8093E1008091DA0080FF75
:1051E0002AC08091D80080FF26C08091DA008E7F8F
:1051F0008093DA008091D90080FF18C080E189BDDA
:1052000082E189BD09B400FEFDCF81E08093D60222
:105210008091C80281110FC00E944F280E946E2801
:105220008091E20084608093E20005C019BC109276
:10523000D6021092C8028091E10080FF17C08091D1
:10524000E20080FF13C08091E2008E7F8093E20035
:105250008091E20080618093E2008091D8008062BA
:105260008093D80019BC85E08093D6028091E1003C
:1052700084FF34C08091E20084FF30C080E189BDAA
:1052800082E189BD09B400FEFDCF8091D8008F7DF9
:105290008093D8008091E1008F7E8093E10080911F
:1052A000E2008F7E8093E2008091E2008160809333
:1052B000E2008091D702882311F084E007C080913A
:1052C000E30087FD02C081E001C083E08093D60245
:1052D0001092C9020E949E2F0E9416188091E10030
:1052E00083FF27C08091E20083FF23C08091E1000B
:1052F000877F8093E10082E08093D6021092D702EC
:105300008091E1008E7F8093E1008091E2008E7FAA
:105310008093E2008091E20080618093E20042E0AD
:1053200060E080E00E9488128091F00088608093A5
:10533000F000FF91EF91BF91AF919F918F917F917D
:105340006F915F914F913F912F910F900FBE0F90F2
:105350001F9018958091CB020895803F39F4809179
:10536000780287FF6CC01092780269C0813F29F4EF
:10537000809178021816BCF362C090917702823F48
:1053800029F497FF5CC01092770259C0833F19F44B
:105390001916CCF354C0893F41F480917902181654
:1053A0000CF04DC0109279024AC08A3F29F48091D6
:1053B000790287FF44C0F6CF8B3F39F480917A029F
:1053C00087FF3DC010927A023AC08C3F29F4809149
:1053D0007A021816BCF333C0843F21F48091760220
:1053E0008E7F17C0853F21F4809176028D7F11C09A
:1053F000863F21F4809176028B7F0BC0873F21F49A
:1054000080917602877F05C0883F31F480917602D3
:105410008F7E8093760213C08D3F21F480915D03CF
:105420008E7F0BC08E3F21F480915D038D7F05C080
:105430008F3F29F480915D038B7F80935D03809182
:10544000770281110EC08091780281110AC080918B
:105450007902811106C080917A02811102C01092F6
:105460007B02089580915D0380FD16C081FD16C00A
:1054700082FD18C080917B02882391F0883290F4DD
:1054800028E0829FC001112468E270E00E946E341F
:10549000862F672B29F007C082E0089584E00895E5
:1054A00081E0089588E0089580915D0380FD17C034
:1054B00081FD17C082FD19C080917B02882399F07D
:1054C000863998F42FE0829FC001112466E970E0CC
:1054D0000E946E34862F672B49F481E0089583E0A3
:1054E000089587E0089585E008958FE00895803F4E
:1054F00021F40E94542A819504C0813F29F40E941E
:10550000542A809378020895823F21F40E94542AFD
:10551000819504C0833F29F40E94542A8093770226
:105520000895893F19F40E94322A05C08A3F31F458
:105530000E94322A81958093790208958B3F21F44D
:105540000E94322A819504C08C3F29F40E94322A9D
:1055500080937A020895843F21F4809176028160DD
:1055600017C0853F21F480917602826011C0863F8A
:1055700021F48091760284600BC0873F21F48091F2
:105580007602886005C0883F31F4809176028061A0
:105590008093760208958D3F21F480915D038160B0
:1055A0000BC08E3F21F480915D03826005C08F3F68
:1055B00029F480915D03846080935D03089578945D
:1055C0001F920F920FB60F9211248F939F93AF9358
:1055D000BF938091590390915A03A0915B03B091BE
:1055E0005C030196A11DB11D8093590390935A034A
:1055F000A0935B03B0935C03BF91AF919F918F9198
:105600000F900FBE0F901F901895CF92DF92EF92E0
:10561000FF920F931F932FB7F89440915903509125
:105620005A0360915B0370915C032FBF6A017B0199
:10563000EE24FF248C0120E030E0C016D106E20603
:10564000F30610F4415051099A01281B390BC90186
:105650001F910F91FF90EF90DF90CF9008952FB79B
:10566000F8948091590390915A03A0915B03B091F3
:105670005C032FBF0895E0916802F09169023097B2
:1056800049F082E0809375020480F581E02D85E782
:1056900092E009950E942F2B90937D0280937C02CB
:1056A00008951F920F920FB60F9211248F939F931C
:1056B000AF93BF9380916A02811113C08091590307
:1056C00090915A03A0915B03B0915C034196A11D98
:1056D000B11D8093590390935A03A0935B03B09339
:1056E0005C03BF91AF919F918F910F900FBE0F9070
:1056F0001F9018959C01FC0132969FEF80E041912C
:10570000461789F09F3F19F4411101C0982F8F5F10
:105710008630A9F79F3F39F0F901E90FF11D97FD98
:10572000FA9562830895089580E090E00E94D73052
:1057300021E08D3E9E4F09F020E0822F08956DEE0E
:105740007EEF80E090E00E94FB3060E082E090E03D
:105750000E94DD3060E083E090E00E94DD30109236
:10576000550310925603109257031092580360E0AD
:1057700084E090E00E94DD3060E085E090E00E94EF
:10578000DD3060E086E090E00E94DD306FEF87E082
:1057900090E00E94DD3040E050E0BA0188E090E007
:1057A0000E94EF3060E08DE090E00E94DD3040E04C
:1057B00050E0BA0188E190E00E94EF3060E087E1BC
:1057C00090E00E94DD3040E050E0BA018FE090E0D0
:1057D0000E94EF3040E050E0BA0183E190E00C9489
:1057E000EF308091540381111092540308959091E9
:1057F000C90280915303892B20915203982F922B39
:105800009093E00280915403882389F0892B809340
:10581000E002E2EEF2E097E080E0915029F0219181
:105820002223D9F38F5FF9CF81110E94F12BE091F0
:105830006802F0916902309731F00280F381E02D27
:1058400080EE92E009940895BF92CF92DF92EF929A
:10585000FF920F931F93CF93DF938C01C0904D0362
:10586000D0904E03E0904F03F09050038091550389
:1058700090915603A0915703B0915803C82AD92A92
:10588000EA2AFB2ACFE1D0E0D701C6010C2E04C0E2
:10589000B695A795979587950A94D2F780FD04C091
:1058A000219790F7B12C07C0BC2EB8018C2F0E9415
:1058B0008F1B0197A9F38B2DDF91CF911F910F9132
:1058C000FF90EF90DF90CF90BF900895CF93DF933C
:1058D000EC010E94242CBE010E948F1BDF91CF910E
:1058E000089527E0929F800D1124682F6695669594
:1058F0006695982F977085E0689FB001112440E06D
:1059000050E080E0FB01E40FF51FE05EFC4F2081DA
:1059100030E0092E02C0369527950A94E2F72170EF
:105920003327042E01C0220F0A94EAF7822B4F5F1F
:105930005F4F4530510531F7089527E0929F800D64
:105940001124E82FE695E695E695877051E001C0B1
:10595000550F8A95EAF785E0E89FF0011124E05E93
:10596000FC4F20E030E070E04081CB01022E02C00D
:10597000969587950A94E2F781708195842785230F
:10598000842781932F5F3F4F2530310569F70895B4
:1059900060934D0370934E0380934F039093500395
:1059A0000C948B2F0F931F9341E050E060E070E068
:1059B00004C0440F551F661F771F8A95D2F7409584
:1059C00050956095709580914D0390914E03A091F4
:1059D0004F03B09150038A019B01082319232A2306
:1059E0003B23C901B8011F910F910C94C82C209141
:1059F00051038095822380935103982F977079F4F7
:105A000030E0482F082E000C550B2417350739F0CD
:105A10008595859585950E94D22C10925103089505
:105A20000F931F9341E050E060E070E004C0440F2A
:105A3000551F661F771F8A95D2F780914D0390916D
:105A40004E03A0914F03B09150038A019B01082B94
:105A5000192B2A2B3B2BC901B8011F910F910C94D4
:105A6000C82C60935503709356038093570390930B
:105A700058030C948B2F80911F039091EE0289178D
:105A800019F08F5F8770FBCF0895CF938091ED025F
:105A900082958F7009F05FC08091EA02882309F433
:105AA0005AC080911F03B091EE027091E802A0915C
:105AB000E9024091EB025091EC0291E07F3F09F046
:105AC00090E0692FC6E08B1709F445C041155105D8
:105AD00021F0AF3F21F020E003C021E001C0262FDC
