:100000000C944C070C9493070C9493070C944D1E7E
:100010000C9493070C9493070C9493070C949307F8
:100020000C9493070C9493070C94F5250C943125AC
:100030000C9474280C9493070C9493070C949307D6
:100040000C9493070C9493070C9493070C949307C8
:100050000C9493070C9402280C9493070C94930728
:100060000C9493070C9493070C9493070C949307A8
:100070000C9493070C9493070C9493070C94930798
:100080000C9493070C9493070C9493070C94930788
:100090000C94DD1E0C9493070C9493070C94930717
:1000A0000C9493070C9493070C949307F207FA07A8
:1000B00002080A0812081A085708240833084808D2
:1000C000EC0AEE0AF90AF00AF20AF40AF60AF80A49
:1000D000FB0AFD0AFF0A0A0B010B030B050B070BBA
:1000E000090B0C0B4C0C4C0C860C860C990ECA0C94
:1000F000990E990E0C0D990EF90DF90D060E060EBE
:10010000060E060E060E060E060E060E060E060E4F
:10011000060E060E060E060E060E060E170E410EF3
:10012000460E4D0E640E40236723092567230925DB
:10013000AF23D2230925CD24E024E22AE22AF52A9E
:10014000F52AEB2AF52AF52AF52AE22AE22AF02AEC
:10015000F52AF52AF02A07634236B79BD8A71A3941
:10016000685618AEBAAB558C1D3CB7CC5763BD6D05
:10017000EDFD753EF6177231BF000000803F05A807
:100180004CCDB2D44EB93836A9020C50B9918688FC
:10019000083CA6AAAA2ABE000000803F29001E0033
:1001A0001F0020002100220000002B0014001A0074
:1001B0000800150017000000E0000400160007000A
:1001C00009000A000000E1001D001B0006001900E4
:1001D00005000043E20000000000E3008B002C005B
:1001E0004A444C002700260025002400230000007C
:1001F0002A00130012000C0018001C000000280048
:1002000033000F000E000D000B000000E500890018
:1002100038003700100011000043E400E6000253EC
:1002200001528A002C004D4529001E001F002000AD
:100230002100220000002B0014001A000700090012
:100240000A000000E00004001200080018000C0082
:100250000000E1001D001B0006001900050000431E
:10026000E20000000000E3008B002C004A444C0038
:100270002700260025002400230000002A00130088
:100280001500170016001C000000280033000F00A6
:100290000E000D000B000000E5008900380037005B
:1002A000100011000043E400E600025300528A00EF
:1002B0002C004D45000053005400550056004C00E2
:1002C000000000005F006000610057002A0000008D
:1002D00000005C005D005E0057004A000000000066
:1002E00059005A005B0058004D00005C000062009D
:1002F0006200630058000000DE5C4C000000560005
:1003000055005400530000002A000000570061000F
:1003100060005F0000000000000058005E005D000B
:100320005C0000000000000058005B005A0059000B
:10033000005C005200000100630062006200DE5CAD
:100340003A003B003C003D003E003F000000000042
:10035000CD5CD35CD45CC85CC75C00000000D15CA1
:10036000CE5CCF5CC65CC55C0000E100D05C0000E8
:10037000C25CCA5CC95C0100135C0A5CC45CC35CFF
:10038000CC5CCB5C005C4500440043004200410073
:10039000400000004902F900F500F600F4004901B0
:1003A00000000000FA00F300F000F100F20000008D
:1003B000E500000000000000000000000100E40073
:1003C000E6000000005200000000005C29001E0052
:1003D0001F0020002100220000002B0000002D0241
:1003E000000024022F020000E00033022D0034023E
:1003F00087021F020000E1001E02380220022102D3
:100400002202005CE200005C0000E3008B002C0094
:1004100001004C00270026002500240023000000D6
:100420002A002F003702360226022502000028008B
:10043000340032003000320230020000E5002E02AB
:100440002E00360089022302005CE400E600000072
:1004500000528A002C000000290059005A005B005D
:100460005C005D0000002B000000520000004A000C
:100470004B000000E000500051004F004D004E00C6
:100480000000E10000000000000046004900005CA0
:10049000E2000000000000000000000000004C002E
:1004A0006200610060005F005E0000002A004600FC
:1004B0004D004B004E004A000000280049004F004C
:1004C0005200510050000000E50000000000000054
:1004D00000000000005CE400E600000000520000A4
:1004E0000000010002E26003E20002E26003E200B9
:1004F000556E6465662D004172726F770053796D99
:10050000626F6C004D6F7573650054656E6B657935
:100510000059737472700051717765727479004478
:10052000656661756C74004C617965723A200000F3
:1005300000000000000000000000000000000000BB
:1005400000000000000000000000000000000000AB
:10055000000000000000000000000000000000009B
:10056000000000000000000000000000000000008B
:10057000000000000000000000000000000000007B
:10058000000000000000000000000000000000006B
:10059000000000000000000000000000000000005B
:1005A000000000000000000000000000000000004B
:1005B000000000000000000000000000000000003B
:1005C000000000000000000000000000000000002B
:1005D0000101010101010001010101000000000011
:1005E0000000000000000000000100010001010106
:1005F00001010101010101010101010101010101EB
:1006000001010101010101010101000000010100DE
:1006100000000000000000000000000000000000DA
:1006200000000000000000000000010101010000C6
:10063000000000000000002A2B280000000000003D
:100640000000000000000000000029000000002C55
:100650001E3420212224342627252E362D373827F4
:100660001E1F202122232425263333362E37381F00
:100670000405060708090A0B0C0D0E0F10111213C2
:100680001415161718191A1B1C1D2F3130232D3560
:100690000405060708090A0B0C0D0E0F10111213A2
:1006A0001415161718191A1B1C1D2F3130354C0044
:1006B000000000000101010101010101010202022B
:1006C00002020202020203030303030303030404FE
:1006D00004040404050505050506060606060707C5
:1006E0000707080808080909090A0A0A0A0B0B0B78
:1006F0000C0C0C0D0D0D0E0E0F0F0F101011111113
:100700001212131314141515161617171818191991
:100710001A1A1B1C1C1D1D1E1F1F202021222223F4
:1007200024252526272728292A2B2B2C2D2E2F2F31
:1007300030313233343536363738393A3B3C3D3E4A
:100740003F4041424344464748494A4B4C4D4F5035
:10075000515253555657585A5B5C5E5F60626364F2
:100760006667696A6C6D6E707173747678797B7C7C
:100770007E8081838486888A8B8D8F9192949698CF
:100780009A9B9D9FA1A3A5A7A9ABADAFB1B3B5B7E8
:10079000B9BBBDBFC1C4C6C8CACCCFD1D3D6D8DAC5
:1007A000DCDFE1E4E6E8EBEDF0F2F5F7FAFCFF68F8
:1007B00001F000B40078005A007F3F1F64321464D7
:1007C0003214783C1E1E140A050000000000003E92
:1007D0005B4F5B3E003E6B4F6B3E001C3E7C3E1C05
:1007E00000183C7E3C18001C577D571C001C5E7F87
:1007F0005E1C0000183C180000FFE7C3E7FF000084
:100800001824180000FFE7DBE7FF0030483A060E27
:1008100000262979292600407F05050700407F052D
:10082000253F005A3CE73C5A007F3E1C1C0800084C
:100830001C1C3E7F0014227F2214005F5F005F5F5C
:100840000006097F017F00006689956A006060608C
:1008500060600094A2FFA2940008047E04080010C7
:10086000207E20100008082A1C0800081C2A0808FE
:10087000001E10101010000C1E0C1E0C0030383E14
:10088000383000060E3E0E0600000000000000009A
:10089000005F000000000700070000147F147F14B1
:1008A00000242A7F2A120023130864620036495666
:1008B000205000000807030000001C224100000037
:1008C00041221C00002A1C7F1C2A0008083E080840
:1008D0000000807030000008080808080000006070
:1008E0006000002010080402003E5149453E00000F
:1008F000427F4000007249494946002141494D3339
:10090000001814127F10002745454539003C4A491C
:10091000493100412111090700364949493600464D
:100920004949291E00000014000000004034000066
:100930000000081422410014141414140000412271
:100940001408000201590906003E415D594E007C21
:100950001211127C007F49494936003E4141412233
:10096000007F4141413E007F49494941007F0909DB
:100970000901003E41415173007F0808087F0000D3
:10098000417F4100002040413F01007F0814224187
:10099000007F40404040007F021C027F007F04082F
:1009A000107F003E4141413E007F09090906003E9B
:1009B0004151215E007F09192946002649494932E3
:1009C0000003017F0103003F4040403F001F2040E3
:1009D000201F003F4038403F0063140814630003A9
:1009E00004780403006159494D4300007F414141AF
:1009F00000020408102000004141417F0004020170
:100A0000020400404040404000000307080000206E
:100A100054547840007F28444438003844444428E3
:100A200000384444287F0038545454180000087E8D
:100A300009020018A4A49C78007F08040478000030
:100A4000447D4000002040403D00007F10284400CD
:100A50000000417F4000007C04780478007C08049A
:100A6000047800384444443800FC18242418001842
:100A7000242418FC007C080404080048545454241E
:100A80000004043F4424003C4040207C001C2040E3
:100A9000201C003C4030403C004428102844004CBE
:100AA0009090907C004464544C440000083641000F
:100AB000000000770000000041360800000201023B
:100AC0000402003C2623263C0003071F7FFFFFFE95
:100AD000F8F0C020F8FEFFFE79271F7FFFFFFEF829
:100AE000F0C020F8FEFFFF7F3F3F7FFFFEF8F0C021
:100AF00000000000000000000000000000000000F6
:100B000000000000000000000000000000000000E5
:100B100000000000000000000000000000000000D5
:100B200000000000000000000000000000000000C5
:100B300000000000000000000000000000000000B5
:100B400000000000000000E0F0F0F0E0ECEEF7F351
:100B50007020007C7C7C7E007E7E7E7F7F7F00001C
:100B600080C0E07E5B4F5BFEC00000C000DCD7DED3
:100B7000DEDED7DC00C00000000000000000000046
:100B800000000000000000000000000000C1F3CFE2
:100B9000BF7FFFFFFCFBE7810000000080E3CF3F49
:100BA000FFFFFFFCFBE7810000000081E7FFFFFF84
:100BB000FF3C0000000000000000000000000000FA
:100BC0000000000000000000000000000000000025
:100BD0000000000000000000000000000000000015
:100BE0000000000000000000000000000000000005
:100BF00000000000000000000000000000000000F5
:100C0000000000000000000F1F3F7F7F7F7F7F3FBD
:100C10001E0C001F1F1F3F003F3F3F7F7F7F0030A4
:100C20007B7F7830202030787F3B0003000F7F0FE0
:100C30000F0F7F0F00030000000000000000000005
:100C400000000000000000000060707C7F7F7F7F5C
:100C50001F0601030F3F7F7F7E7C7C7E7F7F7F1F8F
:100C60000601070F3F7F7F7E7C7C7E7F7F3F0F03E7
:100C70000000000000000000000000000000000074
:100C80000000000000000000000000000000000064
:100C90000000000000000000000000000000000054
:100CA0000000000000000000000000000000000044
:100CB0000000000000000000000000000000000034
:100CC0000000000000000000000000000000000024
:100CD0000000000000000000000000000000000014
:100CE0000000000000000000000000000000000004
:100CF00000000000000000000000000000000000F4
:100D000000000000000000000020202020005343CD
:100D10004C4B000A0020202020004341505300206B
:100D2000202020202020004E554D4C4F434B000AE0
:100D30000020000A000A00959600B5B600979800BA
:100D4000B7B800808182838485868788898A8B8C66
:100D50008D8E8F9091929394A0A1A2A3A4A5A6A7F3
:100D6000A8A9AAABACADAEAFB0B1B2B3B4C0C1C26A
:100D7000C3C4C5C6C7C8C9CACBCCCDCECFD0D1D2CB
:100D8000D3D40005010902A10185020901A10005D2
:100D9000091901290515002501950575018102959F
:100DA00001750381010501093009311581257F9500
:100DB000027508810609381581257F95017508811E
:100DC00006050C0A38021581257F950175088106F4
:100DD000C0C005010906A101050719E029E71500B2
:100DE00025019508750181029501750881010508A5
:100DF0001901290595057501910295017503910168
:100E00000507190029FF150026FF009506750881C2
:100E100000C009023B00020100A0C8090400000153
:100E20000301010009211101000122400007058191
:100E30000308000A09040100010300000009211150
:100E4000010001224F000705820320000A12011051
:100E50000100000008EDFE60300100010203010402
:100E600003300000001603480065006C006900783C
:100E70000020004200650074006100000014035966
:100E80000075007300680061006B006F0062006F06
:100E9000000000040309040011241FBECFEFDAE0B4
:100EA000DEBFCDBF04B603FE27C08091FB02909148
:100EB000FC02A091FD02B091FE028730904BA7404A
:100EC000B04BD1F41092FB021092FC021092FD0282
:100ED0001092FE0214BE84B7877F84BF0FB6F894C9
:100EE000A8958091600088618093600010926000F6
:100EF0000FBEE0E0F8E3099511E0A0E0B1E0EAED13
:100F0000F9E602C005900D92A838B107D9F722E0A2
:100F1000A8E8B1E001C01D92AB3FB207E1F70E9423
:100F20004B180C94EB340C9400008F929F92AF926C
:100F3000BF92CF92DF92EF92FF920F931F93CF93C6
:100F4000DF9300D000D01F92CDB7DEB7FC01008147
:100F5000D18083819481892B39F01FEFD11206C093
:100F600091E00F3F19F403C091E001C090E090FDC3
:100F700013C77F0185E0DE01119601900D928A95DD
:100F8000E1F7F701228189819A81222349F00E94A9
:100F90004729182F682F89819A810E94C02903C090
:100FA0000E949429182F26E4129FF001112437E0A3
:100FB000D39EE00DF11D1124E00FF11DEE0FFF1F78
:100FC000E456FE4F0591149181E080930001F801F1
:100FD000E05FFC45EA30F10508F069C0EA5AFF4FCE
:100FE0000C94B131F7018281882309F40EC481E0A9
:100FF00090E027C0F7018281882309F406C482E0CB
:1010000090E01FC0F7018281882309F4FEC384E0C9
:1010100090E017C0F7018281882309F4F6C388E0C5
:1010200090E00FC0F7018281882309F4EEC380E1CC
:1010300090E007C0F7018281882309F4E6C380E2CB
:1010400090E00E94E716E1C3F7018281882349F00E
:1010500080911C0282FD02C081E90EC08AEE94E0FC
:1010600010C081E912C0F7018281882369F0809164
:101070001C0282FD04C080E90E941E2DC6C384EEBE
:1010800094E00E940C16C1C380E90E94DF2CBDC30E
:10109000F7018281882359F00E94A91380914702A9
:1010A00081608093470286958F730E94911381E03F
:1010B000882309F471C60C3CFCE51F0709F4CEC176
:1010C000E8F5F7018281043CFCE51F0709F408C13B
:1010D000F8F405313CE5130778F402309CE5190774
:1010E00008F058C20115ECE51E0709F467C001308D
:1010F0001C4509F484C083C3023C2CE5120709F4A3
:101100009DC008F0D3C006311C4509F43EC377C327
:10111000083CECE51E0709F462C140F4063C2CE5EE
:10112000120709F40AC108F4F5C029C10A3C9CE57C
:10113000190709F46FC108F45FC188C1043DFCE5DB
:101140001F0709F40DC2C0F4F7018281003DFCE5E0
:101150001F0709F4DFC140F40E3C3CE5130709F416
:10116000C3C108F4AAC1CBC1023DECE51E0709F4D6
:10117000E7C108F4DAC1EFC1093D2CE5120709F413
:10118000D9C260F4073D8CE5180709F469C208F07C
:101190008AC2053D1C4509F4FFC531C3F7018281B0
:1011A0000D3DFCE51F0709F4EEC10E3D2CE51207CD
:1011B00079F10C3D1C4509F022C3DFC1882309F4F5
:1011C000EBC5109266020E94C12C8FEF94E3ECE015
:1011D00081509040E040E1F700C0000087E797E7CA
:1011E00090930108809300089AE088E10FB6F89484
:1011F000A895809360000FBE90936000FFCF882376
:1012000009F4CAC580913602816080933602C4C554
:10121000882309F4C1C50F900F900F900F900F9085
:10122000DF91CF911F910F91FF90EF90DF90CF90C2
:10123000BF90AF909F908F900C94C228882309F4A0
:10124000ABC58091470280FF2BC08E7F8093470201
:1012500060914702709148028091490290914A0240
:101260000E946B1210924D02FFEF00E712E0F15066
:1012700000401040E1F700C000000F900F900F9069
:101280000F900F90DF91CF911F910F91FF90EF90F2
:10129000DF90CF90BF90AF909F908F900C944C10A8
:1012A00081608093470286958F730BC1882309F470
:1012B00073C5809166028272D1F00F900F900F90EB
:1012C0000F900F90DF91CF911F910F91FF90EF90B2
:1012D000DF90CF90BF90AF909F908F900C9494131D
:1012E000882309F459C580916602827231F30F9008
:1012F0000F900F900F900F90DF91CF911F910F9152
:10130000FF90EF90DF90CF90BF90AF909F908F9025
:101310000C949E13882309F43FC520914702221F95
:101320002227221F30914802432F440F842F822B03
:1013300037FB992790F90A9618C0882309F42CC521
:1013400020914702221F2227221F30914802432F5B
:10135000440F842F822B37FB992790F98A3091050F
:101360001CF4825A9E4F05C00A9768E671E00E94FD
:101370009D3121E040914A02609149021DC08823BD
:1013800009F40AC560914902862F90E08F3E9105CD
:1013900014F46F5E01C06FEF80914702881F8827A9
:1013A000881F90914802392F330F97FB992790F9A6
:1013B00021E040914A02832B0F900F900F900F90E5
:1013C0000F90DF91CF911F910F91FF90EF90DF90E1
:1013D000CF90BF90AF909F908F900C947D128823F8
:1013E00009F4DAC460914902862F90E0419714F025
:1013F0006151D2CF60E0D0CF882309F4CDC44091B1
:101400004A02842F90E08F3E910514F44F5E0EC087
:101410004FEF0CC0882309F4BFC440914A02842FC7
:1014200090E0419714F0415101C040E080914702A3
:10143000881F8827881F90914802392F330F97FB08
:10144000992790F921E060914902B5CF882309F4EA
:10145000A3C480914B0290E001960DC0F7018281F8
:10146000882309F499C480914B0290E0019797FF7B
:1014700002C080E090E08430910514F083E090E0B9
:1014800080934B026091470270914802809149021B
:1014900090914A020F900F900F900F900F90DF9154
:1014A000CF911F910F91FF90EF90DF90CF90BF9061
:1014B000AF909F908F900C946B12882309F46CC4AA
:1014C00081E00F900F900F900F900F90DF91CF91D0
:1014D0001F910F91FF90EF90DF90CF90BF90AF9052
:1014E0009F908F900C949113882309F455C40E9407
:1014F0002C128250833008F4FACE82E0E2CF8823A7
:1015000009F44AC40E942C128650823008F4EFCEAF
:1015100086E0D7CF882309F43FC40E942C1289505B
:10152000853008F4E4CE89E0CCCF882309F434C4B4
:101530000E942C128F50853008F4D9CE8FE0C1CF95
:10154000882309F429C40E942C128551823008F4A2
:10155000CECE85E1B6CF882309F41EC488E1B1CF91
:10156000F7018281882309F417C40E942C12895143
:10157000893008F4BCCE89E1A4CF882309F40CC4D7
:101580001092B60109C4882309F406C482E080934E
:10159000B60102C4882309F43AC10E94B728811118
:1015A00002C00E94C22884E090E00E94EC2D90E0EE
:1015B00090931D0280931C02F801E350FC45E23138
:1015C000F10530F4E05AFF4F80911C020C94B131C8
:1015D00080911C02816027C0826025C0846023C086
:1015E000806121C080621FC080641DC080681BC0F4
:1015F0008460886018C08E7F16C08D7F14C08B7F7A
:1016000012C08F7E10C08F7D0EC08F7B0CC08F7775
:101610000AC08B7F877F07C087FB222720F991E0D4
:10162000922790FB87F980931C0260911C0284E052
:1016300090E00E94002E109266020F900F900F9083
:101640000F900F90DF91CF911F910F91FF90EF902E
:10165000DF90CF90BF90AF909F908F900C94C12C53
:10166000F7018281882351F010928D010E94522847
:1016700090938A018093890182E022C080918D013C
:1016800081110FC08091890190918A010E942828C0
:101690008436910530F486E20E941E2D86E20E9477
:1016A000DF2C82E034C0F70182818823E1F01092C0
:1016B0008E010E94522890938C0180938B0180E2CE
:1016C0000F900F900F900F900F90DF91CF911F917F
:1016D0000F91FF90EF90DF90CF90BF90AF909F90D1
:1016E0008F900C94D52C80918E0181110FC0809128
:1016F0008B0190918C010E9428288436910530F44A
:1017000087E20E941E2D87E20E94DF2C80E20F906C
:101710000F900F900F900F90DF91CF911F910F912D
:10172000FF90EF90DF90CF90BF90AF909F908F9001
:101730000C94CA2CF70182818111B9CF80918E015E
:101740008111E4CF80918B0190918C010E94282817
:1017500084369105D8F680E20E94CA2C88E20E9465
:101760001E2D88E20F900F900F900F900F90DF9139
:10177000CF911F910F91FF90EF90DF90CF90BF908E
:10178000AF909F908F900C94DF2C882391F08091E4
:1017900066028A7A91E009F490E0909388018111C1
:1017A00002C069E201C065E38DE792E00E949D28D6
:1017B00013C080918801811102C089E201C085E3D4
:1017C000EDE7F2E023E832E09281891301C0128252
:1017D00031962E173F07C1F70F900F900F900F9083
:1017E0000F90DF91CF911F910F91FF90EF90DF90BD
:1017F000CF90BF90AF909F908F900C941A2981E06A
:1018000080938D0180938E0102C080E051CCF7015E
:10181000828100811181882349F0C8010E944729F3
:10182000D82E682FC8010E94C02904C0C8010E9498
:101830009429D82EB8018D2D0E94B9138C01982EB1
:10184000F701A580A2949FE0A922B280B110109266
:10185000F0028091EE02877079F0BB2069F080E29F
:10186000800F883048F082E00E941A2A8091EE02B0
:101870008770CC24C3948111C12CD12ED2948FE0D7
:10188000D8228D2D90E08C30910508F052C2FC01D9
:10189000EE58FF4F0C94B131812F807F1F70882349
:1018A00011F01295107FBB20B9F0112309F42CC25E
:1018B00080E2800F883010F0911006C0809166029F
:1018C000182B1093660205C08091F002182B10931C
:1018D000F0020E941A2918C2802F0E94DF2C1123C7
:1018E00009F427C2005E1095083010F0911006C070
:1018F0008091660218231093660205C08091F00261
:1019000018231093F0020E941A2913C2812F807F9E
:101910001F70803211F01295107F992021F0F1E0B4
:101920009F16E1F027C0BB2081F08091F102AA2030
:1019300051F001E0A01207C0182B181709F4F9C1E3
:101940001093F102F6C1812B69C1AA2021F021E098
:10195000A21609F4EEC10E9414291AC0BB2029F076
:1019600035E03A1508F4E5C10FC084E08A1508F4A3
:10197000E0C10EC0BB2051F0AA2031F0F7018581F3
:1019800080FFC2C18F708583812F48C1A110CEC155
:10199000812F4AC1BB20F9F0053F51F0063F71F09D
:1019A000043FA9F480918F019091900181600BC058
:1019B00080918F0190919001826005C080918F018C
:1019C0009091900184609093900180938F01802F7B
:1019D0000E949A271EC0053F51F0063F71F0043F58
:1019E000A9F480918F01909190018E7F0BC080911E
:1019F0008F01909190018D7F05C080918F01909112
:101A000090018B7F9093900180938F01802F0E9493
:101A1000D3260E945E2898C1812F837009F071C07F
:101A2000B11090C1802F829586958770880F880F9E
:101A3000402F4F7050E060E070E04A015B01082EDB
:101A400004C0880C991CAA1CBB1C0A94D2F704FF82
:101A500010C04FE050E060E070E004C0440F551F3C
:101A6000661F771F8A95D2F74095509560957095BF
:101A700003C040E050E0BA01812F869586958370BF
:101A80000091F2021091F3022091F4023091F502DC
:101A9000823099F0E8F4813059F0482959296A29AF
:101AA0007B29CB01BA01602371238223932326C0B3
:101AB000802A912AA22AB32A1BC0482959296A29B7
:101AC0007B29CB01BA01602771278227932716C093
:101AD000CB01BA0160237123822393230E94542AED
:101AE0004091F2025091F3026091F4027091F5027C
:101AF000CB01BA01682979298A299B290E94542A95
:101B000021C1BB2019F0812F817001C086958823E7
:101B100009F418C1802F829586958770880F880FE9
:101B2000402F4F7050E060E070E04A015B01082EEA
:101B300004C0880C991CAA1CBB1C0A94D2F704FF91
:101B400010C04FE050E060E070E004C0440F551F4B
:101B5000661F771F8A95D2F74095509560957095CE
:101B600003C040E050E0BA01812F869586958370CE
:101B70000091EA021091EB022091EC023091ED020B
:101B8000823099F0E8F4813059F0482959296A29BE
:101B90007B29CB01BA01602371238223932326C0C2
:101BA000802A912AA22AB32A1BC0482959296A29C6
:101BB0007B29CB01BA01602771278227932716C0A2
:101BC000CB01BA0160237123822393230E94EB2966
:101BD0004091EA025091EB026091EC027091ED02AB
:101BE000CB01BA01682979298A299B290E94EB290E
:101BF000A9C0802F90E0FC01E05EF109E531F1051C
:101C000008F07DC0E258FF4F0C94B1310F70812F66
:101C10008F71BB2031F00E94332A802F0E94D52C77
:101C200088C00E94F529802F0E94CA2C82C0BB2048
:101C300019F1F4E0FA1508F47CC01F7181E090E01E
:101C4000A0E0B0E0AC01BD0104C0440F551F661F09
:101C5000771F1A95D2F78091EA029091EB02A0913A
:101C6000EC02B091ED028A019B01082719272A276F
:101C70003B27C901B80121C025E02A1508F459C045
:101C8000DCCFBB2029F0812F8F712CC0BB20D9F372
:101C9000812F8F710E94F5294CC0BB2089F01F71E4
:101CA00081E090E0A0E0B0E0BC01CD0104C0660F8F
:101CB000771F881F991F1A95D2F70E94EB2939C008
:101CC00060E070E0CB01F9CFBB2079F01F71812F6C
:101CD0000E94332A38E0139FC0011124836080934F
:101CE000EE02812F0E94332A24C081E00E941A2A2A
:101CF00081E08A15F0F482E00E941A2A1AC0BB2003
:101D000039F0AA2009F4BFCF802F0E941E2D11C0E8
:101D1000AA2009F4BDCF093349F49FEFE7EEF3E0C1
:101D20009150E040F040E1F700C00000802F0E9499
:101D3000DF2C08E0D01631F0D01630F086EF8D0D94
:101D4000823010F40E944010CC2031F18091EE02DC
:101D500080FD22C0F70112828595859585950E94A8
:101D6000332AC7010E9495078091EE0285958595DB
:101D700085950F900F900F900F900F90DF91CF915E
:101D80001F910F91FF90EF90DF90CF90BF90AF9099
:101D90009F908F900C94F5290F900F900F900F90BB
:101DA0000F90DF91CF911F910F91FF90EF90DF90F7
:101DB000CF90BF90AF909F908F9008950895EF922D
:101DC000FF920F931F93CF93DF93E901662309F4EA
:101DD0004BC0242F30E0EFEFF0E0E61BF109B90132
:101DE000E69F9001E79F300DF69F300D1124232FC1
:101DF0008B01031B11095CE3E52EF12CB7010E9456
:101E00008931FB01BC01069FC001079F900D169F01
:101E1000900D1124B7010E948931E230F105B1F033
:101E200040F4309779F0319711F5832F242F461B1A
:101E300021C0E430F105A1F068F03597C1F4842F9A
:101E4000861B18C0832F262F230F14C0862F830FC5
:101E5000E42F03C0E42FE61B842F432F2E2F0AC04C
:101E6000842F462F430F06C0842F242F03C080E009
:101E700020E040E0E42FF0E0E155F94F4491E22FFB
:101E8000F0E0E155F94F9491E82FF0E0E155F94F7A
:101E9000E49149839883EA83DF91CF911F910F9159
:101EA000FF90EF90089590911C0292FF0DC0282F93
:101EB0002871283019F4877F846006C0282F247188
:101EC000243011F48B7F886093FF0DC0282F287178
:101ED000283119F4877E846106C0282F24712431AB
:101EE00011F48B7E886194FD877E08951F93CF93B4
:101EF000DF93CDB7DEB767970FB6F894DEBF0FBE9E
:101F0000CDBF4B8B5C8B6D8B7E8B8F8B86E09E0168
:101F1000235F3F4FD901E82F1D92EA95E9F795E03D
:101F2000FE017396D90101900D929A95E1F7F9019E
:101F3000DE01179601900D928A95E1F7CE01079682
:101F40000E94F92A81113EC086E0FE013796DE012B
:101F5000119601900D928A95E1F7FF81E8856A85D7
:101F60007B856115710531F0EF3F31F481E0FF3F72
:101F700019F403C081E001C080E080FD23C02091FE
:101F80008B0230E0C9010196877099274091BC020D
:101F900050E08417950779F1F983EA837D836C8398
:101FA00096E0929FD001939FB00D1124A457BD4F8E
:101FB000FE01319601900D929A95E1F780938B0284
:101FC0000E945E2A16E08091BC0290918B028917D4
:101FD00009F1189FC001112484579D4F0E94F92ACE
:101FE0008823C1F08091BC0290E001968770992708
:101FF0008093BC02E8CF109266020E94C12C10921E
:102000008B021092BC02E5E8F2E086E0DF011D924F
:102010008A95E9F767960FB6F894DEBF0FBECDBF7D
:10202000DF91CF911F9108952091A7013091A801D0
:102030002817390771F09093A8018093A701E091C8
:102040001F02F0912002309721F00084F185E02DED
:10205000099408952091A5013091A6012817390708
:1020600071F09093A6018093A501E0911F02F09179
:102070002002309721F00680F781E02D0994089521
:10208000E0911F02F0912002309721F00190F08141
:10209000E02D099480E008958091470280FD0AC0F8
:1020A000E3E9F1E0118210821282339691E0E53A81
:1020B000F907C1F7539A62E170E083E991E00E9469
:1020C0000F2287EC90E00197F1F700C0000008951F
:1020D000EF92FF920F931F93CF93DF93EC018C81CC
:1020E0009D810196817099279D838C8383E9E82ED9
:1020F00081E0F82E10E008E7212F26958C819D8144
:10210000820F911D81709927970140914A02609139
:102110004902FC010E9FC0010F9F900D11240E94E7
:10212000DF0E1F5FF3E0EF0EF11C163029F7DF9191
:10213000CF911F910F91FF90EF900C944C100F9343
:102140001F93CF93DF93C3E9D1E0FE011182108288
:102150001282339681E0E53AF807C1F700E010E01B
:1021600080919201082E000C990B08171907ECF0CA
:1021700080910D01082E000C990B80179107ACF08F
:1021800080914702881F8827881F90914802592F05
:10219000550F97FB992790F99E0140914A02609153
:1021A0004902852B0E94DF0E03C0198218821A8211
:1021B0000F5F1F4F23960630110591F60E944C10B9
:1021C00080910C0190919201980F9093920120912F
:1021D0000D01280F20930D01121614F495301CF0F8
:1021E000819580930C01DF91CF911F910F910895FC
:1021F000CF92DF92EF92FF920F931F93CF93DF93D3
:10220000FC01828180FF03C0DD24DA9402C0DD245A
:10221000D39403E911E0C0E0D0E0F801118210820C
:10222000128294E0E92EF12CC12C809191018C0D49
:1022300087FD8A5F082E000C990BC817D907E9F4AF
:1022400080914A028E9DA0018F9D500D11245595BD
:1022500047955595479580914702881F8827881F85
:1022600090914802592F550F97FB992790F99801A3
:1022700060914902852B0E94DF0ECD0CF1E0EF1A30
:10228000F10899F621960D5F1F4FC630D10529F64A
:102290000E944C108091910191E0D91206C08111E9
:1022A00002C085E007C0815005C090E00196BE01E4
:1022B0000E949D3180939101DF91CF911F910F91E9
:1022C000FF90EF90DF90CF900895CF92DF92EF9242
:1022D000FF920F931F93CF93DF93EC0183E9E82ED6
:1022E00081E0F82E00E010E098E6C92EDD24D394BA
:1022F0008C819D81800F911FB6010E949D319701B5
:1023000040914A02609149020E94DF0E045C1F4F17
:1023100083E0E80EF11C083681E0180749F70E94B7
:102320004C102A818C819D8120FF05C00196B80147
:102330000E949D3107C0181619061CF087E691E02F
:1023400001C001979D838C83DF91CF911F910F91E5
:10235000FF90EF90DF90CF900895CF93DF9300D060
:102360001F92CDB7DEB72091470220FF18C09E0113
:102370002F5F3F4F0E94DF0E8091470280FF0FC00A
:102380008B8199812A81E3E9F1E021839083828323
:10239000339631E0E53AF307C1F70E944C100F90F5
:1023A0000F900F90DF91CF910895CF93DF93EC01C1
:1023B000E7E4F2E0438162818C819D810E94AD114E
:1023C0008C819D81019668E671E00E949D319D831C
:1023D0008C83DF91CF910895CF93DF93EC016C81D3
:1023E00070E080E090E00E947E2F20E030E04FE738
:1023F00053E40E94A12E2BED3FE049E450E40E94FB
:10240000A7300E9414310E941B2F2BE43AE34EE2C6
:102410005FE30E94342E20EF3BEF48ED52E40E9430
:10242000A7300E944D2F462FE7E4F2E08081881FFD
:102430008827881F90914802292F220F97FB992700
:1024400090F96281822B0E94AD118C8190E00196FF
:102450008C83DF91CF9108958091470280FF03C064
:1024600086958F73089580E0089580914702282F04
:1024700026952F7330E02115310519F4817882609B
:1024800005C02332310524F08178846480934702AB
:1024900030914702432F441F4427441F2091480294
:1024A000522F550F852F842B27FB992790F98936BA
:1024B00041E094077CF068E671E00E949D3180FB6A
:1024C00037F93093470286952078822B90FB87F965
:1024D000809348020895CF92DF92EF92FF926B01B2
:1024E0007C010E943512B701A60188E090E0FF90C0
:1024F000EF90DF90CF900C94122E5F926F927F92AC
:102500008F929F92AF92BF92CF92DF92EF92FF9203
:102510000F931F93CF93DF9300D01F92CDB7DEB7F9
:102520008C01E62EF42E522E8091470280FF97C038
:10253000E82FE695EF73AE2FB0E0A75CBE4F9C91FD
:1025400090934C02282F2E772230C1F49E012F5FEA
:102550003F4FC8010E94DF0E8091470280FF5FC09D
:102560008B8199812A81E3E9F1E021839083828341
:10257000339631E0E53AF307C1F74FC0923019F4D2
:10258000F0904A024CC0963069F4881F8827881F53
:1025900090914802292F220F022F082B97FB112719
:1025A00010F93DC0993089F39931C9F5E951E0FD41
:1025B00002C021E001C02FEFE695F0E0EE0FFF1F13
:1025C000E155F84F8591949166E070E00E94893161
:1025D00026034001279F900C1124580188E9A81A6E
:1025E0008EEFB80A93E9C92E91E0D92E28E6622E23
:1025F00077247394C501B3010E94893196014F2D50
:102600006E2D0E94DF0EA80CB91C33E0C30ED11C46
:1026100085EAC81681E0D80669F70E944C108091BF
:10262000470200FB87F980934702902F969580918F
:1026300048028078892B10FB87F980934802E0924A
:102640004902F0924A02552051F060914702709180
:1026500048028091490290914A020E946B120F90A9
:102660000F900F90DF91CF911F910F91FF90EF90FE
:10267000DF90CF90BF90AF909F908F907F906F90A2
:102680005F9008959091470290FF4AC09178811120
:1026900002C0926007C0833210F0946403C08F734D
:1026A000880F982B90934702662351F06091470260
:1026B000709148028091490290914A020E946B12E7
:1026C0006091470266956F7370E04BE050E081E0E7
:1026D00091E00E94B731892B19F010924D0209C088
:1026E00081E080934D020E94522890934202809391
:1026F000410281E08093440280914702881F88272D
:10270000881F90914802392F330F97FB992790F932
:1027100020E040914A0260914902832B0C947D1283
:10272000089561E00C9442138091470286958F735F
:10273000815009F482E261E00C94421380914702D7
:1027400086958F738F5F833208F081E061E00C948F
:102750004213E7E4F2E083E08083109248028FEFB7
:1027600082838383148260817181828193810C943E
:102770006B12CF93DF9326E4829FC0011124FC01EA
:1027800037E0739FE00DF11D1124E60FF11DEE0FF0
:10279000FF1FE456FE4FC591D491CE01C238D1053A
:1027A00049F1B0F4C133D10509F464C048F4C93229
:1027B000D10509F458C0CA32D10509F462C068C015
:1027C000C533D10509F448C0C933D10599F060C0BB
:1027D000C33ED10541F138F4C03ED10591F0C23E6F
:1027E000D105B1F055C0C63ED10521F1C73ED10596
:1027F00061F14EC020911C0220FD09C221FD07C2DB
:1028000008C220911C0220FF04C289E390E001C2AB
:1028100020911C0222FFFDC180911C0284FDA9C1F0
:1028200083EE90E0F6C180911C0282FFF5CF82EE2C
:1028300090E0EFC120911C0223FFEBC180911C02AC
:1028400084FD97C187EE90E0E4C180911C0283FF74
:10285000F5CF86EE90E0DDC120911C0225FFD9C1A5
:1028600089E290E0D6C120911C0225FFD2C185E308
:1028700090E0CFC120911C0226FFCBC18AE290E0FC
:10288000C8C120911C0226FFC4C181E390E0C1C1F0
:10289000C11540E5D40708F049C0C11520E4D207AE
:1028A00008F030C1C83ED10520F5C03ED10508F082
:1028B000B0C1C83AD10570F4C53AD10508F0ADC031
:1028C000C130D10509F4A5C108F453C1249708F417
:1028D00050C19FC1CF3BD10508F4AAC0C03CD1056F
:1028E00008F447C1CE01880F991FFC01E15DFA4F42
:1028F000FEC0C11530E2D30760F4C11541E0D40732
:1029000008F087C1C03FD10508F433C1CE019065FE
:1029100080C1C11580E3D80708F0ECC0CE019F70DC
:10292000FC01EE0FFF1FE155F94FE1C0C11525E590
:10293000D20708F045C0C11534E5D30708F0FAC046
:10294000C11542E5D40718F5C11581E5D80708F08F
:10295000DDC0CE0174E0969587957A95E1F7282F32
:1029600023703C2F337081E090E002C0880F991FE4
:102970003A95E2F79C68922BEC2FEF70E695E6957E
:1029800020E2E29FF00111248E2B9F2B42C1AE0169
:10299000437055272C2F26952695C115D34508F051
:1029A000BAC081E090E002C0880F991F4A95E2F713
:1029B00040E2249F90011124822B932B9C6829C113
:1029C000C11549E5D40798F4C11588E5D80708F082
:1029D000B6C0C11526E5D20708F0CBC08C2F0E94E7
:1029E000530F8F7190E0982F8827906212C1C11504
:1029F0003AE5D30708F4A8C0CE019056811590425D
:102A000008F0B7C08D2F8F710E94530FFE01FF2772
:102A1000F0628F719F01382BAAC0C53AD10509F425
:102A2000ABC0C63AD10509F0AAC082E890E4F1C073
:102A3000C83AD10509F4A6C0C93AD10509F4A5C020
:102A4000CA3AD10509F4A4C0CB3AD10509F4A3C010
:102A5000CC3AD10509F4A2C0CB3BD10509F4A1C001
:102A6000CC3BD10509F4A0C0CD3AD10509F49FC0F3
:102A7000C03BD10509F49EC0CE3AD10509F49DC0F2
:102A8000CF3AD10509F49CC0C13BD10509F49BC0E4
:102A9000C23BD10509F49AC0C33BD10509F499C0E2
:102AA000C43BD10509F498C0C53BD10509F497C0D2
:102AB000C63BD10509F496C0C73BD10509F495C0C2
:102AC000C83BD10509F494C0C93BD10509F493C0B2
:102AD000CD3BD10509F492C0CE3BD10509F491C09C
:102AE000CA3BD10509F490C080E094E492C085917E
:102AF00094918FC0CE019927D3FF02C0986C89C0F2
:102B0000906C87C0CE019F70906A83C09C2F8827ED
:102B1000816F906A7EC081E090E002C0880F991FAB
:102B20004A95E2F740E2249F90011124822B932BD7
:102B30009A686FC09C2F8827846F906A6AC09C2F08
:102B40008827806F906A65C08C2F8F700E94530F0A
:102B5000FE0194E0F695E7959A95E1F7EF70F0E0C5
:102B6000FE2FEE27F06A8F70806E9F01282BC9011F
:102B700050C080E090E04DC081E890E44AC083E816
:102B800090E447C082EE94E444C089EE94E441C0EE
:102B90008AEE94E43EC085EB94E43BC086EB94E47B
:102BA00038C083EB94E435C084EB94E432C087EB07
:102BB00094E42FC08CEC94E42CC08DEC94E429C0F8
:102BC00083E895E426C08AE895E423C082E995E489
:102BD00020C084E995E41DC081E296E41AC083E236
:102BE00096E417C084E296E414C085E296E411C02E
:102BF00086E296E40EC087E296E40BC08FE694E48A
:102C000008C080E794E405C08AE296E402C080EE42
:102C100090E0DF91CF910895FF920F931F93CF9390
:102C2000DF938C01F8012491222309F444C0C801E8
:102C30000196213041F48C01FC01C4918C2F0E943B
:102C40001E2D8C2F33C0223031F48C01FC01849175
:102C50000E941E2D2DC0233021F48C01FC01849193
:102C600025C030E0F901E15DF94FF490F901E1553B
:102C7000FA4FD491F901E15DFA4FC491DD2319F0C7
:102C800081EE0E941E2DCC2319F086EE0E941E2D8F
:102C90008F2D0E941E2D8F2D0E94DF2CCC2319F02A
:102CA00086EE0E94DF2CDD2319F081EE0E94DF2CDE
:102CB0000F5F1F4FB7CFDF91CF911F910F91FF9003
:102CC0000895EF92FF920F931F93CF93DF93CDB7A9
:102CD000DEB72A970FB6F894DEBF0FBECDBF8C01CA
:102CE00067E275E00E941B1E8091EA029091EB0260
:102CF000A091EC02B091ED0284309105A105B105DF
:102D000029F168F481309105A105B105E1F0C0F029
:102D10000297A105B10531F561E175E01FC0803171
:102D20009105A105B105A9F080329105A105B10574
:102D300099F00897A105B105A9F464E075E00EC00B
:102D40006FE175E00BC067E175E008C06AE075E00F
:102D500005C06DEF74E002C067EF74E0C8010E9427
:102D60001B1E28C060EF74E0C8010E941B1E8091EA
:102D7000ED028F938091EC028F938091EB028F9301
:102D80008091EA028F9385E391E09F938F931F9246
:102D90008AE08F93CE0101967C019F938F930E94CE
:102DA000EA31B701C8010E942F1E0FB6F894DEBFAA
:102DB0000FBECDBF2A960FB6F894DEBF0FBECDBFB3
:102DC000DF91CF911F910F91FF90EF900895CF93D6
:102DD000DF93EC01682F83E090E00E94002EBE019B
:102DE00080E090E0DF91CF910C94542AE8EDF0E080
:102DF0008081806180838AE18A95F1F700C08091AB
:102E0000D90081700895089508952091B601211187
:102E100003C02091730202C0223011F02430F1F47B
:102E200022E02093E9002FEF3091E800215035FD9A
:102E300006C035ED3A95F1F700002111F5CF20914C
:102E4000E80025FF0BC040E050E066E070E00E9423
:102E50002E228091E8008E778093E8000895CF932A
:102E6000DF932091B601211103C02091730202C0AB
:102E7000223011F0243039F521E02093E9002FEFC2
:102E80003091E800215035FD06C035ED3A95F1F757
:102E900000002111F5CF2091E80025FF14C0EC01BE
:102EA00040E050E068E070E00E942E228091E8004F
:102EB0008E778093E80088E0FE01A9E6B2E00190F9
:102EC0000D928A95E1F7DF91CF9108952091E4006A
:102ED0003091E50095E64091EC00842F817040FF31
:102EE00023C08091E80080FD1DC08091730288237B
:102EF00099F0853099F08091EB0085FD11C04091EB
:102F0000E4005091E5002417350729F3915011F0A2
:102F10009A01E1CF84E0089582E0089583E0089566
:102F200081E0089580E008954091E80042FFDDCF00
:102F300008958091750287FF11C08091E80082FD9D
:102F400005C0809173028111F8CF11C08091E80013
:102F50008B770BC080917302882349F08091E80041
:102F600080FFF8CF8091E8008E778093E800089585
:102F7000982F973068F59093E900981739F0709181
:102F8000EC002091ED005091F00003C0242F762F2B
:102F900050E021FD02C09F5FECCF3091EB003E7FFF
:102FA0003093EB003091ED003D7F3093ED00309198
:102FB000EB0031603093EB007093EC002093ED0058
:102FC0005093F0002091EE0027FDE5CF80E00895BA
:102FD0008F708093E90081E0089520917B02309109
:102FE0007C022617370748F06115710539F42091E6
:102FF000E8002E772093E80001C0B901FC0120E031
:103000006115710579F1809173028823F1F18530A2
:10301000F1F18091E80083FD3CC08091E80082FDE1
:103020002EC08091E80080FFEBCF2091F3008091CB
:10303000F20090E0922B6115710551F088309105F6
:1030400038F421912093F100615071090196F3CF7A
:1030500021E0089709F020E08091E8008E778093C6
:10306000E800CECF2111CFCF0AC080917302882310
:1030700061F0853061F08091E80083FD0AC08091A5
:10308000E80082FFF2CF80E0089582E0089583E0B7
:10309000089581E00895CF93DF93CDB7DEB72A97E7
:1030A0000FB6F894DEBF0FBECDBF84B7877F84BF55
:1030B0000FB6F894A89580916000886180936000B5
:1030C000109260000FBE80E8809361001092610052
:1030D00085B7806885BF85B7806885BF0E94F61672
:1030E00080930E010E94F616882361F08FE091E034
:1030F0009093B9018093B80183E08093B701529A0D
:103100005A9A11C08FE091E09093B9018093B80171
:1031100083E08093B70152985A9AEA9A80916900A5
:103120008F7C8093690078940E9475250E94942575
:103130008091E20084608093E20078948091730231
:103140008823A1F01091E9001F709091EC00892F65
:10315000817090FD80E8182B1092E9008091E800C2
:1031600083FD0E945A221F701093E90082E084BD03
:1031700093E095BD9AEF97BD80936E0080913602E3
:1031800083608860809336020E945F1DACE5B1E0E9
:1031900043E651E061E070E08D91E82FE295EF7039
:1031A000F0E021A18F708B0102C0000F111F8A95E2
:1031B000E2F7C801902F9095922391A392A1892BB9
:1031C00082A34A175B0741F7559A209A5D9A289A7D
:1031D000A2E1B2E08CE292E0E2E2F2E011921D9212
:1031E0008E179F07D9F70E94F616809311020E944E
:1031F000B728811102C00E94C2280E94F616182F1B
:103200001092B9008CE08093B8008EEA0E94611F92
:10321000882309F4AFC060E885ED0E94CB218823A4
:1032200009F4A8C06FE188EA0E94CB21882309F441
:10323000A1C060E083ED0E94CB21882309F49AC0ED
:1032400080E40E94611F882309F494C064E18DE842
:103250000E94CB21882309F48DC060E080E20E94A7
:10326000CB21882309F486C0111114C080EA0E9482
:10327000611F882309F47EC080EC0E94611F8823AF
:1032800009F478C062E08AED0E94CB21882309F41A
:1032900071C008C081EA0E94611F882309F46AC0D6
:1032A00088ECEBCF6FE881E80E94CB21882309F4FA
:1032B00061C061EF89ED0E94CB21882309F45AC0D7
:1032C00060E48BED0E94CB21882309F453C084EA8B
:1032D0000E94611F882309F44DC086EA0E94611F85
:1032E000882309F447C08EE20E94611F882309F4F5
:1032F00041C08FEA0E94611F8823E1F160E081E80C
:103300000E94CB218823B1F144E550E060E270E0F7
:103310008AEB91E00E94E3318AEB91E090930F02F7
:1033200080930E0281E08093100263E082E20E94AB
:10333000FD218823D9F06FE781E20E94FD218823D7
:10334000A9F00E94D821811111C080E40E94521F6F
:1033500081110CC004E010E080E00E94521F1F5F4A
:103360001038D1F70150B9F7109210020E943D1F9A
:103370000E94771F0E94B728811102C00E94C228B4
:1033800082E090E00E94EC2D8093360284E090E091
:103390000E94EC2D90E090931D0280931C0283E02C
:1033A00090E00E94EC2D682F70E080E090E00E9499
:1033B000542A80911E02811139C0809136028160A9
:1033C000809336020E94B728811104C00E94C2284F
:1033D0000E94A91388E090E00E94F42D60934702B8
:1033E000709348028093490290934A026E7771F479
:1033F0000E94A91388E090E00E94F42D6093470298
:10340000709348028093490290934A020E943512B9
:1034100010924D028091470280FF05C0869560E0C2
:103420008F730E94421381E080931E0287E291E035
:103430009093200280931F02EE24E394F12CE8E1A4
:10344000CE2ED12C80917302853009F037C0809147
:103450007302843011F11092210280E40FB6F894C7
:10346000A895C09260000FBE8093600083B7817FF3
:10347000846083BF83B7816083BF7894889583B766
:103480008E7F83BF0FB6F894A89580916000886105
:1034900080936000109260000FBE809172028823BA
:1034A00009F4D0CF0E94F520E2E2F2E0819181118F
:1034B00075C112E0EC32F107C9F7C4CF0E94F520C4
:1034C000E7E3F2E0A2E2B2E000E010E0302F2D915D
:1034D00041914227B1F180E090E050E0B82EBA016E
:1034E000082E02C0759567950A94E2F760FF25C023
:1034F00089833A83C70102C0880F991FBA94E2F703
:103500005C01822F90E08A219B2121E0892B09F424
:1035100020E02B830E9452288160782F9D838C832A
:1035200049815A816B818D810E94760FF801E95C97
:10353000FD4F8081A826A0821AC001968730910590
:1035400069F60F5F1F4F0A30110509F0BFCF8FEFEB
:103550008E838F8318860E9452288160782F9A87E5
:1035600089874E815F8168858A850E94760F809168
:103570003302909134020E942828AC0190913202CB
:10358000911103C02CE231E002C022E330E0421787
:10359000530708F46BC080912E0210912F02811105
:1035A0000BC0111111C12091300221110DC12091C8
:1035B0003102211109C15AC09F3F19F09F5F9093BA
:1035C0003202181624F40E947A2780932E028091EA
:1035D0002E0287FF05C00E947A27819580932E02D4
:1035E000111624F40E947A2780932F0280912F02D3
:1035F00087FF05C00E947A27819580932F02309122
:103600002E02332379F020912F02222359F005EB6B
:103610003003C001112490932E022003C001112415
:1036200090932F0280913002181624F40E9458279C
:10363000809330028091300287FF05C00E94582796
:1036400081958093300280913102181624F40E94F3
:103650005827809331028091310287FF05C00E9474
:1036600058278195809331020E945E280E94401065
:1036700090913502891721F00E9440108093350205
:1036800080914D02882309F4DDCE80914C02E091B7
:103690004702E695EF73E81BE0934302823059F44A
:1036A000F0E0EB53F84FE4910E2F10E06CEEA62EF5
:1036B00061E1B62E45C0863059F4F0E0EE53F84F84
:1036C000E4910E2F10E055EDA52E51E1B52E38C036
:1036D000893061F4E695F0E0E154F84FE4910E2F63
:1036E00010E045E6A42E41E1B42E2AC08F3061F4EB
:1036F000E695F0E0E454F84FE4910E2F10E038EF37
:10370000A32E30E1B32E1CC0853159F4F0E0E7540C
:10371000F84FE4910E2F10E02FE9A22E20E1B22EF7
:103720000FC0883139F408EE13E098E6A92E90E135
:10373000B92E06C000ED17E08EEDA82E8EE0B82E53
:1037400080914402882389F0109244020E945228FA
:10375000980120953095820F931F90934202809399
:1037600041021092460210924502809141029091CE
:1037700042020E9428288017910708F463CEE09146
:103780004102F09142020E0F1F1F1093420200935C
:10379000410281E492E0F501099554CE80E189BDB2
:1037A00082E189BD09B400FEFDCF8091D8008F7DF4
:1037B0008093D8008091E00082608093E000809147
:1037C000E00081FDFCCF3ECE9F3F09F0F7CE08CF51
:1037D0008EE14A9B02C08150E1F74A9BFECF0895DB
:1037E000615091E001C0990F6A95EAF720E031E05D
:1037F000992361F0492F482319F05A9A232701C0D1
:103800005A9840E24A95F1F79695F2CF222311F0AB
:103810005A9A01C05A9880E28A95F1F75A98089509
:10382000FC012AE02A95F1F790E020E080E031E009
:10383000261779F040E14A95F1F7880F4A9B02C0BC
:103840008160932700C0000040E14A95F1F72F5FA7
:10385000EFCF20E12A95F1F729B100C0000030E157
:103860003A95F1F722FB222720F992272081920F27
:1038700090830895EF92FF920F931F93CF93DF935E
:103880001F92CDB7DEB719828C017C01E60EF11CC8
:103890000E151F0559F00E94E81B68E0CE01019645
:1038A0000E94101CF80181938F01F2CF81E0998171
:1038B000911180E00F90DF91CF911F910F91FF90B8
:1038C000EF9008955A9880E28A95F1F75A9A0895F0
:1038D000FF920F931F93CF93DF93EC018C01060FA0
:1038E000111DC017D10741F0F9900E94621C68E0D9
:1038F0008F2D0E94F01BF5CFDF91CF911F910F917B
:10390000FF9008950F931F93CF93DF932091B701FA
:1039100030E0281739070CF471C09C0193E0220FA6
:10392000331F9A95E1F7C091B801D091B901C20F48
:10393000D31FF894529A5A9845E04A95F1F700003F
:10394000982F969595708570890F982F937086950E
:103950008695890F8901082B0E94621C84E08A9554
:10396000F1F700C067E0802F0E94F01B40E14A950C
:10397000F1F752985A9A4A9902C000C0FCCF87E0EA
:1039800090E04A9B0EC0019751F4529A5A9AE881EE
:10399000F98181E08083789481E090E031C000C0BB
:1039A000F0CF6D81662381F08E819F810E943A1C49
:1039B00081110AC0529A5A9AE881F98182E0808383
:1039C000789482E090E01CC00E94E81B80E28A9517
:1039D000F1F75A98529A40E14A95F1F76A816623C5
:1039E00021F08B819C810E94681C0E94621CE881EE
:1039F000F9811082789480E090E002C084E090E049
:103A0000DF91CF911F910F9108950F931F93CF9343
:103A1000DF938C010C5A1F4FD801ED91FC91119747
:103A200060832D913C9111972F5F3F4F2D933C93D5
:103A3000281B390B24353105B9F4EC01BC016B5E50
:103A40007F4F4FE350E00E94D131CE01CF96F80175
:103A50009183808345E150E060E270E0DF91CF9197
:103A60001F910F910C94E331DF91CF911F910F9132
:103A700008951F93CF93DF93FC01EA5AFF4F21E093
:103A800020836A3099F4EC013297808191818C1BFC
:103A90009D0B65E170E00E949D31182F153158F49F
:103AA00060E2CE010E94051D1F5FF8CFDF91CF912C
:103AB0001F910C94051DDF91CF911F910895CF9315
:103AC000DF93AEE7B1E043E851E061E070E08D9153
:103AD000E82FE295EF70F0E021A18F70EB0102C0BA
:103AE000CC0FDD1F8A95E2F7CE019C2F9095922393
:103AF00091A392A1892B82A34A175B0741F7DF911B
:103B0000CF9108959F92AF92BF92CF92DF92EF92A2
:103B1000FF920F931F93CF93DF9380910E0181113A
:103B200003C0C5E0D0E002C0C0E0D0E0AE014E5E10
:103B30005D4F7A018EE7C82E81E0D82E8A01AA2433
:103B4000A394B12C25E0922EF3E8CF16F1E0DF0626
:103B500009F44AC0F60181916F01E82FE295EF70F8
:103B6000F0E021A18F70A50102C0440F551F8A9576
:103B7000E2F7CA01922F982B91A392A180958923F5
:103B800082A350EA5A95F1F7ECE5F1E020E040E03D
:103B900050E03191A32FA295AF70B0E090968C9138
:103BA00090E03F7002C0959587953A95E2F780FDC9
:103BB00007C0C501042E01C0880F0A94EAF702C0AD
:103BC00080E090E0282B4F5F5F4F4730510509F7A9
:103BD000F8018081821719F02083909231010E94B0
:103BE0005F1D0F5F1F4FB0CF809131018823B1F06F
:103BF000815080933101811103C0CE5DDD4F07C03C
:103C00008FE99FE00197F1F700C0000007C0F701BE
:103C100091917F0199938F5F8530C9F781E0DF91A2
:103C2000CF911F910F91FF90EF90DF90CF90BF90B9
:103C3000AF909F9008950F931F93CF93DF938C01C4
:103C4000EB01FE016491662329F0C8010E94391D31
:103C50002196F7CFDF91CF911F910F910895EF92A9
:103C6000FF920F931F93CF93DF937C01EB01FB0136
:103C700001900020E9F78F0101501109C017D10709
:103C800028F46991C7010E94391DF8CFDF91CF91C7
:103C90001F910F91FF90EF9008951F920F920FB612
:103CA0000F9211240F931F932F933F934F935F9382
:103CB0006F937F938F939F93AF93BF93EF93FF93F4
:103CC000CF93DF931F92CDB7DEB719820E94E81B16
:103CD00067E0CE0101960E94101C382F369536956C
:103CE0003695932F96959570232F2570920F292F37
:103CF0002370969596958770920F891348C0898195
:103D0000811145C08091B701831708F440C080E15C
:103D10008A95F1F75A9A529AA2E0AA95F1F700C053
:103D20000091B8011091B901B8E03B9F000D111D41
:103D300011245A98F8016581662321F086819781C4
:103D40000E94681C0E94621CF0E1FA95F1F75A98F3
:103D500052985A9A80E18A95F1F7D80112966C919F
:103D60001297662369F013968D919C9114970E9487
:103D70003A1CD801ED91FC91811105C082E004C08C
:103D8000D801ED91FC9188E080830E94E81B0F90A0
:103D9000DF91CF91FF91EF91BF91AF919F918F9163
:103DA0007F916F915F914F913F912F911F910F9153
:103DB0000F900FBE0F901F9018951F920F920FB685
:103DC0000F9211248F939F93EF93FF938091B900EB
:103DD000887F803869F038F48823C9F18036C9F5C6
:103DE00010925F0236C0883A09F1883BF9F031C081
:103DF00080915F02811111C08091BB0080935E02AF
:103E000080915E02803120F010925E0280E001C05D
:103E100081E091E090935F021DC0E0915E02F0E0CE
:103E20008091BB00E25BFD4F808308C0E0915E02A1
:103E3000F0E0E25BFD4F80818093BB0080915E02E9
:103E400090E001968F70992780935E0202C01092D5
:103E5000BC0081E09091BC008295880F880F807C27
:103E60009568892B8093BC00FF91EF919F918F9172
:103E70000F900FBE0F901F90189584E98093BC009F
:103E800083E390E02091BC0024FD02C00197D1F7AC
:103E9000089583E390E02091BC0027FD02C00197C4
:103EA000D1F708958093BB0084E88093BC000E9402
:103EB000491F9091B900987F81E0983209F480E021
:103EC0000895CF93C82F0E94D82181110AC080E0A5
:103ED0000E94521F811105C08C2F0E94521FC1E009
:103EE0008111C0E00E943D1F8C2FCF910895BF9299
:103EF000CF92DF92EF92FF920F931F93CF93DF93B6
:103F00000E94522890936102809360028FEA0E947F
:103F1000611F63E082E20E94FD218823D1F16DE7F9
:103F200081E20E94FD218823A1F10E94D821811104
:103F300030C080E40E94521F81112BC08AEBE82E12
:103F400081E0F82E94E0B92EC0E0D0E0F701EC0F4C
:103F5000FD1FC08086E0C89E6001112400E010E0D3
:103F6000F601E00FF11FE753F84F84910E94521FB2
:103F70000F5F1F4F0630110599F72196C531D10506
:103F800029F7BA9485E1E80EF11CB110DDCF10924B
:103F90001002DF91CF911F910F91FF90EF90DF9072
:103FA000CF90BF900C943D1FEF92FF920F931F9301
:103FB000CF93DF93CDB7DEB7C557D1090FB6F894CD
:103FC000DEBF0FBECDBF44E550E060E270E08E0181
:103FD0000F5F1F4FC8010E94E33167961FAF0EAFFE
:103FE000679781E068968FAF689780911102882368
:103FF00009F499C080911C0282FD0DC067E37DE049
:10400000C8010E941B1E65E37DE0C8010E941B1EC3
:104010006AE37DE00CC06DE37DE0C8010E941B1ED9
:1040200063E37DE0C8010E941B1E60E47DE0C801DF
:104030000E941B1E61E37DE0C8010E941B1EC80197
:104040000E9461166FE27DE0C8010E941B1E0E9463
:10405000401080FD03C06FE17DE002C067E27DE0BB
:10406000C8010E941B1E0E94401081FD03C065E133
:104070007DE002C06AE17DE0C8010E941B1E0E9433
:10408000401082FD03C069E07DE002C06EE07DE08B
:10409000C8010E941B1E63E17DE0C8010E941B1E37
:1040A0002091470220FF67C080914A0231E1632FCF
:1040B0000E947D311F928F93809149020E947D3131
:1040C0001F928F93822F881F8827881F9091480204
:1040D000292F220F822B97FB992790F96AE070E035
:1040E0000E949D317F936F938091470286958F73D5
:1040F0001F928F9383E691E09F938F931F928EE19F
:104100008F937E0128E5E20EF11CFF92EF920E9450
:10411000EA31B701C8010E942F1E0FB6F894DEBF26
:104120000FBECDBF28C063E47DE0C8010E941B1E06
:104130008091470280FF1CC086958F731F928F93DA
:1041400087E791E09F938F931F928EE18F937E017B
:1041500098E5E90EF11CFF92EF920E94EA31B70157
:10416000C8010E942F1E0FB6F894DEBF0FBECDBF50
:10417000C8010E94611644E550E0B8018AEB91E065
:104180000E94C431892B59F084E5F801AAEBB1E013
:1041900001900D928A95E1F781E080931002809161
:1041A0001002811104C080910001882321F00E9437
:1041B000771F1092000180916002909161020E942D
:1041C000282881369A4E18F08EEA0E94611FCB583B
:1041D000DF4F0FB6F894DEBF0FBECDBFDF91CF919A
:1041E0001F910F91FF90EF900895EF92FF920F9320
:1041F0001F93CF93DF9380911102882309F472C03B
:104200000E94821D80910E01811103C0C5E0D0E0A3
:1042100002C0C0E0D0E0CE5DDD4F45E050E0BE0121
:104220008FEA91E00E94C4317C0185E0FE01AFEA93
:10423000B1E001900D928A95E1F780910E01811114
:1042400003C0C0E0D0E002C0C5E0D0E090913301EF
:1042500080913201981761F082E090E00E94821C08
:104260008C01892B39F4809132018093330102C093
:1042700000E010E0EF2849F480916202909163021F
:10428000892B19F480E090E002C081E090E00E9468
:10429000821C892B49F48091B401809332011092E1
:1042A00063021092620206C081E090E09093630284
:1042B000809362020115110531F00230110509F0F9
:1042C0004FC028984DC0289ADE01AE5DBD4F85E0F5
:1042D000E9EAF1E001900D928A95E1F75D9A10927A
:1042E000640234C00E94821D80910E01811103C0BE
:1042F000E5E0F0E002C0E0E0F0E0EE5DFD4F80E0E0
:1043000020E030E0D901A755BE4F4C91919149135F
:1043100081E09C932F5F3F4F2530310599F79091B5
:10432000B401890F8093B40180910E01811103C003
:10433000A0E0B0E002C0A5E0B0E0AE5DBD4F85E01A
:10434000EFEAF1E001900D928A95E1F70E94D41F07
:1043500081E0DF91CF911F910F91FF90EF90089531
:104360005D98809164028F5F80936402863070F361
:1043700080910E01811103C0E0E0F0E002C0E5E0B1
:10438000F0E0EE5DFD4F80E090E011920196853007
:104390009105D9F7DBCFCF93C62F0E94611F8823E9
:1043A00021F08C2FCF910C94611F80E0CF91089564
:1043B00084EA8093BC000E94491F8091B900887FE5
:1043C000883039F08091B900887F803111F081E028
:1043D000089588E78093BB0084E88093BC000E9426
:1043E000491F8091B900887F883129F08091B900F8
:1043F000887F803461F780E00895CF93C62F0E94B4
:10440000611F882349F080E00E94611F882321F00A
:104410008C2FCF910C94611F80E0CF9108952BB128
:10442000277F3BB138604FB7F894FC01680F791FC4
:10443000E617F70789F0819198E03BB9000000C0CA
:1044400087FF2BB9880F000000C000C000C02BB947
:1044500000C09A9591F7ECCF4FBF0895EF92FF926D
:104460000F931F93CF93DF937C018B010E946617FC
:10447000811119C0E70101151105A1F08091E80033
:1044800085FD0AC08091E8008E778093E8000E9445
:104490006617882381F307C089918093F10001504A
:1044A0001109E9CF80E0DF91CF911F910F91FF902B
:1044B000EF9008951F93CF93DF93CDB7DEB7AA9700
:1044C0000FB6F894DEBF0FBECDBFE5E7F2E08091F6
:1044D000F100819322E0ED37F207C9F7809176026F
:1044E000833009F460C030F4813071F0823009F417
:1044F0009CC0B3C08A3009F488C08B3009F46BC00B
:10450000893009F0AAC020C080917502813A09F073
:10451000A4C08091E800877F8093E80080917902B1
:1045200090917A02892B21F468E089E692E003C039
:1045300060E080E090E070E00E94ED178091E8007C
:104540008B778093E80089C080917502813209F0F1
:1045500084C08091790290917A02029708F07DC020
:104560008091E800877F8093E8008091E80082FDD9
:1045700005C0809173028111F8CF6FC02091F300C4
:104580008091F20090E0922B029729F48091F10043
:104590008B7F813021F48091F100809368028091BB
:1045A000E8008B7756C080917502813A09F055C0BA
:1045B0008091790290917A02892B09F04EC0809106
:1045C000E800877F8093E8008091E80080FFFCCFBF
:1045D0008091340139C0809175028132F1F580916A
:1045E000790290917A02892BC1F58091E800877F4A
:1045F0008093E8000E94991780917702809334019C
:10460000109266020E94C12C28C0809175028132EE
:1046100021F58091E800877F8093E8000E94991738
:10462000809178028093670218C080917502813A68
:10463000A1F48091E800877F8093E8008091E800F2
:1046400080FFFCCF809167028093F1008091E800A9
:104650008E778093E8000E9499178091E80083FF8D
:10466000D8C18091750290917602492F50E04A306E
:10467000510508F0CEC1FA01ED56FF4F0C94B1314F
:10468000803821F0823809F0C4C108C080917102DD
:1046900090917202992389F082600FC08091790213
:1046A0008F70873008F0B5C18093E9008091EB00EE
:1046B00085FB882780F91092E9009091E800977FA8
:1046C0009093E8008093F1001092F10071C1282FBF
:1046D0002D7F09F09EC1882319F0823061F099C1C5
:1046E00080917702813009F094C1933009F080E025
:1046F000809372022EC08091770281112AC080912E
:1047000079028F702FEF280F263008F082C1809336
:10471000E9002091EB0020FF1CC0933021F4809130
:10472000EB00806214C09091EB0090619093EB00DD
:1047300021E030E0A90102C0440F551F8A95E2F73D
:104740004093EA001092EA008091EB008860809329
:10475000EB001092E9008091E800877F2CC1811165
:1047600058C1109177021F778091E3008078812BE8
:104770008093E3008091E800877F8093E8000E94A7
:1047800099178091E80080FFFCCF8091E30080685A
:104790008093E300111102C082E001C083E08093A6
:1047A000730237C18058823008F033C1809177029C
:1047B000909178028C3D53E0950779F583E08A83E8
:1047C0008AE289834FB7F894DE01139620E03EE039
:1047D00051E2E32FF0E050935700E49120FF03C033
:1047E000E295EF703F5FEF708E2F90E0EA3010F0AF
:1047F000C79601C0C0968D939D932F5F243149F7D2
:104800004FBF8091E800877F8093E8006AE270E004
:10481000CE0101960E94ED17BAC0409179025091E5
:104820007A02292F332723303105B1F068F4213083
:10483000310509F4FDC02230310509F0EAC08BE3EF
:1048400090E0E2E1FEE050C02132310581F12232F8
:10485000310509F439C0DDC0992781309105B9F0DF
:1048600070F082309105D9F0039709F0D2C0EFE5DE
:10487000FEE0E4918E2F90E0EFE5FEE032C0E3E948
:10488000FEE0E4918E2F90E0E3E9FEE02AC0EDE740
:10489000FEE0E4918E2F90E0EDE7FEE022C0E5E639
:1048A000FEE0E4918E2F90E0E5E6FEE01AC04115AF
:1048B000510509F4C2C04130510509F0AAC089E090
:1048C00090E0EDE3FEE010C04115510509F4BAC0D7
:1048D0004130510509F09DC08FE490E0E3E8FDE030
:1048E00003C0009709F495C02091E800277F20932A
:1048F000E80020917B0230917C028217930708F434
:104900009C0140E02115310589F1809173028823D3
:1049100009F43DC08530D9F18091E80083FD37C0AE
:104920008091E80082FD2FC08091E80080FFEACFEF
:104930004091F3008091F20090E0942B2115310515
:1049400059F08830910540F444914093F10031963C
:10495000215031090196F2CF41E0089709F040E07B
:104960008091E8008E778093E800CCCF4111CDCFC5
:104970000AC080917302882351F0853041F0809104
:10498000E80083FD04C08091E80082FFF2CF8091AF
:10499000E8008B778093E8003CC08038D1F58091A7
:1049A000E800877F8093E800809174028093F10093
:1049B0008091E8008E778093E8000E94991729C0C3
:1049C000811127C0809177029091780299270297F0
:1049D00004F58091E800877F8093E80010917702CA
:1049E000109374020E949917111106C08091E30080
:1049F00087FD02C081E001C084E08093730242E041
:104A000061EC81E00E94B81742E261EC82E00E9412
:104A1000B8178091E80083FF1AC08091E800877F73
:104A20008093E8008091EB0080628093EB000FC0E0
:104A300082E190E0EDE4FEE057CF89E090E0E4E22F
:104A4000FEE052CF80E490E0E2EDFDE04DCFAA968B
:104A50000FB6F894DEBF0FBECDBFDF91CF911F918F
:104A600008951F920F920FB60F9211242F933F9328
:104A70004F935F936F937F938F939F93AF93BF9366
:104A8000CF93DF93EF93FF93C091E900CF708091B4
:104A9000EC00D82FD17080FDD0E81092E900809111
:104AA000F000877F8093F00078940E945A22109241
:104AB000E9008091F00088608093F000CD2BCF70EA
:104AC000C093E900FF91EF91DF91CF91BF91AF913A
:104AD0009F918F917F916F915F914F913F912F9116
:104AE0000F900FBE0F901F901895E8EDF0E08081B9
:104AF0008E7F80831092E2001092DA001092E10023
:104B0000A0EEB0E08C9181608C9380818F77808360
:104B100019BCA7EDB0E08C918E7F8C9380818F7E45
:104B20008083109265020895CF92DF92EF92FF92F8
:104B30000F931F93CF93DF93C8EDD0E088818F7ED2
:104B40008883E7EDF0E080818160808384E082BF2C
:104B500081E08093650288818E7F888302EE10E079
:104B6000F80110821092DA0081EEC82ED12CF601E5
:104B7000108288818F778883888180688883888184
:104B80008F7D888319BC1092730210927402109268
:104B900072021092710290EEE92EF12CF7018081E1
:104BA0008B7F808388818160888342E060E080E041
:104BB0000E94B817F60180818E7F8083F801808182
:104BC00081608083808188608083F70180818E7F0F
:104BD0008083888180618883DF91CF911F910F91BD
:104BE000FF90EF90DF90CF9008951F920F920FB635
:104BF0000F9211242F933F934F935F936F937F9363
:104C00008F939F93AF93BF93EF93FF938091E100B6
:104C100082FF09C08091E20082FF05C08091E1001F
:104C20008B7F8093E1008091DA0080FF2AC0809121
:104C3000D80080FF26C08091DA008E7F8093DA0052
:104C40008091D90080FF18C080E189BD82E189BDD3
:104C500009B400FEFDCF81E080937302809165026C
:104C600081110FC00E9475250E9494258091E20059
:104C700084608093E20005C019BC10927302109208
:104C800065028091E10080FF17C08091E20080FF03
:104C900013C08091E2008E7F8093E2008091E20059
:104CA00080618093E2008091D80080628093D80078
:104CB00019BC85E0809373028091E10084FF34C0C9
:104CC0008091E20084FF30C080E189BD82E189BD2E
:104CD00009B400FEFDCF8091D8008F7D8093D8006D
:104CE0008091E1008F7E8093E1008091E2008F7ED1
:104CF0008093E2008091E20081608093E2008091E5
:104D00007402882311F084E007C08091E30087FDDE
:104D100002C081E001C083E08093730210926602BA
:104D20000E94C12C0E9440108091E10083FF27C0A7
:104D30008091E20083FF23C08091E100877F809310
:104D4000E10082E080937302109274028091E1008E
:104D50008E7F8093E1008091E2008E7F8093E2005D
:104D60008091E20080618093E20042E060E080E0B8
:104D70000E94B8178091F00088608093F000FF9146
:104D8000EF91BF91AF919F918F917F916F915F91C3
:104D90004F913F912F910F900FBE0F901F9018953C
:104DA000809168020895803F39F480912F0287FF37
:104DB0006CC010922F0269C0813F29F480912F02AC
:104DC0001816BCF362C090912E02823F29F497FF1F
:104DD0005CC010922E0259C0833F19F41916CCF30F
:104DE00054C0893F41F48091300218160CF04DC038
:104DF000109230024AC08A3F29F48091300287FF26
:104E000044C0F6CF8B3F39F48091310287FF3DC01B
:104E1000109231023AC08C3F29F480913102181669
:104E2000BCF333C0843F21F480912D028E7F17C0E4
:104E3000853F21F480912D028D7F11C0863F21F4A2
:104E400080912D028B7F0BC0873F21F480912D0232
:104E5000877F05C0883F31F480912D028F7E80933B
:104E60002D0213C08D3F21F48091FA028E7F0BC07A
:104E70008E3F21F48091FA028D7F05C08F3F29F487
:104E80008091FA028B7F8093FA0280912E02811129
:104E90000EC080912F0281110AC0809130028111D1
:104EA00006C080913102811102C010923202089531
:104EB0008091FA0280FD16C081FD16C082FD18C0E7
:104EC00080913202882391F0883290F428E0829F0A
:104ED000C001112468E270E00E949D31862F672B8B
:104EE00029F007C082E0089584E0089581E00895E4
:104EF00088E008958091FA0280FD14C081FD14C0FD
:104F000082FD16C080913202882381F0843180F4C2
:104F100022E3829FC001112464E170E00E949D3170
:104F2000862F08958CE0089589E1089585E008951D
:104F300082E30895803F21F40E947A27819504C07E
:104F4000813F29F40E947A2780932F020895823F9F
:104F500021F40E947A27819504C0833F29F40E949E
:104F60007A2780932E020895893F19F40E945827CA
:104F700005C08A3F31F40E94582781958093300202
:104F800008958B3F21F40E945827819504C08C3FDF
:104F900029F40E945827809331020895843F21F418
:104FA00080912D02816017C0853F21F480912D02F0
:104FB000826011C0863F21F480912D0284600BC075
:104FC000873F21F480912D02886005C0883F31F42D
:104FD00080912D02806180932D0208958D3F21F4F0
:104FE0008091FA0281600BC08E3F21F48091FA0219
:104FF000826005C08F3F29F48091FA02846080931B
:10500000FA02089578941F920F920FB60F9211240E
:105010008F939F93AF93BF938091F6029091F70285
:10502000A091F802B091F9020196A11DB11D8093E3
:10503000F6029093F702A093F802B093F902BF91A1
:10504000AF919F918F910F900FBE0F901F90189569
:10505000CF92DF92EF92FF920F931F932FB7F894A6
:105060004091F6025091F7026091F8027091F902B6
:105070002FBF6A017B01EE24FF248C0120E030E089
:10508000C016D106E206F30610F4415051099A0108
:10509000281B390BC9011F910F91FF90EF90DF90F2
:1050A000CF9008952FB7F8948091F6029091F7026F
:1050B000A091F802B091F9022FBF0895E0911F026C
:1050C000F0912002309749F082E080932C02048016
:1050D000F581E02D8CE292E009950E945228909390
:1050E00034028093330208951F920F920FB60F92ED
:1050F00011248F939F93AF93BF93809121028111CD
:1051000013C08091F6029091F702A091F802B0913D
:10511000F9024196A11DB11D8093F6029093F7020A
:10512000A093F802B093F902BF91AF919F918F9134
:105130000F900FBE0F901F9018959C01FC013296A6
:105140009FEF80E04191461789F09F3F19F441118C
:1051500001C0982F8F5F8630A9F79F3F39F0F90182
:10516000E90FF11D97FDFA9562830895089580E097
:1051700090E00E94FA2D21E08D3E9E4F09F020E044
:10518000822F08956DEE7EEF80E090E00E941E2E4B
:1051900060E082E090E00E94002E60E083E090E01A
:1051A0000E94002E1092F2021092F3021092F4026A
:1051B0001092F50260E084E090E00E94002E60E032
:1051C00085E090E00E94002E60E086E090E00E9482
:1051D000002E6FEF87E090E00E94002E40E050E04C
:1051E000BA0188E090E00E94122E60E08DE090E02D
:1051F0000E94002E40E050E0BA0188E190E00E9459
:10520000122E60E087E190E00E94002E40E050E026
:10521000BA018FE090E00E94122E40E050E0BA0107
:1052200083E190E00C94122E8091F1028111109292
:10523000F1020895909166028091F002892B2091ED
:10524000EF02982F922B90937D028091F102882398
:1052500089F0892B80937D02EFE7F2E097E080E010
:10526000915029F021912223D9F38F5FF9CF811139
:105270000E941429E0911F02F0912002309731F032
:105280000280F381E02D8DE792E009940895BF92AA
:10529000CF92DF92EF92FF920F931F93CF93DF9302
:1052A0008C01C090EA02D090EB02E090EC02F0900A
:1052B000ED028091F2029091F302A091F402B0917C
:1052C000F502C82AD92AEA2AFB2ACFE1D0E0D70181
:1052D000C6010C2E04C0B695A795979587950A949C
:1052E000D2F780FD04C0219790F7B12C07C0BC2EE7
:1052F000B8018C2F0E94B9130197A9F38B2DDF9170
:10530000CF911F910F91FF90EF90DF90CF90BF90C2
:105310000895CF93DF93EC010E944729BE010E94BC
:10532000B913DF91CF91089527E0929F800D11244A
:10533000682F669566956695982F977085E0689FAB
:10534000B001112440E050E080E0FB01E40FF51FC4
:10535000E354FD4F208130E0092E02C03695279599
:105360000A94E2F721703327042E01C0220F0A9419
:10537000EAF7822B4F5F5F4F4530510531F70895B3
:1053800027E0929F800D1124E82FE695E695E6959B
:10539000877051E001C0550F8A95EAF785E0E89FD4
:1053A000F0011124E354FD4F20E030E070E0408133
:1053B000CB01022E02C0969587950A94E2F7817080
:1053C000819584278523842781932F5F3F4F253044
:1053D000310569F708956093EA027093EB028093B8
:1053E000EC029093ED020C94AE2C0F931F9341E0CE
:1053F00050E060E070E004C0440F551F661F771F47
:105400008A95D2F740955095609570958091EA0203
:105410009091EB02A091EC02B091ED028A019B0108
:10542000082319232A233B23C901B8011F910F9197
:105430000C94EB292091EE02809582238093EE025A
:10544000982F977079F430E0482F082E000C550BF8
:105450002417350739F08595859585950E94F5299E
:105460001092EE0208950F931F9341E050E060E028
:1054700070E004C0440F551F661F771F8A95D2F74E
:105480008091EA029091EB02A091EC02B091ED02C2
:105490008A019B01082B192B2A2B3B2BC901B80130
:1054A0001F910F910C94EB296093F2027093F30219
:1054B0008093F4029093F5020C94AE2C8091BC0280
:1054C00090918B02891719F08F5F8770FBCF089539
:1054D000CF9380918A0282958F7009F05FC080918E
:1054E0008702882309F45AC08091BC02B0918B02D4
:1054F00070918502A09186024091880250918902A4
:1055000091E07F3F09F090E0692FC6E08B1709F426
:1055100045C04115510521F0AF3F21F020E003C007
:1055200021E001C0262F90E020FD35C0C89FF0018A
:10553000C99FF00D1124E457FD4F21812A132BC080
:105540002081271328C02281211125C02381348185
:105550002417350710F421503109241B350B24364C
:105560003105C8F420918A022F70206120938A02AD
:1055700026E0289FF001299FF00D1124EF56FD4FE2
:1055800080818F708061808385E892E00E9495071A
:10559000CF910C945E2A01968770B8CFCF91089571
:1055A0000E948929292F2F70E92FE295EF704E2F45
:1055B00050E0FA013297EE30F105B8F4E356FF4FB0
:1055C0000C94B131803F99F018F4803E70F40FC014
:1055D000843F59F40CC0803E50F0813F31F407C045
:1055E000822F869586958695089580E0089581E0BE
:1055F0000895AF92BF92CF92DF92EF92FF920F93F6
:105600001F93CF93DF93CDB7DEB761970FB6F894B2
:10561000DEBF0FBECDBF7C0185E0F701DE011D9628
:1056200001900D928A95E1F7D7013C9111962C914A
:10563000119712960C91509185026091860280918B
:10564000880290918902009731F06F3F31F441E078
:105650005F3F19F403C041E001C040E0B42FB170D6
:10566000BB2E40FD28C1F701C380D480A0908702E3
:10567000AA2009F4E3C040918A02C816D90628F08E
:10568000D601A81BB90BCD0104C0809590958C0D57
:105690009D1D11E08436910548F010E0407F09F02F
:1056A00093C085E892E00E949507FDC0842F807F1B
:1056B00009F051C0621312C0531310C0102F011112
:1056C0000DC04F70406140938A0285E892E00E94CD
:1056D000950780918A02F70185832EC1CD2831F08C
:1056E0002F3F31F481E03F3F19F403C081E001C056
:1056F00080E080FD03C081E0802702C080E090E070
:10570000182F117080FF1CC08091BC0240918B0249
:1057100056E0841709F4EDC090E0589FF001599FBE
:10572000F00D1124E457FD4F6181261306C06081FE
:10573000361303C06281061303C001968770E9CF58
:10574000102F002309F4F8C080918A0281608093B1
:105750008A0210E0F1C062130CC053130AC0011199
:1057600008C080918A02F7018583C7010E949507CE
:1057700080C03D872E878D859E850E94D02A8823F4
:1057800069F1002359F120918A02822F82958F704E
:1057900090E0029774F0809185029091860298873C
:1057A0008F831986DB86CA862C87CE0107960E94D6
:1057B000950786E0F701A5E8B2E001900D928A9581
:1057C000E1F70E94682A0DC0621769F03D872E87B5
:1057D0008D859E850E94D02A811119C0C7010E9423
:1057E000950711E0A9C05313F1CF0111EFCF8091BC
:1057F0008A02F7018583C7010E94950786E0E5E8E4
:10580000F2E0DF011D928A95E9F71A2D95C0002379
:1058100029F320918A02822F82958F7090E002975F
:1058200044F280918502909186029A8389831B823B
:10583000DD82CC822E83CE010196B9CFC816D9065F
:1058400038F0C81AD90AB4E6CB16D10450F007C014
:10585000809590958C0D9D1D8436910510F010E07B
:1058600022C0102F002309F4B9CF62130BC05313C9
:1058700009C086E0F701A5E8B2E001900D928A9593
:10588000E1F75AC03D872E878D859E850E94D02ADC
:1058900081118FCF80918A02816080938A02C70133
:1058A0000E94950749C0E5E8F2E086E0DF011D921D
:1058B0008A95E9F741C0002309F490CF3D872E87F0
:1058C0008D859E850E94D02A182F882309F486CFC3
:1058D00086E0F701A5E8B2E001900D928A95E1F724
:1058E00080918502909186020E9489290E94682AEF
:1058F00023C03D872E878D859E850E948929292F6B
:1059000022952F70223028F49F7039F0811105C044
:105910000BC0243028F49F7049F4805E883020F05A
:10592000C7010E949507B12E1B2D06C0D701159601
:105930009C91907F91F7F8CF812F61960FB6F894E4
:10594000DEBF0FBECDBFDF91CF911F910F91FF90B2
:10595000EF90DF90CF90BF90AF9008951092F0023B
:105960001092EF020E941A29ECE2F2E086E0DF01D9
:105970001D928A95E9F7109232021092FA020C9465
:105980005E2886E0EFE7F2E0DF011D928A95E9F7F5
:105990000C94AE2C882341F0809590916602892367
:1059A000809366020C941A290895882339F0909107
:1059B0006602892B809366020C941A290895882325
:1059C000E1F19CEF980F913A60F4EDE7F2E09281FB
:1059D000891301C01282319642E0E338F407B9F727
:1059E00014C090E2980F983090F4877021E030E076
:1059F000A90102C0440F551F8A95E2F7CA0180959C
:105A0000909166028923809366020C941A299BE583
:105A1000980F933020F480E090E00C942A1098E5E1
:105A2000980F973120F480E090E00C941410803FA0
:105A300020F00E94D3260C945E280895882309F450
:105A4000CAC09CEF980F913A30F4682F8DE792E02E
:105A50000E949D2813C090E2980F983088F48770B8
:105A600021E030E0A90102C0440F551F8A95E2F7FA
:105A7000CA0190916602892B809366020C941A29C0
:105A80009BE5980F933070F4853A29F0863A31F00F
:105A900083E890E005C081E890E002C082E890E0F1
:105AA0000C942A1098E5980F973108F08EC0883A28
:105AB00009F445C0893A09F445C08A3A09F445C059
:105AC0008B3A09F445C08C3A09F445C08B3B09F484
:105AD00045C08C3B09F445C08D3A09F445C0803B74
