:100000000C94FE060C9445070C9445070C9454225E
:100010000C9445070C9445070C9445070C94450730
:100020000C9445070C9445070C94371F0C94731ED1
:100030000C9492270C9445070C9445070C944507A3
:100040000C9445070C9445070C9445070C94450700
:100050000C9445070C9420270C9445070C944507F5
:100060000C9445070C9445070C9445070C944507E0
:100070000C9445070C9445070C9445070C944507D0
:100080000C9445070C9445070C9445070C944507C0
:100090000C94E4220C9445070C9445070C944507F6
:1000A0000C9445070C9445070C944507940A960A4E
:1000B000A10A980A9A0A9C0A9E0AA00AA30AA50AFB
:1000C000A70AB20AA90AAB0AAD0AAF0AB10AB40A72
:1000D000F40BF40B2E0C2E0C410E720C410E410E43
:1000E000B40C410EA10DA10DAE0DAE0DAE0DAE0DB9
:1000F000AE0DAE0DAE0DAE0DAE0DAE0DAE0DAE0D28
:10010000AE0DAE0DAE0DAE0DBF0DE90DEE0DF50D44
:100110000C0E821CA91C4B1EA91C4B1EF11C141D8D
:100120004B1E0F1E221E002A002A132A132A092AF8
:10013000132A132A132A002A002A0E2A132A132A02
:100140000E2A07634236B79BD8A71A39685618AEED
:10015000BAAB558C1D3CB7CC5763BD6DEDFD753EFC
:10016000F6177231BF000000803F05A84CCDB2D415
:100170004EB93836A9020C50B9918688083CA6AA17
:10018000AA2ABE000000803F29001E001F00200098
:100190002100220000002B0014001A0007000900B3
:1001A0000A000000E00004001200080018000C0023
:1001B000000000411D001B00060019000500004260
:1001C000E200005C0000E3008B002C0000434C00C8
:1001D0002700260025002400230000002A00130029
:1001E0001500170016001C000000280033000F0047
:1001F0000E000D000B0000000041370087003800A2
:10020000100011000042000005520052E7008A0071
:100210002C00004429021E001F00200021002200A3
:1002200000002B0214021A02070209020A0200004F
:10023000E00204021202080218020C02000001008F
:100240001D021B020602190205020000E202000064
:100250000000E3022C00000000004C0227002600F2
:1002600025002400230000002A02130215021702B1
:1002700016021C020000280200000F020E020D02EE
:100280000B0200000100000000000000100211023B
:100290000000000005520052E7122C000000000090
:1002A0003A003B003C003D003E003F000000005C87
:1002B0000000000000000000C25C0000DE5CC35CC7
:1002C000CB5CC95CC55CC75C0000135CC45CCC5CE7
:1002D000CA5CC65CC85C01000A5C0000000000004B
:1002E00000000000000045004400430042004100BF
:1002F000400000000000F900F500F40000000000DC
:1003000000000000FA00F300F000F100F20000002D
:10031000000000004F00520051005000010000009A
:100320000552005200000000000000003A003B00AF
:100330003C003D003E003F000000005C000000006B
:1003400000000000C25C0000DE5CC35CCB5CC95CEA
:10035000C55CC75C0000135CC45CCC5CCA5CC65C5A
:10036000C85C00000A5C0000000000000000000003
:1003700001004500440043004200410040000000ED
:10038000000000004D004A000000000000000000D6
:1003900000004F005200510050000000000000001B
:1003A00000000000000000000000000005520052A4
:1003B000000000000000000035001E001F002000AB
:1003C0002100220000002B002E0287021F022402BF
:1003D0002F020000E00033022D0034022D02340011
:1003E000000000001E023802200221022202490100
:1003F000E20000000000E3008B002C0049024C00EA
:100400002700260025002400230000002A003000D9
:100410003002360225022302000028003200320298
:1004200037022602890200000000000036002E007C
:100430002F0000000000000005520052E3008A0077
:100440002C00010029001E001F00200021002200B6
:1004500000002B0014001A0008001500170000000F
:10046000E00004001600070009000A000000E10097
:100470001D001B000600190005000042E200005CA0
:100480000000E3008B002C0000434C0027002600F6
:1004900025002400230000002A00130012000C0095
:1004A00018001C000000280033000F000E000D0093
:1004B0000B000000E5003700870038001000110035
:1004C0000042000001000052E7008A002C000044B6
:1004D00002E26003E20002E26003E2007F3F1F6489
:1004E0003214643214783C1E1E140A050000000009
:1004F00000000000000000000000000000000000FC
:1005000000000000000000000000000000000000EB
:1005100000000000000000000000000000000000DB
:1005200000000000000000000000000000000000CB
:1005300000000000000000000000000000000000BB
:1005400000000000000000000000000000000000AB
:10055000000000000000000000000000000000009B
:10056000000000000000000000000000000000008B
:10057000000000000000000000000000000000007B
:100580000000000000000000000000000001010168
:100590000101010001010101000000000000000054
:1005A0000000000000000100010001010101010143
:1005B000010101010101010101010101010101012B
:1005C0000101010101010100000001010000000022
:1005D000000000000000000000000000000000001B
:1005E0000000000000000001010101000000000007
:1005F000000000002A2B280000000000000000007E
:100600000000000000000029000000002C1E342023
:10061000212224342627252E362D3738271E1F2049
:100620002122232425263333362E37381F0405068E
:100630000708090A0B0C0D0E0F10111213141516D2
:100640001718191A1B1C1D2F3130232D35040506D0
:100650000708090A0B0C0D0E0F10111213141516B2
:100660001718191A1B1C1D2F3130354C00000000C3
:100670000001010101010101010102020202020265
:100680000202020303030303030303040404040438
:1006900004050505050506060606060707070708FB
:1006A0000808080909090A0A0A0A0B0B0B0C0C0CAA
:1006B0000D0D0D0E0E0F0F0F101011111112121340
:1006C000131414151516161717181819191A1A1BBA
:1006D0001C1C1D1D1E1F1F20202122222324252516
:1006E00026272728292A2B2B2C2D2E2F2F3031324D
:1006F00033343536363738393A3B3C3D3E3F40415E
:10070000424344464748494A4B4C4D4F505152533F
:10071000555657585A5B5C5E5F60626364666769F2
:100720006A6C6D6E707173747678797B7C7E808173
:10073000838486888A8B8D8F91929496989A9B9DBC
:100740009FA1A3A5A7A9ABADAFB1B3B5B7B9BBBDC9
:10075000BFC1C4C6C8CACCCFD1D3D6D8DADCDFE19A
:10076000E4E6E8EBEDF0F2F5F7FAFCFF6801F000E3
:10077000B40078005A0005010902A10185020901AF
:10078000A100050919012905150025019505750127
:100790008102950175038101050109300931158137
:1007A000257F95027508810609381581257F9501F9
:1007B00075088106050C0A38021581257F9501759B
:1007C000088106C0C005010906A101050719E02935
:1007D000E7150025019508750181029501750881CD
:1007E0000105081901290595057501910295017505
:1007F0000391010507190029FF150026FF00950642
:1008000075088100C009023B00020100A0C809046C
:100810000000010301010009211101000122400033
:100820000705810308000A09040100010300000014
:10083000092111010001224F000705820320000A4F
:100840001201100100000008EDFE603001000102FD
:1008500003010403300000001603480065006C002B
:10086000690078002000420065007400610000000B
:100870001403590075007300680061006B006F007D
:1008800062006F0000000403090400000000000083
:100890003E5B4F5B3E003E6B4F6B3E001C3E7C3E22
:1008A0001C00183C7E3C18001C577D571C001C5E29
:1008B0007F5E1C0000183C180000FFE7C3E7FF0044
:1008C000001824180000FFE7DBE7FF0030483A0675
:1008D0000E00262979292600407F05050700407F64
:1008E00005253F005A3CE73C5A007F3E1C1C08008F
:1008F000081C1C3E7F0014227F2214005F5F005FF3
:100900005F0006097F017F00006689956A006060CC
:100910006060600094A2FFA2940008047E040800B6
:1009200010207E20100008082A1C0800081C2A0835
:1009300008001E10101010000C1E0C1E0C00303889
:100940003E383000060E3E0E06000000000000009B
:1009500000005F000000000700070000147F147F04
:100960001400242A7F2A12002313086462003649E7
:1009700056205000000807030000001C2241000020
:100980000041221C00002A1C7F1C2A0008083E0887
:100990000800008070300000080808080800000007
:1009A000606000002010080402003E5149453E00EE
:1009B00000427F4000007249494946002141494DAB
:1009C00033001814127F10002745454539003C4A72
:1009D000494931004121110907003649494936008A
:1009E000464949291E000000140000000040340060
:1009F00000000008142241001414141414000041D3
:100A0000221408000201590906003E415D594E00BA
:100A10007C1211127C007F49494936003E41414118
:100A200022007F4141413E007F49494941007F0901
:100A3000090901003E41415173007F0808087F0009
:100A400000417F4100002040413F01007F08142207
:100A500041007F40404040007F021C027F007F0435
:100A600008107F003E4141413E007F090909060010
:100A70003E4151215E007F09192946002649494916
:100A8000320003017F0103003F4040403F001F2030
:100A900040201F003F4038403F00631408146300AB
:100AA0000304780403006159494D4300007F41412C
:100AB0004100020408102000004141417F0004026F
:100AC00001020400404040404000000307080000CD
:100AD0002054547840007F2844443800384444442B
:100AE0002800384444287F00385454541800000823
:100AF0007E09020018A4A49C78007F0804047800F2
:100B000000447D4000002040403D00007F1028440C
:100B1000000000417F4000007C04780478007C08DD
:100B200004047800384444443800FC182424180095
:100B300018242418FC007C08040408004854545469
:100B4000240004043F4424003C4040207C001C203E
:100B500040201C003C4030403C0044281028440009
:100B60004C9090907C004464544C44000008364102
:100B7000000000007700000000413608000002017C
:100B8000020402003C2623263C0003071F7FFFFFD0
:100B9000FEF8F0C020F8FEFFFE79271F7FFFFFFE62
:100BA000F8F0C020F8FEFFFF7F3F3F7FFFFEF8F028
:100BB000C000000000000000000000000000000075
:100BC0000000000000000000000000000000000025
:100BD0000000000000000000000000000000000015
:100BE0000000000000000000000000000000000005
:100BF00000000000000000000000000000000000F5
:100C00000000000000000000E0F0F0F0E0ECEEF783
:100C1000F37020007C7C7C7E007E7E7E7F7F7F0068
:100C20000080C0E07E5B4F5BFEC00000C000DCD7F0
:100C3000DEDEDED7DC00C0000000000000000000A7
:100C40000000000000000000000000000000C1F3F0
:100C5000CFBF7FFFFFFCFBE7810000000080E3CFF8
:100C60003FFFFFFFFCFBE7810000000081E7FFFF83
:100C7000FFFF3C000000000000000000000000003A
:100C80000000000000000000000000000000000064
:100C90000000000000000000000000000000000054
:100CA0000000000000000000000000000000000044
:100CB0000000000000000000000000000000000034
:100CC00000000000000000000F1F3F7F7F7F7F7F3C
:100CD0003F1E0C001F1F1F3F003F3F3F7F7F7F00D5
:100CE000307B7F7830202030787F3B0003000F7FFF
:100CF0000F0F0F7F0F000300000000000000000036
:100D00000000000000000000000060707C7F7F7F1A
:100D10007F1F0601030F3F7F7F7E7C7C7E7F7F7F6E
:100D20001F0601070F3F7F7F7E7C7C7E7F7F3F0F0A
:100D300003000000000000000000000000000000B0
:100D400000000000000000000000000000000000A3
:100D50000000000000000000000000000000000093
:100D60000000000000000000000000000000000083
:100D70000000000000000000000000000000000073
:100D80000000000000000000000000000000000063
:100D90000000000000000000000000000000000053
:100DA0000000000000000000000000000000000043
:100DB0000000000000000000000000000000000033
:100DC0000000000000000000000051776572747997
:100DD000004D6F757365004C6566740052696768F5
:100DE00074005368696674005973747270000A4C19
:100DF000617965723A20000A000A000011241FBEC2
:100E0000CFEFDAE0DEBFCDBF04B603FE27C080918E
:100E10005B0390915C03A0915D03B0915E0387300A
:100E2000904BA740B04BD1F410925B0310925C033F
:100E300010925D0310925E0314BE84B7877F84BF57
:100E40000FB6F894A8958091600088618093600047
:100E5000109260000FBEE0E0F8E3099511E0A0E019
:100E6000B1E0EEEFF7E602C005900D92A63EB107A5
:100E7000D9F723E0A6EEB1E001C01D92AB35B20771
:100E8000E1F70E94CE0F0C94FD330C9400008F927A
:100E90009F92AF92BF92CF92DF92EF92FF920F9309
:100EA0001F93CF93DF9300D000D01F92CDB7DEB752
:100EB000FC010081D18083819481892B39F01FEF5F
:100EC000D11206C091E00F3F19F403C091E001C0B8
:100ED00090E090FD09C77F0185E0DE011196019049
:100EE0000D928A95E1F7F701228189819A81222367
:100EF00049F00E946528182F682F89819A810E94E5
:100F0000DE2803C00E94B228182F26E4129FF001A9
:100F1000112437E0D39EE00DF11D1124E00FF11DE7
:100F2000EE0FFF1FE857FE4F0591149181E080936B
:100F30000001023F8CE5180721F128F4033CECE5A1
:100F40001E0751F00AC4033FFCE51F0749F1043FA7
:100F50002CE51207D1F101C4F7018281882309F43D
:100F60004EC0809157020E941A180E942718809143
:100F70008F0286958F7390E090935802809357026A
:100F80003EC0F7018281882349F08091640282FD8E
:100F900002C081E90EC086ED94E010C081E912C064
:100FA000F7018281882369F08091640282FD04C088
:100FB00080E90E943C2C23C080ED94E00E94951AA9
:100FC0001EC080E90E94FD2B1AC0F7018281882390
:100FD00009F4C3C30E94321880918F02816080930C
:100FE0008F0286958F730E941A1880918F028695C2
:100FF0008F7390E09093580280935702AEC380E0C5
:10100000882309F471C60C3CFCE51F0709F4CEC126
:10101000E8F5F7018281043CFCE51F0709F408C1EB
:10102000F8F405313CE5130778F402309CE5190724
:1010300008F058C20115ECE51E0709F467C001303D
:101040001C4509F484C083C3023C2CE5120709F453
:101050009DC008F0D3C006311C4509F43EC377C3D8
:10106000083CECE51E0709F462C140F4063C2CE59F
:10107000120709F40AC108F4F5C029C10A3C9CE52D
:10108000190709F46FC108F45FC188C1043DFCE58C
:101090001F0709F40DC2C0F4F7018281003DFCE591
:1010A0001F0709F4DFC140F40E3C3CE5130709F4C7
:1010B000C3C108F4AAC1CBC1023DECE51E0709F487
:1010C000E7C108F4DAC1EFC1093D2CE5120709F4C4
:1010D000D9C260F4073D8CE5180709F469C208F02D
:1010E0008AC2053D1C4509F4FFC531C3F701828161
:1010F0000D3DFCE51F0709F4EEC10E3D2CE512077E
:1011000079F10C3D1C4509F022C3DFC1882309F4A5
:10111000EBC51092AF020E94DF2B8FEF94E3ECE05F
:1011200081509040E040E1F700C0000087E797E77A
:1011300090930108809300089AE088E10FB6F89434
:10114000A895809360000FBE90936000FFCF882326
:1011500009F4CAC580917E02816080937E02C4C575
:10116000882309F4C1C50F900F900F900F900F9036
:10117000DF91CF911F910F91FF90EF90DF90CF9073
:10118000BF90AF909F908F900C94E027882309F434
:10119000ABC580918F0280FF2BC08E7F80938F0222
:1011A00060918F02709190028091910290919202D1
:1011B0000E94F41610929502FFEF00E712E0F15042
:1011C00000401040E1F700C000000F900F900F901A
:1011D0000F900F90DF91CF911F910F91FF90EF90A3
:1011E000DF90CF90BF90AF909F908F900C94D514CC
:1011F000816080938F0286958F730BC1882309F4D9
:1012000073C58091AF028272D1F00F900F900F9052
:101210000F900F90DF91CF911F910F91FF90EF9062
:10122000DF90CF90BF90AF909F908F900C941D183F
:10123000882309F459C58091AF02827231F30F906F
:101240000F900F900F900F90DF91CF911F910F9102
:10125000FF90EF90DF90CF90BF90AF909F908F90D6
:101260000C942718882309F43FC520918F02221F70
:101270002227221F30919002432F440F842F822B6C
:1012800037FB992790F90A9618C0882309F42CC5D2
:1012900020918F02221F2227221F30919002432F7C
:1012A000440F842F822B37FB992790F98A309105C0
:1012B0001CF4825A9E4F05C00A9768E671E00E94AE
:1012C000AF3021E040919202609191021DC08823CD
:1012D00009F40AC560919102862F90E08F3E910536
:1012E00014F46F5E01C06FEF80918F02881F882712
:1012F000881F90919002392F330F97FB992790F90F
:1013000021E040919202832B0F900F900F900F904D
:101310000F90DF91CF911F910F91FF90EF90DF9091
:10132000CF90BF90AF909F908F900C94061788231A
:1013300009F4DAC460919102862F90E0419714F08D
:101340006151D2CF60E0D0CF882309F4CDC4409161
:101350009202842F90E08F3E910514F44F5E0EC0F0
:101360004FEF0CC0882309F4BFC440919202842F30
:1013700090E0419714F0415101C040E080918F020C
:10138000881F8827881F90919002392F330F97FB71
:10139000992790F921E060919102B5CF882309F453
:1013A000A3C48091930290E001960DC0F701828161
:1013B000882309F499C48091930290E0019797FFE4
:1013C00002C080E090E08430910514F083E090E06A
:1013D0008093930260918F027091900280919102AC
:1013E000909192020F900F900F900F900F90DF91BD
:1013F000CF911F910F91FF90EF90DF90CF90BF9012
:10140000AF909F908F900C94F416882309F46CC4CD
:1014100081E00F900F900F900F900F90DF91CF9180
:101420001F910F91FF90EF90DF90CF90BF90AF9002
:101430009F908F900C941A18882309F455C40E9429
:10144000B5168250833008F4FACE82E0E2CF8823CA
:1014500009F44AC40E94B5168650823008F4EFCED3
:1014600086E0D7CF882309F43FC40E94B51689507F
:10147000853008F4E4CE89E0CCCF882309F434C465
:101480000E94B5168F50853008F4D9CE8FE0C1CFB9
:10149000882309F429C40E94B5168551823008F4C6
:1014A000CECE85E1B6CF882309F41EC488E1B1CF42
:1014B000F7018281882309F417C40E94B516895167
:1014C000893008F4BCCE89E1A4CF882309F40CC488
:1014D0001092FC0109C4882309F406C482E08093B9
:1014E000FC0102C4882309F43AC10E94D527811166
:1014F00002C00E94E02784E090E00E940A2D90E064
:101500009093650280936402F801E350FC45E23158
:10151000F10530F4EA5AFF4F809164020C94C33015
:1015200080916402816027C0826025C0846023C0EE
:10153000806121C080621FC080641DC080681BC0A4
:101540008460886018C08E7F16C08D7F14C08B7F2A
:1015500012C08F7E10C08F7D0EC08F7B0CC08F7726
:101560000AC08B7F877F07C087FB222720F991E085
:10157000922790FB87F9809364026091640284E073
:1015800090E00E941E2D1092AF020F900F900F90CE
:101590000F900F90DF91CF911F910F91FF90EF90DF
:1015A000DF90CF90BF90AF909F908F900C94DF2BE7
:1015B000F7018281882351F01092EB010E9470277D
:1015C0009093E8018093E70182E022C08091EB01D3
:1015D00081110FC08091E7019091E8010E94462798
:1015E0008436910530F486E20E943C2C86E20E940B
:1015F000FD2B82E034C0F70182818823E1F0109254
:10160000EC010E9470279093EA018093E90180E247
:101610000F900F900F900F900F90DF91CF911F912F
:101620000F91FF90EF90DF90CF90BF90AF909F9081
:101630008F900C94F32B8091EC0181110FC080915D
:10164000E9019091EA010E9446278436910530F421
:1016500087E20E943C2C87E20E94FD2B80E20F90E3
:101660000F900F900F900F90DF91CF911F910F91DE
:10167000FF90EF90DF90CF90BF90AF909F908F90B2
:101680000C94E82BF70182818111B9CF8091EC0194
:101690008111E4CF8091E9019091EA010E944627EF
:1016A00084369105D8F680E20E94E82B88E20E94F9
:1016B0003C2C88E20F900F900F900F900F90DF91CD
:1016C000CF911F910F91FF90EF90DF90CF90BF903F
:1016D000AF909F908F900C94FD2B882391F0809178
:1016E000AF028A7A91E009F490E09093E6018111CB
:1016F00002C069E201C065E38DED92E00E94BB2764
:1017000013C08091E601811102C089E201C085E326
:10171000EDEDF2E023EE32E09281891301C01282F6
:1017200031962E173F07C1F70F900F900F900F9033
:101730000F90DF91CF911F910F91FF90EF90DF906D
:10174000CF90BF90AF909F908F900C94382881E0FD
:101750008093EB018093EC0102C081E051CCF70152
:10176000828100811181882349F0C8010E94652887
:10177000D82E682FC8010E94DE2804C0C8010E942C
:10178000B228D82EB8018D2D0E9442188C01982EB7
:10179000F701A580A2949FE0A922B280B110109217
:1017A000500380914E03877079F0BB2069F080E28E
:1017B000800F883048F082E00E94382980914E03E3
:1017C0008770CC24C3948111C12CD12ED2948FE088
:1017D000D8228D2D90E08C30910508F052C2FC018A
:1017E000E859FF4F0C94C330812F807F1F708823EE
:1017F00011F01295107FBB20B9F0112309F42CC20F
:1018000080E2800F883010F0911006C08091AF0206
:10181000182B1093AF0205C080915003182B109322
:1018200050030E94382818C2802F0E94FD2B1123DC
:1018300009F427C2005E1095083010F0911006C020
:101840008091AF0218231093AF0205C0809150031E
:101850001823109350030E94382813C2812F807FD1
:101860001F70803211F01295107F992021F0F1E065
:101870009F16E1F027C0BB2081F080915103AA2080
:1018800051F001E0A01207C0182B181709F4F9C194
:1018900010935103F6C1812B69C1AA2021F021E0E8
:1018A000A21609F4EEC10E9432281AC0BB2029F00A
:1018B00035E03A1508F4E5C10FC084E08A1508F454
:1018C000E0C10EC0BB2051F0AA2031F0F7018581A4
:1018D00080FFC2C18F708583812F48C1A110CEC106
:1018E000812F4AC1BB20F9F0053F51F0063F71F04E
:1018F000043FA9F48091ED019091EE0181600BC04D
:101900008091ED019091EE01826005C08091ED0122
:101910009091EE0184609093EE018093ED01802F11
:101920000E94B8261EC0053F51F0063F71F0043FEB
:10193000A9F48091ED019091EE018E7F0BC0809112
:10194000ED019091EE018D7F05C08091ED019091A8
:10195000EE018B7F9093EE018093ED01802F0E942A
:10196000EE250E947C2798C1812F837009F071C0F9
:10197000B11090C1802F829586958770880F880F4F
:10198000402F4F7050E060E070E04A015B01082E8C
:1019900004C0880C991CAA1CBB1C0A94D2F704FF33
:1019A00010C04FE050E060E070E004C0440F551FED
:1019B000661F771F8A95D2F7409550956095709570
:1019C00003C040E050E0BA01812F86958695837070
:1019D0000091520310915303209154033091550309
:1019E000823099F0E8F4813059F0482959296A2960
:1019F0007B29CB01BA01602371238223932326C064
:101A0000802A912AA22AB32A1BC0482959296A2967
:101A10007B29CB01BA01602771278227932716C043
:101A2000CB01BA0160237123822393230E94722980
:101A300040915203509153036091540370915503A8
:101A4000CB01BA01682979298A299B290E94722928
:101A500021C1BB2019F0812F817001C08695882398
:101A600009F418C1802F829586958770880F880F9A
:101A7000402F4F7050E060E070E04A015B01082E9B
:101A800004C0880C991CAA1CBB1C0A94D2F704FF42
:101A900010C04FE050E060E070E004C0440F551FFC
:101AA000661F771F8A95D2F740955095609570957F
:101AB00003C040E050E0BA01812F8695869583707F
:101AC00000914A0310914B0320914C0330914D0338
:101AD000823099F0E8F4813059F0482959296A296F
:101AE0007B29CB01BA01602371238223932326C073
:101AF000802A912AA22AB32A1BC0482959296A2977
:101B00007B29CB01BA01602771278227932716C052
:101B1000CB01BA0160237123822393230E940929F8
:101B200040914A0350914B0360914C0370914D03D7
:101B3000CB01BA01682979298A299B290E940929A0
:101B4000A9C0802F90E0FC01E05EF109E531F105CC
:101B500008F07DC0EC58FF4F0C94C3300F70812FFC
:101B60008F71BB2031F00E945129802F0E94F32BEE
:101B700088C00E941329802F0E94E82B82C0BB20BE
:101B800019F1F4E0FA1508F47CC01F7181E090E0CF
:101B9000A0E0B0E0AC01BD0104C0440F551F661FBA
:101BA000771F1A95D2F780914A0390914B03A09129
:101BB0004C03B0914D038A019B01082719272A275E
:101BC0003B27C901B80121C025E02A1508F459C0F6
:101BD000DCCFBB2029F0812F8F712CC0BB20D9F323
:101BE000812F8F710E9413294CC0BB2089F01F7177
:101BF00081E090E0A0E0B0E0BC01CD0104C0660F40
:101C0000771F881F991F1A95D2F70E94092939C09A
:101C100060E070E0CB01F9CFBB2079F01F71812F1C
:101C20000E94512938E0139FC001112483608093E2
:101C30004E03812F0E94512924C081E00E9438293F
:101C400081E08A15F0F482E00E9438291AC0BB2096
:101C500039F0AA2009F4BFCF802F0E943C2C11C07C
:101C6000AA2009F4BDCF093349F49FEFE7EEF3E072
:101C70009150E040F040E1F700C00000802F0E944A
:101C8000FD2B08E0D01631F0D01630F086EF8D0D28
:101C9000823010F40E94C914CC2031F180914E039F
:101CA00080FD22C0F70112828595859585950E9459
:101CB0005129C7010E94470780914E03859585955C
:101CC00085950F900F900F900F900F90DF91CF910F
:101CD0001F910F91FF90EF90DF90CF90BF90AF904A
:101CE0009F908F900C9413290F900F900F900F904E
:101CF0000F90DF91CF911F910F91FF90EF90DF90A8
:101D0000CF90BF90AF909F908F90089508950895C1
:101D10002091FC01211103C02091BC0202C022309D
:101D200011F02430F1F422E02093E9002FEF3091FC
:101D3000E800215035FD06C035ED3A95F1F7000079
:101D40002111F5CF2091E80025FF0BC040E050E0C5
:101D500066E070E00E94701B8091E8008E778093AF
:101D6000E8000895CF93DF932091FC01211103C077
:101D70002091BC0202C0223011F0243039F521E05C
:101D80002093E9002FEF3091E800215035FD06C087
:101D900035ED3A95F1F700002111F5CF2091E800DB
:101DA00025FF14C0EC0140E050E068E070E00E94C4
:101DB000701B8091E8008E778093E80088E0FE0138
:101DC000A2EBB2E001900D928A95E1F7DF91CF91FD
:101DD00008952091E4003091E50095E64091EC00F3
:101DE000842F817040FF23C08091E80080FD1DC0DA
:101DF0008091BC02882399F0853099F08091EB00A6
:101E000085FD11C04091E4005091E500241735078D
:101E100029F3915011F09A01E1CF84E0089582E016
:101E2000089583E0089581E0089580E00895409149
:101E3000E80042FFDDCF08958091BE0287FF11C008
:101E40008091E80082FD05C08091BC028111F8CF2D
:101E500011C08091E8008B770BC08091BC02882371
:101E600049F08091E80080FFF8CF8091E8008E77FC
:101E70008093E8000895982F973068F59093E900D3
:101E8000981739F07091EC002091ED005091F0001E
:101E900003C0242F762F50E021FD02C09F5FECCFBE
:101EA0003091EB003E7F3093EB003091ED003D7FB1
:101EB0003093ED003091EB0031603093EB00709384
:101EC000EC002093ED005093F0002091EE0027FDF0
:101ED000E5CF80E008958F708093E90081E0089558
:101EE0002091C4023091C5022617370748F06115CA
:101EF000710539F42091E8002E772093E80001C0A5
:101F0000B901FC0120E06115710579F18091BC02F5
:101F10008823F1F18530F1F18091E80083FD3CC028
:101F20008091E80082FD2EC08091E80080FFEBCF19
:101F30002091F3008091F20090E0922B61157105E1
:101F400051F08830910538F421912093F1006150CF
:101F500071090196F3CF21E0089709F020E0809104
:101F6000E8008E778093E800CECF2111CFCF0AC052
:101F70008091BC02882361F0853061F08091E80097
:101F800083FD0AC08091E80082FFF2CF80E00895CF
:101F900082E0089583E0089581E00895CF93DF9370
:101FA000CDB7DEB72A970FB6F894DEBF0FBECDBF10
:101FB00084B7877F84BF0FB6F894A895809160009E
:101FC000886180936000109260000FBE80E880936B
:101FD00061001092610085B7806885BF85B7806811
:101FE00085BF0E94EA1A809301010E94EA1A8823A1
:101FF00061F082E091E09093FF018093FE0183E025
:102000008093FD01529A5A9A11C082E091E0909318
:10201000FF018093FE0183E08093FD0152985A9A5C
:10202000EA9A809169008F7C8093690078940E947D
:10203000B71E0E94D61E8091E20084608093E20069
:1020400078948091BC028823A1F01091E9001F7060
:102050009091EC00892F817090FD80E8182B1092F0
:10206000E9008091E80083FD0E949C1B1F70109383
:10207000E90082E084BD93E095BD9AEF97BD80931F
:102080006E0080917E028360886080937E020E9451
:10209000F71AA1E8B1E041E050E08D91E82FE29518
:1020A000EF70F0E021A18F70BA0102C0660F771FB8
:1020B0008A95E2F7CB01962F9095922391A392A156
:1020C000892B82A371E0A838B70739F7559A209A6F
:1020D0005D9A289AAAE5B2E084E792E0EAE6F2E0A7
:1020E00011921D928E179F07D9F70E94EA1A8093CA
:1020F00059020E94D527811102C00E94E0278091D9
:102100008F0286958F7390E09093580280935702C8
:102110000E94EA1A182F1092B9008CE08093B80040
:102120008EEA0E946823882309F4AFC060E885ED39
:102130000E94DE25882309F4A8C06FE188EA0E9486
:10214000DE25882309F4A1C060E083ED0E94DE252E
:10215000882309F49AC080E40E946823882309F444
:1021600094C064E18DE80E94DE25882309F48DC0C7
:1021700060E080E20E94DE25882309F486C0111108
:1021800014C080EA0E946823882309F47EC080EC92
:102190000E946823882309F478C062E08AED0E94D7
:1021A000DE25882309F471C008C081EA0E946823F3
:1021B000882309F46AC088ECEBCF6FE881E80E94BD
:1021C000DE25882309F461C061EF89ED0E94DE25D8
:1021D000882309F45AC060E48BED0E94DE25882331
:1021E00009F453C084EA0E946823882309F44DC08F
:1021F00086EA0E946823882309F447C08EE20E9481
:102200006823882309F441C08FEA0E946823882349
:10221000E1F160E081E80E94DE258823B1F144E528
:1022200050E060E270E080E092E00E94F53080E0F3
:1022300092E0909355028093540281E0809356027D
:1022400063E082E20E943F1B8823D9F06FE781E2BE
:102250000E943F1B8823A9F00E941A1B811111C004
:1022600080E40E94592381110CC004E010E080E05A
:102270000E9459231F5F1038D1F70150B9F710920F
:1022800056020E9444230E947E230E94D52781117A
:1022900002C00E94E02782E090E00E940A2D809315
:1022A0007E0284E090E00E940A2D90E09093650207
:1022B0008093640283E090E00E940A2D682F70E012
:1022C00080E090E00E94722980916602811139C0FD
:1022D00080917E02816080937E020E94D5278111C9
:1022E00004C00E94E0270E94321888E090E00E941B
:1022F000122D60938F0270939002809391029093BD
:1023000092026E7771F40E94321888E090E00E9489
:10231000122D60938F02709390028093910290939C
:1023200092020E94BE161092950280918F0280FF49
:1023300005C0869560E08F730E94CB1781E0809383
:1023400066028AE191E09093680280936702BB2461
:10235000BA94EE24E394F12CE8E1CE2ED12C8091B6
:10236000BC02853009F037C08091BC02843011F185
:102370001092690280E40FB6F894A895C0926000AC
:102380000FBE8093600083B7817F846083BF83B773
:10239000816083BF7894889583B78E7F83BF0FB6A3
:1023A000F894A895809160008861809360001092F5
:1023B00060000FBE8091BB02882309F4D0CF0E9439
:1023C0000825EAE6F2E08191811167C182E0E437F5
:1023D000F807C9F7C4CF0E940825EFE7F2E0AAE6A4
:1023E000B2E000E010E0702F6D9121912627A9F155
:1023F00080E090E030E0A901082E02C05595479595
:102400000A94E2F740FF25C089837A83F70102C06E
:10241000EE0FFF1F8A95E2F74F01862F90E08E2383
:102420009F2321E0892B09F420E02B830E94702751
:102430008160782F9D838C8349815A816B818D8146
:102440000E94FF13F801E158FD4F808188268082A9
:1024500019C001968730910571F60F5F1F4F0A3042
:10246000110509F0C0CFBE82BF8218860E94702776
:102470008160782F9A8789874E815F8168858A85F8
:102480000E94FF1380917B0290917C020E9446275C
:1024900080917A02909176021091770291110BC08F
:1024A000111111C12091780221110DC120917902E1
:1024B000211109C15AC08F3F19F08F5F80937A02B2
:1024C000191624F40E949526809376028091760254
:1024D00087FF05C00E94952681958093760211168C
:1024E00024F40E949526809377028091770287FFDB
:1024F00005C00E94952681958093770230917602DF
:10250000332379F020917702222359F045EB3403ED
:10251000C0011124909376022403C00111249093EA
:10252000770280917802181624F40E947326809313
:1025300078028091780287FF05C00E9473268195FA
:102540008093780280917902181624F40E947326F1
:10255000809379028091790287FF05C00E947326DB
:102560008195809379020E947C270E94C9149091E2
:102570007D02891721F00E94C91480937D02809109
:102580009502882309F4EBCE80919402E0918F02AA
:10259000E695EF73E81BE0938B02823059F4F0E08C
:1025A000E851FB4FE4910E2F10E065E7862E66E1BF
:1025B000962E45C0863059F4F0E0EB51FB4FE49184
:1025C0000E2F10E05EE5852E56E1952E38C089303D
:1025D00061F4E695F0E0EE51FB4FE4910E2F10E030
:1025E0004EEE842E45E1942E2AC08F3061F4E6959C
:1025F000F0E0E152FB4FE4910E2F10E031E8832E22
:1026000035E1932E1CC0853159F4F0E0E452FB4FC4
:10261000E4910E2F10E028E2822E25E1922E0FC0C9
:10262000883139F408EE13E091EF892E94E1992E68
:1026300006C000ED17E087E6882E83E1982E809192
:102640008C02882389F010928C020E9470279801D6
:1026500020953095820F931F90938A028093890270
:1026600010928E0210928D028091890290918A02BE
:102670000E9446278017910708F471CEE0918902E5
:10268000F0918A020E0F1F1F10938A020093890295
:1026900089E892E0F401099562CE80E189BD82E18A
:1026A00089BD09B400FEFDCF8091D8008F7D809355
:1026B000D8008091E00082608093E0008091E0008B
:1026C00081FDFCCF4CCE8F3F09F0F7CE08CF0895A7
:1026D000EF92FF920F931F93CF93DF93E90166234D
:1026E00009F44BC0242F30E0EFEFF0E0E61BF109D6
:1026F000B901E69F9001E79F300DF69F300D112440
:10270000232F8B01031B11095CE3E52EF12CB7018C
:102710000E949B30FB01BC01069FC001079F900DEA
:10272000169F900D1124B7010E949B30E230F105F5
:10273000B1F040F4309779F0319711F5832F242FC1
:10274000461B21C0E430F105A1F068F03597C1F4D3
:10275000842F861B18C0832F262F230F14C0862F8B
:10276000830FE42F03C0E42FE61B842F432F2E2F6B
:102770000AC0842F462F430F06C0842F242F03C086
:1027800080E020E040E0E42FF0E0E459F94F44918C
:10279000E22FF0E0E459F94F9491E82FF0E0E4598A
:1027A000F94FE49149839883EA83DF91CF911F9198
:1027B0000F91FF90EF9008959091640292FF0DC0E9
:1027C000282F2871283019F4877F846006C0282FAD
:1027D0002471243011F48B7F886093FF0DC0282F63
:1027E0002871283119F4877E846106C0282F24714E
:1027F000243111F48B7E886194FD877E08951F93A8
:10280000CF93DF93CDB7DEB767970FB6F894DEBFEF
:102810000FBECDBF4B8B5C8B6D8B7E8B8F8B86E021
:102820009E01235F3F4FD901E82F1D92EA95E9F7FA
:1028300095E0FE017396D90101900D929A95E1F70A
:10284000F901DE01179601900D928A95E1F7CE010C
:1028500007960E94172A81113EC086E0FE01379636
:10286000DE01119601900D928A95E1F7FF81E885CE
:102870006A857B856115710531F0EF3F31F481E0A8
:10288000FF3F19F403C081E001C080E080FD23C058
:102890002091EB0230E0C9010196877099274091A1
:1028A0001C0350E08417950779F1F983EA837D834F
:1028B0006C8396E0929FD001939FB00D1124A45198
:1028C000BD4FFE01319601900D929A95E1F78093EC
:1028D000EB020E947C2916E080911C039091EB0290
:1028E000891709F1189FC001112484519D4F0E943E
:1028F000172A8823C1F080911C0390E0019687700D
:10290000992780931C03E8CF1092AF020E94DF2B1F
:102910001092EB0210921C03E5EEF2E086E0DF017C
:102920001D928A95E9F767960FB6F894DEBF0FBE41
:10293000CDBFDF91CF911F9108952091AC023091CE
:10294000AD022817390771F09093AD028093AC0265
:10295000E0916702F0916802309721F00084F185E0
:10296000E02D099408952091AA023091AB02281716
:10297000390771F09093AB028093AA02E09167024D
:10298000F0916802309721F00680F781E02D0994DC
:102990000895E0916702F0916802309721F001906C
:1029A000F081E02D099480E0089580918F0280FDF0
:1029B0000AC0E8E9F2E0118210821282339692E0B6
:1029C000EA3AF907C1F7539A62E170E088E992E0C8
:1029D0000E94511B87EC90E00197F1F700C00000C6
:1029E0000895EF92FF920F931F93CF93DF93EC0123
:1029F0008C819D810196817099279D838C8388E9C4
:102A0000E82E82E0F82E10E008E7212F26958C8131
:102A10009D81820F911D81709927970140919202AB
:102A200060919102FC010E9FC0010F9F900D112437
:102A30000E9468131F5FF3E0EF0EF11C163029F7B8
:102A4000DF91CF911F910F91FF90EF900C94D514CF
:102A50000F931F93CF93DF93C8E9D2E0FE01118259
:102A600010821282339682E0EA3AF807C1F700E05A
:102A700010E080919702082E000C990B0817190797
:102A8000ECF080913001082E000C990B8017910713
:102A9000ACF080918F02881F8827881F9091900248
:102AA000592F550F97FB992790F99E01409192025B
:102AB00060919102852B0E94681303C019821882CD
:102AC0001A820F5F1F4F23960630110591F60E9460
:102AD000D51480912F0190919702980F90939702AF
:102AE00020913001280F20933001121614F49530F4
:102AF0001CF0819580932F01DF91CF911F910F9151
:102B00000895CF92DF92EF92FF920F931F93CF938E
:102B1000DF93FC01828180FF03C0DD24DA9402C0D0
:102B2000DD24D39408E912E0C0E0D0E0F80111827E
:102B30001082128294E0E92EF12CC12C8091960231
:102B40008C0D87FD8A5F082E000C990BC817D907DA
:102B5000E9F4809192028E9DA0018F9D500D112469
:102B6000559547955595479580918F02881F8827E1
:102B7000881F90919002592F550F97FB992790F934
:102B8000980160919102852B0E946813CD0CF1E0B1
:102B9000EF1AF10899F621960D5F1F4FC630D10547
:102BA00029F60E94D5148091960291E0D91206C0B0
:102BB000811102C085E007C0815005C090E00196F8
:102BC000BE010E94AF3080939602DF91CF911F919A
:102BD0000F91FF90EF90DF90CF900895CF92DF920A
:102BE000EF92FF920F931F93CF93DF93EC0188E94D
:102BF000E82E82E0F82E00E010E098E6C92EDD24F1
:102C0000D3948C819D81800F911FB6010E94AF30BB
:102C1000970140919202609191020E946813045CB6
:102C20001F4F83E0E80EF11C083681E0180749F7D2
:102C30000E94D5142A818C819D8120FF05C00196B8
:102C4000B8010E94AF3007C0181619061CF087E6BD
:102C500091E001C001979D838C83DF91CF911F91FB
:102C60000F91FF90EF90DF90CF900895CF93DF9377
:102C700000D01F92CDB7DEB720918F0220FF18C081
:102C80009E012F5F3F4F0E94681380918F0280FF4B
:102C90000FC08B8199812A81E8E9F2E0218390833A
:102CA0008283339632E0EA3AF307C1F70E94D514E3
:102CB0000F900F900F90DF91CF910895CF93DF93F6
:102CC000EC01EFE8F2E0438162818C819D810E94FA
:102CD00036168C819D81019668E671E00E94AF30C6
:102CE0009D838C83DF91CF910895CF93DF93EC0187
:102CF0006C8170E080E090E00E949C2E20E030E04B
:102D00004FE753E40E94BF2D2BED3FE049E450E430
:102D10000E94C52F0E9432300E94392E2BE43AE3E4
:102D20004EE25FE30E94522D20EF3BEF48ED52E46C
:102D30000E94C52F0E946B2E462FEFE8F2E08081A3
:102D4000881F8827881F90919002292F220F97FBB8
:102D5000992790F96281822B0E9436168C8190E02F
:102D600001968C83DF91CF91089580918F0280FF2F
:102D700003C086958F73089580E0089580918F0237
:102D8000282F26952F7330E02115310519F481780D
:102D9000826005C02332310524F0817884648093F9
:102DA0008F0230918F02432F441F4427441F2091EC
:102DB0009002522F550F852F842B27FB992790F9CE
:102DC000893641E094077CF068E671E00E94AF30FC
:102DD00080FB37F930938F0286952078822B90FB09
:102DE00087F9809390020895CF92DF92EF92FF923D
:102DF0006B017C010E94BE16B701A60188E090E03D
:102E0000FF90EF90DF90CF900C94302D5F926F92F7
:102E10007F928F929F92AF92BF92CF92DF92EF926A
:102E2000FF920F931F93CF93DF9300D01F92CDB7E4
:102E3000DEB78C01E62EF42E522E80918F0280FF99
:102E400097C0E82FE695EF73AE2FB0E0AE56BE4FB9
:102E50009C9190939402282F2E772230C1F49E01EA
:102E60002F5F3F4FC8010E94681380918F0280FF3F
:102E70005FC08B8199812A81E8E9F2E02183908308
:102E80008283339632E0EA3AF307C1F74FC09230BB
:102E900019F4F09092024CC0963069F4881F88278C
:102EA000881F90919002292F220F022F082B97FB49
:102EB000112710F93DC0993089F39931C9F5E951CD
:102EC000E0FD02C021E001C02FEFE695F0E0EE0F3B
:102ED000FF1FE459F84F8591949166E070E00E94DD
:102EE0009B3026034001279F900C1124580188E94C
:102EF000A81A8EEFB80A98E9C92E92E0D92E28E6D2
:102F0000622E77247394C501B3010E949B30960111
:102F10004F2D6E2D0E946813A80CB91C33E0C30E10
:102F2000D11C8AEAC81682E0D80669F70E94D51437
:102F300080918F0200FB87F980938F02902F9695E6
:102F4000809190028078892B10FB87F98093900202
:102F5000E0929102F0929202552051F060918F021E
:102F60007091900280919102909192020E94F416C9
:102F70000F900F900F90DF91CF911F910F91FF90C5
:102F8000EF90DF90CF90BF90AF909F908F907F9009
:102F90006F905F90089590918F0290FF4AC0917852
:102FA000811102C0926007C0833210F0946403C0A4
:102FB0008F73880F982B90938F02662351F0609146
:102FC0008F027091900280919102909192020E94E2
:102FD000F41660918F0266956F7370E04BE050E0DD
:102FE00084E291E00E94C930892B19F01092950279
:102FF00009C081E0809395020E94702790938A0215
:103000008093890281E080938C0280918F02881FD7
:103010008827881F90919002392F330F97FB9927AB
:1030200090F920E04091920260919102832B0C94E0
:103030000617089561E00C94CB1780918F02869556
:103040008F73815009F482E261E00C94CB17809178
:103050008F0286958F738F5F833208F081E061E085
:103060000C94CB17EFE8F2E083E08083109290029B
:103070008FEF828383831482608171818281938147
:103080000C94F416CF93DF9326E4829FC0011124A1
:10309000FC0137E0739FE00DF11D1124E60FF11DD7
:1030A000EE0FFF1FE857FE4FC591D491CE01C238F5
:1030B000D10549F1B0F4C133D10509F464C048F435
:1030C000C932D10509F458C0CA32D10509F462C029
:1030D00068C0C533D10509F448C0C933D10599F09A
:1030E00060C0C33ED10541F138F4C03ED10591F036
:1030F000C23ED105B1F055C0C63ED10521F1C73E53
:10310000D10561F14EC02091640220FD09C221FD6C
:1031100007C208C22091640220FF04C289E390E044
:1031200001C22091640222FFFDC18091640284FDEE
:10313000A9C183EE90E0F6C18091640282FFF5CFD1
:1031400082EE90E0EFC12091640223FFEBC18091F9
:10315000640284FD97C187EE90E0E4C1809164022F
:1031600083FFF5CF86EE90E0DDC12091640225FF5C
:10317000D9C189E290E0D6C12091640225FFD2C175
:1031800085E390E0CFC12091640226FFCBC18AE2A3
:1031900090E0C8C12091640226FFC4C181E390E0A1
:1031A000C1C1C11540E5D40708F049C0C11520E4EC
:1031B000D20708F030C1C83ED10520F5C03ED10588
:1031C00008F0B0C1C83AD10570F4C53AD10508F08D
:1031D000ADC0C130D10509F4A5C108F453C124978D
:1031E00008F450C19FC1CF3BD10508F4AAC0C03C30
:1031F000D10508F447C1CE01880F991FFC01E451A5
:10320000FB4FFEC0C11530E2D30760F4C11541E0A9
:10321000D40708F087C1C03FD10508F433C1CE01FF
:10322000906580C1C11580E3D80708F0ECC0CE01DD
:103230009F70FC01EE0FFF1FE459F94FE1C0C1156B
:1032400025E5D20708F045C0C11534E5D30708F0DD
:10325000FAC0C11542E5D40718F5C11581E5D807B4
:1032600008F0DDC0CE0174E0969587957A95E1F778
:10327000282F23703C2F337081E090E002C0880F2C
:10328000991F3A95E2F79C68922BEC2FEF70E69528
:10329000E69520E2E29FF00111248E2B9F2B42C184
:1032A000AE01437055272C2F26952695C115D34581
:1032B00008F0BAC081E090E002C0880F991F4A95DB
:1032C000E2F740E2249F90011124822B932B9C680B
:1032D00029C1C11549E5D40798F4C11588E5D80777
:1032E00008F0B6C0C11526E5D20708F0CBC08C2F78
:1032F0000E94DC138F7190E0982F8827906212C192
:10330000C1153AE5D30708F4A8C0CE01905681153F
:10331000904208F0B7C08D2F8F710E94DC13FE0120
:10332000FF27F0628F719F01382BAAC0C53AD105E3
:1033300009F4ABC0C63AD10509F0AAC082E890E40E
:10334000F1C0C83AD10509F4A6C0C93AD10509F4BB
:10335000A5C0CA3AD10509F4A4C0CB3AD10509F4F5
:10336000A3C0CC3AD10509F4A2C0CB3BD10509F4E6
:10337000A1C0CC3BD10509F4A0C0CD3AD10509F4D8
:103380009FC0C03BD10509F49EC0CE3AD10509F4D7
:103390009DC0CF3AD10509F49CC0C13BD10509F4C9
:1033A0009BC0C23BD10509F49AC0C33BD10509F4C7
:1033B00099C0C43BD10509F498C0C53BD10509F4B7
:1033C00097C0C63BD10509F496C0C73BD10509F4A7
:1033D00095C0C83BD10509F494C0C93BD10509F497
:1033E00093C0CD3BD10509F492C0CE3BD10509F481
:1033F00091C0CA3BD10509F490C080E094E492C02A
:10340000859194918FC0CE019927D3FF02C0986C0B
:1034100089C0906C87C0CE019F70906A83C09C2F3A
:103420008827816F906A7EC081E090E002C0880F9B
:10343000991F4A95E2F740E2249F90011124822BC4
:10344000932B9A686FC09C2F8827846F906A6AC0FC
:103450009C2F8827806F906A65C08C2F8F700E9488
:10346000DC13FE0194E0F695E7959A95E1F7EF708D
:10347000F0E0FE2FEE27F06A8F70806E9F01282B00
:10348000C90150C080E090E04DC081E890E44AC09E
:1034900083E890E447C082EE94E444C089EE94E46B
:1034A00041C08AEE94E43EC085EB94E43BC086EBD9
:1034B00094E438C083EB94E435C084EB94E432C0E8
:1034C00087EB94E42FC08CEC94E42CC08DEC94E456
:1034D00029C083E895E426C08AE895E423C082E900
:1034E00095E420C084E995E41DC081E296E41AC009
:1034F00083E296E417C084E296E414C085E296E481
:1035000011C086E296E40EC087E296E40BC08FE617
:1035100094E408C080E794E405C08AE296E402C01F
:1035200080EE90E0DF91CF910895FF920F931F936B
:10353000CF93DF938C01F8012491222309F444C036
:10354000C8010196213041F48C01FC01C4918C2FFB
:103550000E943C2C8C2F33C0223031F48C01FC01B2
:1035600084910E943C2C2DC0233021F48C01FC015D
:10357000849125C030E0F901E451FA4FF490F9014B
:10358000E459FA4FD491F901E451FB4FC491DD2382
:1035900019F081EE0E943C2CCC2319F086EE0E949B
:1035A0003C2C8F2D0E943C2C8F2D0E94FD2BCC2378
:1035B00019F086EE0E94FD2BDD2319F081EE0E94AA
:1035C000FD2B0F5F1F4FB7CFDF91CF911F910F9151
:1035D000FF900895E8EDF0E08081806180838AE1CA
:1035E0008A95F1F700C08091D90081700895CF933A
:1035F000DF93A8E8B1E04DE851E061E070E08D9123
:10360000E82FE295EF70F0E021A18F70EB0102C08E
:10361000CC0FDD1F8A95E2F7CE019C2F9095922367
:1036200091A392A1892B82A34A175B0741F7DF91EF
:10363000CF91089584EA8093BC000E94502380912A
:10364000B900887F883039F08091B900887F803157
:1036500011F081E0089588E78093BB0084E88093AF
:10366000BC000E9450238091B900887F883129F0E6
:103670008091B900887F803461F780E00895CF930E
:10368000C62F0E946823882349F080E00E946823A7
:10369000882321F08C2FCF910C94682380E0CF9168
:1036A00008952BB1277F3BB138604FB7F894FC01E8
:1036B000680F791FE617F70789F0819198E03BB909
:1036C000000000C087FF2BB9880F000000C000C0B9
:1036D00000C02BB900C09A9591F7ECCF4FBF089569
:1036E000EF92FF920F931F93CF93DF937C018B0197
:1036F0000E94E90E811119C0E70101151105A1F021
:103700008091E80085FD0AC08091E8008E77809363
:10371000E8000E94E90E882381F307C08991809315
:10372000F10001501109E9CF80E0DF91CF911F91A5
:103730000F91FF90EF9008951F93CF93DF93CDB734
:10374000DEB7AA970FB6F894DEBF0FBECDBFEEEB83
:10375000F2E08091F100819322E0E63CF207C9F7A4
:103760008091BF02833009F460C030F4813071F081
:10377000823009F49CC0B3C08A3009F488C08B3011
:1037800009F46BC0893009F0AAC020C08091BE0244
:10379000813A09F0A4C08091E800877F8093E80017
:1037A0008091C2029091C302892B21F468E082EBE0
:1037B00092E003C060E080E090E070E00E94700F53
:1037C0008091E8008B778093E80089C08091BE02E9
:1037D000813209F084C08091C2029091C3020297A5
:1037E00008F07DC08091E800877F8093E800809199
:1037F000E80082FD05C08091BC028111F8CF6FC046
:103800002091F3008091F20090E0922B029729F42E
:103810008091F1008B7F813021F48091F1008093C1
:10382000B1028091E8008B7756C08091BE02813A48
:1038300009F055C08091C2029091C302892B09F012
:103840004EC08091E800877F8093E8008091E80077
:1038500080FFFCCF8091310139C08091BE0281325E
:10386000F1F58091C2029091C302892BC1F580913C
:10387000E800877F8093E8000E941C0F8091C002BF
:10388000809331011092AF020E94DF2B28C08091FB
:10389000BE02813221F58091E800877F8093E800A5
:1038A0000E941C0F8091C1028093B00218C08091C9
:1038B000BE02813AA1F48091E800877F8093E800FE
:1038C0008091E80080FFFCCF8091B0028093F100EE
:1038D0008091E8008E778093E8000E941C0F809111
:1038E000E80083FFD8C18091BE029091BF02492FAA
:1038F00050E04A30510508F0CEC1FA01E757FF4FBA
:103900000C94C330803821F0823809F0C4C108C05B
:103910008091BA029091BB02992389F082600FC016
:103920008091C2028F70873008F0B5C18093E900A2
:103930008091EB0085FB882780F91092E900909137
:10394000E800977F9093E8008093F1001092F100D7
:1039500071C1282F2D7F09F09EC1882319F0823074
:1039600061F099C18091C002813009F094C1933017
:1039700009F080E08093BB022EC08091C0028111CB
:103980002AC08091C2028F702FEF280F263008F0D6
:1039900082C18093E9002091EB0020FF1CC093308E
:1039A00021F48091EB00806214C09091EB00906153
:1039B0009093EB0021E030E0A90102C0440F551FB5
:1039C0008A95E2F74093EA001092EA008091EB00BA
:1039D00088608093EB001092E9008091E800877F77
:1039E0002CC1811158C11091C0021F778091E30052
:1039F0008078812B8093E3008091E800877F80931B
:103A0000E8000E941C0F8091E80080FFFCCF8091AD
:103A1000E30080688093E300111102C082E001C0DE
:103A200083E08093BC0237C18058823008F033C1F4
:103A30008091C0029091C1028C3D53E0950779F5C9
:103A400083E08A838AE289834FB7F894DE01139674
:103A500020E03EE051E2E32FF0E050935700E49184
:103A600020FF03C0E295EF703F5FEF708E2F90E074
:103A7000EA3010F0C79601C0C0968D939D932F5FDA
:103A8000243149F74FBF8091E800877F8093E80099
:103A90006AE270E0CE0101960E94700FBAC04091B8
:103AA000C2025091C302292F332723303105B1F0D0
:103AB00068F42130310509F4FDC02230310509F0E8
:103AC000EAC08BE390E0E5E0F8E050C02132310538
:103AD00081F12232310509F439C0DDC099278130E6
:103AE0009105B9F070F082309105D9F0039709F093
:103AF000D2C0E2E5F8E0E4918E2F90E0E2E5F8E054
:103B000032C0E6E8F8E0E4918E2F90E0E6E8F8E0D5
:103B10002AC0E0E7F8E0E4918E2F90E0E0E7F8E0DB
:103B200022C0E8E5F8E0E4918E2F90E0E8E5F8E0C7
:103B30001AC04115510509F4C2C04130510509F0C0
:103B4000AAC089E090E0E0E3F8E010C0411551051B
:103B500009F4BAC04130510509F09DC08FE490E0EE
:103B6000E6E7F7E003C0009709F495C02091E8006C
:103B7000277F2093E8002091C4023091C50282176C
:103B8000930708F49C0140E02115310589F18091EB
:103B9000BC02882309F43DC08530D9F18091E8004A
:103BA00083FD37C08091E80082FD2FC08091E8003E
:103BB00080FFEACF4091F3008091F20090E0942BD7
:103BC0002115310559F08830910540F44491409316
:103BD000F1003196215031090196F2CF41E008976A
:103BE00009F040E08091E8008E778093E800CCCF28
:103BF0004111CDCF0AC08091BC02882351F085309D
:103C000041F08091E80083FD04C08091E80082FFCC
:103C1000F2CF8091E8008B778093E8003CC0803839
:103C2000D1F58091E800877F8093E8008091BD0204
:103C30008093F1008091E8008E778093E8000E94E5
:103C40001C0F29C0811127C08091C0029091C10230
:103C50009927029704F58091E800877F8093E80018
:103C60001091C0021093BD020E941C0F111106C0DA
:103C70008091E30087FD02C081E001C084E0809371
:103C8000BC0242E061EC81E00E943B0F42E261EC49
:103C900082E00E943B0F8091E80083FF1AC0809170
:103CA000E800877F8093E8008091EB00806280933A
:103CB000EB000FC082E190E0E0E4F8E057CF89E04C
:103CC00090E0E7E1F8E052CF80E490E0E5ECF7E047
:103CD0004DCFAA960FB6F894DEBF0FBECDBFDF91D1
:103CE000CF911F9108951F920F920FB60F9211243A
:103CF0002F933F934F935F936F937F938F939F93F4
:103D0000AF93BF93CF93DF93EF93FF93C091E900FD
:103D1000CF708091EC00D82FD17080FDD0E8109248
:103D2000E9008091F000877F8093F00078940E94F2
:103D30009C1B1092E9008091F00088608093F00055
:103D4000CD2BCF70C093E900FF91EF91DF91CF9120
:103D5000BF91AF919F918F917F916F915F914F91A3
:103D60003F912F910F900FBE0F901F901895E8ED87
:103D7000F0E080818E7F80831092E2001092DA0062
:103D80001092E100A0EEB0E08C9181608C93808174
:103D90008F77808319BCA7EDB0E08C918E7F8C93D8
:103DA00080818F7E80831092AE020895CF92DF9241
:103DB000EF92FF920F931F93CF93DF93C8EDD0E064
:103DC00088818F7E8883E7EDF0E080818160808349
:103DD00084E082BF81E08093AE0288818E7F8883F9
:103DE00002EE10E0F80110821092DA0081EEC82E87
:103DF000D12CF601108288818F7788838881806832
:103E0000888388818F7D888319BC1092BC021092B0
:103E1000BD021092BB021092BA0290EEE92EF12C74
:103E2000F70180818B7F808388818160888342E075
:103E300060E080E00E943B0FF60180818E7F8083EE
:103E4000F801808181608083808188608083F701B0
:103E500080818E7F8083888180618883DF91CF918C
:103E60001F910F91FF90EF90DF90CF9008951F92D8
:103E70000F920FB60F9211242F933F934F935F939E
:103E80006F937F938F939F93AF93BF93EF93FF9322
:103E90008091E10082FF09C08091E20082FF05C0AD
:103EA0008091E1008B7F8093E1008091DA0080FFB8
:103EB0002AC08091D80080FF26C08091DA008E7FD2
:103EC0008093DA008091D90080FF18C080E189BD1D
:103ED00082E189BD09B400FEFDCF81E08093BC0280
:103EE0008091AE0281110FC00E94B71E0E94D61EA3
:103EF0008091E20084608093E20005C019BC1092BA
:103F0000BC021092AE028091E10080FF17C0809148
:103F1000E20080FF13C08091E2008E7F8093E20078
:103F20008091E20080618093E2008091D8008062FD
:103F30008093D80019BC85E08093BC028091E10099
:103F400084FF34C08091E20084FF30C080E189BDED
:103F500082E189BD09B400FEFDCF8091D8008F7D3C
:103F60008093D8008091E1008F7E8093E100809162
:103F7000E2008F7E8093E2008091E2008160809376
:103F8000E2008091BD02882311F084E007C0809197
:103F9000E30087FD02C081E001C083E08093BC02A2
:103FA0001092AF020E94DF2B0E94C9148091E100A1
:103FB00083FF27C08091E20083FF23C08091E1004E
:103FC000877F8093E10082E08093BC021092BD0263
:103FD0008091E1008E7F8093E1008091E2008E7FEE
:103FE0008093E2008091E20080618093E20042E0F1
:103FF00060E080E00E943B0F8091F0008860809339
:10400000F000FF91EF91BF91AF919F918F917F91C0
:104010006F915F914F913F912F910F900FBE0F9035
:104020001F9018958EE14A9B02C08150E1F74A9B90
:10403000FECF0895615091E001C0990F6A95EAF7AB
:1040400020E031E0992361F0492F482319F05A9A72
:10405000232701C05A9840E24A95F1F79695F2CF8E
:10406000222311F05A9A01C05A9880E28A95F1F7FA
:104070005A980895FC012AE02A95F1F790E020E093
:1040800080E031E0261779F040E14A95F1F7880F9A
:104090004A9B02C08160932700C0000040E14A951E
:1040A000F1F72F5FEFCF20E12A95F1F729B100C09A
:1040B000000030E13A95F1F722FB222720F9922700
:1040C0002081920F90830895EF92FF920F931F9398
:1040D000CF93DF931F92CDB7DEB719828C017C019D
:1040E000E60EF11C0E151F0559F00E94122068E023
:1040F000CE0101960E943A20F80181938F01F2CF00
:1041000081E09981911180E00F90DF91CF911F9113
:104110000F91FF90EF9008955A9880E28A95F1F7F9
:104120005A9A0895FF920F931F93CF93DF93EC0158
:104130008C01060F111DC017D10741F0F9900E94A4
:104140008C2068E08F2D0E941A20F5CFDF91CF914F
:104150001F910F91FF9008950F931F93CF93DF93BB
:104160002091FD0130E0281739070CF471C09C0143
:1041700093E0220F331F9A95E1F7C091FE01D09191
:10418000FF01C20FD31FF894529A5A9845E04A95FE
:10419000F1F70000982F969595708570890F982FEC
:1041A000937086958695890F8901082B0E948C2033
:1041B00084E08A95F1F700C067E0802F0E941A2002
:1041C00040E14A95F1F752985A9A4A9902C000C0C4
:1041D000FCCF87E090E04A9B0EC0019751F4529AC1
:1041E0005A9AE881F98181E08083789481E090E0B7
:1041F00031C000C0F0CF6D81662381F08E819F8138
:104200000E94642081110AC0529A5A9AE881F98169
:1042100082E08083789482E090E01CC00E941220AB
:1042200080E28A95F1F75A98529A40E14A95F1F75F
:104230006A81662321F08B819C810E9492200E94DA
:104240008C20E881F9811082789480E090E002C0AF
:1042500084E090E0DF91CF911F910F9108959F929C
:10426000AF92BF92CF92DF92EF92FF920F931F9384
:10427000CF93DF9380910101811103C0C5E0D0E0AD
:1042800002C0C0E0D0E0AE01465A5D4F7A0188E836
:10429000C82E81E0D82E8A01AA24A394B12C25E04F
:1042A000922EFDE8CF16F1E0DF0609F44AC0F601D0
:1042B00081916F01E82FE295EF70F0E021A18F70FE
:1042C000A50102C0440F551F8A95E2F7CA01922F3B
:1042D000982B91A392A18095892382A350EA5A95A5
:1042E000F1F7E1E8F1E020E040E050E03191A32F68
:1042F000A295AF70B0E090968C9190E03F7002C0B4
:10430000959587953A95E2F780FD07C0C501042E83
:1043100001C0880F0A94EAF702C080E090E0282BE1
:104320004F5F5F4F4730510509F7F80180818217D1
:1043300019F0208390927E010E94F71A0F5F1F4FA1
:10434000B0CF80917E018823B1F0815080937E01AF
:10435000811103C0C659DD4F07C08FE99FE0019767
:10436000F1F700C0000007C0F70191917F01999318
:104370008F5F8530C9F781E0DF91CF911F910F9159
:10438000FF90EF90DF90CF90BF90AF909F900895F7
:104390000F931F93CF93DF938C010C5A1F4FD801BB
:1043A000ED91FC91119760832D913C9111972F5FB6
:1043B0003F4F2D933C93281B390B24353105B9F41D
:1043C000EC01BC016B5E7F4F4FE350E00E94E33095
:1043D000CE01CF96F8019183808345E150E060E201
:1043E00070E0DF91CF911F910F910C94F530DF9128
:1043F000CF911F910F9108951F93CF93DF93FC01ED
:10440000EA5AFF4F21E020836A3099F4EC01329799
:10441000808191818C1B9D0B65E170E00E94AF3023
:10442000182F153158F460E2CE010E94C8211F5F99
:10443000F8CFDF91CF911F910C94C821DF91CF91DC
:104440001F9108950F931F93CF93DF938C01EB017E
:10445000FE016491662329F0C8010E94FC21219687
:10446000F7CFDF91CF911F910F910895EF92FF92B7
:104470000F931F93CF93DF937C01EB01FB0101901E
:104480000020E9F78F0101501109C017D10728F466
:104490006991C7010E94FC21F8CFDF91CF911F9154
:1044A0000F91FF90EF9008951F920F920FB60F9209
:1044B00011240F931F932F933F934F935F936F9309
:1044C0007F938F939F93AF93BF93EF93FF93CF937C
:1044D000DF931F92CDB7DEB719820E94122067E0EA
:1044E000CE0101960E943A20382F369536953695A2
:1044F000932F96959570232F2570920F292F237057
:10450000969596958770920F891348C0898181117D
:1045100045C08091FD01831708F440C080E18A9571
:10452000F1F75A9A529AA2E0AA95F1F700C00091C9
:10453000FE011091FF01B8E03B9F000D111D1124F9
:104540005A98F8016581662321F0868197810E943F
:1045500092200E948C20F0E1FA95F1F75A98529837
:104560005A9A80E18A95F1F7D80112966C911297C8
:10457000662369F013968D919C9114970E94642094
:10458000D801ED91FC91811105C082E004C0D801F1
:10459000ED91FC9188E080830E9412200F90DF91C2
:1045A000CF91FF91EF91BF91AF919F918F917F91AB
:1045B0006F915F914F913F912F911F910F910F90AC
:1045C0000FBE0F901F9018951F920F920FB60F926B
:1045D00011248F939F93EF93FF938091B900887F6D
:1045E000803869F038F48823C9F18036C9F5109213
:1045F000D70236C0883A09F1883BF9F031C0809182
:10460000D702811111C08091BB008093D6028091A6
:10461000D602803120F01092D60280E001C081E005
:1046200091E09093D7021DC0E091D602F0E0809116
:10463000BB00EA53FD4F808308C0E091D602F0E052
:10464000EA53FD4F80818093BB008091D60290E0B9
:1046500001968F7099278093D60202C01092BC00F9
:1046600081E09091BC008295880F880F807C9568CE
:10467000892B8093BC00FF91EF919F918F910F90B8
:104680000FBE0F901F90189584E98093BC0083E3C0
:1046900090E02091BC0024FD02C00197D1F708955D
:1046A00083E390E02091BC0027FD02C00197D1F781
:1046B00008958093BB0084E88093BC000E9450233F
:1046C0009091B900987F81E0983209F480E00895D4
:1046D000CF93C82F0E941A1B81110AC080E00E944C
:1046E0005923811105C08C2F0E945923C1E08111EB
:1046F000C0E00E9444238C2FCF910895BF92CF92A7
:10470000DF92EF92FF920F931F93CF93DF930E945C
:1047100070279093D9028093D8028FEA0E94682371
:1047200063E082E20E943F1B8823D1F16DE781E2C2
:104730000E943F1B8823A1F10E941A1B811130C0E7
:1047400080E40E94592381112BC080E0E82E82E092
:10475000F82E94E0B92EC0E0D0E0F701EC0FFD1F79
:10476000C08086E0C89E6001112400E010E0F601E0
:10477000E00FF11FE657F74F84910E9459230F5F16
:104780001F4F0630110599F72196C531D10529F73C
:10479000BA9485E1E80EF11CB110DDCF10925602FB
:1047A000DF91CF911F910F91FF90EF90DF90CF900D
:1047B000BF900C944423CF92DF92EF92FF920F931D
:1047C0001F93CF93DF93CDB7DEB7C75AD1090FB68A
:1047D000F894DEBF0FBECDBF44E550E060E270E06C
:1047E0008E010F5F1F4FC8010E94F53067961FAF03
:1047F0000EAF679781E068968FAF689780915902F6
:10480000882309F4C4C08091640282FD0DC062E374
:1048100071E0C8010E94362269EF7DE0C8010E9464
:10482000222265E371E00CC068E371E0C8010E94D8
:10483000362267EF7DE0C8010E9422226BE371E01F
:10484000C8010E94362280914D038F9380914C03C2
:104850008F9380914B038F9380914A038F938FECBA
:1048600091E09F938F931F9288E28F937E0120E8BF
:10487000E20EF11CFF92EF920E94FC306EEE7DE0A2
:10488000C8010E9422220FB6F894DEBF0FBECDBF32
:1048900080914A0390914B03A0914C03B0914D033A
:1048A00084309105A105B10531F158F40097A105B7
:1048B000B105C1F00297A105B10519F562EE7DE0E1
:1048C00016C080319105A105B10579F080329105BE
:1048D000A105B10599F00897A105B10591F467ED1F
:1048E0007DE005C068EE7DE002C06CED7DE0C801B2
:1048F0000E9422220AC061ED7DE0F9CF6AEC7DE0E2
:10490000F6CFB701C8010E9436220E94C91482FD69
:1049100005C03AECC32E31E0D32E04C025EBC22EE5
:1049200021E0D22E0E94C91481FD05C09AECE92E27
:1049300091E0F92E04C08AEBE82E81E0F82E0E9467
:10494000C91480FD03C087EC91E002C08FEB91E0B9
:10495000DF92CF92FF92EF929F938F9389ED91E038
:104960009F938F931F9288E28F937E0198E5E90EC3
:10497000F11CFF92EF920E94FC30B701C8010E9427
:1049800036220FB6F894DEBF0FBECDBF05C06EE372
:1049900071E0C8010E94362244E550E0B80180E091
:1049A00092E00E94D630892B59F084E5F801A0E00E
:1049B000B2E001900D928A95E1F781E08093560272
:1049C00080915602811104C080910001882321F05A
:1049D0000E947E23109200018091D8029091D9020A
:1049E0000E94462781369A4E18F08EEA0E9468236C
:1049F000C955DF4F0FB6F894DEBF0FBECDBFDF91B4
:104A0000CF911F910F91FF90EF90DF90CF9008957D
:104A1000EF92FF920F931F93CF93DF9380915902F0
:104A2000882309F472C00E942F2180910101811115
:104A300003C0C5E0D0E002C0C0E0D0E0C659DD4F01
:104A400045E050E0BE0185EF91E00E94D6307C0148
:104A500085E0FE01A5EFB1E001900D928A95E1F7A6
:104A600080910101811103C0C0E0D0E002C0C5E027
:104A7000D0E09091800180917F01981761F082E0F1
:104A800090E00E94AC208C01892B39F480917F0149
:104A90008093800102C000E010E0EF2849F480918B
:104AA000DA029091DB02892B19F480E090E002C0D9
:104AB00081E090E00E94AC20892B49F48091FA01BA
:104AC00080937F011092DB021092DA0206C081E02F
:104AD00090E09093DB028093DA020115110531F02A
:104AE0000230110509F04FC028984DC0289ADE0108
:104AF000A659BD4F85E0EFEEF1E001900D928A9549
:104B0000E1F75D9A1092DC0234C00E942F2180915F
:104B10000101811103C0E5E0F0E002C0E0E0F0E057
:104B2000E659FD4F80E020E030E0D901A151BE4FB1
:104B30004C919191491381E09C932F5F3F4F253019
:104B4000310599F79091FA01890F8093FA018091CC
:104B50000101811103C0A0E0B0E002C0A5E0B0E017
:104B6000A659BD4F85E0E5EFF1E001900D928A95E1
:104B7000E1F70E94DB2381E0DF91CF911F910F913C
:104B8000FF90EF9008955D988091DC028F5F809395
:104B9000DC02863070F380910101811103C0E0E0F6
:104BA000F0E002C0E5E0F0E0E659FD4F80E090E083
:104BB0001192019685309105D9F7DBCFCF93C62F9F
:104BC0000E946823882321F08C2FCF910C946823B6
:104BD00080E0CF9108958091B1020895803F39F42B
:104BE0008091770287FF6CC01092770269C0813F85
:104BF00029F4809177021816BCF362C09091760276
:104C0000823F29F497FF5CC01092760259C0833F1F
:104C100019F41916CCF354C0893F41F480917802FD
:104C200018160CF04DC0109278024AC08A3F29F441
:104C30008091780287FF44C0F6CF8B3F39F4809192
:104C4000790287FF3DC0109279023AC08C3F29F467
:104C5000809179021816BCF333C0843F21F480910F
:104C600075028E7F17C0853F21F4809175028D7F7C
:104C700011C0863F21F4809175028B7F0BC0873F66
:104C800021F480917502877F05C0883F31F48091BF
:104C900075028F7E8093750213C08D3F21F4809141
:104CA0005A038E7F0BC08E3F21F480915A038D7F73
:104CB00005C08F3F29F480915A038B7F80935A035C
:104CC0008091760281110EC08091770281110AC015
:104CD00080917802811106C080917902811102C011
:104CE00010927A02089580915A0380FD16C081FDCA
:104CF00016C082FD18C080917A02882391F0883214
:104D000090F428E0829FC001112468E270E00E94C4
:104D1000AF30862F672B29F007C082E0089584E02A
:104D2000089581E0089588E0089580915A0380FDF8
:104D300017C081FD17C082FD19C080917A028823B7
:104D400099F0863998F42FE0829FC001112466E91A
:104D500070E00E94AF30862F672B49F481E0089500
:104D600083E0089587E0089585E008958FE0089531
:104D7000803F21F40E949526819504C0813F29F44B
:104D80000E949526809377020895823F21F40E9425
:104D90009526819504C0833F29F40E94952680932F
:104DA00076020895893F19F40E94732605C08A3F50
:104DB00031F40E94732681958093780208958B3F89
:104DC00021F40E947326819504C08C3F29F40E942F
:104DD0007326809379020895843F21F480917502AF
:104DE000816017C0853F21F480917502826011C0F7
:104DF000863F21F48091750284600BC0873F21F4C7
:104E000080917502886005C0883F31F480917502F9
:104E100080618093750208958D3F21F480915A033B
:104E200081600BC08E3F21F480915A03826005C0DF
:104E30008F3F29F480915A03846080935A03089528
:104E400078941F920F920FB60F9211248F939F9315
:104E5000AF93BF938091560390915703A09158034D
:104E6000B09159030196A11DB11D809356039093F3
:104E70005703A0935803B0935903BF91AF919F91EB
:104E80008F910F900FBE0F901F901895CF92DF92C9
:104E9000EF92FF920F931F932FB7F8944091560310
:104EA0005091570360915803709159032FBF6A01C5
:104EB0007B01EE24FF248C0120E030E0C016D106F7
:104EC000E206F30610F4415051099A01281B390BF0
:104ED000C9011F910F91FF90EF90DF90CF9008953F
:104EE0002FB7F8948091560390915703A0915803DF
:104EF000B09159032FBF0895E0916702F0916802C5
:104F0000309749F082E0809374020480F581E02DAF
:104F100084E792E009950E94702790937C02809329
:104F20007B0208951F920F920FB60F9211248F9358
:104F30009F93AF93BF9380916902811113C08091B9
:104F4000560390915703A0915803B091590341968D
:104F5000A11DB11D8093560390935703A09358034E
:104F6000B0935903BF91AF919F918F910F900FBE56
:104F70000F901F9018959C01FC0132969FEF80E0E6
:104F80004191461789F09F3F19F4411101C0982FB4
:104F90008F5F8630A9F79F3F39F0F901E90FF11DC6
:104FA00097FDFA9562830895089580E090E00E944D
:104FB000182D21E08D3E9E4F09F020E0822F0895AC
:104FC0006DEE7EEF80E090E00E943C2D60E082E09C
:104FD00090E00E941E2D60E083E090E00E941E2D74
:104FE00010925203109253031092540310925503DF
:104FF00060E084E090E00E941E2D60E085E090E09B
:105000000E941E2D60E086E090E00E941E2D6FEF52
:1050100087E090E00E941E2D40E050E0BA0188E059
:1050200090E00E94302D60E08DE090E00E941E2D07
:1050300040E050E0BA0188E190E00E94302D60E04D
:1050400087E190E00E941E2D40E050E0BA018FE021
:1050500090E00E94302D40E050E0BA0183E190E002
:105060000C94302D809151038111109251030895B9
:105070009091AF0280915003892B20914F03982F7C
:10508000922B9093DD0280915103882389F0892B24
:105090008093DD02EFEDF2E097E080E0915029F09F
:1050A00021912223D9F38F5FF9CF81110E943228F9
:1050B000E0916702F0916802309731F00280F3814D
:1050C000E02D8DED92E009940895BF92CF92DF928A
:1050D000EF92FF920F931F93CF93DF938C01C090B9
:1050E0004A03D0904B03E0904C03F0904D03809125
:1050F000520390915303A0915403B0915503C82AD1
:10510000D92AEA2AFB2ACFE1D0E0D701C6010C2E2A
:1051100004C0B695A795979587950A94D2F780FD18
:1051200004C0219790F7B12C07C0BC2EB8018C2F7A
:105130000E9442180197A9F38B2DDF91CF911F9107
:105140000F91FF90EF90DF90CF90BF900895CF9395
:10515000DF93EC010E946528BE010E944218DF9196
:10516000CF91089527E0929F800D1124682F6695B6
:1051700066956695982F977085E0689FB001112419
:1051800040E050E080E0FB01E40FF51FE35EFC4FE0
:10519000208130E0092E02C0369527950A94E2F767
:1051A00021703327042E01C0220F0A94EAF7822BC4
:1051B0004F5F5F4F4530510531F7089527E0929FCB
:1051C000800D1124E82FE695E695E695877051E06D
:1051D00001C0550F8A95EAF785E0E89FF001112498
:1051E000E35EFC4F20E030E070E04081CB01022E16
:1051F00002C0969587950A94E2F78170819584277D
:105200008523842781932F5F3F4F2530310569F730
:10521000089560934A0370934B0380934C039093DB
:105220004D030C94CC2B0F931F9341E050E060E0B2
:1052300070E004C0440F551F661F771F8A95D2F790
:10524000409550956095709580914A0390914B03DD
:10525000A0914C03B0914D038A019B0108231923AF
:105260002A233B23C901B8011F910F910C940929EE
:1052700020914E038095822380934E03982F977040
:1052800079F430E0482F082E000C550B2417350711
:1052900039F08595859585950E94132910924E03C6
:1052A00008950F931F9341E050E060E070E004C068
:1052B000440F551F661F771F8A95D2F780914A03C6
:1052C00090914B03A0914C03B0914D038A019B0137
:1052D000082B192B2A2B3B2BC901B8011F910F91C9
:1052E0000C940929609352037093530380935403E1
:1052F000909355030C94CC2B80911C039091EB025E
:10530000891719F08F5F8770FBCF0895CF93809135
:10531000EA0282958F7009F05FC08091E7028823CE
:1053200009F45AC080911C03B091EB027091E50220
:10533000A091E6024091E8025091E90291E07F3F9E
:1053400009F090E0692FC6E08B1709F445C04115BC
:10535000510521F0AF3F21F020E003C021E001C062
:10536000262F90E020FD35C0C89FF001C99FF00DA9
:105370001124E451FD4F21812A132BC020812713D2
:1053800028C02281211125C02381348124173507AB
:1053900010F421503109241B350B24363105C8F493
:1053A0002091EA022F7020612093EA0226E0289FD4
:1053B000F001299FF00D1124EF50FD4F80818F7077
:1053C0008061808385EE92E00E944707CF910C9424
:1053D0007C2901968770B8CFCF9108950E94A728A5
:1053E000292F2F70E92FE295EF704E2F50E0FA0130
:1053F0003297EE30F105B8F4ED56FF4F0C94C33000
:10540000803F99F018F4803E70F40FC0843F59F447
:105410000CC0803E50F0813F31F407C0822F86954A
:1054200086958695089580E0089581E00895AF926D
:10543000BF92CF92DF92EF92FF920F931F93CF9381
:10544000DF93CDB7DEB761970FB6F894DEBF0FBE1E
:10545000CDBF7C0185E0F701DE011D9601900D9224
:105460008A95E1F7D7013C9111962C9111971296EC
:105470000C915091E5026091E6028091E8029091D2
:10548000E902009731F06F3F31F441E05F3F19F4DA
:1054900003C041E001C040E0B42FB170BB2E40FD1D
:1054A00028C1F701C380D480A090E702AA2009F4A4
:1054B000E3C04091EA02C816D90628F0D601A81B1D
:1054C000B90BCD0104C0809590958C0D9D1D11E008
:1054D0008436910548F010E0407F09F093C085EED6
:1054E00092E00E944707FDC0842F807F09F051C0E1
:1054F000621312C0531310C0102F01110DC04F7052
:1055000040614093EA0285EE92E00E944707809155
:10551000EA02F70185832EC1CD2831F02F3F31F407
:1055200081E03F3F19F403C081E001C080E080FDCD
:1055300003C081E0802702C080E090E0182F117046
:1055400080FF1CC080911C034091EB0256E0841741
:1055500009F4EDC090E0589FF001599FF00D11241F
:10556000E451FD4F6181261306C06081361303C0EC
:105570006281061303C001968770E9CF102F0023C4
:1055800009F4F8C08091EA0281608093EA0210E099
:10559000F1C062130CC053130AC0011108C08091FE
:1055A000EA02F7018583C7010E94470780C03D8753
:1055B0002E878D859E850E94EE29882369F1002320
:1055C00059F12091EA02822F82958F7090E0029724
:1055D00074F08091E5029091E60298878F83198696
:1055E000DB86CA862C87CE0107960E94470786E095
:1055F000F701A5EEB2E001900D928A95E1F70E94C5
:1056000086290DC0621769F03D872E878D859E859E
:105610000E94EE29811119C0C7010E94470711E0BD
:10562000A9C05313F1CF0111EFCF8091EA02F70126
:105630008583C7010E94470786E0E5EEF2E0DF01BF
:105640001D928A95E9F71A2D95C0002329F3209120
:10565000EA02822F82958F7090E0029744F2809147
:10566000E5029091E6029A8389831B82DD82CC82D7
:105670002E83CE010196B9CFC816D90638F0C81AC4
:10568000D90AB4E6CB16D10450F007C080959095A6
:105690008C0D9D1D8436910510F010E022C0102F56
:1056A000002309F4B9CF62130BC0531309C086E07D
:1056B000F701A5EEB2E001900D928A95E1F75AC08C
:1056C0003D872E878D859E850E94EE2981118FCF83
:1056D0008091EA0281608093EA02C7010E94470735
:1056E00049C0E5EEF2E086E0DF011D928A95E9F718
:1056F00041C0002309F490CF3D872E878D859E857C
:105700000E94EE29182F882309F486CF86E0F7013E
:10571000A5EEB2E001900D928A95E1F78091E50245
:105720009091E6020E94A7280E94862923C03D8707
:105730002E878D859E850E94A728292F22952F7060
:10574000223028F49F7039F0811105C00BC024303D
:1057500028F49F7049F4805E883020F0C7010E94D1
:105760004707B12E1B2D06C0D70115969C91907F3F
:1057700091F7F8CF812F61960FB6F894DEBF0FBE78
:10578000CDBFDF91CF911F910F91FF90EF90DF90F0
:10579000CF90BF90AF9008951092500310924F0396
:1057A0000E943828E4E7F2E086E0DF011D928A9546
:1057B000E9F710927A0210925A030C947C2786E043
:1057C000EFEDF2E0DF011D928A95E9F70C94CC2B06
:1057D000882341F080959091AF0289238093AF0296
:1057E0000C9438280895882339F09091AF02892BC2
:1057F0008093AF020C94382808958823E1F19CEF40
:10580000980F913A60F4EDEDF2E09281891301C0B6
:105810001282319642E0E33EF407B9F714C090E2F9
:10582000980F983090F4877021E030E0A90102C011
:10583000440F551F8A95E2F7CA0180959091AF02F7
:1058400089238093AF020C9438289BE5980F9330FE
:1058500020F480E090E00C94B31498E5980F973111
:1058600020F480E090E00C949D14803F20F00E9492
:10587000EE250C947C270895882309F4CAC09CEF78
:10588000980F913A30F4682F8DED92E00E94BB277B
:1058900013C090E2980F983088F4877021E030E0D0
:1058A000A90102C0440F551F8A95E2F7CA019091E1
:1058B000AF02892B8093AF020C9438289BE5980F98
:1058C000933070F4853A29F0863A31F083E890E01D
:1058D00005C081E890E002C082E890E00C94B31427
:1058E00098E5980F973108F08EC0883A09F445C0C2
:1058F000893A09F445C08A3A09F445C08B3A09F45B
:1059000045C08C3A09F445C08B3B09F445C08C3B3B
:1059100009F445C08D3A09F445C0803B09F445C0FF
:105920008E3A09F445C08F3A09F445C0813B09F429
:1059300045C0823B09F445C0833B09F445C0843B24
:1059400009F445C0853B09F445C0863B09F445C0D0
:10595000873B09F445C0883B09F445C0893B09F4FD
:1059600045C08D3B09F445C08E3B09F445C08A3BD8
:1059700009F445C080E090E044C082EE90E041C070
:1059800089EE90E03EC08AEE90E03BC085EB90E06F
:1059900038C086EB90E035C083EB90E032C084EBFA
:1059A00090E02FC087EB90E02CC08CEC90E029C0F9
:1059B0008DEC90E026C083E891E023C08AE891E076
:1059C00020C082E991E01DC084E991E01AC081E223
:1059D00092E017C083E292E014C084E292E011C02A
:1059E00085E292E00EC086E292E00BC087E292E090
:1059F00008C08FE690E005C080E790E002C08AE230
:105A000092E00C949D14803F20F00E94B8260C94E4
:105A10007C270895F999FECF92BD81BDF89A992708
:105A200080B50895A6E1B0E044E050E00C94442D28
:105A3000A8E1B0E042E050E00C94442D262FF99903
:105A4000FECF92BD81BDF89A019700B4021639F0DD
:105A50001FBA20BD0FB6F894FA9AF99A0FBE0895AE
:105A60000396272F0E941F2D0E941E2D252F0E9476
:105A70001F2D242F0C941F2D0196272F0E941F2DC0
:105A80000C941E2DDC01CB01FC01F999FECF06C060
:105A9000F2BDE1BDF89A319600B40D9241505040EC
:105AA000B8F708955058BB27AA270E946A2D0C9476
:105AB000152F0E94072F38F00E940E2F20F039F486
:105AC0009F3F19F426F40C94DD2E0EF4E095E7FBCD
:105AD0000C94D72EE92F0E94262F58F3BA1762078D
