:100000000C941F080C9466080C9466080C94522DEE
:100010000C9466080C9466080C9466080C946608A8
:100020000C9466080C9466080C9494200C94D01FD1
:100030000C9441230C9466080C9466080C94660892
:100040000C9466080C9466080C9466080C94660878
:100050000C9466080C94CF220C9466080C946608E5
:100060000C9466080C9466080C9466080C94660858
:100070000C9466080C9466080C9466080C94660848
:100080000C9466080C9466080C9466080C94660838
:100090000C94C10E0C9466080C9466080C946608C7
:1000A0000C9466080C9466080C9466080A121212E6
:1000B0001A1222122A1232126F123C124B126012C2
:1000C0005C145C1496149614B216E914B216B216A7
:1000D0002B1509161A161A1646177B17801785173F
:1000E0008A178F17941799179E17A317A817BF176A
:1000F000C217C517C817CB17CE17D117E617FB17AE
:10010000DF1D061EA81F061EA81F4E1E711EA81F5B
:100110006C1F7F1F81298129942994298A29942978
:1001200094299429812981298F29942994298F2917
:100130000000000000003E5B4F5B3E003E6B4F6BDB
:100140003E001C3E7C3E1C00183C7E3C18001C57A8
:100150007D571C001C5E7F5E1C0000183C180000D0
:10016000FFE7C3E7FF00001824180000FFE7DBE704
:10017000FF0030483A060E00262979292600407FE4
:1001800005050700407F05253F005A3CE73C5A0023
:100190007F3E1C1C0800081C1C3E7F0014227F228E
:1001A00014005F5F005F5F0006097F017F0000664B
:1001B00089956A0060606060600094A2FFA294006C
:1001C00008047E04080010207E20100008082A1C65
:1001D0000800081C2A0808001E10101010000C1E31
:1001E0000C1E0C0030383E383000060E3E0E060065
:1001F00000000000000000005F0000000007000792
:100200000000147F147F1400242A7F2A1200231375
:1002100008646200364956205000000807030000B9
:10022000001C224100000041221C00002A1C7F1CEF
:100230002A0008083E080800008070300000080806
:100240000808080000006060000020100804020098
:100250003E5149453E0000427F40000072494949F5
:1002600046002141494D33001814127F10002745E4
:10027000454539003C4A49493100412111090700EF
:10028000364949493600464949291E0000001400F4
:100290000000004034000000000814224100141443
:1002A0001414140000412214080002015909060028
:1002B0003E415D594E007C1211127C007F49494934
:1002C00036003E41414122007F4141413E007F498D
:1002D000494941007F09090901003E41415173002C
:1002E0007F0808087F0000417F4100002040413F17
:1002F00001007F08142241007F40404040007F02FF
:100300001C027F007F0408107F003E4141413E00F7
:100310007F09090906003E4151215E007F09192924
:10032000460026494949320003017F0103003F404E
:1003300040403F001F2040201F003F4038403F000A
:100340006314081463000304780403006159494DE1
:100350004300007F41414100020408102000004199
:1003600041417F000402010204004040404040003F
:100370000003070800002054547840007F284444BC
:100380003800384444442800384444287F00385416
:100390005454180000087E09020018A4A49C780098
:1003A0007F080404780000447D4000002040403D68
:1003B00000007F102844000000417F4000007C04C2
:1003C000780478007C0804047800384444443800F9
:1003D000FC182424180018242418FC007C080404A9
:1003E000080048545454240004043F4424003C4072
:1003F00040207C001C2040201C003C4030403C0041
:100400004428102844004C9090907C004464544C44
:100410004400000836410000000077000000004161
:10042000360800000201020402003C2623263C009C
:1004300003071F7FFFFFFEF8F0C020F8FEFFFE79E4
:10044000271F7FFFFFFEF8F0C020F8FEFFFF7F3F71
:100450003F7FFFFEF8F0C000000000FFFFFFFFFF3E
:10046000FF00000000000000FF7F7F7FBFBFC0C013
:10047000C0E0E0E0E0F0F0F0F878787C3C3CFEFE94
:10048000FEFFFFFF00000000000000000000808071
:10049000BFBFDFDFEFEF0003071F7FFFFFFFFEF8A7
:1004A000E0C0E0F8FEFFFFFF7F1F07030000E0F061
:1004B000F0F0E0ECEEF7F37020007C7C7C7E007EB8
:1004C0007E7E7F7F7F000080C0E07E5B4F5BFEC052
:1004D0000000C000DCD7DEDEDED7DC00C00000009C
:1004E000000000000000000000000000000000000C
:1004F00000000000C1F3CFBF7FFFFFFCFBE78100DE
:1005000000000080E3CF3FFFFFFFFCFBE78100001E
:10051000000081E7FFFFFFFF3C0000FFFFFFFFFF40
:10052000FFF8F8FC7C7E7E3EFEFFFFFFFFFFF7F743
:10053000F7FBFB7D7D7DBEBEBEDFDFE0E000FFFFA1
:10054000FFFFFFFF00FCFC7C7E7E3E3E1F1F1F0F57
:10055000FFFFFFFFFFFF000000000081E7FFFFFF3C
:10056000FFFFFFFFFFFFE7810000000000000F1FFB
:100570003F7F7F7F7F7F3F1E0C001F1F1F3F003F7D
:100580003F3F7F7F7F00307B7F7830202030787F37
:100590003B0003000F7F0F0F0F7F0F0003000000D1
:1005A000000000000000000000000000000000004B
:1005B00060707C7F7F7F7F1F0601030F3F7F7F7E00
:1005C0007C7C7E7F7F7F1F0601070F3F7F7F7E7CC5
:1005D0007C7E7F7F3F0F03000000007F7F7F7F7F57
:1005E0007F000000000000007F7F7F7F7F7F7D7D98
:1005F0003D3E1E1F1F1F0F0F0707070303007F7FCE
:100600007F7F7F7F7C7C7C7C7C7C7C7C7C7C7C009A
:100610007F7F7F7F7F7F004070787E7F7F7F3F0F6F
:100620000301030F3F7F7F7F7E7870400000000052
:1006300000000000000000000000000000000000BA
:1006400000000000000000000000000000000000AA
:10065000000000000000000000000000000000009A
:10066000000000000000000000000000000000008A
:10067000202020200053434C4B000A002020202043
:1006800000434150530020202020202020004E55C0
:100690004D4C4F434B000A0020000A000A0095967B
:1006A00000B5B600979800B7B80080818283848532
:1006B000868788898A8B8C8D8E8F9091929394A057
:1006C000A1A2A3A4A5A6A7A8A9AAABACADAEAFB0A2
:1006D000B1B2B3B4C0C1C2C3C4C5C6C7C8C9CACB0E
:1006E000CCCDCECFD0D1D2D3D400556E6465662D9B
:1006F000004172726F770053796D626F6C004D6FBD
:100700007573650054656E6B65790059737472700A
:1007100000517177657274790044656661756C7417
:10072000004C617965723A20000000000000000072
:1007300000000000000000000000000000000000B9
:1007400000000000000000000000000000000000A9
:100750000000000000000000000000000000000099
:100760000000000000000000000000000000000089
:100770000000000000000000000000000000000079
:100780000000000000000000000000000000000069
:100790000000000000000000000000000000000059
:1007A0000000000000000000000000000000000049
:1007B0000000000000000000000000000000000039
:1007C0000000000000000000000001010101010123
:1007D0000001010101000000000000000000000015
:1007E00000000001000100010101010101010101FE
:1007F00001010101010101010101010101010101E9
:1008000001010101000000010100000000000000E2
:1008100000000000000000000000000000000000D8
:1008200000000000010101010000000000000000C4
:10083000002A2B280000000000000000000000003B
:100840000000000029000000002C1E34202122247A
:10085000342627252E362D3738271E1F2021222308
:100860002425263333362E37381F0405060708099A
:100870000A0B0C0D0E0F1011121314151617181960
:100880001A1B1C1D2F3130232D35040506070809BE
:100890000A0B0C0D0E0F1011121314151617181940
:1008A0001A1B1C1D2F3130354C00010101010101C3
:1008B0000101010202020202020202020303030317
:1008C00003030303040404040404040505050505E7
:1008D00006060606060707070707080808080909A5
:1008E00009090A0A0A0B0B0B0C0C0C0D0D0D0E0E50
:1008F0000E0F0F0F101011111112121313141415E3
:100900001516161717181819191A1A1B1B1C1D1D56
:100910001E1E1F20202122222324242526262728AC
:1009200029292A2B2C2D2D2E2F30313232333435DC
:10093000363738393A3B3C3D3E3F404142434445DF
:10094000464748494A4C4D4E4F50515354555658BE
:10095000595A5B5D5E5F616264656668696B6C6D68
:100960006F7072737577787A7B7D7E8082838587DE
:10097000888A8C8E8F91939596989A9C9EA0A2A31C
:10098000A5A7A9ABADAFB1B3B5B7BABCBEC0C2C421
:10099000C6C9CBCDCFD1D4D6D8DBDDDFE2E4E7E9E1
:1009A000EBEEF0F3F5F8FAFDFF29001E001F002022
:1009B000002100220000002B0014001A000800157E
:1009C00000170000002F6104001600070009000A4C
:1009D00000000034621D001B000600190005000025
:1009E0004500640152E300000000422C008B434CA0
:1009F000002700260025002400230000002A001301
:100A00000012000C0018001C000000280033000F2A
:100A1000000E000D000B0000008972380037003610
:100A2000001000110000464F00520051005000001D
:100A3000002C008A4429001E001F002000210022F3
:100A40000000002B0014001A00070009000A000033
:100A5000002F6104001200080018000C0000003490
:100A6000621D001B0006001900050000450064001F
:100A700052E300000000422C008B434C002700266C
:100A80000025002400230000002A00130015001791
:100A90000016001C000000280033000F000E000D9F
:100AA000000B00000089723800370036001000117A
:100AB0000000464F0052005100500000002C008AF8
:100AC000443A003B003C003D003E003F0000000077
:100AD0000000000000000000000000000000000016
:100AE00000000000000000000000000A5C000000A0
:100AF000000000000000000000135C000000000087
:100B00000001000000000045004400430042004195
:100B100000400000004902F900F500F600F4004929
:100B20000100000000FA00F300F000F100F2000004
:100B300000000000000000000000000000000000B5
:100B40000000000000000000000000000029005923
:100B5000005A005B005C005D0000002B00000052AA
:100B60000000004A004B000000E400500051004F1C
:100B7000004D004E000000E50000000000000046AF
:100B8000004900005CE6000052E3000000000000A5
:100B90000001004C006200610060005F005E000028
:100BA000002A0046004D004B004E004A000000287D
:100BB0000049004F005200510050000000E50000C5
:100BC0000000000000000000000000E400E6000259
:100BD00053000000000000000029001E001F00203C
:100BE000002100220000002B0000002D0200002444
:100BF000022F020000E40033022D00340287021F9E
:100C0000020000E5001E023802200221022202003A
:100C100000E6000052E30000008B002C0000004CB6
:100C2000002700260025002400230000002A002FB2
:100C30000037023602260225020000280034003266
:100C4000003000320230020000E50089002E002E44
:100C50000289022302005CE400E600000000008A32
:100C6000002C000100000000000000000000000057
:100C70000000000000C25CC55CC75CC95CCB5C00C6
:100C80000000000000C65CC85CCA5CCC5C00000AC6
:100C90005C000000000000000000000100135C0088
:100CA000000000000000000000005C0000000000E8
:100CB000000000000000000000C35C0000D05CCF1A
:100CC0005CCE5CCD5C0000C45C0000D45CD35CD224
:100CD0005CD15C000000000000000000000000008B
:100CE0000000000000000000000000000000000004
:100CF00000000000005300540055005600000000A2
:100D00000000005F0060006100570000000000006C
:100D1000005C005D005E005700000000000000590C
:100D2000005A005B005800000000000000620062F2
:100D300000630058000000000000000000000000F8
:100D400000000000000000000000000000000000A3
:100D50000000000000000000000000000000000093
:100D6000000000000000000000000000470100003B
:100D70000000000000000000000000005C00000017
:100D80000043004400450000000000000000004057
:100D9000004100420000000000000000003D003E55
:100DA000003F0000000000000000003A003B003C53
:100DB00000000000000000005200000000000000E1
:100DC0000000000000000000000000000000000023
:100DD0000000000000000000000000000000000013
:100DE0000000000000000000000000000000000003
:100DF00000000000000000010001000000000000F1
:100E00000000000000005C005C02E26003E20002FF
:100E1000E26003E2007F3F1F643214643214783CC6
:100E20001E1E140A0505010902A10185020901A17E
:100E30000005091901290515002501950575018190
:100E400002950175038101050109300931158125DC
:100E50007F95027508810609381581257F950175F2
:100E6000088106050C0A38021581257F9501750851
:100E70008106C0C005010906A101050719E029E79F
:100E800015002501950875018102950175088101FC
:100E90000507190029FF150026FF00950675088132
:100EA000000508190129059505750191029501753F
:100EB000039101C009023B00020100A0C80904001F
:100EC0000001030101000921110100012240000776
:100ED00005810308000A090401000103000000095C
:100EE0002111010001224F000705820320000A1290
:100EF00001100100000008EDFE6030010001020356
:100F0000010403300000001603480065006C00690E
:100F100000780020004200650074006100000014A9
:100F200003590075007300680061006B006F006278
:100F3000006F00000004030904FFAA7F554022232C
:100F4000252628292A2C2D2F3032333536383A3BA6
:100F50003D3E4042434547494A4C4E5051535557F8
:100F6000595A5C5E6062646668696B6D6F71737517
:100F700077797B7D7F81838587898A8C8E90929417
:100F800096989A9C9E9FA1A3A5A7A8AAACAEAFB124
:100F9000B3B4B6B8B9BBBCBEBFC1C2C3C5C6C7C96E
:100FA000CACBCCCDCED0D1D2D2D3D4D5D6D7D7D828
:100FB000D9D9DADADBDBDBDCDCDCDCDCDDDDDDDD7A
:100FC000DCDCDCDCDCDBDBDBDADAD9D9D8D7D7D682
:100FD000D5D4D3D2D2D1D0CECDCCCBCAC9C7C6C539
:100FE000C3C2C1BFBEBCBBB9B8B6B4B3B1AFAEAC7F
:100FF000AAA8A7A5A3A19F9E9C9A98969492908E2A
:101000008C8A89878583817F7D7B79777573716F02
:101010006D6B6968666462605E5C5A5957555351DE
:10102000504E4C4A4947454342403E3D3B3A383694
:10103000353332302F2D2C2A29282625232211241E
:101040001FBECFEFDAE0DEBFCDBF04B603FE27C080
:101050008091F8029091F902A091FA02B091FB02FE
:101060008730904BA740B04BD1F41092F802109209
:10107000F9021092FA021092FB0214BE84B7877F25
:1010800084BF0FB6F894A895809160008861809322
:101090006000109260000FBEE0E0F8E3099522E0E6
:1010A000A8E8B1E001C01D92A83FB207E1F711E046
:1010B000A0E0B1E0E6E5F4E602C005900D92A838A4
:1010C000B107D9F70E941A190C9429320C94000028
:1010D0009091130292FF0DC0282F2871283019F427
:1010E000877F846006C0282F2471243011F48B7F01
:1010F000886093FF0DC0282F2871283119F4877E4E
:10110000846106C0282F2471243111F48B7E8861FC
:101110002091140220FF0DC0382F3871383019F497
:10112000877F816006C0382F3171313011F48E7F96
:10113000886021FF0DC0282F2871283119F4877E7F
:10114000816106C0282F2171213111F48E7E8861C2
:1011500094FD877E0895E9E2F2E0438121E1421B9C
:1011600008F440E021E0628181810C946C28E9E27E
:10117000F2E0438121E1420F08F44FEF21E0628168
:1011800081810C946C28E9E2F2E0628121E1621B2A
:1011900008F460E021E0438181810C946C28E9E24D
:1011A000F2E0628121E1620F08F46FEF21E04381F8
:1011B00081810C946C28E9E2F2E0818121E0438195
:1011C00062818A500C946C28E9E2F2E0818121E08E
:1011D00043816281865F0C946C280F931F93CF9399
:1011E000DF938C010C5A1F4FD801ED91FC911197A0
:1011F00060832D913C9111972F5F3F4F2D933C932E
:10120000281B390B24353105B9F4EC01BC016B5EA8
:101210007F4F4FE350E00E940F2FCE01CF96F80191
:101220009183808345E150E060E270E0DF91CF91EF
:101230001F910F910C94212FDF91CF911F910F914E
:1012400008951F93CF93DF93FC01EA5AFF4F21E0EB
:1012500020836A3099F4EC013297808191818C1B54
:101260009D0B65E170E00E94DB2E182F153158F4BC
:1012700060E2CE010E94ED081F5FF8CFDF91CF91B1
:101280001F910C94ED08DF91CF911F9108950F935A
:101290001F93CF93DF938C01EB01FE0164916623D2
:1012A00029F0C8010E9421092196F7CFDF91CF9143
:1012B0001F910F910895EF92FF920F931F93CF9379
:1012C000DF937C01EB01FB0101900020E9F78F0126
:1012D00001501109C017D10728F46991C7010E9474
:1012E0002109F8CFDF91CF911F910F91FF90EF90DF
:1012F0000895EF92FF920F931F93CF93DF93CDB793
:10130000DEB72A970FB6F894DEBF0FBECDBF8C01B3
:1013100061E277E00E9447098091C9029091CA0278
:10132000A091CB02B091CC0284309105A105B1050A
:1013300029F168F481309105A105B105E1F0C0F013
:101340000297A105B10531F56BE077E01FC0803150
:101350009105A105B105A9F080329105A105B1055E
:1013600099F00897A105B105A9F46EEF76E00EC0DB
:1013700069E177E00BC061E177E008C064E077E005
:1013800005C067EF76E002C061EF76E0C8010E9419
:10139000470928C06AEE76E0C8010E94470980919B
:1013A000CC028F938091CB028F938091CA028F934E
:1013B0008091C9028F9385E391E09F938F931F9251
:1013C0008AE08F93CE0101967C019F938F930E94B8
:1013D000282FB701C8010E945B090FB6F894DEBF41
:1013E0000FBECDBF2A960FB6F894DEBF0FBECDBF9D
:1013F000DF91CF911F910F91FF90EF900895809111
:101400002902282F269530E02115310519F4817025
:10141000826005C02332310524F08170846480939A
:1014200029020895CF92DF92EF92FF926B017C0127
:101430000E94FF09B701A60188E090E0FF90EF90BD
:10144000DF90CF900C948B2E9091290290FF3DC09D
:101450009170811102C0926006C0833210F09464D2
:1014600002C0880F982B90932902662351F0609157
:10147000290270912A0280912B0290912C020E94E5
:10148000120A60912902669570E04BE050E083E01B
:1014900091E00E94F52E892B19F010922F0209C0BD
:1014A00081E080932F020E941F2390932402809357
:1014B000230281E08093260220E040912C0260917B
:1014C0002B0280912A020C946C28089580912902A5
:1014D0008695815009F482E261E00C94240A80919F
:1014E000290286958F5F833208F081E061E00C94D9
:1014F000240AE9E2F2E083E0808311828FEF8283A5
:101500008383148260817181828193810C94120A99
:10151000BF92CF92DF92EF92FF920F931F93CF93E0
:10152000DF93E82EF62EE901E42FF0E0611106C00A
:10153000E755F74F8491B82EE82F71C0262F30E081
:10154000E755F74FE491FE2FCE2ED12C46E0849F35
:10155000C00111240FEF10E0B8010E94C72E4BEA22
:101560004603C001479F900D11248E0D911D8E0DD5
:10157000911D982F990F890FD801A21BB30BAC9D19
:10158000A001AD9D500DBC9D500D1124B52EF89EAF
:10159000D0011124AB2FBB277801EA1AFB0AEC9C7F
:1015A000D001ED9CB00DFC9CB00D11247801E81A1F
:1015B000F108E29EC001E39E900DF29E900D112471
:1015C000892F9927081B190B0C9D90010D9D300D3B
:1015D0001C9D300D1124832F6230710591F048F469
:1015E00061157105E1F061307105B9F48E2FEB2FB3
:1015F00016C06430710569F040F06630710579F00D
:101600000CC08E2FE52FB32E0AC0E52FBF2E8B2FD7
:1016100006C0852FBE2EE32F02C0852FBB2EE98387
:101620008883BA82DF91CF911F910F91FF90EF9045
:10163000DF90CF90BF900895CF93DF9326E4829FF1
:10164000C0011124FC0137E0739FE00DF11D11244E
:10165000E60FF11DEE0FFF1FE755F64FC591D49130
:10166000CE01C238D10569F1B0F4C133D10509F416
:1016700075C048F4C932D10509F469C0CA32D10530
:1016800009F473C079C0C533D10509F459C0C93311
:10169000D105B9F071C0C33ED10571F138F4C03E37
:1016A000D105B1F0C23ED10511F166C0C63ED105EB
:1016B000B9F1C73ED105C9F1C43ED10509F05CC0FE
:1016C00024C02091130220FD1AC221FD18C21CC2A1
:1016D0002091130220FD0DC22091140220FF14C29C
:1016E0008091130284FDB7C183EE90E00DC220917A
:1016F000130222FF09C2F4CF8091130282FDFCC1C4
:101700008091140280FDFBC1EBCF2091140221FFD8
:10171000FBC18091130284FD9EC187EE90E0F4C16D
:101720002091130223FFF0C1F4CF8091130283FDB7
:10173000E9C18091140281FFECCF84EE90E0E4C116
:101740002091130225FFE0C189E290E0DDC12091E4
:10175000130225FFD9C185E390E0D6C12091130281
:1017600026FFD2C18AE290E0CFC12091130226FF6A
:10177000CBC181E390E0C8C1C11540E5D40708F0B2
:1017800049C0C11520E4D20708F030C1C83ED105D8
:1017900020F5C03ED10508F0B7C1C83AD10570F4B4
:1017A000C53AD10508F0ADC0C130D10509F4ACC1CE
:1017B00008F451C1249708F44EC1A6C1CF3BD1050E
:1017C00008F4AAC0C03CD10508F445C1CE01880F79
:1017D000991FFC01E75DF84FFEC0C11530E2D30749
:1017E00060F4C11541E0D40708F08EC1C03FD105B7
:1017F00008F431C1CE01906587C1C11580E3D807D7
:1018000008F0ECC0CE019F70FC01EE0FFF1FE75502
:10181000F74FE1C0C11525E5D20708F045C0C11555
:1018200034E5D30708F0FAC0C11542E5D40718F52E
:10183000C11581E5D80708F0DDC0CE0174E09695AA
:1018400087957A95E1F7282F23703C2F337081E03C
:1018500090E002C0880F991F3A95E2F79C68922B9E
:10186000EC2FEF70E695E69520E2E29FF00111245F
:101870008E2B9F2B49C1AE01437055272C2F2695E7
:101880002695C115D34508F0BAC081E090E002C0AA
:10189000880F991F4A95E2F740E2249F9001112496
:1018A000822B932B9C6830C1C11549E5D40798F46D
:1018B000C11588E5D80708F0B6C0C11526E5D207DE
:1018C00008F0C9C08C2F0E9468088F7190E0982F93
:1018D0008827906219C1C1153AE5D30708F4A8C05A
:1018E000CE0190568115904208F0B5C08D2F8F71B2
:1018F0000E946808FE01FF27F0628F719F01382B5C
:10190000A8C0C53AD10509F4A9C0C63AD10509F065
:10191000A8C082E890E4F8C0C83AD10509F4A4C090
:10192000C93AD10509F4A3C0CA3AD10509F4A2C045
:10193000CB3AD10509F4A1C0CC3AD10509F4A0C035
:10194000CB3BD10509F49FC0CC3BD10509F49EC027
:10195000CD3AD10509F49DC0C03BD10509F49CC026
:10196000CE3AD10509F49BC0CF3AD10509F49AC00B
:10197000C13BD10509F499C0C23BD10509F498C017
:10198000C33BD10509F497C0C43BD10509F496C007
:10199000C53BD10509F495C0C63BD10509F494C0F7
:1019A000C73BD10509F493C0C83BD10509F492C0E7
:1019B000C93BD10509F491C0CD3BD10509F490C0D4
:1019C000CE3BD10509F48FC0CA3BD10509F48EC0C6
:1019D00080E094E499C08591949196C0CE019927B6
:1019E000D3FF02C0986C90C0906C8EC0CE019F70E7
:1019F000906A8AC09C2F8827816F906A85C081E099
:101A000090E002C0880F991F4A95E2F740E2249FB8
:101A100090011124822B932B9A6876C09C2F8827E3
:101A2000846F906A71C09C2F8827806F906A6CC009
:101A30008C2F8F700E946808FE0194E0F695E79560
:101A40009A95E1F7EF70F0E0FE2FEE27F0699F0125
:101A5000282BC90159C080E090E056C081E890E48D
:101A600053C083E890E450C082EE94E44DC089EE08
:101A700094E44AC08AEE94E447C085EB94E444C001
:101A800086EB94E441C083EB94E43EC084EB94E4A1
:101A90003BC087EB94E438C08CEC94E435C08DEC0B
:101AA00094E432C083E895E42FC08AE895E42CC022
:101AB00082E995E429C084E995E426C081E296E4B0
:101AC00023C083E296E420C084E296E41DC085E250
:101AD00096E41AC086E296E417C087E296E414C042
:101AE0008FE694E411C080E794E40EC08AE296E4A5
:101AF0000BC089E390E008C082EE90E005C080EE64
:101B000090E002C086EE90E0DF91CF910895FF92C1
:101B10000F931F93CF93DF938C01F801249122231D
:101B200009F441C0C8010196213041F48C01FC0147
:101B3000C4918C2F0E94BF2B8C2F30C0223031F4E7
:101B40008C01FC0184910E94BF2B2AC0233021F418
:101B50008C01FC01849122C030E0F901E75DF74F70
:101B6000F490F901E755F84FD491F901E75DF84F8A
:101B7000C491DD2319F081EE0E94BF2BCC2319F014
:101B800086EE0E94BF2B8F2D0E948D2CCC2319F046
:101B900086EE0E94802BDD2319F081EE0E94802BBF
:101BA0000F5F1F4FBACFDF91CF911F910F91FF9021
:101BB0000895CF93DF93EC01682F83E090E00E94BB
:101BC000792EBE0180E090E0DF91CF910C94382512
:101BD00080919F01811112C08091D8008061809313
:101BE000D8008AE18A95F1F700C08091D90080FD84
:101BF00002C082E001C081E080939F0181E090916A
:101C00009F01913009F080E00895CF93DF93A4E520
:101C1000B1E049E551E061E070E08D91E82FE29597
:101C2000EF70F0E021A18F70EB0102C0CC0FDD1F3F
:101C30008A95E2F7CE019C2F9095922391A392A1D1
:101C4000892B82A34A175B0741F7DF91CF91089553
:101C50009F92AF92BF92CF92DF92EF92FF920F933B
:101C60001F93CF93DF9380912701811103C0C5E0BB
:101C7000D0E002C0C0E0D0E0AE01475F5D4F7A0126
:101C800084E5C82E81E0D82E8A01AA24A394B12C21
:101C900025E0922EF9E5CF16F1E0DF0609F44AC0FF
:101CA000F60181916F01E82FE295EF70F0E021A13C
:101CB0008F70A50102C0440F551F8A95E2F7CA0133
:101CC000922F982B91A392A18095892382A350EA09
:101CD0005A95F1F7EEE5F1E020E040E050E0319177
:101CE000A32FA295AF70B0E090968C9190E03F70DA
:101CF00002C0959587953A95E2F780FD07C0C5012A
:101D0000042E01C0880F0A94EAF702C080E090E038
:101D1000282B4F5F5F4F4730510509F7F80180814D
:101D2000821719F02083909200010E94050E0F5F28
:101D30001F4FB0CF809100018823B1F08150809374
:101D40000001811103C0C75EDD4F07C08FE99FE02E
:101D50000197F1F700C0000007C0F70191917F01E2
:101D600099938F5F8530C9F781E0DF91CF911F9103
:101D70000F91FF90EF90DF90CF90BF90AF909F902A
:101D800008951F920F920FB60F9211248F939F9375
:101D9000EF93FF938091B900887F803869F038F421
:101DA0008823C9F18036C9F51092990136C0883A66
:101DB00009F1883BF9F031C080919901811111C07E
:101DC0008091BB008093980180919801803120F030
:101DD0001092980180E001C081E091E09093990118
:101DE0001DC0E0919801F0E08091BB00E857FE4FE4
:101DF000808308C0E0919801F0E0E857FE4F8081B1
:101E00008093BB008091980190E001968F70992794
:101E10008093980102C01092BC0081E09091BC00B8
:101E20008295880F880F807C9568892B8093BC00F1
:101E3000FF91EF919F918F910F900FBE0F901F9088
:101E4000189584E98093BC0083E390E02091BC0066
:101E500024FD02C00197D1F7089583E390E020911B
:101E6000BC0027FD02C00197D1F708958093BB0005
:101E700084E88093BC000E942D0F9091B900987F58
:101E800081E0983209F480E00895CF93C82F0E9432
:101E9000981C81110AC080E00E94360F811105C094
:101EA0008C2F0E94360FC1E08111C0E00E94210FEB
:101EB0008C2FCF910895BF92CF92DF92EF92FF9235
:101EC0000F931F93CF93DF930E941F2390939B0147
:101ED00080939A018FEA0E94450F63E082E20E949C
:101EE000BD1C8823D1F16DE781E20E94BD1C8823CF
:101EF000A1F10E94981C811130C080E40E94360F2D
:101F000081112BC081EBE82E81E0F82E94E0B92EF0
:101F1000C0E0D0E0F701EC0FFD1FC08086E0C89E56
:101F20006001112400E010E0F601E00FF11FE05D18
:101F3000FE4F84910E94360F0F5F1F4F0630110530
:101F400099F72196C531D10529F7BA9485E1E80EB4
:101F5000F11CB110DDCF10920702DF91CF911F91DC
:101F60000F91FF90EF90DF90CF90BF900C94210FD6
:101F7000EF92FF920F931F93CF93DF93CDB7DEB70E
:101F8000C557D1090FB6F894DEBF0FBECDBF44E5EB
:101F900050E060E270E08E010F5F1F4FC8010E94A9
:101FA000212F67961FAF0EAF679781E068968FAFBE
:101FB000689780910802882309F48BC080911302EE
:101FC00082FD0DC06EE976E0C8010E9447096CE908
:101FD00076E0C8010E94470961EA76E00CC064EA35
:101FE00076E0C8010E9447096AE976E0C8010E94CC
:101FF000470967EA76E0C8010E94470968E976E088
:10200000C8010E944709C8010E94790966E976E083
:10201000C8010E9447090E94372680FD03C066E878
:1020200076E002C06EE876E0C8010E9447090E948F
:10203000372681FD03C06CE776E002C061E876E0F8
:10204000C8010E9447090E94372682FD03C060E74D
:1020500076E002C065E776E0C8010E9447096AE7BA
:1020600076E0C8010E9447092091290220FF58C04C
:1020700080912C0231E1632F0E94AD2E1F928F932D
:1020800080912B020E94AD2E1F928F9380912A0285
:102090006AE00E94AD2E1F928F9326951F922F9378
:1020A00089E391E09F938F931F928EE18F937E013E
:1020B00028E5E20EF11CFF92EF920E94282FB70153
:1020C000C8010E945B090FB6F894DEBF0FBECDBFFA
:1020D00027C06AEA76E0C8010E9447098091290278
:1020E00080FF1BC086951F928F938DE491E09F9394
:1020F0008F931F928EE18F937E0198E5E90EF11C7C
:10210000FF92EF920E94282FB701C8010E945B093D
:102110000FB6F894DEBF0FBECDBFC8010E9479098B
:1021200044E550E0B80181EB91E00E94022F892B39
:1021300059F084E5F801A1EBB1E001900D928A9588
:10214000E1F781E08093070280910702811104C0CA
:1021500080910E01882321F00E945B0F10920E01E6
:1021600080919A0190919B010E94F52281369A4EAE
:1021700018F08EEA0E94450FCB58DF4F0FB6F89447
:10218000DEBF0FBECDBFDF91CF911F910F91FF90AA
:10219000EF900895EF92FF920F931F93CF93DF93E9
:1021A00080910802882309F472C00E94280E809151
:1021B0002701811103C0C5E0D0E002C0C0E0D0E03B
:1021C000C75EDD4F45E050E0BE018AEA91E00E9423
:1021D000022F7C0185E0FE01AAEAB1E001900D9298
:1021E0008A95E1F780912701811103C0C0E0D0E01A
:1021F00002C0C5E0D0E090910201809101019817E2
:1022000061F082E090E00E94E22D8C01892B39F48C
:10221000809101018093020102C000E010E0EF28EC
:1022200049F480919C0190919D01892B19F480E0E3
:1022300090E002C081E090E00E94E22D892B49F4F9
:102240008091AF018093010110929D0110929C0139
:1022500006C081E090E090939D0180939C01011560
:10226000110531F00230110509F04FC028984DC01A
:10227000289ADE01A75EBD4F85E0E4EAF1E0019017
:102280000D928A95E1F75D9A10929E0134C00E94EA
:10229000280E80912701811103C0E5E0F0E002C023
:1022A000E0E0F0E0E75EFD4F80E020E030E0D901C3
:1022B000AC55BE4F4C919191491381E09C932F5F97
:1022C0003F4F2530310599F79091AF01890F8093E9
:1022D000AF0180912701811103C0A0E0B0E002C0EE
:1022E000A5E0B0E0A75EBD4F85E0EAEAF1E001902D
:1022F0000D928A95E1F70E94B80F81E0DF91CF91AE
:102300001F910F91FF90EF9008955D9880919E012D
:102310008F5F80939E01863070F380912701811139
:1023200003C0E0E0F0E002C0E5E0F0E0E75EFD4F72
:1023300080E090E01192019685309105D9F7DBCFCE
:10234000CF93C62F0E94450F882321F08C2FCF9169
:102350000C94450F80E0CF9108958F929F92AF9299
:10236000BF92CF92DF92EF92FF920F931F93CF9382
:10237000DF9300D000D01F92CDB7DEB7FC01008103
:10238000D18083819481892B39F01FEFD11206C04F
:1023900091E00F3F19F403C091E001C090E090FD7F
:1023A0002AC67F0185E0DE01119601900D928A9583
:1023B000E1F7F701228189819A81222349F00E9465
:1023C0002B24182F682F89819A810E94A42403C08E
:1023D0000E947824182F26E4129FF001112437E080
:1023E000D39EE00DF11D1124E00FF11DEE0FFF1F34
:1023F000E755F64F0591149181E080930E01F801A5
:10240000E850FD45EA30F10508F069C0EA5AFF4F8F
:102410000C94EF2EF7018281882309F4E9C181E051
:1024200090E027C0F7018281882309F4E1C182E0AE
:1024300090E01FC0F7018281882309F4D9C184E0AC
:1024400090E017C0F7018281882309F4D1C188E0A8
:1024500090E00FC0F7018281882309F4C9C180E1AF
:1024600090E007C0F7018281882309F4C1C180E2AE
:1024700090E00E94D90DBCC1F7018281882349F008
:102480008091130282FD02C081E90EC08FE09EE0C0
:1024900010C081E912C0F7018281882369F0809120
:1024A000130282FD04C080E90E94BF2BA1C189E014
:1024B0009EE00E94870D9CC180E90E94802B98C1FC
:1024C000F7018281882359F00E94790A80912902BC
:1024D00081608093290261E086950E94240A81E050
:1024E000882309F488C5033FFCE51F07A9F180F4A0
:1024F000083D3CE51307C9F0093D8CE51807C1F11B
:10250000073D9CE51907B9F526E241EE61EE10C0E2
:10251000053FECE51E0741F118F1063F2CE51207D7
:1025200051F527E245EE66EE03C027E245EE65EE83
:10253000C7010F900F900F900F900F90DF91CF91E8
:102540001F910F91FF90EF90DF90CF90BF90AF90D1
:102550009F908F900C94432626E241EE60EEE8CFE8
:1025600027E245EE64EEE4CF26E241EE62EEE0CFF4
:1025700028E241E0DCCFF7018281882309F43AC1E7
:102580001092A0010230FCE51F0708F41AC40631BE
:102590002CE5120730F0C8018A5F9C45099708F0C6
:1025A00010C40E948423909314028093130200317C
:1025B0003CE5130709F4C3C008F041C008309CE5AE
:1025C000190709F49AC0F0F40430FCE51F0709F478
:1025D00087C068F402303CE5130709F477C0033084
:1025E0001C4509F0E5C080911302826076C0063078
:1025F0009CE5190709F46EC008F07BC080911302B6
:1026000088606BC00C30FCE51F0709F485C068F4D6
:102610000A303CE5130709F474C008F079C00E9441
:10262000602B80911302806858C00E309CE519071A
:1026300009F476C008F07FC0809113028BC00B3F75
:10264000FCE51F0709F44FC018F503313CE51307FB
:1026500009F47DC078F401319CE5190709F473C0D1
:1026600002311C4509F0A4C00E94602B8091130226
:102670008F7733C00531FCE51F0709F472C008F4F9
:1026800086C00A3F1C4509F093C0809114023EC0E9
:102690000F3F8CE5180709F45FC058F40D3FECE5D7
:1026A0001E0709F444C008F43FC080911402826000
:1026B0002DC001302DE5120709F475C008F45DC086
:1026C00002301D4509F074C060E06EC080911302B5
:1026D000816003C08091130280618093130268C0FF
:1026E0008091130211C080911402826080931402C1
:1026F0005FC0809113028062F0CF809113028064EA
:10270000ECCF8091130288608460E7CF8160EECFC8
:10271000809113028E7FE1CF809113028D7FDDCFF8
:1027200080911302877FD9CF8091140218C08091C5
:1027300014028D7FDBCF809113028F7ECECF8091EC
:1027400013028F7DCACF809113028F7BC6CF8091F9
:102750001302877F8B7FC1CF809114028D7F8E7F84
:10276000C5CF8091130282FB222720F991E09227A6
:1027700090FB82F990FB83F9B0CF80911402982FDF
:10278000909591708E7F892B90FB81F9AFCF0E943D
:10279000602B8091130287FB222720F991E092277A
:1027A00090FB87F99ACF61E08EE090E00E94792E4D
:1027B000609113021091140284E090E00E94792E3F
:1027C000612F81E290E00E94792E0F900F900F9080
:1027D0000F900F90DF91CF911F910F91FF90EF908D
:1027E000DF90CF90BF90AF909F908F900C94602B14
:1027F00080E076CE06311C4531F58091A101882319
:1028000011F085E301C089E2ECE5F2E022E632E076
:102810009281891301C0128231962E173F07C1F7AA
:102820000F900F900F900F900F90DF91CF911F910D
:102830000F91FF90EF90DF90CF90BF90AF909F905F
:102840008F900C94FE23F70100811181C8010E9432
:102850007824D82EB8018D2D0E941C0B8C01982E47
:10286000F701A580A2949FE0A922B280B110109236
:10287000CF028091CD02877079F0BB2069F080E2B1
:10288000800F883048F082E00E94FE248091CD02C3
:102890008770DD24D3948111D12CC12EC2948FE096
:1028A000C8228C2D90E08C30910508F05BC2FC01B1
:1028B000E05AFF4F0C94EF2E812F807F1F708823EA
:1028C00011F01295107FBB20B9F0112309F435C225
:1028D00080E2800F883010F0911006C08091D00205
:1028E000182B1093D00205C08091CF02182B1093A3
:1028F000CF020E94FE2321C2802F0E94802B112331
:1029000009F430C2005E1095083010F0911006C036
:102910008091D00218231093D00205C08091CF027D
:1029200018231093CF020E94FE231CC2812F807FA8
:102930001F70803211F01295107F992021F0F1E084
:102940009F16E1F02AC0BB2081F08091D102AA201D
:1029500051F001E0A01207C0182B181709F402C2A9
:102960001093D102FFC1812B10C0AA2021F021E0D9
:10297000A21609F4F7C10E94F82327C0BB2041F03A
:1029800035E03A1508F4EEC1812F0E94762BEAC19A
:1029900084E08A1508F4E6C118C0BB2049F0AA20DB
:1029A00099F3F701858180FFC8C18F708583ECCFD3
:1029B000AA2059F0093309F0D2C1FFEF17EE23E046
:1029C000F15010402040E1F7C8C1812F0E946B2BCD
:1029D000C9C1BB20F9F0053F51F0063F71F0043F3B
:1029E000A9F48091A2019091A30181600BC0809114
:1029F000A2019091A301826005C08091A2019091F3
:102A0000A30184609093A3018093A201802F0E9470
:102A100067221EC0053F51F0063F71F0043FA9F444
:102A20008091A2019091A3018E7F0BC08091A201A1
:102A30009091A3018D7F05C08091A2019091A30187
:102A40008B7F9093A3018093A201802F0E94A021ED
:102A50000E942B238DC1812F837009F069C0B110B2
:102A600085C1902F929596959770990F990F802F09
:102A70008F70882E912CA12CB12C092E04C0880CAB
:102A8000991CAA1CBB1C0A94D2F704FF12C04FE089
:102A900050E060E070E004C0440F551F661F771FD0
:102AA0009A95D2F7DB01CA0180959095A095B095D3
:102AB00003C080E090E0DC0116951695412F43702D
:102AC000423019F1C8F40091D2021091D302209142
:102AD000D4023091D502413059F088299929AA2988
:102AE000BB29BC01CD0160237123822393230AC03B
:102AF000802A912AA22AB32ABC01CD01682979290A
:102B00008A299B290E94382531C188299929AA2917
:102B1000BB290091D2021091D3022091D4023091AE
:102B2000D502BC01CD016027712782279327EACF08
:102B3000BB2019F0812F817001C08695882309F48C
:102B400015C1902F929596959770990F990F802F98
:102B50008F70882E912CA12CB12C092E04C0880CCA
:102B6000991CAA1CBB1C0A94D2F704FF12C04FE0A8
:102B700050E060E070E004C0440F551F661F771FEF
:102B80009A95D2F7DB01CA0180959095A095B095F2
:102B900003C080E090E0DC0116951695412F43704C
:102BA0004230D9F068F50091C9021091CA02209113
:102BB000CB023091CC02413059F088299929AA29B9
:102BC000BB29BC01CD0160237123822393231EC046
:102BD000802A912AA22AB32A13C088299929AA29CE
:102BE000BB290091C9021091CA022091CB023091F9
:102BF000CC02BC01CD01602771278227932706C034
:102C0000BC01CD01682979298A299B290E94CF24FA
:102C1000ADC01F70BB2039F0812F0E941725802F77
:102C20000E94762BA3C0802F0E946B2B812F0E94C5
:102C3000D9249CC0802F32EF931609F440C0391577
:102C400038F090EF991661F0E1EF9E1699F170C09F
:102C5000F3EF9F16D9F124EF921609F44EC068C025
:102C6000BB2019F134E03A1508F47CC01F7181E0F3
:102C700090E0A0E0B0E0AC01BD0104C0440F551FDE
:102C8000661F771F1A95D2F78091C9029091CA02E8
:102C9000A091CB02B091CC028A019B010827192791
:102CA0002A273B27C901B80125C025E02A1508F4C9
:102CB00059C0DCCFBB2029F0812F8F712CC0BB20E5
:102CC000D9F3812F8F710E94D9244CC0BB2079F099
:102CD0001F7181E090E0A0E0B0E0BC01CD0104C034
:102CE000660F771F881F991F1A95D2F703C060E0FF
:102CF00070E0CB010E94CF2435C0BB2079F01F715A
:102D0000812F0E94172538E0139FC0011124836092
:102D10008093CD02812F0E94172524C081E00E945C
:102D2000FE2481E08A15F0F482E00E94FE241AC09D
:102D3000BB2039F0AA2009F4BFCF802F0E94BF2BFF
:102D400011C0AA2009F4BDCF893349F49FEFE7EE03
:102D5000F3E09150E040F040E1F700C00000802F28
:102D60000E94802B88EF8C0D843010F40E9437264F
:102D7000DD2009F440C18091CD0280FD3CC1F70106
:102D800012828595859585950E941725C7010E9419
:102D9000AD118091CD028595859585950F900F9009
:102DA0000F900F900F90DF91CF911F910F91FF9097
:102DB000EF90DF90CF90BF90AF909F908F900C944A
:102DC000D9249091D002892F8272F801E25CFC45EF
:102DD000E431F10508F456C001152CE51207B9F0ED
:102DE0000E3D3CE5130779F50F900F900F900F9073
:102DF0000F90DF91CF911F910F91FF90EF90DF9097
:102E0000CF90BF90AF909F908F900C9495230E948D
:102E1000602B8FEF94E3ECE081509040E040E1F7CD
:102E200000C0000087E797E79093010880930008AF
:102E30009AE088E10FB6F894A895809360000FBEE1
:102E400090936000FFCF06311C4581F49A7A81E0AF
:102E500009F480E08093A101992311F065E301C09A
:102E600069E28CE592E00E946A23DACCF7010081E6
:102E70001181C8010E942B24D82E682FC8010E94FE
:102E8000A424E8CCE459FF4F0C94EF2E8091290242
:102E900080FF2BC08E7F8093290260912902709160
:102EA0002A0280912B0290912C020E94120A109209
:102EB0002F029FEFE0E7F2E09150E040F040E1F7B1
:102EC00000C000000F900F900F900F900F90DF91B7
:102ED000CF911F910F91FF90EF90DF90CF90BF9017
:102EE000AF909F908F900C94CF26816080932902A1
:102EF00061E0869558C046E65AE06FE67AE02CC05D
:102F00004FE65AE066E67AE027C04BED58E064EE03
:102F100078E022C044EE58E06BED78E01DC043EC51
:102F200058E06FEC78E018C04FEC58E063EC78E0C4
:102F300013C04BEA58E067EB78E00EC047EB58E06F
:102F40006BEA78E009C04DE455E26EE575E204C035
:102F50004EE555E26DE475E20F900F900F900F90E3
:102F60000F90DF91CF911F910F91FF90EF90DF9025
:102F7000CF90BF90AF909F908F900C94C92661E046
:102F800081E011C065E082E023C068E086E020C0F7
:102F90006EE089E01DC064E18FE01AC067E185E161
:102FA00017C061E088E10F900F900F900F900F9085
:102FB000DF91CF911F910F91FF90EF90DF90CF9015
:102FC000BF90AF909F908F900C94240A62E289E1A9
:102FD0000F900F900F900F900F90DF91CF911F9156
:102FE0000F91FF90EF90DF90CF90BF90AF909F90A8
:102FF0008F900C94B7260F900F900F900F900F901A
:10300000DF91CF911F910F91FF90EF90DF90CF90C4
:10301000BF90AF909F908F900895089508959C0160
:1030200080915202843001F582E08093E9009FEFA5
:103030008091E800915085FD06C085ED8A95F1F7F5
:1030400000009111F5CF8091E80085FF0DC0C90106
:1030500040E050E066E070E00E94CF1C8091E80004
:103060008E778093E800089508952091E4003091D0
:10307000E50095E64091EC00842F817040FF23C06D
:103080008091E80080FD1DC080915202882399F054
:10309000853099F08091EB0085FD11C04091E400EE
:1030A0005091E5002417350729F3915011F09A014A
:1030B000E1CF84E0089582E0089583E0089581E0FF
:1030C000089580E008954091E80042FFDDCF089523
:1030D0008091540287FF11C08091E80082FD05C0F5
:1030E000809152028111F8CF11C08091E8008B7756
:1030F0000BC080915202882349F08091E80080FF44
:10310000F8CF8091E8008E778093E8000895982F9B
:10311000973068F59093E900981739F07091EC00BA
:103120002091ED005091F00003C0242F762F50E045
:1031300021FD02C09F5FECCF3091EB003E7F3093CA
:10314000EB003091ED003D7F3093ED003091EB00CE
:1031500031603093EB007093EC002093ED005093BE
:10316000F0002091EE0027FDE5CF80E008958F70FC
:103170008093E90081E0089520915A0230915B022A
:103180002617370748F06115710539F42091E800DA
:103190002E772093E80001C0B901FC0120E0611501
:1031A000710579F1809152028823F1F18530F1F1B6
:1031B0008091E80083FD3CC08091E80082FD2EC034
:1031C0008091E80080FFEBCF2091F3008091F20026
:1031D00090E0922B6115710551F08830910538F41B
:1031E00021912093F100615071090196F3CF21E004
:1031F000089709F020E08091E8008E778093E8003E
:10320000CECF2111CFCF0AC080915202882361F026
:10321000853061F08091E80083FD0AC08091E8006C
:1032200082FFF2CF80E0089582E0089583E0089560
:1032300081E00895CF93DF93CDB7DEB72A970FB61D
:10324000F894DEBF0FBECDBF84B7877F84BF0FB6B3
:10325000F894A89580916000886180936000109236
:1032600060000FBE90E080E80FB6F8948093610094
:10327000909361000FBE85B7806885BF85B7806871
:1032800085BF0E9414200E9433208091E200846058
:103290008093E2007894809152028823A1F01091EB
:1032A000E9001F709091EC00892F817090FD80E8FB
:1032B000182B1092E9008091E80083FD0E94FB1C0E
:1032C0001F701093E90082E084BD93E095BD9AEFF2
:1032D00097BD80936E000E94E80D809327010E94A5
:1032E000E80D63E070E0882329F08FE091E00E9410
:1032F000002D04C08FE091E00E94092D78940E9477
:10330000050EAEE5B1E045E651E061E070E08D917B
:10331000E82FE295EF70F0E021A18F708B0102C0E1
:10332000000F111F8A95E2F7C801902F9095922304
:1033300091A392A1892B82A34A175B0741F7559A63
:10334000209A5D9A289AA9E0B2E0E9E1F2E01192B0
:103350001D9212E0E332F107D1F70E94E80D80934D
:10336000080280E090E00E94732E8C3E9E4F11F088
:103370000E9495230E94E80D182F1092B9008CE04E
:103380008093B8008EEA0E94450F882309F4AFC0ED
:1033900060E885ED0E94A011882309F4A8C06FE1C0
:1033A00088EA0E94A011882309F4A1C060E083ED9F
:1033B0000E94A011882309F49AC080E40E94450F5E
:1033C000882309F494C064E18DE80E94A011882349
:1033D00009F48DC060E080E20E94A011882309F406
:1033E00086C0111114C080EA0E94450F882309F499
:1033F0007EC080EC0E94450F882309F478C062E00B
:103400008AED0E94A011882309F471C008C081EAE6
:103410000E94450F882309F46AC088ECEBCF6FE85F
:1034200081E80E94A011882309F461C061EF89ED51
:103430000E94A011882309F45AC060E48BED0E9419
:10344000A011882309F453C084EA0E94450F882301
:1034500009F44DC086EA0E94450F882309F447C04D
:103460008EE20E94450F882309F441C08FEA0E9432
:10347000450F8823E1F160E081E80E94A0118823D4
:10348000B1F144E550E060E270E081EB91E00E9430
:10349000212F81EB91E0909306028093050281E059
:1034A0008093070263E082E20E94BD1C8823D9F06A
:1034B0006FE781E20E94BD1C8823A9F00E94981C3E
:1034C000811111C080E40E94360F81110CC004E00C
:1034D00010E080E00E94360F1F5F1038D1F70150D6
:1034E000B9F7109207020E94210F0E945B0F80E043
:1034F00090E00E94732E8C3E9E4F11F00E94952307
:1035000082E090E00E94652E80933A020E9484231C
:10351000909314028093130283E090E00E94652E42
:10352000682F70E080E090E00E94382580911502BD
:10353000811136C080E090E00E94732E8C3E9E4F39
:1035400021F00E9495230E94790A88E090E00E9471
:103550006D2E6093290270932A0280932B02909320
:103560002C026E7F71F40E94790A88E090E00E943C
:103570006D2E6093290270932A0280932B02909300
:103580002C020E94FF0910922F028091290280FFD5
:1035900004C060E086950E94240A81E080931502B1
:1035A00088E291E09093170280931602DD24D39471
:1035B00078E1E72EF12C80915202853009F037C076
:1035C00080915202843011F11092180280E40FB6FB
:1035D000F894A895E09260000FBE8093600083B7D6
:1035E000817F846083BF83B7816083BF789488952F
:1035F00083B78E7F83BF0FB6F894A8958091600043
:10360000886180936000109260000FBE809151022B
:10361000882309F4D0CF0E94CA10E9E1F2E0819139
:1036200081116CC182E0E332F807C9F7C4CF0E9470
:10363000CA10EBE3F2E0A9E1B2E000E010E0302FC5
:103640002D919191922721F180E0BB24B3944B2DD1
:103650004923D1F089833A832B2181E009F480E06A
:103660008B830E941F238160782F9D838C834981E7
:103670005A816B818D810E946F25F801E55CFD4FB9
:103680008081B826B08219C08F5FBB0C8730F9F6F5
:103690000F5F1F4F0A30110591F68FEF8E838F83D6
:1036A00018860E941F238160782F9A8789874E8110
:1036B0005F8168858A850E946F2580912F0288230B
:1036C00009F486C080912E02E0912902E695E81B5C
:1036D000E0932502823059F4F0E0EF5DF14FE49180
:1036E0000E2F10E068E5A62E68E2B62E45C08630A3
:1036F00059F4F0E0E25EF14FE4910E2F10E058E44F
:10370000A52E58E2B52E38C0893061F4E695F0E078
:10371000E55EF14FE4910E2F10E043EFA42E47E257
:10372000B42E2AC08F3061F4E695F0E0E85EF14FE8
:10373000E4910E2F10E036E8A32E37E2B32E1CC022
:10374000853159F4F0E0EB5EF14FE4910E2F10E07B
:1037500028E3A22E27E2B22E0FC0883139F408EEFA
:1037600013E095E0A92E97E2B92E06C000ED17E010
:103770008CE4A82E85E2B82E80912602882389F059
:10378000109226020E941F23980120953095820FE7
:10379000931F909324028093230210922802109288
:1037A000270280912302909124020E94F522801723
:1037B000910770F0E0912302F09124020E0F1F1F79
:1037C000109324020093230283E292E0F50109950D
:1037D00080913702909138020E94F522AC019091BD
:1037E0003602911103C02CE231E002C022E330E046
:1037F0004217530708F476C08091320210913302C9
:1038000081110BC0111190C02091340221118CC084
:1038100020913502211188C065C09F3F19F09F5F3C
:1038200090933602181624F40E94472280933202A5
:103830008091320287FF05C00E94472281958093C4
:103840003202111624F40E944722809333028091A1
:10385000330287FF05C00E9447228195809333027F
:10386000309132023323D1F0209133022223B1F080
:1038700005EB3003C0011124992319F09093320213
:1038800002C0D092320215EB2103C001112499230A
:1038900019F09093330202C0D09233028091340227
:1038A000181624F40E942522809334028091340259
:1038B00087FF05C00E942522819580933402809164
:1038C0003502181624F40E94252280933502809137
:1038D000350287FF05C00E9425228195809335021D
:1038E0000E942B230E94372690913902891709F4F0
:1038F00062CE0E943726809339025DCE80E189BD79
:1039000082E189BD09B400FEFDCF8091D8008F7D92
:103910008093D8008091E00082608093E0008091E5
:10392000E00081FDFCCF47CE9F3F09F078CF89CFE3
:1039300084EA8093BC000E942D0F8091B900887F9B
:10394000883039F08091B900887F803111F081E0B2
:10395000089588E78093BB0084E88093BC000E94B0
:103960002D0F8091B900887F883129F08091B900AE
:10397000887F803461F780E00895CF93C62F0E943E
:10398000450F882349F080E00E94450F882321F0ED
:103990008C2FCF910C94450F80E0CF910895EF923A
:1039A000FF920F931F93CF93DF937C018B010E94B3
:1039B0003518811119C0E70101151105A1F0809199
:1039C000E80085FD0AC08091E8008E778093E800CA
:1039D0000E943518882381F307C089918093F100F4
:1039E00001501109E9CF80E0DF91CF911F910F9134
:1039F000FF90EF9008951F93CF93DF93CDB7DEB77D
:103A0000AA970FB6F894DEBF0FBECDBFE4E5F2E093
:103A10008091F100819322E0EC35F207C9F78091A3
:103A20005502833009F460C030F4813071F0823087
:103A300009F49AC0B1C08A3009F486C08B3009F409
:103A40006BC0893009F0A8C020C080915402813A2F
:103A500009F0A2C08091E800877F8093E800809100
:103A6000580290915902892B21F468E088E492E091
:103A700003C060E080E090E070E00E94BC1880919C
:103A8000E8008B778093E80087C0809154028132F0
:103A900009F082C08091580290915902029708F073
:103AA0007BC08091E800877F8093E8008091E800E8
:103AB00082FD05C0809152028111F8CF6DC0209126
:103AC000F3008091F20090E0922B029729F480910C
:103AD000F1008B7F813021F48091F10080934702C7
:103AE0008091E8008B7754C080915402813A09F0AC
:103AF00053C08091580290915902892B09F04CC013
:103B00008091E800877F8093E8008091E80080FF43
:103B1000FCCF8091320137C0809154028132E1F5AF
:103B20008091580290915902892BB1F58091E8005B
:103B3000877F8093E8000E946818809156028093E6
:103B400032010E94602B28C080915402813221F5FD
:103B50008091E800877F8093E8000E946818809138
:103B600057028093460218C080915402813AA1F412
:103B70008091E800877F8093E8008091E80080FFD3
:103B8000FCCF809146028093F1008091E8008E770F
:103B90008093E8000E9468188091E80083FFD8C1F4
:103BA0008091540290915502492F50E04A305105BE
:103BB00008F0CEC1FA01E058FF4F0C94EF2E803888
:103BC00021F0823809F0C4C108C080915002909160
:103BD0005102992389F082600FC0809158028F7042
:103BE000873008F0B5C18093E9008091EB0085FB38
:103BF000882780F91092E9009091E800977F9093D0
:103C0000E8008093F1001092F10071C1282F2D7F00
:103C100009F09EC1882319F0823061F099C180912A
:103C20005602813009F094C1933009F080E080930E
:103C300051022EC08091560281112AC080915802F3
:103C40008F702FEF280F263008F082C18093E90093
:103C50002091EB0020FF1CC0933021F48091EB00F9
:103C6000806214C09091EB0090619093EB0021E092
:103C700030E0A90102C0440F551F8A95E2F7409336
:103C8000EA001092EA008091EB0088608093EB00DC
:103C90001092E9008091E800877F2CC1811158C102
:103CA000109156021F778091E3008078812B8093DA
:103CB000E3008091E800877F8093E8000E94681805
:103CC0008091E80080FFFCCF8091E30080688093C2
:103CD000E300111102C082E001C083E08093520230
:103CE00037C18058823008F033C1809156029091DC
:103CF00057028C3D53E0950779F583E08A838AE289
:103D000089834FB7F894DE01139620E03EE051E23C
:103D1000E32FF0E050935700E49120FF03C0E295B9
:103D2000EF703F5FEF708E2F90E0EA3010F0C79693
:103D300001C0C0968D939D932F5F243149F74FBFEB
:103D40008091E800877F8093E8006AE270E0CE010E
:103D500001960E94BC18BAC0409158025091590275
:103D6000292F332723303105B1F068F42130310594
:103D700009F4FDC02230310509F0EAC08BE390E080
:103D8000E4EBFEE050C02132310581F122323105F1
:103D900009F439C0DDC0992781309105B9F070F080
:103DA00082309105D9F0039709F0D2C0E1E0FFE03D
:103DB000E4918E2F90E0E1E0FFE032C0E5E3FFE028
:103DC000E4918E2F90E0E5E3FFE02AC0EFE1FFE011
:103DD000E4918E2F90E0EFE1FFE022C0E7E0FFE00A
:103DE000E4918E2F90E0E7E0FFE01AC04115510505
:103DF00009F4C2C04130510509F0AAC089E090E041
:103E0000EFEDFEE010C04115510509F4BAC0413094
:103E1000510509F09DC08FE490E0E5E2FEE003C0AB
:103E2000009709F495C02091E800277F2093E800CF
:103E300020915A0230915B028217930708F49C018B
:103E400040E02115310589F180915202882309F45F
:103E50003DC08530D9F18091E80083FD37C0809165
:103E6000E80082FD2FC08091E80080FFEACF4091FA
:103E7000F3008091F20090E0942B2115310559F068
:103E80008830910540F444914093F10031962150DF
:103E900031090196F2CF41E0089709F040E08091A6
:103EA000E8008E778093E800CCCF4111CDCF0AC0D7
:103EB00080915202882351F0853041F08091E800D2
:103EC00083FD04C08091E80082FFF2CF8091E8007A
:103ED0008B778093E8003CC08038D1F58091E80072
:103EE000877F8093E800809153028093F100809156
:103EF000E8008E778093E8000E94681829C081113D
:103F000027C080915602909157029927029704F595
:103F10008091E800877F8093E8001091560210930B
:103F200053020E946818111106C08091E30087FDBA
:103F300002C081E001C084E08093520242E061EC63
:103F400081E00E94871842E261EC82E00E948718BB
:103F50008091E80083FF1AC08091E800877F8093FA
:103F6000E8008091EB0080628093EB000FC082E15B
:103F700090E0EFEEFEE057CF89E090E0E6ECFEE067
:103F800052CF80E490E0E4E7FEE04DCFAA960FB672
:103F9000F894DEBF0FBECDBFDF91CF911F91089582
:103FA0001F920F920FB60F9211242F933F934F93AE
:103FB0005F936F937F938F939F93AF93BF93CF93B1
:103FC000DF93EF93FF93C091E900CF708091EC00F5
:103FD000D82FD17080FDD0E81092E9008091F000D8
:103FE000877F8093F00078940E94FB1C1092E90078
:103FF0008091F00088608093F000CD2BCF70C0934B
:10400000E900FF91EF91DF91CF91BF91AF919F9127
:104010008F917F916F915F914F913F912F910F9071
:104020000FBE0F901F901895E8EDF0E080818E7F15
:1040300080831092E2001092DA001092E100A0EE6C
:10404000B0E08C9181608C9380818F77808319BCE4
:10405000A7EDB0E08C918E7F8C9380818F7E8083E2
:10406000109245020895CF92DF92EF92FF920F9344
:104070001F93CF93DF93C8EDD0E088818F7E888334
:10408000E7EDF0E080818160808384E082BF81E0A1
:104090008093450288818E7F888302EE10E0F801CC
:1040A00010821092DA0081EEC82ED12CF601108217
:1040B00088818F77888388818068888388818F7DD5
:1040C000888319BC1092520210925302109251022E
:1040D0001092500290EEE92EF12CF70180818B7F37
:1040E000808388818160888342E060E080E00E9474
:1040F0008718F60180818E7F8083F801808181603E
:104100008083808188608083F70180818E7F8083B7
:10411000888180618883DF91CF911F910F91FF90FB
:10412000EF90DF90CF9008951F920F920FB60F92ED
:1041300011242F933F934F935F936F937F938F93AC
:104140009F93AF93BF93EF93FF938091E10082FF22
:1041500009C08091E20082FF05C08091E1008B7F61
:104160008093E1008091DA0080FF2AC08091D8001E
:1041700080FF26C08091DA008E7F8093DA008091E4
:10418000D90080FF18C080E189BD82E189BD09B4F2
:1041900000FEFDCF81E080935202809145028111A3
:1041A0000FC00E9414200E9433208091E20084609E
:1041B0008093E20005C019BC109252021092450291
:1041C0008091E10080FF17C08091E20080FF13C062
:1041D0008091E2008E7F8093E2008091E200806116
:1041E0008093E2008091D80080628093D80019BC4F
:1041F00085E0809352028091E10084FF32C080917B
:10420000E20084FF2EC080E189BD82E189BD09B44E
:1042100000FEFDCF8091D8008F7D8093D8008091E3
:10422000E1008F7E8093E1008091E2008F7E809399
:10423000E2008091E20081608093E200809153026D
:10424000882311F084E007C08091E30087FD02C05D
:1042500081E001C083E0809352020E94602B0E94A3
:1042600037268091E10083FF27C08091E20083FF21
:1042700023C08091E100877F8093E10082E08093FA
:104280005202109253028091E1008E7F8093E100F0
:104290008091E2008E7F8093E2008091E200806155
:1042A0008093E20042E060E080E00E948718809105
:1042B000F00088608093F000FF91EF91BF91AF9183
:1042C0009F918F917F916F915F914F913F912F912E
:1042D0000F900FBE0F901F90189580914702089580
:1042E000CF93DF9320915202243039F521E02093BF
:1042F000E9002FEF3091E800215035FD06C035ED83
:104300003A95F1F700002111F5CF2091E80025FF43
:1043100014C0EC0140E050E068E070E00E94CF1C67
:104320008091E8008E778093E80088E0FE01A8E4A1
:10433000B2E001900D928A95E1F7DF91CF91089557
:10434000803F39F48091330287FF6CC010923302B2
:1043500069C0813F29F4809133021816BCF362C012
:1043600090913202823F29F497FF5CC01092320292
:1043700059C0833F19F41916CCF354C0893F41F456
:104380008091340218160CF04DC0109234024AC0CD
:104390008A3F29F48091340287FF44C0F6CF8B3FD7
:1043A00039F48091350287FF3DC0109235023AC042
:1043B0008C3F29F4809135021816BCF333C0843F3A
:1043C00021F4809131028E7F17C0853F21F48091C6
:1043D00031028D7F11C0863F21F4809131028B7FA5
:1043E0000BC0873F21F480913102877F05C0883F51
:1043F00031F4809131028F7E8093310213C08D3F62
:1044000021F48091DA028E7F0BC08E3F21F48091DF
:10441000DA028D7F05C08F3F29F48091DA028B7F0D
:104420008093DA028091320281110EC080913302B2
:1044300081110AC080913402811106C08091350239
:10444000811102C01092360208958091DA0280FD37
:1044500016C081FD16C082FD18C0809136028823E7
:1044600091F0883290F428E0829FC001112468E224
:1044700070E00E94DB2E862F672B29F007C082E0B8
:10448000089584E0089581E0089588E0089580917A
:10449000DA0280FD14C081FD14C082FD16C0809137
:1044A0003602882381F0843180F422E3829FC001A8
:1044B000112464E170E00E94DB2E862F08958CE0C9
:1044C000089589E1089585E0089582E30895803F85
:1044D00021F40E944722819504C0813F29F40E9463
:1044E0004722809333020895823F21F40E9447229D
:1044F000819504C0833F29F40E94472280933202B1
:104500000895893F19F40E94252205C08A3F31F49D
:104510000E94252281958093340208958B3F21F4D7
:104520000E942522819504C08C3F29F40E942522F7
:10453000809335020895843F21F480913102816097
:1045400017C0853F21F480913102826011C0863FFF
:1045500021F48091310284600BC0873F21F4809167
:104560003102886005C0883F31F48091310280615A
:104570008093310208958D3F21F48091DA028160A9
:104580000BC08E3F21F48091DA02826005C08F3F1C
:1045900029F48091DA0284608093DA020895789495
:1045A0001F920F920FB60F9211248F939F93AF9388
:1045B000BF938091D6029091D702A091D802B0917A
:1045C000D9020196A11DB11D8093D6029093D70206
:1045D000A093D802B093D902BF91AF919F918F91D0
:1045E0000F900FBE0F901F901895CF92DF92EF9211
:1045F000FF920F931F932FB7F8944091D6025091DA
:10460000D7026091D8027091D9022FBF6A017B0155
:10461000EE24FF248C0120E030E0C016D106E20633
:10462000F30610F4415051099A01281B390BC901B6
:104630001F910F91FF90EF90DF90CF9008952FB7CB
:10464000F8948091D6029091D702A091D802B091AF
:10465000D9022FBF0895E0911602F091170230970A
:1046600049F082E0809330020480F581E02D80E300
:1046700092E009950E941F2390933802809337029D
:1046800008951F920F920FB60F9211248F939F934C
:10469000AF93BF9380911802811113C08091D6020D
:1046A0009091D702A091D802B091D9024196A11D54
:1046B000B11D8093D6029093D702A093D802B093F5
:1046C000D902BF91AF919F918F910F900FBE0F9024
:1046D0001F9018959C01FC0132969FEF80E041915C
:1046E000461789F09F3F19F4411101C0982F8F5F41
:1046F0008630A9F79F3F39F0F901E90FF11D97FDC9
:10470000FA95628308950895CF9384E090E00E9423
:10471000652EC82F81E290E00E94652E2C2F30E09C
:10472000A901582BCA01CF9108956CEE7EEF80E06D
:1047300090E00E94972E60E082E090E00E94792E47
:1047400060E083E090E00E94792E1092D2021092F5
:10475000D3021092D4021092D50260E084E090E07F
:104760000E94792E60E081E290E00E94792E60E064
:1047700085E090E00E94792E60E086E090E00E9463
:10478000792E6FEF87E090E00E94792E40E050E0B4
:10479000BA0188E090E00E948B2E60E08DE090E00E
:1047A0000E94792E40E050E0BA0188E190E00E943A
:1047B0008B2E60E087E190E00E94792E40E050E08F
:1047C000BA018CE190E00E948B2E60E080E290E0E4
:1047D0000E94792E40E050E0BA018FE090E00E9404
:1047E0008B2E40E050E0BA0183E190E00C948B2ED8
:1047F0008091D10281111092D10208959091D0023E
:104800008091CF02892B2091CE02982F922B9093EA
:104810005C028091D102882389F0892B80935C020D
:10482000EEE5F2E097E080E0915029F0219122231B
:10483000D9F38F5FF9CF81110E94F823E09116021E
:10484000F0911702309731F00280F381E02D8CE572
:1048500092E009940895BF92CF92DF92EF92FF9277
:104860000F931F93CF93DF938C01C090C902D09018
:10487000CA02E090CB02F090CC028091D2029091DB
:10488000D302A091D402B091D502C82AD92AEA2A2B
:10489000FB2ACFE1D0E0D701C6010C2E04C0B695AB
:1048A000A795979587950A94D2F780FD04C0219724
:1048B00090F7B12C07C0BC2EB8018C2F0E941C0BA6
:1048C0000197A9F38B2DDF91CF911F910F91FF904D
:1048D000EF90DF90CF90BF900895CF93DF93EC01DE
:1048E0000E942B24BE010E941C0BDF91CF910895E2
:1048F00027E0929F800D1124682F66956695669536
:10490000982F977085E0689FB001112440E050E037
:1049100080E0FB01E40FF51FE456FD4F208130E0FD
:10492000092E02C0369527950A94E2F721703327A5
:10493000042E01C0220F0A94EAF7822B4F5F5F4FCB
:104940004530510531F7089527E0929F800D1124DD
:10495000E82FE695E695E695877051E001C0550F82
:104960008A95EAF785E0E89FF0011124E456FD4FAF
:1049700020E030E070E04081CB01022E02C096952D
:1049800087950A94E2F7817081958427852384278F
:1049900081932F5F3F4F2530310569F7089560936C
:1049A000C9027093CA028093CB029093CC020C94FC
:1049B0004D2B0F931F9341E050E060E070E004C086
:1049C000440F551F661F771F8A95D2F74095509563
:1049D000609570958091C9029091CA02A091CB0216
:1049E000B091CC028A019B01082319232A233B237F
:1049F000C901B8011F910F910C94CF242091CD02D1
:104A0000809582238093CD02982F977079F430E0BF
:104A1000482F082E000C550B2417350739F08595C3
:104A2000859585950E94D9241092CD0208950F9303
:104A30001F9341E050E060E070E004C0440F551F58
:104A4000661F771F8A95D2F78091C9029091CA029A
:104A5000A091CB02B091CC028A019B01082B192BAB
:104A60002A2B3B2BC901B8011F910F910C94CF2425
:104A70006093D2027093D3028093D4029093D502B4
:104A80000C944D2B80919B0290916A02891719F02A
:104A90008F5F8770FBCF0895089580912D02882342
:104AA00019F0815080932D026091290270912A02A1
:104AB00080912B0290912C020C94120A80912D026D
:104AC000833018F48F5F80932D02609129027091DA
:104AD0002A0280912B0290912C020C94120A1F93AF
:104AE000CF93DF93CDB7DEB767970FB6F894DEBFED
:104AF0000FBECDBF4B8B5C8B6D8B7E8B8F8B86E01F
:104B00009E01235F3F4FD901E82F1D92EA95E9F7F7
:104B100095E0FE017396D90101900D929A95E1F707
:104B2000F901DE01179601900D928A95E1F7CE0109
:104B300007960E94982981113EC086E0FE013796B3
:104B4000DE01119601900D928A95E1F7FF81E885CB
:104B50006A857B856115710531F0EF3F31F481E0A5
:104B6000FF3F19F403C081E001C080E080FD23C055
:104B700020916A0230E0C90101968770992740911F
:104B80009B0250E08417950779F1F983EA837D83CE
:104B90006C8396E0929FD001939FB00D1124A5598C
:104BA000BD4FFE01319601900D929A95E1F78093E9
:104BB0006A020E94422516E080919B0290916A024F
:104BC0008917F9F0189FC001112485599D4F0E9443
:104BD00098298823B1F080919B0290E0019687701C
:104BE000992780939B02E8CF0E94602B10926A0263
:104BF00010929B02E4E6F2E086E0DF011D928A95C6
:104C0000E9F767960FB6F894DEBF0FBECDBFDF9110
:104C1000CF911F9108952091F3023091F40228174B
:104C2000390771F09093F4028093F302E091160239
:104C3000F0911702309721F00084F185E02D09945E
:104C400008952091F1023091F2022817390771F08E
:104C50009093F2028093F102E0911602F091170214
:104C6000309721F00680F781E02D09940895E091B6
:104C70001602F0911702309721F00190F081E02D9B
:104C8000099480E008950F931F93CF93DF93C62F6D
:104C9000D42F122FFC0182818823C9F06093A001D8
:104CA0000E941F239093F0028093EF0280E28C0F0A
:104CB000883008F057C0C77081E001C0880FCA95DE
:104CC000EAF7DF91CF911F910F910C94762B809191
:104CD000A001681330C08091EF029091F0020E9411
:104CE000F5228436910538F500E20D0FCD17B9F0A5
:104CF00080E28C0F883040F4C77081E001C0880FDB
:104D0000CA95EAF70E946B2B083028F581E09D2FA9
:104D1000977001C0880F9A95EAF70E94762B812F31
:104D20000E948D2C0830F0F4D77081E001C0880F0C
:104D3000DA95EAF70AC080E28C0F883098F4C770E1
:104D400081E001C0880FCA95EAF7DF91CF911F91EA
:104D50000F910C946B2B812FDF91CF911F910F91AD
:104D60000C948D2CDF91CF911F910F91089590910C
:104D7000290290FF04C09695981740F003C0811156
:104D800005C090E0961710F40C946F0A61E00C9443
:104D9000240A882311F0FA0101C0FB0109948091D3
:104DA000290280FF0AC0539A8BB1877F9BB198601C
:104DB0002FB7F894EDEDF2E00BC0EDEDF2E01182CB
:104DC00010821282339632E0EF3EF307C1F7EBCF49
:104DD00032E0EF3EF30789F0319148E09BB90000E3
:104DE00000C037FF8BB9330F000000C000C000C007
:104DF0008BB900C04A9591F7EBCF2FBF87EC90E0BD
:104E00000197F1F700C000000895EF92FF920F9311
:104E10001F93CF93DF93EC018C819D81019681706C
:104E200099279D838C838DEDE82E82E0F82E10E08B
:104E300005E5212F26958C819D81820F911D817022
:104E4000970140912C0260912B02809F802D1124AC
:104E50000E94880A1F5F83E0E80EF11C163049F7B4
:104E6000DF91CF911F910F91FF90EF900C94CF267F
:104E70000F931F93CF93DF93CDEDD2E0FE0111820C
:104E800010821282339682E0EF3EF807C1F700E00D
:104E900010E08091DC02082E000C990B081719070E
:104EA00094F080913401082E000C990B8017910723
:104EB00054F09E0140912C0260912B0280912A02B5
:104EC0000E94880A03C0198218821A820F5F1F4F3E
:104ED000239606301105E9F60E94CF268091330112
:104EE0009091DC02980F9093DC0220913401280FFE
:104EF00020933401121614F495301CF081958093A0
:104F00003301DF91CF911F910F910895BF92CF92FE
:104F1000DF92EF92FF920F931F93CF93DF93FC01E9
:104F2000828180FF03C0DD24DA9402C0DD24D394A3
:104F30000DED12E0C0E0D0E026E0B22EF8011182C3
:104F40001082128294E0E92EF12CC12C8091DB02B8
:104F50008C0D87302CF06B2D0E94B92E892F02C04A
:104F600087FD8A5F082E000C990BC817D90791F4AA
:104F700080912C028E9DA0018F9D500D112455957E
:104F8000479555954795980160912B0280912A028B
:104F90000E94880ACD0CF1E0EF1AF108B9F62196CB
:104FA0000D5F1F4FC630D10549F60E94CF26809174
:104FB000DB0291E0D91206C0811102C085E007C072
:104FC000815005C090E00196BE010E94DB2E8093C7
:104FD000DB02DF91CF911F910F91FF90EF90DF9057
:104FE000CF90BF900895EF92FF921F93CF93DF93DE
:104FF000EC018DEDE82E82E0F82E10E08C81970117
:1050000040912C0260912B02810F0E94880A165D4C
:1050100083E0E80EF11C1C3F89F70E94CF269A819D
:105020008C8190FF02C08F5F01C081508C83DF9123
:10503000CF911F91FF90EF9008959091290290FFDA
:105040000CC0EDEDF2E0818360834283339692E001
:10505000EF3EF907C1F70C94CF260895CF93DF9365
:1050600000D01F92CDB7DEB79091290290FF0AC001
:105070009E012F5F3F4F0E94880A4B8169818A8180
:105080000E941D280F900F900F90DF91CF910895EF
:10509000CF93DF93EC01E9E2F2E0438162818C81FE
:1050A0000E942E288C818F5F8C83DF91CF91089591
:1050B000CF93DF93EC01EC81F0E0E25CF04F4491A0
:1050C000E9E2F2E0628181810E942E288C818F5F6B
:1050D0008C83DF91CF9108955F926F927F928F9230
:1050E0009F92AF92BF92CF92DF92EF92FF920F9377
:1050F0001F93CF93DF9300D01F92CDB7DEB7182F49
:10510000762E042F622E9091290290FF6DC0E92F18
:10511000E695AE2FB0E0AB59BE4F8C9180932E0236
:105120009E7F923061F49E012F5F3F4F812F0E943E
:10513000880A4B8169818A810E941D2843C0823080
:1051400019F400912C023EC0863019F410912A0205
:1051500039C08930D9F38931A9F5E9518E2F817091
:10516000582EE695F0E0E75CF04FA590B4908DEDF9
:10517000C82E82E0D82EE12CF12CBB2496E0892E9B
:10518000912CAE9CC001AF9C900DBE9C900D112443
:10519000B4010E94C72E812F511002C0860F01C09A
:1051A000861B9601402F672D0E94880A8FEFE81A10
:1051B000F80A83E0C80ED11C86E0E816F10409F76E
:1051C0000E94CF2610932A0270922B0200932C0289
:1051D000662051F06091290270912A0280912B0281
:1051E00090912C020E94120A0F900F900F90DF9165
:1051F000CF911F910F91FF90EF90DF90CF90BF90D4
:10520000AF909F908F907F906F905F900895CF9315
:105210008091690282958F7009F05FC0809166026B
:10522000882309F45AC080919B02B0916A02709160
:105230006402A0916502409167025091680291E07A
:105240007F3F09F090E0692FC6E08B1709F445C055
:105250004115510521F0AF3F21F020E003C021E0CE
:1052600001C0262F90E020FD35C0C89FF001C99FE6
:10527000F00D1124E559FD4F21812A132BC0208107
:10528000271328C02281211125C0238134812417AE
:10529000350710F421503109241B350B2436310514
:1052A000C8F4209169022F7020612093690226E0E2
:1052B000289FF001299FF00D1124E059FD4F8081B6
:1052C0008F708061808384E692E00E94AD11CF915F
:1052D0000C94422501968770B8CFCF9108950E9413
:1052E0006D24292F2F70E92FE295EF704E2F50E09B
:1052F000FA013297EE30F105B8F4E657FF4F0C94FF
:10530000EF2E803F99F018F4883E70F40FC0843F70
:1053100059F40CC0883E50F0813F31F407C0822F11
:10532000869586958695089580E0089581E0089594
:10533000AF92BF92CF92DF92EF92FF920F931F93A3
:10534000CF93DF93CDB7DEB761970FB6F894DEBF8A
:105350000FBECDBF7C0185E0F701DE011D960190F7
:105360000D928A95E1F7D7013C9111962C911197F6
:1053700012960C91509164026091650280916702CF
:1053800090916802009731F06F3F31F441E05F3F48
:1053900019F403C041E001C040E0B42FB170BB2E4E
:1053A00040FD28C1F701C380D480A0906602AA20E6
:1053B00009F4E3C040916902C816D90628F0D60165
:1053C000A81BB90BCD0104C0809590958C0D9D1D37
:1053D00011E08436910548F010E0407F09F093C059
:1053E00084E692E00E94AD11FDC0842F807F09F019
:1053F00051C0621312C0531310C0102F01110DC001
:105400004F7040614093690284E692E00E94AD11C2
:1054100080916902F70185832EC1CD2831F02F3F9D
:1054200031F481E03F3F19F403C081E001C080E026
:1054300080FD03C081E0802702C080E090E0182F4B
:10544000117080FF1CC080919B0240916A0256E05F
:10545000841709F4EDC090E0589FF001599FF00DBA
:105460001124E559FD4F6181261306C06081361372
:1054700003C06281061303C001968770E9CF102F25
:10548000002309F4F8C08091690281608093690269
:1054900010E0F1C062130CC053130AC0011108C020
:1054A00080916902F7018583C7010E94AD1180C018
:1054B0003D872E878D859E850E946F29882369F1FF
:1054C000002359F120916902822F82958F7090E01C
:1054D000029774F0809164029091650298878F839F
:1054E0001986DB86CA862C87CE0107960E94AD11ED
:1054F00086E0F701A4E6B2E001900D928A95E1F70B
:105500000E9407290DC0621769F03D872E878D859F
:105510009E850E946F29811119C0C7010E94AD119B
:1055200011E0A9C05313F1CF0111EFCF80916902AF
:10553000F7018583C7010E94AD1186E0E4E6F2E041
:10554000DF011D928A95E9F71A2D95C0002329F3F2
:1055500020916902822F82958F7090E0029744F229
:1055600080916402909165029A8389831B82DD8217
:10557000CC822E83CE010196B9CFC816D90638F059
:10558000C81AD90AB4E6CB16D10450F007C08095EA
:1055900090958C0D9D1D8436910510F010E022C071
:1055A000102F002309F4B9CF62130BC0531309C0A5
:1055B00086E0F701A4E6B2E001900D928A95E1F74A
:1055C0005AC03D872E878D859E850E946F29811147
:1055D0008FCF80916902816080936902C7010E9428
:1055E000AD1149C0E4E6F2E086E0DF011D928A9544
:1055F000E9F741C0002309F490CF3D872E878D85C0
:105600009E850E946F29182F882309F486CF86E093
:10561000F701A4E6B2E001900D928A95E1F780913E
:105620006402909165020E946D240E94072923C0A4
:105630003D872E878D859E850E946D24292F22957A
:105640002F70223028F49F7039F0811105C00BC0F3
:10565000243028F49F7049F4805E883020F0C70120
:105660000E94AD11B12E1B2D06C0D70115969C913D
:10567000907F91F7F8CF812F61960FB6F894DEBF37
:105680000FBECDBFDF91CF911F910F91FF90EF9093
:10569000DF90CF90BF90AF9008951092CF021092FC
:1056A000CE020E94FE23E0E3F2E086E0DF011D92DD
:1056B0008A95E9F7109236021092DA020C942B23A5
:1056C0001092D00286E0EEE5F2E0DF011D928A95AD
:1056D000E9F70C944D2B882341F080959091D002EE
:1056E00089238093D0020C94FE230895882339F0F7
:1056F0009091D002892B8093D0020C94FE230895C0
:105700008823E1F19CEF980F913A60F4ECE5F2E028
:105710009281891301C01282319642E0E236F40789
:10572000B9F714C090E2980F983090F4877021E098
:1057300030E0A90102C0440F551F8A95E2F7CA0163
:1057400080959091D00289238093D0020C94FE23FF
:105750009BE5980F933020F480E090E00C94212694
:1057600098E5980F973120F480E090E00C940B2698
:10577000803F20F00E94A0210C942B2308958823C1
:1057800009F4CAC09CEF980F913A30F4682F8CE569
:1057900092E00E946A2313C090E2980F983088F438
:1057A000877021E030E0A90102C0440F551F8A959F
:1057B000E2F7CA019091D002892B8093D0020C9419
:1057C000FE239BE5980F933070F4853A29F0863AD2
:1057D00031F083E890E005C081E890E002C082E803
:1057E00090E00C94212698E5980F973108F08EC030
:1057F000883A09F445C0893A09F445C08A3A09F45F
:1058000045C08B3A09F445C08C3A09F445C08B3B3E
:1058100009F445C08C3B09F445C08D3A09F445C0F4
:10582000803B09F445C08E3A09F445C08F3A09F42B
:1058300045C0813B09F445C0823B09F445C0833B28
:1058400009F445C0843B09F445C0853B09F445C0D3
:10585000863B09F445C0873B09F445C0883B09F401
:1058600045C0893B09F445C08D3B09F445C08E3BDA
:1058700009F445C08A3B09F445C080E090E044C08B
:1058800082EE90E041C089EE90E03EC08AEE90E06A
:105890003BC085EB90E038C086EB90E035C083EBF1
:1058A00090E032C084EB90E02FC087EB90E02CC0FA
:1058B0008CEC90E029C08DEC90E026C083E891E06C
:1058C00023C08AE891E020C082E991E01DC084E90C
:1058D00091E01AC081E292E017C083E292E014C026
:1058E00084E292E011C085E292E00EC086E292E08E
:1058F0000BC087E292E008C08FE690E005C080E729
:1059000090E002C08AE292E00C940B26803F20F0E7
:105910000E9467220C942B230895CF93C82F0E94D6
:10592000BF2BC93349F42FEF87EE93E0215080401D
:105930009040E1F700C000008C2FCF910C94802B99
:105940008EE14A9B02C08150E1F74A9BFECF089549
:105950005A9880E28A95F1F75A9A0895FC012AE054
:105960002A95F1F790E020E080E031E0261779F009
:1059700040E14A95F1F7880F4A9B02C08160932766
:1059800000C0000040E14A95F1F72F5FEFCF20E122
:105990002A95F1F729B100C0000030E13A95F1F7FE
:1059A00022FB222720F992272081920F90830895CD
:1059B000EF92FF920F931F93CF93DF931F92CDB778
:1059C000DEB719828C017C01E60EF11C0E151F0555
:1059D00059F00E94A02C68E0CE0101960E94AE2CE6
:1059E000F80181938F01F2CF81E09981911180E0DC
:1059F0000F90DF91CF911F910F91FF90EF9008953D
:105A00009093F7028093F6026093F502529A5A9AA5
:105A100008959093F7028093F6026093F5025298EE
:105A20005A9AEA9AE9E6F0E080818F7C80830895B3
:105A3000615091E001C0990F6A95EAF720E031E0EA
:105A4000992361F0492F482319F05A9A232701C05E
:105A50005A9840E24A95F1F79695F2CF222311F039
:105A60005A9A01C05A9880E28A95F1F75A98089597
:105A7000FF920F931F93CF93DF93EC018C01060FDE
:105A8000111DC017D10741F0F9900E94A82C68E0C1
:105A90008F2D0E94182DF5CFDF91CF911F910F917F
:105AA000FF9008951F920F920FB60F9211240F933B
:105AB0001F932F933F934F935F936F937F938F9396
:105AC0009F93AF93BF93EF93FF93CF93DF931F9277
:105AD000CDB7DEB719820E94A02C67E0CE010196F7
