:100000000C947A050C94C1050C94C1050C94DE0681
:100010000C94C1050C94C1050C94C1050C94C10548
:100020000C94C1050C94C1050C94E81F0C94BA20E3
:100030000C945D1B0C94C1050C94C1050C94C10576
:100040000C94C1050C94C1050C94C1050C94C10518
:100050000C94C1050C94C51B0C94C1050C94C105EE
:100060000C94C1050C94C1050C94C1050C94C105F8
:100070000C94C1050C94C1050C94C1050C94C105E8
:100080000C94C1050C94C1050C94C1050C94C105D8
:100090000C94C3050C94C1050C94C1050C94C105C6
:1000A0000C94C1050C94C1050C94C105D511D51152
:1000B0000712071272137213721372135412F11291
:1000C000021302136213721372136B13E813E81313
:1000D000FA13FA13F113FA13FA13FA13E813E813E5
:1000E000F613FA13FA13F61327214E2140224E215C
:1000F00040229A21BD2140221322222229005900A8
:100100005A005B005C005D0000002B0014001A0028
:100110000800150017000000E000040016000700AA
:1001200009000A00000018501D001B0006001900FD
:1001300005000353E200005C1F50E30091002C0017
:1001400004534C006200610060005F005E0000002C
:100150002A00130012000C0018001C0000002800E8
:100160002E000F000E000D000B000000185038008C
:1001700037003600100011000353005201520253A1
:10018000E70090002C000553290059005A005B003D
:100190005C005D0000002B0014001A00070009003D
:1001A0000A000000E00004001200080018000C0023
:1001B000000019501D001B00060019000500035324
:1001C000E200005C1F50E30091002C0004534C003F
:1001D0006200610060005F005E0000002A00130002
:1001E0001500170016001C00000028002E000F004C
:1001F0000E000D000B0000001950380037003600CB
:10020000100011000353005201520253E700900006
:100210002C0005530000000000000000000000005A
:1002200000000000000000000000000000000000CE
:1002300000000000000000000000000000000000BE
:1002400000000000000000000000000000000000AE
:100250000000000000000000000000000000560048
:1002600055005400530000000000000057006100DA
:1002700060005F0000000000000058005E005D00AC
:100280005C0000000000000058005B005A005900AC
:100290000000005201520100630062006200000091
:1002A0003A003B003C003D003E003F0000000000E3
:1002B000CD5CD35CD45CC85CC75C00000000D15C42
:1002C000CE5CCF5CC65CC55C0000135CD05CC45CDB
:1002D000C35CCA5CC95C01000A5C0000000000004D
:1002E000CC5CCB5CC25C4500440043004200410052
:1002F000400000000000F900F500F600F4000000E6
:1003000000000000FA00F300F000F100F20000002D
:10031000000000000000000000000000010000528A
:100320000152000000000000DE5C005C000059008B
:100330005A005B005C005D000000000000005200FD
:1003400000004A004B0000000000500051004F0028
:100350004D004E00000000000000000000004600BC
:10036000490001000000000000000000DE5C005CAD
:1003700001004C006200610060005F005E00000050
:100380002A00240237023602270226020000280033
:10039000310230002F0030022F0200000000000068
:1003A0000000000023021F02010000520152000061
:1003B000000000000000000000001E001F002000E0
:1003C000210022000000000035022D02340234001A
:1003D00035000000E0002E022D0025022E00330221
:1003E0000000E1001E023802200221022202000069
:1003F000E20000000000E30091002C0001004C002E
:100400002700260025002400230000002A002402E3
:10041000360237022702260200002800310230008F
:100420002F0030022F020000E10000000000000059
:1004300023021F020000005201520000E70090005A
:100440002C0001000000000000000000000000007F
:10045000000000000000000000000000000000009C
:10046000000000000000000000000000000000008C
:10047000000000000000000000000000000000007C
:10048000000000000000000000000000000000006C
:10049000000000000000000000000000000000005C
:1004A000000000000000000000000000000000004C
:1004B000000000000000000000000000000000003C
:1004C0000000005201520000000000000000000087
:1004D000000000000000000000000000000000001C
:1004E000000000000000000000000000000000000C
:1004F00000000000000000000000000000000000FC
:1005000000000000000000000000000000000000EB
:1005100000000000000000000000000000000000DB
:1005200000000000000000000000000000000000CB
:1005300000000000000000000000000000000000BB
:100540000000000000000000000000000000005259
:1005500001520000000000000000000029001E0001
:100560001F0020002100220000002B0014021A02AC
:100570000802150217020000E0000402160207023A
:1005800009020A02000001001D621B020602190294
:1005900005020000E20000000000E30291002C02CE
:1005A00000004C002700010001002400230000008F
:1005B0002A00130212020C0218021C02000028007A
:1005C0002E020F020E020D020B0200000100380283
:1005D00037023602100211020000005201520000E0
:1005E000E70290002C02000029001E001F002000DE
:1005F0002100220000002B0014021A020702090247
:100600000A020000E00004021202080218020C02B2
:10061000000001001D021B02060219020502000073
:10062000E20000000000E30291002C0200004C00F8
:100630000100260025002400230000002A001302E8
:100640001502170216021C02000028002E020F02DB
:100650000E020D020B0200000100380237023602C2
:10066000100211020000005201520000E702900047
:100670002C0200000000000000000000000000004C
:10068000000000000000000000000000000000006A
:10069000000000000000000000000000000000005A
:1006A000000000000000000000000000000000004A
:1006B000000000000000000000000000000000003A
:1006C000000000000000000000000000000000002A
:1006D000000000000000000000000000000000001A
:1006E000000000000000000000000000000000000A
:1006F0000000005201520000000000000000000055
:1007000000000000000000000000000000000000E9
:1007100000000000000000000000000000000000D9
:1007200000000000000000000000000000000000C9
:1007300000000000000000000000000000000000B9
:1007400000000000000000000000000000000000A9
:100750000000000000000000000000000000000099
:100760000000000000000000000000000000000089
:100770000000000000000000000000000000005227
:100780000152000000000000000000000000000016
:100790000000000000000000000000000000000059
:1007A0000000000000000000000000000000000049
:1007B0000000000000000000000000000000000039
:1007C0000000000000000000000000000000000029
:1007D0000000000000000000000000000000000019
:1007E0000000000000000000000000000000000009
:1007F00000000000000000000000000000000000F9
:100800000000000000000000000000520152000043
:1008100000000000000000000000000000000000D8
:1008200000000000000000000000000000000000C8
:1008300000000000000000000000000000000000B8
:1008400000000000000000000000000000000000A8
:100850000000000000000000000000000000000098
:100860000000000000000000000000000000000088
:100870000000000000000000000000000000000078
:100880000000000000000000000000000000000068
:1008900000000000000000520152000000000000B3
:1008A0000000000000000000000000000000000048
:1008B0000000000000000000000000000000000038
:1008C0000000000000000000000000000000000028
:1008D0000000000000000000000000000000000018
:1008E0000000000000000000000000000000000008
:1008F00000000000000000000000000000000000F8
:1009000000000000000000000000000000000000E7
:1009100000000000000000000000000000000000D7
:100920000000005201520000000000000000000022
:1009300000000000000000000000000000000000B7
:1009400000000000000000000000000000000000A7
:100950000000000000000000000000000000000097
:100960000000000000000000000000000000000087
:100970000000000000000000000000000000000077
:100980000000000000000000000000000000000067
:100990000000000000000000000000000000000057
:1009A00000000000000000000000000000000052F5
:1009B0000152000000000000000000000000005292
:1009C0000152025203520452000000000052005231
:1009D0000052005200520000000000000000000021
:1009E0000000000000000000000000000000000007
:1009F00000000000000000000100000000000000F6
:100A00000000000009520852075206520552000029
:100A10000000000000000000000000520000000084
:100A200000000000000000000000000000000000C6
:100A30000000000000000000000000520152000011
:100A40000000000000000000040330000000160356
:100A5000480065006C0069007800200042006500D5
:100A600074006100000014035900750073006800F1
:100A700061006B006F0062006F0000000403090456
:100A800009022200010100A0320904000001030153
:100A9000010009211101000122400007058103081E
:100AA000000A1201100100000008EDFE6030010094
:100AB0000102030105010906A101050719E029E763
:100AC00015002501950875018102950175088101C0
:100AD0000507190029FF150026FF009506750881F6
:100AE0000005081901290595057501910295017503
:100AF000039101C011241FBECFEFDAE0DEBFCDBFEE
:100B000004B603FE27C08091250290912602A09191
:100B10002702B09128028730904BA740B04BD1F408
:100B2000109225021092260210922702109228029B
:100B300014BE84B7877F84BF0FB6F894A8958091C0
:100B40006000886180936000109260000FBEE0E05A
:100B5000F8E3099511E0A0E0B1E0E6E9F5E402C0B0
:100B600005900D92AA33B107D9F722E0AAE3B1E0CC
:100B700001C01D92A532B207E1F70E94241D0C941A
:100B8000C9220C9400001F920F920FB60F921124ED
:100B90008F939F93EF93FF938091B900887F803864
:100BA00069F038F48823C9F18036C9F510923A010A
:100BB00036C0883A09F1883BF9F031C080913A019A
:100BC000811111C08091BB0080933B0180913B015A
:100BD000803120F010923B0180E001C081E091E083
:100BE00090933A011DC0E0913B01F0E08091BB0081
:100BF000EE5FFD4F808308C0E0913B01F0E0EE5FC7
:100C0000FD4F80818093BB0080913B0190E0019675
:100C10008F70992780933B0102C01092BC0081E045
:100C20009091BC0095688295880F880F807C892BF5
:100C30008093BC00FF91EF919F918F910F900FBE19
:100C40000F901F9018958EE14A9B02C08150E1F7EA
:100C50004A9BFECF08955A9880E28A95F1F75A9AF6
:100C60000895FC014AE04A95F1F730E090E080E019
:100C700021E0961779F040E14A95F1F7880F4A9BF9
:100C800002C08160322700C0000040E14A95F1F7C0
:100C90009F5FEFCF90E19A95F1F729B100C0000076
:100CA00040E14A95F1F722FB992790F9932720819B
:100CB000920F90830895EF92FF920F931F93CF931B
:100CC000DF931F92CDB7DEB7F62E1982E82E8C0186
:100CD000802F8E198F1558F40E94230668E0CE01EC
:100CE00001960E943106F80181938F01F1CF81E0D6
:100CF0009981911180E00F90DF91CF911F910F9119
:100D0000FF90EF90089590933E0180933D01609392
:100D10003C01529A5A9A089590933E0180933D0166
:100D200060933C0152985A9AEA9AE9E6F0E0808191
:100D30008F7C80830895615091E001C0990F6A957E
:100D4000EAF720E031E0992361F0492F482319F0B8
:100D50005A9A232701C05A9840E24A95F1F796958E
:100D6000F2CF222311F05A9A01C05A9880E28A9554
:100D7000F1F75A980895EF92FF920F931F93CF9334
:100D8000DF931F92CDB7DEB7162F082F7C018E2D73
:100D9000801B811758F4F70181917F0189830E949C
:100DA0002B0668E089810E949B06F1CF0F90DF91AE
:100DB000CF911F910F91FF90EF9008951F920F9286
:100DC0000FB60F9211240F931F932F933F934F93BE
:100DD0005F936F937F938F939F93AF93BF93EF93A3
:100DE000FF93CF93DF931F92CDB7DEB719820E9496
:100DF000230667E0CE0101960E943106382F369512
:100E000036953695932F96959570232F2570920FD2
:100E1000292F2370969596958770920F891348C055
:100E20008981811145C080913C01831708F440C03D
:100E300080E18A95F1F75A9A529AA2E0AA95F1F7C1
:100E400000C000913D0110913E01B8E03B9F000DB4
:100E5000111D11245A98F8016581662321F08681BD
:100E600097810E94BB060E942B06F0E1FA95F1F7EC
:100E70005A9852985A9A80E18A95F1F7D8011296B9
:100E80006C911297662369F013968D919C9114973B
:100E90000E945B06D801ED91FC91811105C082E0B2
:100EA00004C0D801ED91FC9188E080830E94230664
:100EB0000F90DF91CF91FF91EF91BF91AF919F91F3
:100EC0008F917F916F915F914F913F912F911F91E2
:100ED0000F910F900FBE0F901F9018950F931F93B7
:100EE000CF93DF9320913C0130E0281739070CF4B1
:100EF00071C09C0193E0220F331F9A95E1F7C091D6
:100F00003D01D0913E01C20FD31FF894529A5A98D6
:100F100045E04A95F1F70000982F969595708570F9
:100F2000890F982F937086958695890F8901082BD4
:100F30000E942B0684E08A95F1F700C067E0802FBD
:100F40000E949B0640E14A95F1F752985A9A4A99B5
:100F500002C000C0FCCF87E090E04A9B0EC0019722
:100F600051F4529A5A9AE881F98181E08083789409
:100F700081E090E031C000C0F0CF6D81662381F048
:100F80008E819F810E945B0681110AC0529A5A9AF3
:100F9000E881F98182E08083789482E090E01CC04F
:100FA0000E94230680E28A95F1F75A98529A40E10E
:100FB0004A95F1F76A81662321F08B819C810E941A
:100FC000BB060E942B06E881F9811082789480E0AC
:100FD00090E002C084E090E0DF91CF911F910F91EB
:100FE0000895A0E3B1E041E050E08D91E82FE29553
:100FF000EF70F0E021A18F70BA0102C0660F771F79
:101000008A95E2F7CB01962F9095922391A392A116
:10101000892B82A371E0A533B70739F708950895A6
:1010200008950C9410080E94B9090E94F107A9E2E2
:10103000B1E041E050E08D91E82FE295EF70F0E0F3
:1010400021A18F70BA0102C0660F771F8A95E2F75F
:10105000CB01962F9095922391A392A1892B82A3E5
:1010600071E0A033B70739F7559A209A5D9A289A0C
:10107000AFE3B1E0E9E4F1E08AE08E0F11921D9256
:101080008E13FCCF0E949A09809353010C94530A4B
:101090009F92AF92BF92CF92DF92EF92FF920F9307
:1010A0001F93CF93DF9380910101811103C005E06D
:1010B00010E002C000E010E0A801415C5E4F7A0140
:1010C000EA0180E3C82E81E0D82EAA24A394B12C93
:1010D00025E0922E85E3C81681E0D80609F448C0C1
:1010E000F60181916F01E82FE295EF70F0E021A108
:1010F0008F70A50102C0440F551F8A95E2F7CA01FF
:10110000922F982B91A392A18095892382A350EAD4
:101110005A95F1F7E9E2F1E020E040E050E031914A
:10112000A32FA295AF70B0E090968C9190E03F70A5
:1011300002C0959587953A95E2F780FD07C0C501F5
:10114000042E01C0880F0A94EAF702C080E090E004
:10115000282B4F5F5F4F4730510509F78881821771
:1011600019F02883909200010E94F1072196B2CFD6
:10117000809100018823E1F0815080930001882351
:1011800039F0EFE9FFE03197F1F700C0000010C03F
:1011900080E090E0FC01E00FF11FE75BFE4FD7011C
:1011A000A80FB91F2C91208301968530910591F7E6
:1011B00081E0DF91CF911F910F91FF90EF90DF9031
:1011C000CF90BF90AF909F900895CF93DF932091E1
:1011D0000101211103C0C0E0D0E002C0C5E0D0E0B1
:1011E0000E94D409009721F0029781F428980EC03C
:1011F000289ADE01A75BBE4F85E0E0E6F1E00190B2
:101200000D928A95E1F780E090E002C081E090E0E5
:10121000DF91CF9108950E944808809101018111CA
:1012200003C045E050E002C040E050E080E090E0C4
:1012300020E0DC01A05ABE4F6C91FC01E40FF51FC9
:10124000E75BFE4F3081631321E03C9301968530CC
:10125000910579F780915801280F2093580108953E
:10126000CF93DF9380915301882309F442C00E94F9
:10127000480880910101811103C0C5E0D0E002C09F
:10128000C0E0D0E0C75BDE4F45E050E0BE018BE53B
:1012900091E00E947A2225E0FE01ABE5B1E00190E9
:1012A0000D922A95E1F70E94E508892BF1F05D98EF
:1012B000809154018F5F80935401863070F180914A
:1012C0000101811103C020E030E002C025E030E0E0
:1012D00080E090E0FC01E20FF31FE75BFE4F10821D
:1012E000019685309105B1F718C05D9A10925401AE
:1012F00014C00E940B0980910101811103C0A0E07C
:10130000B0E002C0A5E0B0E0A75BBE4F85E0EBE532
:10131000F1E001900D928A95E1F70E945B0A81E06D
:10132000DF91CF910895E82FF0E0E75BFE4F8081D9
:101330000895089580915501811112C08091D800BF
:1013400080618093D8008AE18A95F1F700C080918E
:10135000D90080FD02C082E001C081E08093550188
:1013600081E090915501913009F080E008950C944E
:101370009A090E94B709809301010E949A09882363
:1013800019F00E94C80902C00E94CE0978940895FD
:1013900063E070E082E091E00C94830663E070E02B
:1013A00082E091E00C948C060F931F93CF93DF9310
:1013B0008C0190911B0180911A01981761F082E0D5
:1013C00090E00E946E07EC01892B39F480911A019C
:1013D00080931B0102C0C0E0D0E0012B49F4809152
:1013E000560190915701892B19F480E090E002C0DA
:1013F00081E090E00E946E07892B49F480915801AA
:1014000080931A01109257011092560106C081E094
:1014100090E09093570180935601CE01DF91CF91D8
:101420001F910F9108950C940F0881E0089581E0B9
:1014300008950C94170A1F93CF93DF9300D000D028
:101440001F92CDB7DEB749835A8320917A018981F3
:101450009A81211112C0662349F00E94F518182FB5
:10146000682F89819A810E949A1803C00E94C91826
:10147000182F69817A81812F04C00E94F518698133
:101480007A810F900F900F900F900F90DF91CF9176
:101490001F910C94EA0AFC014081518162817381A1
:1014A00084810C941B0A0E94251A811102C00E949B
:1014B000C51A0C94130A0C94110808950C945D0A33
:1014C00081E008950C94600ACF93C82F0E945E0AB1
:1014D0008C2F0E94620ACF91089508950E94D8131C
:1014E0000E946D0A2FEF84E39CE0215080409040E1
:1014F000E1F700C0000087E797E790930108809329
:1015000000080C94EB1B0F931F93CF93DF93EC0118
:101510000E944B0A8C01BE010E94190A882309F41B
:101520004FC0BE01C8010E94F80D882309F448C0CD
:10153000BE01C8010E94390E882309F441C08A8186
:10154000882371F001158CE5180739F00E3D8CE504
:10155000180731F40E94C51A33C00E946E0A30C0C9
:1015600006311C4531F50E947519282F8A8140915A
:101570001C0150911D01882379F02A7A91E009F429
:1015800090E090936501911102C069E201C065E3AA
:10159000CA010E94FE1A0AC080916501811102C031
:1015A00069E201C065E3CA010E94001B0E94C119E3
:1015B00007C0CE01DF91CF911F910F910C94150AB6
:1015C00080E0DF91CF911F910F91089580E090E02E
:1015D0000895089597E0799FF001112496E4899F7A
:1015E000E00DF11D1124E60FF11DEE0FFF1FE45079
:1015F000FF4F859194910895880F991FFC01E85B36
:10160000F54F859194910895CF93DF930E94EA0A54
:101610000E94B40CEC01811520E59207B8F5811504
:1016200030E4930708F01FC1803E9105D0F4803C60
:10163000910508F009C1883A910570F4853A910541
:1016400008F098C08130910509F48AC108F43BC1C3
:10165000049708F085C137C18F3B910508F495C008
:1016600032C1811540E2940750F4C11581E0D807DA
:1016700008F076C1C83ED10508F472C124C18115B5
:1016800020E3920708F0E6C09F70E0C0811535E5C1
:10169000930708F044C0811544E5940708F0FAC0A8
:1016A000C11582E5D80708F5C11521E5D20708F074
:1016B000DDC08C2F837021E030E002C0220F331F89
:1016C0008A95E2F73C68CE0174E0969587957A9505
:1016D000E1F78370382BCF70C695C69580E2C89F1E
:1016E000E0011124C22BD32B3BC12C2F269526952C
:1016F000CE0183709927C115D34508F0BCC040E2E4
:10170000249F90011124C1E0D0E002C0CC0FDD1F66
:101710008A95E2F72C2B3D2BE901DC6821C181156C
:1017200049E59407A0F4C11588E5D80708F0B7C0CB
:10173000C11526E5D20708F0C6C08C2F0E94480DBF
:101740008F71C82FD0E0DC2FCC27D06209C1811562
:101750003AE5930708F4A8C090568115904208F026
:10176000B2C08D2F8F710E94480DDD27D0628F711E
:10177000D82BF6C0853A910509F4A8C0863A9105A0
:1017800009F0A7C0C2E8D0E4EBC0883A910509F49B
:10179000A3C0893A910509F4A2C08A3A910509F4D7
:1017A000A1C08B3A910509F4A0C08C3A910509F4C7
:1017B0009FC08B3B910509F49EC08C3B910509F4B9
:1017C0009DC08D3A910509F49CC0803B910509F4B8
:1017D0009BC08E3A910509F49AC08F3A910509F49D
:1017E00099C0813B910509F498C0823B910509F4A9
:1017F00097C0833B910509F496C0843B910509F499
:1018000095C0853B910509F494C0863B910509F488
:1018100093C0873B910509F492C0883B910509F478
:1018200091C0893B910509F490C08D3B910509F465
:101830008FC08E3B910509F48EC08A3B910509F457
:101840008DC0C0E0D4E48CC0805C91090E94FC0A89
:10185000EC0186C09927D3FF03C0EC01D86C80C08F
:10186000EC01D06C7DC0DF70D06A7AC0DC2FCC2751
:10187000C16FD06A75C040E2249F90011124C1E07D
:10188000D0E002C0CC0FDD1F8A95E2F7C22BD32B2C
:10189000DA6866C0D82FCC27C46FD06A61C0DC2F4D
:1018A000CC27C06FD06A5CC08F700E94480D94E056
:1018B000D695C7959A95E1F7CF70D0E0DC2FCC276D
:1018C000D069C82B4DC0C0E0D0E04AC0C1E8D0E428
:1018D00047C0C3E8D0E444C0C2EED4E441C0C9EE7E
:1018E000D4E43EC0CAEED4E43BC0C5EBD4E438C077
:1018F000C6EBD4E435C0C3EBD4E432C0C4EBD4E4CB
:101900002FC0C7EBD4E42CC0CCECD4E429C0CDEC80
:10191000D4E426C0C3E8D5E423C0CAE8D5E420C097
:10192000C2E9D5E41DC0C4E9D5E41AC0C1E2D6E4D9
:1019300017C0C3E2D6E414C0C4E2D6E411C0C5E2C5
:10194000D6E40EC0C6E2D6E40BC0C7E2D6E408C0B7
:10195000CFE6D4E405C0C0E7D4E402C0CAE2D6E4CE
:10196000CE01DF91CF9108958238910569F1B0F4ED
:101970008133910509F46DC048F48932910509F469
:1019800063C08A32910509F469C0089585339105D1
:1019900009F455C089339105B9F00895833E910546
:1019A00069F138F4803E9105B1F0823E910509F16C
:1019B0000895863E9105A9F1873E9105B9F1843ECF
:1019C000910509F064C023C02091160220FD4FC08C
:1019D00021FD4DC008958091160280FD44C0809184
:1019E000170280FF44C08091160284FD42C083EE3E
:1019F0004DC08091160282FF38C0F5CF809116024B
:101A000082FD33C08091170280FD31C0ECCF809100
:101A1000170281FF32C08091160284FD2AC087EE32
:101A200035C08091160283FF26C0F5CF8091160243
:101A300083FD21C08091170281FD1FC0ECCF8091F2
:101A4000160285FD1CC01DC08091160285FD19C0BF
:101A500016C08091160286FD16C017C0809116022E
:101A600086FD13C010C089E311C082EE0FC080EE66
:101A70000DC080E00BC086EE09C084EE07C089E28D
:101A800005C085E303C08AE201C081E390E00895C8
:101A90009091160292FF0DC0282F2871283019F45A
:101AA000877F846006C0282F2471243011F48B7F37
:101AB000886093FF0DC0282F2871283119F4877E84
:101AC000846106C0282F2471243111F48B7E886133
:101AD0002091170220FF0DC0382F3871383019F4CB
:101AE000877F816006C0382F3171313011F48E7FCD
:101AF000886021FF0DC0282F2871283119F4877EB6
:101B0000816106C0282F2171213111F48E7E8861F8
:101B100094FD877E08950F931F93CF93DF93C62F75
:101B2000D42F022FFC0182818823C9F060936801C1
:101B30000E948F1B909367018093660180E28C0F57
:101B4000883008F050C0C77081E001C0880FCA9586
:101B5000EAF7DF91CF911F910F910C94951110919D
:101B60006801161330C080916601909167010E9450
:101B70009B1B8436910538F5C0E2CD0F1D17B9F0D7
:101B800080E2810F883040F4177081E001C0880F37
:101B90001A95EAF70E949C11C83048F481E09D2F05
:101BA000977001C0880F9A95EAF70E949511802FCF
:101BB0000E948211C830B8F4D77081E001C0880F4C
:101BC000DA95EAF70AC080E28C0F883060F4C770BB
:101BD00081E001C0880FCA95EAF7DF91CF911F918C
:101BE0000F910C949C11DF91CF911F910F9108954B
:101BF0009C01CB01233F4CE53407F9F078F4283DF4
:101C0000FCE53F07B9F0293D4CE5340711F1273DCC
:101C10003C4531F526E241EE61EE1EC0253FFCE574
:101C20003F0799F070F0263F3C45D1F427E245EE9E
:101C300066EE12C027E245EE0EC026E241EE60EEEF
:101C40000BC027E245EE64EE07C026E241EE62EEED
:101C500003C028E241E065EE0E948B0D80E008950C
:101C6000FC018281882319F010926801089581E0B7
:101C70000895CF93DF93EC01FB018281882309F45F
:101C80001FC1C230FCE5DF0708F41BC1C6319CE56B
:101C9000D90738F09E012A5F3C452930310508F00C
:101CA00010C10E94381A9093170280931602C03117
:101CB000ECE5DE0709F4C3C008F041C0C8308CE58C
:101CC000D80709F49AC0F0F4C430ECE5DE0709F453
:101CD00087C068F4C2308CE5D80709F477C0C330F8
:101CE000DC4509F0E3C080911602826076C0C63000
:101CF000ECE5DE0709F46EC008F07BC080911602A7
:101D000088606BC0CC308CE5D80709F485C068F4D6
:101D1000CA30ECE5DE0709F474C008F079C00E940F
:101D2000D81380911602806858C0CE308CE5D80751
:101D300009F476C008F07FC0809116028BC0CB3FBB
:101D4000ECE5DE0709F44FC018F5C3318CE5D80780
:101D500009F47DC078F4C131ECE5DE0709F473C005
:101D6000C231DC4509F0A2C00E94D813809116024E
:101D70008F7733C0C5318CE5D80709F472C008F4F9
:101D800086C0CA3FDC4509F091C0809117023EC071
:101D9000CF3FFCE5DF0709F45FC058F4CD3F9CE579
:101DA000D90709F444C008F43FC08091170282604B
:101DB0002DC0C130FDE5DF0709F475C008F45DC032
:101DC000C230DD4509F072C080E06EC0809116021D
:101DD000816003C08091160280618093160266C004
:101DE0008091160211C080911702826080931702C1
:101DF0005DC0809116028062F0CF809116028064EF
:101E0000ECCF8091160288608460E7CF8160EECFCE
:101E1000809116028E7FE1CF809116028D7FDDCFFB
:101E200080911602877FD9CF8091170218C08091C8
:101E300017028D7FDBCF809116028F7ECECF8091EF
:101E400016028F7DCACF809116028F7BC6CF8091FC
:101E50001602877F8B7FC1CF809117028D7F8E7F87
:101E6000C5CF8091160282FB222720F991E09227AC
:101E700090FB82F990FB83F9B0CF80911702982FE5
:101E8000909591708E7F892B90FB81F9AFCF0E9446
:101E9000D8138091160287FB222720F991E0922720
:101EA00090FB87F99ACF81E00E94C71A80911602B1
:101EB000909117020E94491A0E94D81380E001C035
:101EC00081E0DF91CF91089590936E0180936D0131
:101ED0000895E0916D01F0916E01309721F001902D
:101EE000F081E02D099480E00895E0916D01F0917A
:101EF0006E01309721F00280F381E02D099408955E
:101F000020916B0130916C018217930771F09093CF
:101F10006C0180936B01E0916D01F0916E0130973F
:101F200021F00680F781E02D099408952091690140
:101F300030916A018217930771F090936A01809340
:101F40006901E0916D01F0916E01309721F00084FC
:101F5000F185E02D0994089585B7806885BF85B720
:101F6000806885BF0895089508950C94B40F08956E
:101F70000C94B70F0E94AC0F0E94B30F0C94B50FD6
:101F800081E008950E94861B0E9413080E94FC1B9A
:101F90000C94B80FBF92CF92DF92EF92FF920F9303
:101FA0001F93CF93DF93CDB7DEB72B970FB6F8947F
:101FB000DEBF0FBECDBF0E9430090E94C00F81114D
:101FC00011C08FEF89838A831B820E948F1B8160DF
:101FD000782F9D838C8349815A816B818D810E94EA
:101FE0005F1042C080E7C82E81E0D82E00E010E0EC
:101FF000B02E802F0E949309F601E1906F01E82630
:1020000031F40F5F1F4F0A30110591F7DACF90912D
:10201000F50191FF04C08B870E9499098B8590E0A0
:10202000FF24F3942F2D2E21D1F09E83BF828F2188
:1020300091E009F490E098870E948F1B8160782FCF
:102040009A8789874E815F8168858A850E945F10A3
:10205000F801E059FE4F8081F826F08205C09F5FAD
:10206000FF0C9730F9F6CDCF10916F010E94690FE8
:102070001817A9F00E94690F80936F012B960FB675
:10208000F894DEBF0FBECDBFDF91CF911F910F91AE
:10209000FF90EF90DF90CF90BF900C94640A2B9646
:1020A0000FB6F894DEBF0FBECDBFDF91CF911F9169
:1020B0000F91FF90EF90DF90CF90BF900895CF9356
:1020C000DF93CDB7DEB72B970FB6F894DEBF0FBE08
:1020D000CDBF4F83588769877A878B87DE0111963A
:1020E00086E0FD0111928A95E9F785E0FE013796B9
:1020F00001900D928A95E1F749815A816B817C812B
:102100008D819E810E946A162B960FB6F894DEBFD1
:102110000FBECDBFDF91CF910895FC0180819181E9
:102120000E9436190895882309F4BFC0682F8CEFE8
:10213000860F813A38F480911C0190911D010E9414
:10214000FE1A0CC080E2860F883050F4677081E080
:1021500001C0880F6A95EAF70E9478190C94C1199A
:102160008BE5860F833070F4653A29F0663A31F0DA
:1021700083E890E005C081E890E002C082E890E04A
:102180000C94800F88E5860F873108F08EC0683A7E
:1021900009F445C0693A09F445C06A3A09F445C0F2
:1021A0006B3A09F445C06C3A09F445C06B3B09F43D
:1021B00045C06C3B09F445C06D3A09F445C0603B2D
:1021C00009F445C06E3A09F445C06F3A09F445C0B8
:1021D000613B09F445C0623B09F445C0633B09F427
:1021E00045C0643B09F445C0653B09F445C0663B06
:1021F00009F445C0673B09F445C0683B09F445C094
:10220000693B09F445C06D3B09F445C06E3B09F4D8
:1022100045C06A3B09F445C080E090E044C082EECE
:1022200090E041C089EE90E03EC08AEE90E03BC075
:1022300085EB90E038C086EB90E035C083EB90E012
:1022400032C084EB90E02FC087EB90E02CC08CEC88
:1022500090E029C08DEC90E026C083E891E023C097
:102260008AE891E020C082E991E01DC084E991E014
:102270001AC081E292E017C083E292E014C084E2C7
:1022800092E011C085E292E00EC086E292E00BC0BF
:1022900087E292E008C08FE690E005C080E790E01A
:1022A00002C08AE292E00C94960F0895882349F1C7
:1022B000682F8CEF860F813A38F480911C01909141
:1022C0001D010E94001B0CC080E2860F883050F474
:1022D000677081E001C0880F6A95EAF70E947E1955
:1022E0000C94C1198BE5860F833020F480E090E0D8
:1022F0000C94800F685A673120F480E090E00C94D1
:10230000960F0895CF93C82F0E949310C93349F4B4
:102310002FEF87EE93E0215080409040E1F700C01E
:1023200000008C2FCF910C945611882321F00E942D
:1023300078190C94C1190895882321F00E947E1900
:102340000C94C1190895BF92CF92DF92EF92FF9241
:102350000F931F93CF93DF937C01062FC72FFC01B0
:10236000D581D295DF70128111110E9495190E94BA
:102370006E19882379F0112369F080E2800F88308C
:1023800048F082E00E940C1A0E946E1991E0B82E6B
:10239000B92601C0B12CCC2EC2948FE0C822D12C1A
:1023A000F601EA5AFF4F0C9474228C2F807FCF7075
:1023B000882311F0C295C07F112399F0CC2309F432
:1023C0006CC180E2800F883010F0011104C08C2FA6
:1023D0000E94781903C08C2F0E9488190E94C1198D
:1023E0005CC1802F0E945611CC2309F47BC180E28E
:1023F000800F883010F0011104C08C2F0E947E19CC
:1024000003C08C2F0E948E190E94C1196BC18C2FA2
:10241000807FCF70803211F0C295C07F002319F009
:102420000130C9F022C0112371F0DD2341F0D13019
:1024300031F40E94A8198C2B0E94AE1953C10E943E
:10244000A8198C2B1DC0DD2319F0D13009F44AC125
:102450000E94B71925C0112321F0D63008F042C1DF
:102460000EC0D53008F03EC11BC0112361F0DD2342
:1024700031F0F701858180FF10C18F7085838C2F2B
:102480000E9495112FC1DD2359F0093309F016C1BF
:10249000FFEF27EE83E0F15020408040E1F70CC1D0
:1024A0008C2F0E949C111EC18C2F837009F049C093
:1024B00011111FC1402F429546954770440F440F9C
:1024C000602F6F70862F90E0A0E0B0E0042E04C073
:1024D000880F991FAA1FBB1F0A94D2F704FF10C0D0
:1024E0000FE010E020E030E004C0000F111F221FB9
:1024F000331F4A95D2F7009510952095309503C06B
:1025000000E010E09801C695C695C370D0E0BC010C
:10251000CD01602B712B822B932BC230D10559F04A
:10252000C330D10559F0219719F00E94AF17E1C0CF
:102530000E949D17DEC00E94C117DBC00E949B173E
:10254000D8C0112319F08C2F817001C08695882383
:1025500009F4CFC0402F429546954770440F440F71
:10256000602F6F70862F90E0A0E0B0E0042E04C0D2
:10257000880F991FAA1FBB1F0A94D2F704FF10C02F
:102580000FE010E020E030E004C0000F111F221F18
:10259000331F4A95D2F7009510952095309503C0CA
:1025A00000E010E09801C695C695C370D0E0BC016C
:1025B000CD01602B712B822B932BC230D10559F0AA
:1025C000C330D10559F0219719F00E94751891C0B8
:1025D0000E9463188EC00E9487188BC00E94D61775
:1025E00088C0CF70112339F08C2F0E94FC17802FE8
:1025F0000E9495117EC0802F0E949C118C2F0E94FA
:102600001D1877C0023F01F128F4003F41F0013F5F
:10261000A1F03FC0033FF9F0043F39F13AC0112364
:1026200041F0D53008F05EC08C2F8F710E944218A7
:1026300059C0D63008F056C0F7CF112339F08C2F8F
:102640008F710E94FC174EC01123C9F38C2F8F711C
:102650000E941D1847C0112329F08C2F8F710E94F2
:10266000E71740C00E94E2173DC0112349F0CF7127
:102670008C2F0E94FC1763E08C2F0E94F71932C048
:1026800081E00E940C1AD23068F182E00E940C1A9C
:1026900029C0112331F0DD2391F2802F0E94931085
:1026A00021C0DD2399F2093349F49FEFE7EEF3E00F
:1026B0009150E040F040E1F700C00000802F0E9400
:1026C000561110C04C2F4F70602FC7010E94E60AB0
:1026D0000E940E1712C04C2F4F70602FC7010E942E
:1026E000E90A0BC028E0C21AD10884E0C816D10458
:1026F00020F40E94690F0E94640ABB20D1F00E945E
:102700006A1980FD16C0F70112820E9464190E94A6
:10271000FC17C7010E94A3130E946419DF91CF9197
:102720001F910F91FF90EF90DF90CF90BF900C948E
:102730001D18DF91CF911F910F91FF90EF90DF90C7
:10274000CF90BF9008950F931F93CF93DF93EC0129
:10275000888199812B813C81232BB9F09F3F11F413
:102760008F3F99F0CE010E94830A882371F068811F
:1027700079818A810E9441198C010E9499180E94D6
:102780009A17B801CE010E94A311DF91CF911F913A
:102790000F9108950E9495190E94A5190C94C119D2
:1027A00080911C0190911D010E94021B0C94CA1380
:1027B0000E9485190C94D013E92FE295EF70F0E098
:1027C0003297EE30F105B0F4EA59FF4F0C947422C1
:1027D000803F91F018F4883E68F40EC0843F51F4B5
:1027E0000BC0883E48F0813F29F406C093FB882740
:1027F00080F9089580E0089581E008950E943619D7
:102800000E94DC130895CF93DF9300D000D01F9275
:10281000CDB7DEB70F900F900F900F900F90DF9114
:10282000CF910895CF93DF9300D000D000D0CDB7E3
:10283000DEB726960FB6F894DEBF0FBECDBFDF9190
:10284000CF9108951F93CF93DF93C0917B0116E042
:1028500080917C01C81799F0D0E01C9FF0011D9F6A
:10286000F00D1124E358FE4F408151816281738144
:10287000848195810E9412142196C770E9CFDF915F
:10288000CF911F9108954091AD015091AE0160919B
:10289000AF017091B0018091B1019091B2010C949F
:1028A00012148091B20182958F7009F054C080910A
:1028B000AF01882309F44FC080917B01A0917C0176
:1028C0006091AD017091AE014091B0015091B101A4
:1028D000B6E08A1709F43FC090E041155105C1F1F7
:1028E0007F3F11F46F3FA1F1B89FF001B99FF00D48
:1028F0001124E358FE4F218172132AC020816213F4
:1029000027C02281211124C0238134812417350757
:1029100010F421503109241B350B24363105C0F445
:102920002091B2012F7020612093B20126E0289FF0
:10293000F001299FF00D1124EE57FE4F80818F701A
:10294000806180838DEA91E00E94A3130C9422148D
:1029500001968770BECF0895CF92DF92EF92FF92DB
:102960000F931F93CF93DF93CDB7DEB762970FB668
:10297000F894DEBF0FBECDBF7C0185E0F701DE011C
:102980001D9601900D928A95E1F7D7014C91119611
:102990005C91119712966C9112971396CD90DC90E2
:1029A00014973091AD017091AE018091B00190917A
:1029B000B101009709F453C17F3F19F43F3F09F477
:1029C0004EC10091AF01002309F4CBC02091B201A8
:1029D000C816D90628F0F601E81BF90BCF0104C090
:1029E000809590958C0D9D1D11E08436910578F0B1
:1029F00010E0207F09F0D2C07C2DD98AC88A89894D
:102A00000E9403148DEA91E00E94A313BDC0822F9F
:102A1000807F09F046C0751314C0341312C06111D1
:102A200010C02F7020612093B2010E9443148DEAE0
:102A300091E00E94A3138091B201D70115968C9367
:102A40002EC0CD2819F15F3F11F44F3FF9F0162F3A
:102A500061111CC080917B0120917C0136E08217BE
:102A600009F466C090E0389FF001399FF00D112401
:102A7000E358FE4F7181571306C07081471303C09E
:102A80007281711103C001968770E9CF162F6623FA
:102A900009F410C18091B20181608093B20110E00D
:102AA00009C1751315C0341313C0611111C0809191
:102AB000B201D70115968C93C7010E94A31386E03B
:102AC000F701ADEAB1E001900D928A95E1F763C09C
:102AD0004D875E878D859E856A8B0E94FE136A896D
:102AE0008823D9F16623C9F12091B201822F829502
:102AF0008F7090E0029774F08091AD019091AE01DB
:102B000098878F831986DB86CA862C87CE01079625
:102B10000E94A31386E0F701ADEAB1E001900D92A7
:102B20008A95E1F70E9451140E94431411E0C2C03B
:102B30004D875E878D859E850E943619292F2295A7
:102B40002F7030E0223031050CF0A8C09F7009F0E2
:102B5000A2C0805E883008F4ADC0C7010E94A313F4
:102B6000E5CFC816D90608F453C0F601E81BF90BE7
:102B7000CF018436910508F450C010E07C2DD98A2D
:102B8000C88A89890E940314EDEAF1E086E0DF013A
:102B90001D928A95E9F70E9443148CC0751314C0E6
:102BA000341312C0611110C08091B201F701858306
:102BB000C7010E94A31386E0EDEAF1E0DF011D9258
:102BC0008A95E9F7102F76C04D875E878D859E85A3
:102BD0006A8B0E94FE136A89882309F4BECF66239C
:102BE00009F4BBCF2091B201822F82958F7090E0C3
:102BF00002970CF48FCF8091AD019091AE019A8332
:102C000089831B82DD82CC822E83CE01019680CF08
:102C1000809590958C0D9D1DACCF162F662309F4E1
:102C20009CCF75130BC0341309C086E0F701ADEAE1
:102C3000B1E001900D928A95E1F73CC04D875E8727
:102C40008D859E850E94FE13811164CF8091B20113
:102C500081608093B201C7010E94A3132BC0662339
:102C600009F47BCF4D875E878D859E850E94FE137C
:102C7000182F882309F471CF86E0F701ADEAB1E09F
:102C800001900D928A95E1F78DEA91E00E948D10F6
:102C90000E94511480CF81115CCF0CC024303105CB
:102CA0000CF05BCF9F7009F454CFF7019581907FB2
:102CB00009F04FCF812F62960FB6F894DEBF0FBE9A
:102CC000CDBFDF91CF911F910F91FF90EF90DF90DB
:102CD000CF9008951F93CF93DF93CDB7DEB72C9796
:102CE0000FB6F894DEBF0FBECDBF4F8358876987FC
:102CF0007A878B879C87CE0107960E94AC14882325
:102D000069F08F8198852A853B85232BF1F19F3FC0
:102D100009F063C08F3F09F060C037C086E0FE0154
:102D20003796DE01119601900D928A95E1F76F8139
:102D30007885EA85FB85309741F17F3F11F46F3F3D
:102D400021F120917C0130E0C9010196877099271B
:102D500040917B0150E08417950709F447C06983CF
:102D60007A83FD83EC8396E0929FD001939FB00D10
:102D70001124A358BE4FFE01319601900D929A95F1
:102D8000E1F780937C010E94221416E080917B0180
:102D900090917C018917C1F1189FC00111248358BB
:102DA0009E4F0E94AC14882379F1E0917B011E9F15
:102DB000F0011124E358FE4F4081518162817381FB
:102DC000848195810E94121480917B0190E001968C
:102DD0008770992780937B01D9CF4F81588569856A
:102DE0007A858B859C850E941214CFCF0E94D813C0
:102DF00010927C0110927B01EDEAF1E086E0DF01A8
:102E00001D928A95E9F7C1CF2C960FB6F894DEBFD4
:102E10000FBECDBFDF91CF911F910895EF92FF922A
:102E20000F931F93CF93DF938C01892B09F46CC010
:102E3000F12CEE24E394E8012196F8018491843783
:102E400040F4843008F051C0813081F0823019F1B3
:102E50005BC0853709F444C0A8F19CE7980F903710
:102E600008F052C08F770E94561141C00E5F1F4F6D
:102E7000FE01C49180E28C0F883048F4C7708E2D1B
:102E800001C0880FCA95EAF70E94981914C08C2FC8
:102E90000E9493102DC00E5F1F4FFE01C49180E26F
:102EA0008C0F883058F4C7708E2D01C0880FCA95DA
:102EB000EAF70E949E190E94C1191AC08C2F0E9425
:102EC000561116C00E5F1F4FFE01C491CC2381F036
:102ED0008FE99FE00197F1F700C00000C150F6CFE5
:102EE0000E5F1F4FFE01F49003C00E9493108E01ED
:102EF0008F2D882309F49FCFEFE9FFE03197F1F799
:102F000000C000008150F5CFDF91CF911F910F914C
:102F1000FF90EF90089508950C948B170E948C17E2
:102F20006093E4017093E5018093E6019093E701DB
:102F30000C94CA1308950C948E170F931F9300914D
:102F4000E4011091E5012091E6013091E701602B49
:102F5000712B822B932B1F910F910C948E170F9333
:102F60001F930091E4011091E5012091E601309159
:102F7000E70160237123822393231F910F910C9407
:102F80008E170F931F930091E4011091E50120919A
:102F9000E6013091E70160277127822793271F916F
:102FA0000F910C948E1708950C94D3170E94D41788
:102FB0006093E0017093E1018093E2019093E3015B
:102FC0000C94CA1360E070E0CB010C94D6170F93F9
:102FD0001F9341E050E060E070E08A019B0104C073
:102FE000000F111F221F331F8A95D2F7C901B801A4
:102FF0001F910F910C94D6170F931F9341E050E04F
:1030000060E070E004C0440F551F661F771F8A956B
:10301000D2F78091E0019091E101A091E201B0919D
:10302000E3018A019B01082B192B2A2B3B2BC90199
:10303000B8011F910F910C94D6170F931F9341E085
:1030400050E060E070E004C0440F551F661F771F1A
:103050008A95D2F740955095609570958091E001E2
:103060009091E101A091E201B091E3018A019B01FD
:10307000082319232A233B23C901B8011F910F916B
:103080000C94D6170F931F9341E050E060E070E07E
:1030900004C0440F551F661F771F8A95D2F7809191
:1030A000E0019091E101A091E201B091E3018A0178
:1030B0009B01082719272A273B27C901B8011F911F
:1030C0000F910C94D6170F931F930091E00110916C
:1030D000E1012091E2013091E301602B712B822B01
:1030E000932B1F910F910C94D6170F931F93009160
:1030F000E0011091E1012091E2013091E3016023B0
:103100007123822393231F910F910C94D6170F9351
:103110001F930091E0011091E1012091E2013091B3
:10312000E30160277127822793271F910F910C9449
:10313000D617089527E0929F800D1124A82FA695F9
:10314000A695A695877051E001C0550F8A95EAF7BC
:1031500085E0A89FD001112420E030E070E0F90163
:10316000EA0FFB1FED54FE4F4081CB01022E02C03F
:10317000969587950A94E2F781709927819584271F
:103180008523842780832F5F3F4F2530310539F712
:10319000089527E0929F800D1124682F669566950B
:1031A0006695982F977085E0689FB001112440E0E4
:1031B00050E080E0FA01E60FF71FED54FE4F20814A
:1031C00030E0092E02C0369527950A94E2F7217067
:1031D0003327042E01C0220F0A94EAF7822B4F5F97
:1031E0005F4F4530510531F70895BF92CF92DF927E
:1031F000EF92FF920F931F93CF93DF938C01C090B8
:10320000E401D090E501E090E601F090E7018091C3
:10321000E0019091E101A091E201B091E301C82A9F
:10322000D92AEA2AFB2ACFE1D0E0D701C6010C2E29
:1032300004C0B695A795979587950A94D2F780FF15
:1032400007C0BC2EB8018C2F0E94040B019719F403
:10325000219758F7B12C8B2DDF91CF911F910F91B2
:10326000FF90EF90DF90CF90BF900895CF93DF93C2
:10327000EC010E94F518BE010E94040BDF91CF9172
:1032800008951F93CF93DF93EB0190917A019923D7
:1032900021F0CB010E94361913C0882349F0CB01DD
:1032A0000E94F518182F682FCE010E949A1804C0AA
:1032B000CB010E94C918182FBE01812F0E94040B58
:1032C000DF91CF911F9108958091E80185958595B3
:1032D000859508958091E801877008959091E8019F
:1032E000977081E009F480E008958091F4010895D9
:1032F0009091F401892B8093F40108958095909129
:10330000F40189238093F40108951092F401089543
:103310009091F301892B8093F3010895809590910A
:10332000F30189238093F30108951092F301089526
:103330009091F201892B8093F201089580959091EC
:10334000F20189238093F20108951092F201089509
:103350008091E901089508950C94AB199091E901C9
:10336000981721F08093E9010C94AC19089580918D
:10337000E901882329F01092E90180E00C94AC194E
:103380000895E0911C01F0911D018091F40180836A
:10339000E0911C01F0911D0190818091F301892B36
:1033A0008083E0911C01F0911D0190818091F201D8
:1033B000892B80838091E901882381F0E0911C01B1
:1033C000F0911D019081892B808380911C01909147
:1033D0001D010E94CC1A81110E94B71980911C0115
:1033E00090911D010C94750F08950C94F41998E0B8
:1033F000899F90011124262B2093E8010E94FC173D
:103400008091E8018595859585950C94F519109224
:10341000E80180E00C94F5192091E8018095822361
:103420008093E801982F977079F430E0482F082EA8
:10343000000C550B2417350739F085958595859532
:103440000E941D180C94071A089580E090E00E94D5
:103450008F2221E08C3E9E4F09F020E0822F0895BC
:1034600082E090E00C94872283E090E00C94872225
:10347000CF9384E090E00E948722C82F81E290E001
:103480000E9487222C2F30E0A901582BCA01CF912E
:103490000895CF93C92F682F84E090E00E94952271
:1034A0006C2F81E290E0CF910C949522AB01BC018E
:1034B0008FE090E00C94A722AB01BC0183E190E087
:1034C0000C94A72260E070E0CB010C945C1A60E0E1
:1034D00070E0CB010E94561A0C94621A6CEE7EEFDB
:1034E00080E090E00E94B32260E082E090E00E94E1
:1034F000952260E083E090E00E9495221092E40122
:103500001092E5011092E6011092E70160E084E07C
:1035100090E00E94952260E081E290E00E94952276
:1035200060E085E090E00E94952260E086E090E017
:103530000E9495226FEF87E090E00E94952240E084
:1035400050E0BA0188E090E00E94A72260E08DE0A0
:1035500090E00E94952240E050E0BA0188E190E0BE
:103560000E94A72260E087E190E00E94952240E05F
:1035700050E0BA018CE190E00E94A72260E080E276
:1035800090E00E9495220C94671A0C946E1A682F92
:103590008EE090E00C949522FC01329697E080E05A
:1035A000915029F021912223D9F38F5FF9CF08950B
:1035B0009C01FC0132969FEF80E04191461789F013
:1035C0009F3F19F4411101C0982F8F5F8630A9F7F2
:1035D0009F3F39F0F901E90FF11D97FDFA956283DC
:1035E00008950895FC01329608962081261301C0A3
:1035F00010823196E817F907C1F708950C94D81A8C
:103600000C94F21A029626E0FC0111922A95E9F731
:10361000089508950C94091B0E940A1B80911C02B6
:10362000843049F11092F60120E488E190E00FB671
:10363000F894A895809360000FBE2093600080E00E
:103640000E94640A0E940A1B83B7817F846083BF43
:1036500083B7816083BF7894889583B78E7F83BF5B
:103660000FB6F894A89580916000886180936000FF
:10367000109260000FBE089508950895CF930E94A0
:103680003C1B0E9430090E943D1BC0E08C2F0E9411
:103690009309811104C0CF5FCA30C1F701C081E036
:1036A000CF91089508950C94521B0E94D8130E9444
:1036B000690F0E94640A0C94531B1F920F920FB65D
:1036C0000F9211248F939F93AF93BF938091F60134
:1036D000811113C08091120290911302A0911402E3
:1036E000B09115024196A11DB11D809312029093D5
:1036F0001302A0931402B0931502BF91AF919F9152
:103700008F910F900FBE0F901F90189582E084BD8F
:1037100093E095BD9AEF97BD80936E0008952FB703
:10372000F8948091120290911302A0911402B0912A
:1037300015022FBF0895CF92DF92EF92FF920F9361
:103740001F932FB7F8944091120250911302609189
:103750001402709115022FBF6A017B01EE24FF2431
:103760008C0120E030E0C016D106E206F30610F42A
:10377000415051099A01281B390BC9011F910F9122
:10378000FF90EF90DF90CF90089578941F920F9262
:103790000FB60F9211248F939F93AF93BF93809195
:1037A000120290911302A0911402B0911502019699
:1037B000A11DB11D8093120290931302A0931402D5
:1037C000B0931502BF91AF919F918F910F900FBE53
:1037D0000F901F90189587E797E7909301088093C3
:1037E00000089AE088E10FB6F894A89580936000ED
:1037F0000FBE90936000FFCF0E94251A811102C076
:103800000E94C51A0E94301A8093F5010E94381A4E
:1038100090931702809316020E94341A682F70E06A
:1038200080E090E00C949B178091FF01089508952B
:1038300008950895CF93DF93EC010E94BB1D823061
:1038400011F0843039F581E08093E9008FEF909199
:10385000E800815095FD06C095ED9A95F1F70000BE
:103860008111F5CF8091E80085FF14C040E050E061
:1038700068E070E0CE010E94D81D8091E8008E774C
:103880008093E80088E0FE01A7EFB1E001900D927F
:103890008A95E1F7DF91CF91089580911B02811104
:1038A00009C00E946D1F0E94CA1F8091E2008460BF
:1038B0008093E200089510921B02089508950895E0
:1038C0000C94551B42E061EC81E00C94E71E809162
:1038D0001E02833009F460C030F4813071F0823010
:1038E00009F499C008958A3009F485C08B3009F431
:1038F0006BC0893009F0A7C020C080911D02813AB9
:1039000009F0A1C08091E800877F8093E800809152
:10391000210290912202892B21F468E087EF91E047
:1039200003C060E080E090E070E00E94231E809180
:10393000E8008B778093E800089580911D02813222
:1039400009F081C08091210290912202892B09F017
:103950007AC08091E800877F8093E8008091E8003A
:1039600082FD05C080911C028111F8CF6CC02091AE
:10397000F3008091F20090E0922B029729F480915D
:10398000F1008B7F813021F48091F1008093FF0161
:103990008091E8008B7753C080911D02813A09F035
:1039A00052C08091210290912202892B09F04BC0D4
:1039B0008091E800877F8093E8008091E80080FF95
:1039C000FCCF8091280136C080911D028132D9F54B
:1039D0008091210290912202892BA9F58091E80023
:1039E000877F8093E8000E941C1F80911F028093B4
:1039F00028010C94D81380911D02813221F5809109
:103A0000E800877F8093E8000E941C1F80912002BD
:103A100080930002089580911D02813AA1F4809163
:103A2000E800877F8093E8008091E80080FFFCCF6A
:103A3000809100028093F1008091E8008E7780935E
:103A4000E8000C941C1F089584B7877F84BF0FB6CD
:103A5000F894A8958091600088618093600010922E
:103A600060000FBE90E080E80FB6F894809361008C
:103A7000909361000FBE0E94BA0F0E946D1F0E94BA
:103A8000CA1F8091E20084608093E20078940E94D3
:103A900059220E94C20F8EE191E00E94640F809132
:103AA0001C02853069F40E940C1B80911A02882345
:103AB000B1F30E943E1B882391F30E94C21DEFCFF9
:103AC0000E94CA0FECCF0C94651D292F3327233099
:103AD0003105C1F05CF42130310579F02230310537
:103AE000D1F582E290E020E83AE039C02132310598
:103AF00021F12232310541F12EC082E190E022EA2B
:103B00003AE02DC099278130910571F02CF4892B72
:103B100011F5ECE7FAE00DC08230910541F0039712
:103B2000D1F4E8E4FAE005C0E6E6FAE002C0EEE42B
:103B3000FAE0849190E09F0112C0672B61F489E064
:103B400090E022E93AE00BC0672B29F480E490E092
:103B500024EB3AE004C080E090E020E030E0FA019D
:103B600031832083089580911C02843011F081E01C
:103B7000089582E0089580910102811102C00C94A1
:103B8000B31D089580E189BD82E189BD09B400FEBD
:103B9000FDCF8091D8008F7D8093D8008091E00088
:103BA00082608093E0008091E00081FDFCCF089569
:103BB000CF92DF92EF92FF920F931F93CF93DF93F9
:103BC000EC018B016A010E943B1F811133C0C114BB
:103BD000D10439F0F60180819181081B190BC80FBF
:103BE000D91FE12CF12C0115110519F18091E80084
:103BF00085FD16C08091E8008E778093E800C1149F
:103C0000D10449F0F60180819181E80EF91EF1821C
:103C1000E08285E00FC00E943B1F882321F30AC089
:103C200089918093F10001501109FFEFEF1AFF0A0B
:103C3000DACF80E0DF91CF911F910F91FF90EF904D
:103C4000DF90CF900895209123023091240226170F
:103C5000370748F06115710539F42091E8002E7797
:103C60002093E80001C0B90140E061157105A9F198
:103C700020911C02222309F443C0253009F442C0DC
:103C80002091E80023FD40C02091E80022FD32C0D1
:103C90002091E80020FFE9CF4091F3002091F2004D
:103CA00030E0342BFC01CF016115710559F028304B
:103CB000310540F481918093F100615071092F5FCB
:103CC0003F4FF1CF41E02830310509F040E020912D
:103CD000E8002E772093E800C8CF4111C9CF0AC071
:103CE00080911C02882361F0853061F08091E800AA
:103CF00083FD0AC08091E80082FFF2CF80E0089542
:103D000082E0089583E0089581E0089520912302E0
:103D1000309124022617370748F06115710539F4F0
:103D20002091E8002E772093E80001C0B901FC0142
:103D300020E06115710591F180911C02882309F43E
:103D400040C0853009F43FC08091E80083FD3DC04C
:103D50008091E80082FD2FC08091E80080FFE9CFCC
:103D60002091F3008091F20090E0922B6115710593
:103D700059F08830910540F424912093F100319658
:103D8000615071090196F2CF21E0089709F020E017
:103D90008091E8008E778093E800CBCF2111CCCFC3
:103DA0000AC080911C02882361F0853061F0809107
:103DB000E80083FD0AC08091E80082FFF2CF80E036
:103DC000089582E0089583E0089581E00895982F92
:103DD000973058F59093E900981739F07091EC00FE
:103DE0002091ED005091F00003C0242F762F50E079
:103DF00021FF19C03091EB003E7F3093EB003091F2
:103E0000ED003D7F3093ED003091EB003160309359
:103E1000EB007093EC002093ED005093F0002091A4
:103E2000EE0027FF07C09F5FD3CF8F708093E9001C
:103E300081E0089580E0089580911D0287FF11C000
:103E40008091E80082FD05C080911C028111F8CFAD
:103E500011C08091E8008B770BC080911C028823F1
:103E600049F08091E80080FFF8CF8091E8008E77DC
:103E70008093E80008952091E4003091E50095E6F4
:103E80004091EC00842F817040FF22C08091E800B7
:103E900080FD1CC080911C02882391F0853091F038
:103EA0008091EB0085FD10C04091E4005091E50049
:103EB0004217530729F39A01915011F784E00895AE
:103EC00082E0089583E0089581E0089580E00895F8
:103ED0004091E80042FFDECF08950E94DB1F0E9460
:103EE000E31FE0EEF0E0808181608083E8EDF0E0A8
:103EF00080818F77808319BCA7EDB0E08C918E7F95
:103F00008C9380818F7E808310921B0208950F9383
:103F10001F93CF93DF930E94DB1F0E94E31FC8ED26
:103F2000D0E088818F7788838881806888838881C2
:103F30008F7D888319BC10921C0210921802109277
:103F40001A021092190200EE10E0F80180818B7FB6
:103F5000808388818160888342E060E080E00E9405
:103F6000E71EE1EEF0E080818E7F8083E2EEF0E0FC
:103F7000808181608083808188608083F801808176
:103F80008E7F8083888180618883DF91CF911F91AC
:103F90000F910895E8EDF0E080818F7E8083E7ED5A
:103FA000F0E080818160808384E082BF81E0809343
:103FB0001B020C94871FE8EDF0E080818E7F8083E8
:103FC0001092E20008951092DA001092E100089534
:103FD0001F920F920FB60F9211242F933F934F937E
:103FE0005F936F937F938F939F93AF93BF93EF9361
:103FF000FF938091E10082FF0BC08091E20082FF7D
:1040000007C08091E1008B7F8093E1000E945822DD
:104010008091DA0080FF1FC08091D80080FF1BC014
:104020008091DA008E7F8093DA008091D90080FF42
:104030000DC080E189BD82E189BD09B400FEFDCFDC
:1040400081E080931C020E944D1C05C019BC109297
:104050001C020E945B1C8091E10080FF19C08091CE
:10406000E20080FF15C08091E2008E7F8093E20025
:104070008091E20080618093E2008091D8008062AC
:104080008093D80019BC85E080931C020E945F1CBD
:104090008091E10084FF30C08091E20084FF2CC059
:1040A00080E189BD82E189BD09B400FEFDCF809128
:1040B000D8008F7D8093D8008091E1008F7E80931F
:1040C000E1008091E2008F7E8093E2008091E20027
:1040D00081608093E20080911802882311F084E0CF
:1040E00007C08091E30087FD02C081E001C083E04A
:1040F00080931C020E94601C8091E10083FF29C014
:104100008091E20083FF25C08091E100877F80934A
:10411000E10082E080931C02109218028091E1007D
:104120008E7F8093E1008091E2008E7F8093E20099
:104130008091E20080618093E20042E060E080E0F4
:104140000E94E71E8091F00088608093F0000E943A
:104150005E1CFF91EF91BF91AF919F918F917F91E5
:104160006F915F914F913F912F910F900FBE0F90E4
:104170001F9018951F920F920FB60F9211242F9334
:104180003F934F935F936F937F938F939F93AF93DF
:10419000BF93CF93DF93EF93FF93C091E900CF706C
:1041A0008091EC00D82FD17080FDD0E81092E9000A
:1041B0008091F000877F8093F00078940E94FE2029
:1041C0001092E9008091F00088608093F000CD2B80
:1041D000CF70C093E900FF91EF91DF91CF91BF9134
:1041E000AF919F918F917F916F915F914F913F918F
:1041F0002F910F900FBE0F901F9018951F93CF9384
:10420000DF93CDB7DEB7AA970FB6F894DEBF0FBE27
:10421000CDBFEDE1F2E088E08E0F9091F100919337
:104220008E13FBCF0E94671C8091E80083FF28C19A
:1042300080911D0290911E02492F50E04A30510595
:1042400008F01EC1FA01EC58FF4F0C94742280381C
:1042500021F0823809F014C108C0809119029091B0
:104260001A02992389F082600FC0809121028F7019
:10427000873008F005C18093E9008091EB0085FB51
:10428000882780F91092E9009091E800977F909339
:10429000E8008093F1001092F100D0C0282F2D7F0C
:1042A00009F0EEC0882319F0823061F0E9C08091F6
:1042B0001F02813009F0E4C0933009F080E0809360
:1042C0001A022EC080911F0281112AC08091210202
:1042D0008F702FEF280F263008F0D2C08093E900AE
:1042E0002091EB0020FF1CC0933021F48091EB0063
:1042F000806214C09091EB0090619093EB0021E0FC
:1043000030E0A90102C0440F551F8A95E2F740939F
:10431000EA001092EA008091EB0088608093EB0045
:104320001092E9008091E800877F8093E8000E9466
:104330001C1FA6C08111A4C010911F021F7780917D
:10434000E3008078812B8093E3008091E800877FF1
:104350008093E8000E941C1F8091E80080FFFCCF42
:104360008091E30080688093E300111102C082E035
:1043700001C083E080931C0283C08058823008F023
:104380007FC080911F02909120028C3D53E09507E1
:1043900079F583E08A838AE289834FB7F894DE0156
:1043A000139620E03EE051E2E32FF0E050935700F7
:1043B000E49120FF03C0E295EF703F5FEF708E2F16
:1043C00090E0EA3010F0C79601C0C0968D939D939F
:1043D0002F5F243149F74FBF8091E800877F80939A
:1043E000E8006AE270E0CE0101960E94231E15C02B
:1043F0006091210270912202AE014F5F5F4F0E94D7
:10440000631DBC01892BE1F19091E800977F9093A7
:10441000E80089819A810E94861E8091E8008B774E
:104420008093E8002DC0803859F58091E800877F9F
:104430008093E800809118028093F1008091E80059
:104440008E7773CF81111CC090911F029230C0F4FF
:104450008091E800877F8093E800909318020E9483
:104460001C1F80911802811106C08091E30087FD16
:1044700002C081E001C084E080931C020E94621CA3
:104480008091E80083FF0AC08091E800877F8093D5
:10449000E8008091EB0080628093EB00AA960FB653
:1044A000F894DEBF0FBECDBFDF91CF911F9108956D
:1044B0000895CF9380911C028823A1F0C091E90058
:1044C000CF709091EC00892F817090FD80E8C82B0F
:1044D0001092E9008091E80083FD0E94FE20CF70D9
:1044E000C093E900CF910895EE0FFF1F0590F4915E
:1044F000E02D0994FB01DC0104C08D91019080192D
:1045000021F441505040C8F7881B990B0895F99940
:10451000FECF92BD81BDF89A992780B50895A8E194
:10452000B0E042E050E00C94BB22262FF999FECF78
:1045300092BD81BDF89A019700B4021639F01FBAF6
:1045400020BD0FB6F894FA9AF99A0FBE0895039613
:10455000272F0E9496220E949522252F0E949622A4
:10456000242F0C9496220196272F0E9496220C94B9
:104570009522DC01CB01FC01F999FECF06C0F2BD0A
:10458000E1BDF89A319600B40D9241505040B8F711
:064590000895F894FFCF2E
:1045960005015A010000000158015A01055B01019D
:1045A60058015901000000056001FFFFEA01141CD3
:1045B6001A1C171C181C191C01F4F5F6F7313332B6
:0A45C600946697C634000000000060
:00000001FF
